:020000040800F2
:100000000080002091C7020817F00108C103000812
:1000100021F001081FF001081DF001080000000098
:100020000000000000000000000000001BF00108BC
:1000300019F001080000000015F00108B5EF0108F3
:10004000C9010008CB010008CD010008CF0100085C
:10005000D1010008D3010008D5010008D70100082C
:10006000D9010008DB010008DD010008DF010008FC
:10007000E1010008E3010008E5010008E7010008CC
:10008000E9010008EB010008ED010008EF0100089C
:10009000F1010008F3010008F5010008F70100086C
:1000A000F9010008FB010008FD010008FF0100083C
:1000B000B941000803020008050200080702000811
:1000C000090200080B0200080D0200080F020008D8
:1000D000110200088DC70208150200081702000867
:1000E000190200081B0200081D0200081F02000878
:1000F0002102000823020008250200082702000848
:1001000029020008417502082D0200082F0200088C
:1001100031020008330200083502000837020008E7
:10012000390200083B0200083D0200082975020858
:10013000A9EF010843020008450200084702000831
:10014000490200084B0200084D0200084F02000857
:1001500051020008357502089DEF010889C70208A1
:10016000590200085B0200085D0200085F020008F7
:1001700061020008B9E30108650200080000000000
:1001800067020008690200086B0200086D0200089F
:100190006F0200087102000873020008750200086F
:1001A00077020008790200087B0200087D0200083F
:1001B0007F0200088102000883020008850200080F
:1001C0008702000889020008FEE7FEE7FEE7FEE777
:1001D000FEE7FEE7FEE7FEE7FEE7FEE7FEE7FEE7F7
:1001E000FEE7FEE7FEE7FEE7FEE7FEE7FEE7FEE7E7
:1001F000FEE7FEE7FEE7FEE7FEE7FEE7FEE7FEE7D7
:10020000FEE7FEE7FEE7FEE7FEE7FEE7FEE7FEE7C6
:10021000FEE7FEE7FEE7FEE7FEE7FEE7FEE7FEE7B6
:10022000FEE7FEE7FEE7FEE7FEE7FEE7FEE7FEE7A6
:10023000FEE7FEE7FEE7FEE7FEE7FEE7FEE7FEE796
:10024000FEE7FEE7FEE7FEE7FEE7FEE7FEE7FEE786
:10025000FEE7FEE7FEE7FEE7FEE7FEE7FEE7FEE776
:10026000FEE7FEE7FEE7FEE7FEE7FEE7FEE7FEE766
:10027000FEE7FEE7FEE7FEE7FEE7FEE7FEE7FEE756
:0C028000FEE7FEE7FEE7FEE7FEE70000F9
:1002900010B5054C237833B9044B13B10448AFF3C0
:1002A00000800123237010BDC084002000000000E6
:1002B000743B0308084B10B51BB108490848AFF35D
:1002C00000800848036803B910BD074B002BFBD022
:1002D000BDE81040184700BF00000000C4840020A3
:1002E000743B0308B4840020000000004B1C012B69
:1002F00098BF70472DE9F003911C9B08B1F804806A
:10030000B1F802900A8831F802CC8044814402445A
:100310008444D9F80070D8F800601568DCF8004013
:10032000C9F80060C8F80070CCF800501460D9F823
:100330000470D8F804605568DCF80440C9F804601B
:10034000C8F80470CCF8045054600831013BD5D192
:10035000BDE8F00370474B1C012B98BF70472DE997
:10036000F003911C9B08B1F80480B1F802900A8850
:1003700031F802CC00EB580800EB590900EB5202AF
:1003800000EB5C0CD9F80070D8F800601568DCF858
:100390000040C9F80060C8F80070CCF80050146044
:1003A0000831013BDFD1BDE8F0037047B4260908EE
:1003B00000800020B4840020C0840020F86704205E
:1003C0001EF0040F0CBFEFF30880EFF30980816982
:1003D000FEE700BF034613F8012B002AFBD1181AD1
:1003E000013870470000000000000000000000001D
:1003F00001F0FF01102A2BDB10F0070F08D010F8D6
:10040000013B013A8B422DD010F0070F42B3F6D1D9
:10041000F0B441EA012141EA014122F007047FF0F2
:1004200000070023F0E80256083C85EA010586EA49
:10043000010685FA47F5A3FA87F586FA47F6A5FA85
:1004400087F68EB9EED1F0BC01F0FF0102F0070291
:1004500032B110F8013B013A83EA010313B1F8D13C
:100460000020704701387047002D06BF354603381D
:10047000073815F0010F07D1013015F4807F02BF56
:10048000013015F4C03F0130F0BC0138704700BFA7
:1004900010F8012B11F8013B012A28BF9A42F7D02E
:1004A000D01A704781F0004102E000BF83F00043A2
:1004B00030B54FEA41044FEA430594EA050F08BFFF
:1004C00090EA020F1FBF54EA000C55EA020C7FEAC3
:1004D000645C7FEA655C00F0E2804FEA5454D4EB40
:1004E0005555B8BF6D420CDD2C4480EA020281EA0A
:1004F000030382EA000083EA010180EA020281EA42
:100500000303362D88BF30BD11F0004F4FEA013193
:100510004FF4801C4CEA113102D0404261EB4101A2
:1005200013F0004F4FEA03334CEA133302D0524228
:1005300063EB430394EA050F00F0A780A4F10104E4
:10054000D5F1200E0DDB02FA0EFC22FA05F280181E
:1005500041F1000103FA0EF2801843FA05F3594104
:100560000EE0A5F120050EF1200E012A03FA0EFC83
:1005700028BF4CF0020C43FA05F3C01851EBE371AD
:1005800001F0004507D54FF0000EDCF1000C7EEBCA
:1005900000006EEB0101B1F5801F1BD3B1F5001F08
:1005A0000CD349085FEA30004FEA3C0C04F1010427
:1005B0004FEA445212F5800F80F09A80BCF1004F50
:1005C00008BF5FEA500C50F1000041EB045141EAD2
:1005D000050130BD5FEA4C0C404141EB010111F4D3
:1005E000801FA4F10104E9D191F0000F04BF01467E
:1005F0000020B1FA81F308BF2033A3F10B03B3F15C
:1006000020020CDA0C3208DD02F1140CC2F10C02EB
:1006100001FA0CF021FA02F10CE002F11402D8BF49
:10062000C2F1200C01FA02F120FA0CFCDCBF41EA15
:100630000C019040E41AA2BF01EB0451294330BDE4
:100640006FEA04041F3C1CDA0C340EDC04F11404C1
:10065000C4F1200220FA04F001FA02F340EA030098
:1006600021FA04F345EA030130BDC4F10C04C4F1DE
:10067000200220FA02F001FA04F340EA03002946BE
:1006800030BD21FA04F0294630BD94F0000F83F408
:10069000801306BF81F480110134013D4EE77FEAEB
:1006A000645C18BF7FEA655C29D094EA050F08BF37
:1006B00090EA020F05D054EA000C04BF1946104618
:1006C00030BD91EA030F1EBF0021002030BD5FEA5C
:1006D000545C05D14000494128BF41F0004130BD84
:1006E00014F580043CBF01F5801130BD01F00045D8
:1006F00045F0FE4141F470014FF0000030BD7FEA4B
:10070000645C1ABF194610467FEA655C1CBF0B4645
:10071000024650EA013406BF52EA033591EA030F5C
:1007200041F4002130BD00BF90F0000F04BF002154
:10073000704730B54FF4806404F132044FF0000587
:100740004FF0000150E700BF90F0000F04BF002100
:10075000704730B54FF4806404F1320410F0004566
:1007600048BF40424FF000013EE700BF42004FEA61
:10077000E2014FEA31014FEA02701FBF12F07F43DE
:1007800093F07F4F81F06051704792F0000F14BFDB
:1007900093F07F4F704730B54FF4607401F000451F
:1007A00021F0004120E700BF50EA010208BF704776
:1007B00030B54FF000050AE050EA010208BF70476B
:1007C00030B511F0004502D5404261EB41014FF4D4
:1007D000806404F132045FEA915C3FF4DCAE4FF0D8
:1007E00003025FEADC0C18BF03325FEADC0C18BFBF
:1007F000033202EBDC02C2F1200300FA03FC20FA10
:1008000002F001FA03FE40EA0E0021FA02F114445C
:10081000C1E600BF70B54FF0FF0C4CF4E06C1CEA71
:1008200011541DBF1CEA135594EA0C0F95EA0C0FE6
:1008300000F0DEF82C4481EA030621EA4C5123EA59
:100840004C5350EA013518BF52EA033541F4801188
:1008500043F4801338D0A0FB02CE4FF00005E1FB3B
:1008600002E506F00042E0FB03E54FF00006E1FB85
:1008700003569CF0000F18BF4EF0010EA4F1FF04C8
:10088000B6F5007F64F5407404D25FEA4E0E6D4108
:1008900046EB060642EAC62141EA55514FEAC52019
:1008A00040EA5E504FEACE2EB4F1FD0C88BFBCF595
:1008B000E06F1ED8BEF1004F08BF5FEA500E50F146
:1008C000000041EB045170BD06F0004646EA01010C
:1008D00040EA020081EA0301B4EB5C04C2BFD4EB3E
:1008E0000C0541EA045170BD41F480114FF0000E37
:1008F000013C00F3AB8014F1360FDEBF002001F0A5
:10090000004170BDC4F10004203C35DA0C341BDC1E
:1009100004F11404C4F1200500FA05F320FA04F0F0
:1009200001FA05F240EA020001F0004221F0004124
:1009300010EBD37021FA04F642EB06015EEA430E97
:1009400008BF20EAD37070BDC4F10C04C4F12005C7
:1009500000FA04F320FA05F001FA04F240EA02007A
:1009600001F0004110EBD37041F100015EEA430E4B
:1009700008BF20EAD37070BDC4F1200500FA05F26B
:100980004EEA020E20FA04F301FA05F243EA0203EA
:1009900021FA04F001F0004121FA04F220EA0200F9
:1009A00000EBD3705EEA430E08BF20EAD37070BD3F
:1009B00094F0000F0FD101F00046400041EB01011F
:1009C00011F4801F08BF013CF7D041EA060195F001
:1009D000000F18BF704703F00046520043EB0303BB
:1009E00013F4801F08BF013DF7D043EA06037047A8
:1009F00094EA0C0F0CEA135518BF95EA0C0F0CD0B3
:100A000050EA410618BF52EA4306D1D181EA0301F8
:100A100001F000414FF0000070BD50EA410606BFF2
:100A20001046194652EA430619D094EA0C0F02D137
:100A300050EA013613D195EA0C0F05D152EA03367C
:100A40001CBF104619460AD181EA030101F000419A
:100A500041F0FE4141F470014FF0000070BD41F0E3
:100A6000FE4141F4780170BD70B54FF0FF0C4CF4BD
:100A7000E06C1CEA11541DBF1CEA135594EA0C0FDC
:100A800095EA0C0F00F0A7F8A4EB050481EA030E29
:100A900052EA03354FEA013100F088804FEA033310
:100AA0004FF0805545EA131343EA12634FEA0222DE
:100AB00045EA111545EA10654FEA00260EF000419F
:100AC0009D4208BF964244F1FD0404F5407402D2F1
:100AD0005B084FEA3202B61A65EB03055B084FEA82
:100AE00032024FF480104FF4002CB6EB020E75EB7F
:100AF000030E22BFB61A754640EA0C005B084FEAA7
:100B00003202B6EB020E75EB030E22BFB61A754623
:100B100040EA5C005B084FEA3202B6EB020E75EB6E
:100B2000030E22BFB61A754640EA9C005B084FEAE6
:100B30003202B6EB020E75EB030E22BFB61A7546F3
:100B400040EADC0055EA060E18D04FEA051545EAE2
:100B500016754FEA06164FEAC30343EA52734FEA8B
:100B6000C2025FEA1C1CC0D111F4801F0BD141EA04
:100B700000014FF000004FF0004CB6E711F4801F69
:100B800004BF01430020B4F1FD0C88BFBCF5E06F49
:100B90003FF6AFAEB5EB030C04BFB6EB020C5FEA59
:100BA000500C50F1000041EB045170BD0EF0004EAE
:100BB0004EEA113114EB5C04C2BFD4EB0C0541EAE0
:100BC000045170BD41F480114FF0000E013C90E6DD
:100BD00045EA060E8DE60CEA135594EA0C0F08BFA1
:100BE00095EA0C0F3FF43BAF94EA0C0F0AD150EAA0
:100BF00001347FF434AF95EA0C0F7FF425AF104633
:100C000019462CE795EA0C0F06D152EA03353FF45A
:100C1000FDAE1046194622E750EA410618BF52EAD7
:100C200043067FF4C5AE50EA41047FF40DAF52EAAB
:100C300043057FF4EBAE12E74FF0FF3C06E000BF48
:100C40004FF0010C02E000BF4FF0010C4DF804CD55
:100C50004FEA410C7FEA6C5C4FEA430C18BF7FEA15
:100C60006C5C1BD001B050EA410C0CBF52EA430C43
:100C700091EA030F02BF90EA020F0020704710F1C3
:100C8000000F91EA030F58BF994208BF90422CBF52
:100C9000D8176FEAE37040F0010070474FEA410C4B
:100CA0007FEA6C5C02D150EA013C07D14FEA430C69
:100CB0007FEA6C5CD6D152EA033CD3D05DF8040BDA
:100CC000704700BF8446104662468C46194663460C
:100CD00000E000BF01B5FFF7B7FF002848BF10F1E3
:100CE000000F01BD4DF808EDFFF7F4FF0CBF012028
:100CF00000205DF808FB00BF4DF808EDFFF7EAFFA4
:100D000034BF012000205DF808FB00BF4DF808ED5E
:100D1000FFF7E0FF94BF012000205DF808FB00BF53
:100D20004DF808EDFFF7CEFF94BF012000205DF8DD
:100D300008FB00BF4DF808EDFFF7C4FF34BF0120EA
:100D400000205DF808FB00BF4FEA410C7FEA6C5CB5
:100D500002D150EA013C0AD14FEA430C7FEA6C5CB5
:100D600002D152EA033C02D14FF0000070474FF02D
:100D7000010070474FEA410212F5001215D211D559
:100D80006FF47873B3EB625212D94FEAC12343F088
:100D9000004343EA505311F0004F23FA02F018BF0A
:100DA000404270474FF00000704750EA013005D1D3
:100DB00011F0004008BF6FF0004070474FF0000096
:100DC000704700BF4A0011D212F5001211D20DD5A2
:100DD0006FF47873B3EB62520ED44FEAC12343F041
:100DE000004343EA505323FA02F070474FF00000EB
:100DF000704750EA013002D14FF0FF3070474FF09A
:100E0000000070474FEA4102B2F1E04324BFB3F55E
:100E1000001CDCF1FE5C0DD901F0004C4FEAC00271
:100E20004CEA5070B2F1004F40EB830008BF20F055
:100E30000100704711F0804F21D113F13872BCBF0F
:100E400001F00040704741F480114FEA5252C2F164
:100E50001802C2F1200C10FA0CF320FA02F018BFAD
:100E600040F001004FEAC1234FEAD32303FA0CFC00
:100E700040EA0C0023FA02F34FEA4303CCE77FEA8F
:100E8000625307D150EA01331EBF4FF0FE4040F4D9
:100E90004000704701F0004040F0FE4040F4000088
:100EA000704700BF53B94AB9002908BF00281CBFCA
:100EB0004FF0FF314FF0FF3000F088BCADF1080C6F
:100EC0006DE904CE00F010FBDDF804E0DDE902235B
:100ED00004B0704760EE016A60EEA17A84B0CDED97
:100EE000017ACDED006A61EE207ADDED006A9DEDBC
:100EF000016ACDED037A60EE215A76EEC67ACDED29
:100F0000025ADDED025A9DED035AF4EE677AF1EED6
:100F100010FA35EE857A05D1B0EE670AF0EE470A91
:100F200004B07047B4EE477AF1EE10FAF4D0B4EEA4
:100F3000400AF1EE10FA70EE404A05D1F4EE644A30
:100F4000F1EE10FA40F0CA80F4EE600AF1EE10FA09
:100F500070EEE04A05D1F4EE644AF1EE10FA40F08A
:100F6000FB800023B4EE411AF1EE10FA71EE414A13
:100F700005D1F4EE644AF1EE10FA40F09580F4EEFB
:100F8000611AF1EE10FA71EEE14A04D1F4EE644A0E
:100F9000F1EE10FA58D1002B47D1F4EE666AF1EE6B
:100FA00010FA76EEE64A04D1F4EE644AF1EE10FA55
:100FB00023D1B4EE466AF1EE10FA76EE466A04D119
:100FC000F4EE666AF1EE10FA17D1F4EE655AF1EE1E
:100FD00010FA75EEE56A04D1F4EE666AF1EE10FAE5
:100FE0000BD1B4EE455AF1EE10FA75EE456A93D185
:100FF000F4EE666AF1EE10FA8ED0B4EE400AF1EE2D
:1010000010FA40F0DF80F4EE600AF1EE10FA40F0E2
:10101000CC80B4EE411AF1EE10FA40F0B980F4EE53
:10102000611AF1EE10FA40F0A68061EEE07A20EE4F
:10103000817AE0EE017AA0EE217ADFED796A67EE3F
:10104000A67A27EE267A67E711EE103ADFED757A79
:101050009FED757A002BB4BFB0EE671AB0EE471A59
:10106000F7EE007A11EE903AF0EEE77A002BB4EE4C
:10107000400AB8BFF1EE677AF1EE10FAF0EE671AA7
:1010800040F0AD80F4EE600AF1EE10FACDD010EE33
:10109000903A9FED657ADFED637A002BB4BFF0EEF6
:1010A000670AF0EE470AC0E711EE103AFFEE007A49
:1010B000002BB7EE001AF4EE611AB8BFB0EE671A53
:1010C000F1EE10FA71EEE17A05D1F4EE677AF1EE05
:1010D00010FA40F09E80DFED547AC3E710EE103A2C
:1010E000FFEE004A002BB7EE000AF4EE600AB8BF2C
:1010F000B0EE640AF1EE10FA70EEE04A05D1F4EEBB
:10110000644AF1EE10FA40F08780DFED474A10EEB6
:10111000903AF0EEE44A002BB4EE411AB8BFF1EE7B
:10112000644AF1EE10FAF0EE640A65D1F4EE611A49
:10113000F1EE10FA08BF01233FF414AF11EE903A1C
:101140009FED394ADFED374A002BB4BFF0EE641A49
:10115000F0EE441A012305E710EE103ADFED314AB4
:101160009FED314A002BB4BFB0EE640AB0EE440AE2
:10117000F7EE004ACBE711EE903A9FED2B7ADFEDC8
:10118000297A002BB4BFF0EE671AF0EE471A4CE74D
:1011900011EE103A9FED247ADFED227A002BB4BFD6
:1011A000B0EE671AB0EE471A39E710EE903A9FEDAD
:1011B0001E7ADFED1C7A002BB4BFF0EE670AF0EE6A
:1011C000470A26E710EE103A9FED177ADFED157A01
:1011D000002BB4BFB0EE670AB0EE470A13E710EE7B
:1011E000103A9FED117ADFED0F7A002BB4BFB0EE0D
:1011F000670AB0EE470A45E711EE103A9FED0A4A3A
:10120000DFED084A002BB4BFB0EE641AB0EE441A0A
:101210008CE7F7EE007A25E7F7EE004A77E700BFA4
:101220000000807F0000008000000000B0EEC17A66
:10123000F0EEE17AB4EEE77AF1EE10FA1BD5C1EEEA
:10124000217AF0EE616AB0EE607AE1EE276AA7EEED
:10125000807AB0EE406A97EEA06AC7EE267A86EEF4
:10126000267AF4EE677AF1EE10FA1BD1B0EE670A37
:10127000F0EE470A7047C1EE817AF0EE416AB0EEB7
:10128000407AE1EEA76AA0EEA77AB0EE606AA0EE1F
:10129000676AC7EE267A86EE267AF4EE677AF1EE72
:1012A00010FAE3D0B4EE477AF1EE10FADED0B5EEE4
:1012B000401AF1EE10FA19D1F5EE401AF1EE10FADB
:1012C00014D1B4EE400AF1EE10FA40F0D38011EEE2
:1012D000103ADFED707A9FED707A002BB8BFB0EE58
:1012E000677A60EE077A20EE877ABFE770EE406A91
:1012F000B4EE400AF1EE10FAF4EE666A0CBF012378
:101300000023F1EE10FA03F0010308BF0023002BC5
:101310006DD1F4EE600AF1EE10FA30EEE06A04D11D
:10132000B4EE466AF1EE10FA61D131EE416AB4EEE4
:10133000411AF1EE10FAB4EE466A0CBF0123002305
:10134000F1EE10FA03F0010308BF002363B931EE98
:10135000E16AF4EE611AF1EE10FA87D1B4EE466A52
:10136000F1EE10FA82D00023F4EE666AF1EE10FA84
:101370007FF47CAF70EEE06AF4EE666AF1EE10FA8C
:101380007FF474AFDFED457A002BF7EE006A11EEC3
:10139000103A08BFF0EE676AF0EEE66A002BF4EE52
:1013A000611AB8BFF1EE666AF1EE10FA71EEE17AF9
:1013B00004D1F4EE677AF1EE10FA67D19FED377A37
:1013C00011EE903AB0EEC77A002BB8BFB1EE477A73
:1013D00060EE877A27EE407AE0EE267AA0EEA67AD3
:1013E000DFED2E6A67EEA67A27EE267A3EE731EE2B
:1013F000416AB4EE466AF1EE10FA98D131EEE16A34
:10140000B4EE466AF1EE10FAA3D1DFED247A002B98
:10141000F7EE006A10EE103A08BFF0EE676AF0EEE1
:10142000E66A002BF4EE600AB8BFF1EE666AF1EEF0
:1014300010FA70EEE07A04D1F4EE677AF1EE10FA69
:1014400021D19FED166A10EE903AB0EEC66A002BDD
:10145000B8BFB1EE466A26EEE17A61EE867AA1EE79
:10146000067AE1EE267ADFED0C6A67EEA67A27EEC1
:10147000267AFBE6F4EE600AF1EE10FA3FF427AFAD
:1014800070EE406A51E7B7EE006ADCE7B7EE007A2B
:1014900096E700BF000080FF0000807F0000000092
:1014A000D0B500220E4B06460F46FFF7B3F9FFF703
:1014B00089FC0446FFF738F900220A4BFFF7AAF926
:1014C00002460B4630463946FEF7F0FFFFF77AFC3E
:1014D0002346002242EA000210461946D0BD00BF52
:1014E0000000F03D0000F0412DE9F0478C460E462B
:1014F0000446089D002B50D18A4217466CD9B2FA97
:1015000082FEBEF1000F0BD0CEF1200420FA04F4CD
:1015100001FA0EF644EA060C02FA0EF700FA0EF48F
:101520004FEA1749220CBCFBF9F01FFA87F809FBB8
:1015300010C642EA064600FB08F3B34209D9F61981
:1015400000F1FF3280F02281B34240F21F81023865
:101550003E44F61AA2B2B6FBF9F309FB136642EA5F
:10156000064403FB08F8A04509D9E41903F1FF324A
:1015700080F00A81A04540F20781023B3C44C8EB61
:10158000040443EA00400021002D62D024FA0EF446
:1015900000232C606B60BDE8F0878B4207D9002DDB
:1015A00055D0002185E841000846BDE8F087B3FA30
:1015B00083F1002940F09080B34202D3824200F2CE
:1015C000F880841A66EB03060120B446002D40D053
:1015D00085E81010BDE8F08712B90127B7FBF2F7D4
:1015E000B7FA87FEBEF1000F35D1F31B4FEA17485B
:1015F0001FFA87FC0121B3FBF8F0220C08FB103620
:1016000042EA06460CFB00F3B34207D9F61900F193
:10161000FF3202D2B34200F2CE801046F61AA2B2D6
:10162000B6FBF8F308FB136642EA06440CFB03FC26
:10163000A44507D9E41903F1FF3202D2A44500F210
:10164000B5801346CCEB040443EA00409CE72946EE
:101650002846BDE8F087CEF1200106FA0EF307FA1E
:101660000EF720FA01F94FEA1748CE4049EA03097C
:10167000B6FBF8FA4FEA194408FB1A661FFA87FC12
:1016800044EA06430AFB0CF29A4200FA0EF40AD925
:10169000DB190AF1FF3180F087809A4240F28480A2
:1016A000AAF1020A3B449B1A1FFA89F9B3FBF8F12D
:1016B00008FB113349EA034301FB0CF69E4207D9AC
:1016C000DB1901F1FF326BD29E4269D902393B44EA
:1016D0009B1B41EA0A418EE7C1F1200E22FA0EF46B
:1016E0008B40234320FA0EF706FA01F44FEA134C1D
:1016F00026FA0EF63C43B6FBFCF9270C0CFB1966E8
:101700001FFA83F847EA064609FB08F7B74202FAD0
:1017100001F200FA01FA08D9F61809F1FF3041D2B6
:10172000B7423FD9A9F102091E44F61BA0B2B6FB8D
:10173000FCF40CFB146640EA064704FB08F8B845C5
:1017400007D9FF1804F1FF3028D2B84526D9023C4A
:101750001F4444EA0940C8EB0707A0FB02894F4534
:1017600044464E4614D329D065B3BAEB040367EB65
:10177000060707FA0EFECB40CF404EEA030385E88A
:1017800088000021BDE8F0871346F8E61046E0E641
:10179000B8EB020469EB03060138E5E70446D8E735
:1017A000114695E78146C0E78A467CE7023B3C4408
:1017B00048E708460AE702383E442FE7C245E7D328
:1017C0003E46D1E72946BDE8F08700BF704700BF1D
:1017D000A0F13003DBB2092B01D858B27047A0F159
:1017E0004103052B01D8373804E0A0F16103052B34
:1017F00002D8573840B270474FF0FF3070470000B2
:101800000122014B1A607047008C0020024B586F78
:10181000431E584258417047B0AA0320024B586FEC
:10182000431E584258417047B0AA03202228F7B5FA
:101830004AD82822264B42439C18995C254A2569A0
:1018400052F8212001927DB1A6680021B1420BD04F
:10185000E7684FEA810E57F82170BA4202D155F875
:101860000E0032E00131F1E7282101FB0030037D59
:10187000072B29D8DFE803F0040B0C0E10111621FA
:10188000D3B2154915481A4631F068FF13E092B2F9
:10189000134903E052B200E012B212490F4831F08E
:1018A0005DFF08E01046FEF761FF02460B460B485D
:1018B0000D4931F053FF094807E0084B0022019819
:1018C0005A711860184600E0084803B0F0BD00BF28
:1018D0007CF60308B0AA03206D5C0308E8840020AE
:1018E000785C03086C1C09087B5C0308BCDC0708F7
:1018F0002DE9F041214D2823214C2868A04643437F
:10190000222814F803E004EB03071E4B53F82E20A3
:101910001E4601D8B96809B9531E16E00023FF68B6
:1019200057F82340A2420CD12BB901F18041013973
:1019300057F8213009E003F18043013B57F8233089
:1019400003E001339942EBD13B6846F82E300E4B51
:101950001E680E4B1F68FFF769FF02463046394686
:101960000AF00EF82B682821094A01FB038413684A
:10197000616A0B441360BDE8F08100BFE48400207D
:101980007CF60308B0AA03201085002018850020EB
:10199000808500202DE9F041204D2823204C286827
:1019A000204EA0464343222814F803E004EB03072B
:1019B00056F82E2001D8BB680BB9531C15E0002146
:1019C000FF6857F82140A24207D1013B8B4216BF66
:1019D00001313B6857F8213007E001318B42F0D1EB
:1019E00003F18043013B57F8233046F82E300E4B6D
:1019F0001E680E4B1F68FFF719FF02463046394636
:101A000009F0BEFF2B682821094A01FB03841368F3
:101A1000616A0B441360BDE8F08100BFE4840020DC
:101A20007CF60308B0AA032010850020188500204A
:101A3000808500202DE9F041114E2825114C306899
:101A400005FB00F3E15C104B53F82120C83A43F842
:101A500021200E4B1F680E4BD3F80080FFF7E6FEE7
:101A600002463846414609F08BFF3268094905FBBA
:101A700002435A6A0B6813440B60BDE8F08100BF53
:101A8000E48400207CF60308B0AA0320108500201F
:101A900018850020808500202DE9F041114E282571
:101AA000114C306805FB00F3E15C104B53F821202A
:101AB000C83243F821200E4B1F680E4BD3F800802C
:101AC000FFF7B4FE02463846414609F059FF326836
:101AD000094905FB02435A6A0B6813440B60BDE8D1
:101AE000F08100BFE48400207CF60308B0AA032044
:101AF0001085002018850020808500202DE9F843FE
:101B00002D4D28232D4C2F682D4E7B43DFF8D89088
:101B1000D6F80080E35C072B2A4B06D12A4A4046C0
:101B2000196809F02DFF294A05E0294A404619683D
:101B300009F026FF264AD9F80010404609F020FF98
:101B4000222F244BD6F80080196894BF2823204AFE
:101B500040469CBF03FB07435A6809F011FF1E4B28
:101B60003846D3F80090FFF761FE024640464946EA
:101B700009F006FF2D68194B222D3668196894BFAD
:101B80002823134A30469CBF03FB05439A6909F09A
:101B9000F7FE134B3046196809F0E6FE282303FBD5
:101BA0000544104B247F19684470304609F0DCFE70
:101BB0004470BDE8F88300BFE48400207CF603088D
:101BC00010850020848500207E5C0308895C030862
:101BD000BCDC07080C85002018850020DC84002070
:101BE0001C850020E08400201485002070B50B4C7B
:101BF0000B4E254623682822013B222B88BF222337
:101C000023602B6802FB03631B6A1BB9BDE87040AD
:101C1000FFF774BF98470028ECD0F7E7E484002072
:101C20007CF6030870B50B4C0B4E25462368282222
:101C30000133222B88BF002323602B6802FB036340
:101C40001B6A1BB9BDE87040FFF758BF98470028D2
:101C5000ECD0F7E7E48400207CF603081FB500F120
:101C60001404143454F8280C431C2AD054F8241CAF
:101C700018F0D0FF54F81C1C009054F8200C0139C7
:101C8000013818F0C7FF104A01460190009818F07B
:101C900037FF54F8241C54F8280C0131013018F097
:101CA000B9FF54F81C1C029054F8200C0239023879
:101CB00018F0B0FF044A01460390029818F020FF84
:101CC000CFE704B010BD00BF969696FF01380428F8
:101CD0000FD8DFE800F00503080A0C002020704749
:101CE000054B18787047052070472D207047142049
:101CF00070471020704700BFA019090821B30138B0
:101D0000042804D8DFE800F0070C10141A000F4B69
:101D10000B60102315E00E4B0B600E4B1B780AE096
:101D20000D4B0B60202306E00C4B0B60052308E0F5
:101D30000B4B0B602D230B71022304E0094B0B604E
:101D400014230B7101234B71704700BF34920308B9
:101D50001CE80308A0190908E46E0308EC51030805
:101D6000EC0304084086030837B500220C460092B5
:101D7000019289B16946FFF7C1FF00999DF80550AE
:101D8000104623784BB151F823301A7814F8013FEC
:101D9000104413B12844F4E7084603B030BD0000F6
:101DA0002DE9F04F8DB01E460023054603910AA988
:101DB0001446BDF858B00A930B93FFF79FFFAAB1E2
:101DC0005946304618F026FF179907902846FFF726
:101DD000CBFF9DF82C1030445944013918F01AFFFC
:101DE000224601460890079819F0ACF90023179A8B
:101DF0001278002A64D018998B4261D00A994FF06A
:101E0000340E51F822403049257808682F49771957
:101E10009DF82C200EFB0011B1F860108F424FDCB2
:101E20005A4404F101085F4692B20292029A974224
:101E30003AD02C46002C34D018F8012B22B9072CAC
:101E40002FD9083CE4B2F5E7082C21464FF00009F1
:101E50004FF0010A28BF08210091311989B2019180
:101E6000019901EB09000099494480B211F0FF0F7C
:101E7000E5D012EA0A0F0AD039460592049318F009
:101E8000C9FE0399099018F073FE059A049B09F1A5
:101E9000FF394FEA4A0A19F1080F5FFA8AFADFD1CF
:101EA000CDE70137BFB2C1E71799013311F8012F10
:101EB00017912AB19DF82D2015442E44B6B296E70D
:101EC00018460DB0BDE8F08FACAA0320F4A903209A
:101ED0002DE9FF410B9C054698460E4620461746C5
:101EE000FEF778FABDF828303A463146009343466B
:101EF000029028460194FFF753FF04B0BDE8F0813B
:101F00002DE9FF410D4C98460CAB05460E46174691
:101F1000FF210B9A2046039331F0D0FC00233A4670
:101F2000314623542846BDF8283001940093434697
:101F3000FFF7CEFF04B0BDE8F08100BF4CAD032039
:101F40002DE9F0470A9E8846BDF824501C463146CC
:101F500007469146BDF820A0FFF706FF281A09960C
:101F60004A46A0420346CDF820A04146B8BF2346CA
:101F700038469BB2BDE8F047FFF7AABF30B585B041
:101F800000240D4602A902940394FFF7B7FE0D4BFF
:101F9000ADF80040342418680B4B9DF80C1004FB7E
:101FA00000331144ADF80220B3F860004008013856
:101FB00018F030FE2A460146009819F0C3F805B023
:101FC00030BD00BFACAA0320F4A90320064B13B513
:101FD0001C7E01230191009221460246034821F014
:101FE000C3FD002002B010BDB0AA0320D48500209C
:101FF00004284FEA031373B512BFC901002101225F
:1020000003F0700308BF0C469DF818604FEA1225D4
:102010008DF801201EBFB1FBF2F402FB1411A4F5F0
:1020200000748DF800504FEA123218BF04EBC01450
:10203000042802F0F0028DF80710C4F301458DF872
:10204000044008BF45F00C051D43230A8DF80330FA
:10205000C1F303438DF802501A440B0A8DF8052092
:102060008DF806301EB96A4608212A200AE0012EA2
:1020700003D16A460821322004E0022E04D16A46C8
:1020800008213A20FFF7A2FF02B070BD08B5044B4B
:102090000A460146187E21F04BFE002008BD00BF15
:1020A000B0AA032013B5C9018DF80120B1FBF2F4E9
:1020B00004EBC01002FB1411140AA0F50070120BFF
:1020C0008DF80040C0F301448DF8040002F0F002E6
:1020D0008DF807108DF80240040AC1F303408DF813
:1020E000034002448DF805200A0A08218DF80620D5
:1020F0006A4623B91A20FFF769FF202103E0222056
:10210000FFF764FF8021B120FFF7C0FF02B010BDD0
:10211000754B2DE9F04FDA6997B05E698A4616442F
:1021200041F68362904240F2C580D3F884309842F1
:1021300028BF18466D4B984240F29F806C4B9842E6
:1021400002D89FED657B01E09FED657B8DED047B03
:10215000FEF7EAFA04460D463046FEF7E5FA024677
:102160000B46204629460126FEF77EFCDDE90423C6
:10217000FEF750FB04460D4645EC104B2CF06CFB73
:1021800051EC100BFEF71EFE0E90FEF7CDFA024644
:102190000B46204629460024FEF788F9554B0022BD
:1021A000FEF738FBFFF77CF9002383468946CDE92B
:1021B00006344FF0FF336FF01044CDE902340024B1
:1021C0000123CDE9083400242746A0465846494655
:1021D000DDE90223FEF766FE05460A9158464946A8
:1021E000DDE90223FEF75EFE0F930A9BA6FB0501C5
:1021F0000C9206FB03FEDDE9062308FB05EE121830
:102200000A9871444B4107FB05F104FB001BA5FB39
:1022100004015944DDE908BC1BEB000B4CEB010C3D
:102220005846DFF8E4B061464FF0000C9C4508BF0B
:1022300093451ED34FF0000CDFF8D0B08C4508BF9B
:10224000834516D308940C9CDDF808B002940F9CCB
:10225000DDF80C90039409970696CDF81C80DDE913
:1022600002452C43044603D00F4616469846ADE778
:10227000164602964FF0000B03E143F608539842CE
:102280001AD947F61123984219D94FF2234398429D
:1022900018D9194B984218D9184B984218D9184B8D
:1022A000984235D9174B98428CBF4FF0000B4FF036
:1022B000010B2FE041F684604FF0070B2AE04FF04E
:1022C000060B27E04FF0050B24E04FF0040B21E054
:1022D0004FF0030B1EE000BF00000000000018409C
:1022E0000000000000001040B0AA03201F9DB406AB
:1022F0007FD1F0080000DC4347E801008FD00300E5
:102300001FA107003F420F00FEFF0F00FFFF0F005D
:102310004FF0020B00FA0BF330464FF0FF396FF02D
:1023200010481593FEF700FA02460B460126CDE948
:102330001001BEA1D1E90001FEF796FB04460D464F
:1023400045EC104B2CF088FA51EC100BFEF73AFDDF
:102350000E90FEF7E9F902460B46CDE91201204640
:102360002946FEF7A3F8AC4B00220024FEF752FAF0
:10237000FFF796F8012307461491CDE904340024B1
:102380000023CDE9023400240C940F944A464346BE
:1023900038461499FEF786FD4A46054608913846A8
:1023A00043461499FEF77EFDA6FB0501CDE90A23FD
:1023B000089B0F9A734302FB05331944DDE902239E
:1023C00012184B41CDE90623089B04FB03F70C9B35
:1023D000DDE9040103FB0577A4FB052380183B44DA
:1023E0005941DDE90623CDE9080100218B489942D6
:1023F00008BF904221D300218948DDE90823994292
:1024000008BF904219D30F9D4F4604940C9CCDF801
:102410005080029603950594DDE90A0101430AD034
:10242000099BDDF828900C93079BDDF82C80089C15
:10243000069E0F93AAE7089C069E30460296FEF77A
:1024400073F906460F462046FEF76EF902460B4624
:1024500030463946FEF708FBDDE91223FEF728F87F
:10246000DDE91023FEF7D6F906460F461598FEF76C
:102470005BF902460B4630463946FEF7F5FACDE9E0
:1024800004010022674BDDE90401FEF72BFC064640
:10249000002840F0F1800022634BDDE90401FEF7E3
:1024A00021FC0546002840F0E08001269DED040B4C
:1024B0002CF0D2F951EC100BFEF784FC0746FEF726
:1024C00033F902460B46DDE90401FDF7EFFF002278
:1024D000514BFEF79FF9FEF7E3FF01220023109016
:1024E00012910F951495CDE9042300230022CDE924
:1024F00006234FF0FF3308936FF010430A93089AB6
:102500000A9B10981299FEF7CDFC89468046089ADE
:102510000A9B10981299FEF7C5FC06FB09FE05FB05
:1025200009F9CDE90C23149BDDE9060103FB08EE54
:10253000A6FB082380187344594102460B460F99A5
:1025400001FB089EA5FB0889DDE90401F14410EBBD
:10255000080041EB09018046304889460021994234
:1025600008BF90421FD300212D48494508BF404570
:1025700019D30899069610910A9904951291149905
:1025800007910F990591DDE90C01014309D00C99E0
:102590004546CDF83C90164608910D9914930A9142
:1025A000ADE745461646BAF1000F0AD1042F69D0AF
:1025B000062F67D00F2110204FF00008FFF766FDAF
:1025C00014E0BAF1010F1BD127F00203042B0CBF5A
:1025D0006F212F2105E0BAF1010F2BD155460627B7
:1025E0006F214FF001081120FFF750FD5B46CDF839
:1025F00000802A4631463846FFF7FAFC43462CE075
:10260000BAF1020F49D127F00203042B0CBF4F216E
:102610000F2116E0AFF300800000DC43FEFF0F0047
:10262000FFFF0F0000001040000018400000008075
:1026300074D2CA410627BAF1020F2ED10125002615
:102640004F211220FFF722FD02232A463146009334
:1026500038465B46FFF7CCFC0023224602990E98D1
:1026600017B0BDE8F04FFFF71DBDBAF1000FB2D1B2
:1026700001255646062705E0BAF1000F04D10125D1
:10268000564604274F2196E7BAF1010F03D10026E1
:1026900055460427A4E70427CDE717B0BDE8F08F1F
:1026A00038B50B4B0C4605460321187E21F048FA3D
:1026B000012C15BF012104FA05F1A94020EA01010E
:1026C00018BF01430320C9B2BDE83840FFF7DEBCA4
:1026D000B0AA032008B50221FFF71AFD012102204C
:1026E000BDE80840FFF7DCBF08B50121FFF710FD8A
:1026F0000121BDE808400846FFF7D2BF08B5002118
:10270000FFF706FD01210020BDE80840FFF7C8BF24
:10271000002108B50846FFF7C3FF00210120FFF79D
:10272000BFFF00210220FFF7BBFF80211020FFF731
:10273000ADFC80211120FFF7A9FC80211220BDE80B
:102740000840FFF7A3BC00000A4A0346D2F88410F1
:1027500001EB41028242084A02D2D268052003E01E
:10276000884204D9D2680320B3FBF0F01047D36845
:10277000184700BFB0AA0320D46704202DE9F04118
:102780000546154C18B96368BDE8F0411847134B6E
:10279000A0F51C561A692F3E92B9D3F8843003EB8A
:1027A0004302904201D9052702E0984208D9032745
:1027B000A368B5FBF7F09847E368B6FBF7F003E0D2
:1027C000A3689847E36830469847054B00201D6092
:1027D000BDE8F04122F0C6BED4670420B0AA0320B1
:1027E00050830020DFED1D6A60EEA00AB4EE660A99
:1027F00008B51B4BF1EE10FAD3ED097A4CBFB0EEE1
:10280000667AB0EE407AF8EE677AB0EE600A37EE9C
:10281000676A77EE277AA6EE060AE7EEA70ADFEDEB
:10282000117AF4EE660AF1EE10FA08BFF0EE670ACC
:1028300080EE200A2CF0F0FEDFED0B7AB4EE670A92
:10284000F1EE10FAC8BFB0EE670AF7EE007A30EE8C
:10285000277A37EEC00A87EE000A08BD00000000A4
:10286000B0AA03206042A20D77BE7F3F08B50D4B92
:1028700093ED000A2CF028F90B4BD3ED007A0B4BAB
:1028800093ED007A0A4B77EE877A93ED007A094B45
:1028900077EE877A27EE800AD3ED007A20EE270ABA
:1028A00008BD00BF48AD032064810020788000206F
:1028B000388100205483002008B50E4B93ED000AA8
:1028C0002CF0BAF80C4BD3ED007A0C4B93ED007A58
:1028D0000B4B37EE877AD3ED007A0A4B77EE277AE7
:1028E00027EE800AD3ED007A90EE277AB0EE470A01
:1028F00008BD00BF48AD032064810020788000201F
:10290000388100205483002008B5154BF5EE080AE5
:10291000B2EE040A1A6CC2F16403632B97BF6FF026
:10292000EF03EF23534364229FBF03F5BB434033C0
:10293000B3FBF2F3DBB2C3F1EF0307EE903AF8EE2C
:10294000E77A67EEA07AF3EE040AC7EEA00A2CF04D
:10295000CFFC044BD3ED007A20EE270A08BD00BF60
:10296000B0AA03204883002008B5154BF5EE080AED
:10297000B2EE040A1A6CC2F16403632B97BF6FF0C6
:10298000EF03EF23534364229FBF03F5BB43403360
:10299000B3FBF2F3DBB2C3F1EF0307EE903AF8EECC
:1029A000E77A67EEA07AF3EE040AC7EEA00A2CF0ED
:1029B0009FFC044BD3ED007A20EE270A08BD00BF30
:1029C000B0AA0320588300202D4B1B682D4B93F891
:1029D0007D20D2B2012A10B5C0B049D193F87C1045
:1029E000012945D083F87C20274A5A664FF4886233
:1029F000A3F86820A3F86A20222283F87D20002211
:102A0000C3F880201A681168C90303D4116841F41F
:102A1000803111601B4AB3F86A00196808B34C6929
:102A200014F4E02FFAD0586B402807D1906A38B9D7
:102A3000506EC969441C546601700CE0802805D8AA
:102A4000C869596E21F8020B596604E0C869516ED5
:102A500041F8040B5166B3F86A100139A3F86A1003
:102A6000D9E7012283F87C0083F87D2040B010BDB7
:102A700002220649684630F071FE684629F0F8FCEB
:102A800044AD03208CB70220DCCD0220945C030807
:102A900000292DE9F04F93462DED028B83B002DC27
:102AA0009FED3E0A74E0142905460246DFED3B7AAD
:102AB000A8BF142100230C460133B2EC017AA342D3
:102AC00077EE877AF8DB07EE104A042CB8EEC70AD7
:102AD00087EE808A5ADD00EB840A9FED307AF0ECB5
:102AE000017A824577EEC87AA7EEA77AF7D187EE0A
:102AF000000A2CF091FD18EE100A8DED010AFDF789
:102B000035FE9DED010A06460F4610EE100AFDF750
:102B10002DFE0022224BFDF77DFE02460B4680462D
:102B2000894630463946FDF7C1FCFEF76BF94B4646
:102B3000424608EE900A39463046FDF7B9FCFEF7EA
:102B400061F99FED167A06EE900A0023F5EC017A02
:102B5000F4EEE78AF1EE10FA07D8F4EEE76AF1EE48
:102B600010FAA4BF37EE277A0133AA45EED1BBF1A4
:102B7000000F03D0B3EB640F01DA91E733B107EE36
:102B8000903AF8EEE77A87EE270A01E0B0EE480ABD
:102B900003B0BDEC028BBDE8F08F00BF0000000069
:102BA0000000E83F00282F4B2F484FF0000114BFD2
:102BB0004222402270B513442C4A2DED048B86B07E
:102BC00033F921400131B0EC017A07EE904AB1F5BA
:102BD000007FF8EEE77A67EE877AE2EC017AEFD1D0
:102BE00068469FED238A23F0D5FFBDF81030F0EE44
:102BF000488A00225B081D49684669241D4E9FEDE6
:102C00001E9AADF8003026F004FC1A4A68461749AF
:102C100024F052F806EBC4030134164D93ED000A7C
:102C2000D3ED010A2BF0D6FD20EE090A6E2CA0EEA2
:102C3000008AEFD1B0EE480A2CF0EEFCB0EE408AEC
:102C4000D5EDD60A95EDD70A2CF00EFAF1EE407AC2
:102C5000B0EE480AF0EE670AA7EEA80A06B0BDEC8F
:102C6000048B70BDDCCD02208CE102205CD60220FA
:102C7000000000008CE902200000803B2DE9F041BB
:102C80001F46314B0446984204D9304BD3F880207C
:102C9000904211D92E4B2F4A13602F4A1360002304
:102CA0002E4A13602E4A13602E4A2F4B1168526829
:102CB00019605A60BDE8F081A0F51C561A692B4DC9
:102CC0002F3EA2B9D3F8843003EB4302904202D9DD
:102CD0004FF0050803E0984209D94FF003082B692B
:102CE000B4FBF8F09847EB68B6FBF8F003E02B690B
:102CF0009847EB68304698471D4B1E4D4FF40862CD
:102D00001C6000241C4E00211C4829F09EFDBC4282
:102D10000BDAFFF759FE0020FFF744FF0023A6EC73
:102D2000010A013445F8043BF1E703223946124811
:102D3000FFF7AEFEDFED127A074B20EE270A83ED98
:102D4000000ABDE8F08100BF9F860100B0AA032001
:102D50000000FA4358830020488300204CAE032033
:102D600000F30220903B03086C830020D46704200A
:102D70005083002004F3022058F30220DCCD02200F
:102D8000EA40563C000000002DE9F04F2DED028B8B
:102D900085B01C4605460291039210B9864B1D680A
:102DA0001AE0864B984204D9854BD3F8803098427C
:102DB00010D9844B844A1360844A13600023844AE8
:102DC0001360844A1360844A844B11685268196006
:102DD0005A60DDE0FFF7D2FC142C4FF00306A8BFC9
:102DE0001424DFF808A20027DFF8F891DFF8F8B123
:102DF000A74256DAFFF7E8FD0020FFF7D3FEB0EE5A
:102E0000608A0120F0EE408AFFF7CCFEA9EC010AAF
:102E100078EE607AEBEC018A17EE900AFDF7A6FCDB
:102E20005FA3D3E90023FDF743FBFDF7EBFFDFEDE5
:102E30006C0A00EE100A2CF019F910EE100AFDF7DA
:102E400095FC57A3D3E90023FDF730FBFDF7DAFF2C
:102E50008046FDF78BFC54A3D3E90023CDE90001A4
:102E6000FDF74AFF38B152A3D3E90023DDE90001A1
:102E7000FDF71EFB0EE04AA3D3E90023DDE90001C4
:102E8000FDF758FF48B14AA3D3E90023DDE900016B
:102E9000FDF70CFBFDF7B6FF80464AF8048B0137BF
:102EA000A6E7324621464F48FFF7F2FDF0EE408A92
:102EB000324621464C48FFF7EBFD324621464B484F
:102EC000B0EE408AFFF7E4FDF5EE408A484B83ED13
:102ED000000A1F46F1EE10FA09D0B5EE408AF1EE75
:102EE00010FA04D0B5EE400AF1EE10FA01D1013E1D
:102EF00077E7C8EE887A3F4B1C46C3ED007A029B09
:102F00002BB13D4B1B6813B1284626F0DBFEDFEDED
:102F10003B7A2D4B68EEA78A386828EE278AC3EDE6
:102F2000008A2A4B83ED008AFDF720FC0022344BF7
:102F3000FDF770FC1AA3D3E90023FDF795FDFDF71B
:102F400061FF234B94ED000A18602CF055F9F3EE65
:102F5000047A204B214C20EE270A83ED000AFFF76C
:102F600085FCB0EE408AFFF7A7FCDFED267A039BD5
:102F7000A8EE270A84ED018A84ED000A43B1F0EE41
:102F8000480A284607F09AF984ED000AC4ED010AC0
:102F900005B0BDEC028BBDE8F08F00BFAFF3008041
:102FA000182D4454FB210940182D4454FB2109C01D
:102FB000182D4454FB211940508300209F860100A6
:102FC000B0AA03200000FA43588300204883002061
:102FD0004CAE032000F30220903B03086C830020DA
:102FE000DB0FC94004F3022058F30220F4AC0320A5
:102FF00048AD0320548300209C640420EA40563CE2
:1030000000806640000000002DE9F04F00252C46AE
:103010002F465FFA85FC94453CD24FF0000E10F825
:103020000C604FF020084FF0000906FA0EF6C6F3C8
:10303000C01646EA4707184E3E4008F1FF3806F032
:10304000010A760818F0FF0889EA0A09F5D101F8A3
:10305000049004F1010ADFF8449020265FFA8AFA0E
:1030600007EA0909013E09F0010B4FEA590916F078
:10307000FF0688EA0B08F5D1023401F80A80E4B2B1
:103080009C4201D30135C4E70EF1010EBEF1080FD9
:10309000C5D1F7E7BDE8F08F5153D0F2473C61E46A
:1030A0002DE9F041C6B004465B220D4618A8002168
:1030B00029F0CBFB4D22214618A829F0BBFB0023A9
:1030C00000930193029318A91DF8032001EBC3009C
:1030D0000021445C013144EA42020829D2B2F8D10D
:1030E0000DF8032001330A2BEDD100231A461DF8F9
:1030F0000240072144FA01F003F4005600F00100F9
:1031000040EA43031EB183F41D5383F0170311F10A
:10311000FF31EFD20132C3F30D030C2AE7D10222B3
:10312000012003FA02F111F4004115BF18A918ACEF
:103130008918A41802F1010214BF81F84B0084F829
:103140004B10102AEDD12FAE4FF00C085B2218A9BE
:103150003046002429F06EFB0DEB0807DFF850C065
:10316000002208FB04CE1346D1B2C80801F00701C3
:103170001EF8000000FA01F1B05C0132C1F3C01189
:103180005B2A00FB0133EFD103F00103E355013467
:10319000532CE5D13146284629F04CFB22463946CE
:1031A00005F15B0029F046FB46B0BDE8F08100BFA9
:1031B000EDB903082DE9F041002392B004460D4615
:1031C00005AE02AF1A4605930293736033817B60AC
:1031D0003B81A15C11F0DF0F10D00846FEF7F8FA32
:1031E000013000F0A0800DABD15401320123132A2D
:1031F000EFD12046FDF7EEF8002302E0002BF8D1D6
:1032000091E0DAB2904208D99046A25C0133202ABC
:10321000F7D108F1FF385FFA88F80DAE13220021CC
:103220000027304629F011FB08F101022146304603
:1032300029F000FB122300961321904A08A830F0D1
:103240005BFA8F4BD3F80080FEB208A8FDF7C2F8F6
:10325000B0420FD912AB01371E4416F8283C08EBD8
:103260000302527802F00302022A04BF203B06F850
:10327000283CE9E708A9204630F0C0FA2078202849
:1032800003D0FEF7A5FAC0B200E00020691E0123BA
:1032900000FA03F20133C2F3C002042B01F8012F3C
:1032A000F6D16078202803D0FEF792FAC0B200E091
:1032B0000020A91C002300FA03F20133C2F3C0026C
:1032C000042B01F8012FF6D105F1080205F148069B
:1032D000A078202803D0FEF77BFAC0B200E00020DF
:1032E0000023D71800FA03F10133C1F3C001042B06
:1032F00007F8011CF5D1E078202803D0FEF768FA22
:10330000C0B200E000200023D71800FA03F1013317
:10331000C1F3C001042BF970F6D108320234B24275
:10332000D6D1052396E02346564A0E2108A830F050
:10333000E3F9534A0DF11F030BA8D2F800E09046C1
:1033400013F8012F0EEB0201497801F00301022965
:1033500004BF203A1A708342F2D108A9204630F007
:103360004DFA611ED8F800000C344FF02A0E11F807
:10337000012F831893F801C00CF0040C0CF0FF032C
:10338000BCF1000F02D0A2F12F0306E0A2F1410C24
:10339000BCF1190F03D8A2F13603DBB215E0202AE5
:1033A00013D02B2A0AD02D2A0AD02E2A0AD02F2A4F
:1033B0000AD03F2A0CBF2923FF2306E0252304E07F
:1033C000262302E0272300E028234FF0000C62466A
:1033D00016F80C80C2F307221EFB082207F80C2007
:1033E0000CF1010CBCF1090FF2D1120A1B028DF88D
:1033F0001120002217F802C00CEB1323B354013242
:10340000092AF7D11B0A8C428DF81D30AFD19DF8E7
:103410001C00691E012300FA03F20133C2F3C0123B
:10342000082B01F8012FF6D107A805F1080205F1D4
:10343000480610F8014D0023D71804FA03F10133B0
:10344000C1F3C011082B07F8011CF5D108329642D0
:10345000EFD1002303F001029B0885F847200022EA
:1034600085F8493085F8482085F84A2085F84B20B2
:1034700085F84C2012B0BDE8F08100BFB35C0308B2
:1034800010840020B85C030810B50446FCF7A2FFC6
:10349000C0B20C2803D9631E0B480C3406E020236D
:1034A00023540130C0B20E28FAD1F4E713F8012FEB
:1034B00001681144497801F00301022904BF203A50
:1034C0001A709C42F2D110BD108400200A4B1B6878
:1034D00003445B785B0701D5303806E0202806D02E
:1034E000A0F14103192B04D83738C0B2704724200B
:1034F0007047FF20704700BF10840020134B1B68EB
:1035000003445B785B0701D5303804E0A0F1410348
:10351000192B02D83738C0B2704720280CD02B287E
:103520000CD02D280CD02E280CD02F280CD03F28C2
:103530000CBF2920FF2070472420704725207047AA
:1035400026207047272070472820704710840020CD
:103550004368994206DBC91A026841FA02F219402F
:103560001144F6E70846704790B5C1B04FF40B72AE
:10357000002100AFADF5147D0DF11F0424F01F04F0
:10358000204629F062F912220E49204622F01EFE42
:10359000024678B90C494FF4D8720C4B20460B60A8
:1035A0003B4622F0DCF8204622F064F807F58277EB
:1035B000BD4690BD0649384630F0D0F8384628F070
:1035C00057FF00BFBD5C0308B0AA0320332E306450
:1035D000D35C030830B52D4D85B02D4825F0D2F9C8
:1035E000AB69FBB902240021204620F0A9FA01387A
:1035F000C0B2FD283CD9023414F0FF04F3D1254BAE
:103600002046C0244FF07F4201930A2322490093B1
:103610000523FEF75DFC40F6B83021F0A3FFAC6156
:10362000FFF7A2FFFF210320FEF730FD80211020CD
:103630009524FEF72BFDD5F88810B720890141F0BD
:10364000120101F0D201FEF721FD00210F20FEF74B
:103650001DFD204601340021E4B2FEF717FDA22C27
:10366000F7D10021BB2005B0BDE83040FEF70EBD0C
:103670000A4B4FF07F4202944FF0FF2101930A233F
:10368000002000930523FEF73BFCC4E7B0AA03200B
:10369000D4850020035D03080000FFFF515D03088F
:1036A000064B074A1A60074A5A60074A9A60074A57
:1036B000DA60074A1A61FFF78DBF00BFD4670420A4
:1036C000D535000811270008FD260008E926000866
:1036D000D526000800000000B14BB24A196D2DE953
:1036E000F04F2DED048B11601C46596DABB0AE4A06
:1036F0004FF00208AD4F1160996DAD4AAD4D1160AC
:103700001A6A0F2A84BF4FF0FF332362FFF72CFFA2
:1037100006F00EFC06F01EFD236C2F6000240093C3
:1037200028463B6823F480333B604FF0FF3385F835
:103730007D803C61BB6119F071FF2A6809A853685C
:1037400043F008035360C5F8804085F87C4085F855
:103750007D401AF013F94FF4801309A809934FF430
:10376000800319934FF4AC730A9307230C9301233E
:1037700012931AF0F5F995F87D302F6003F0FF06EB
:10378000002B75D18C4C284626F0B4F94FF4806993
:10379000636C09A9894843F400036364636C03F410
:1037A00000030893089B236B43F040032363236BC0
:1037B000CDF8249003F04003CDF828800B960793B2
:1037C000079B0A23CDF830800D9328F033FB236B41
:1037D00009A97B4843F080032363236B0A9603F017
:1037E00080030B96CDF830800693069B4FF4004380
:1037F000099328F01FFB236B43F480032363236B9F
:1038000003F480030593059B2B68BB4220D16D4CCC
:103810004FF4006363614FF4005320466660A36178
:103820004FF48073A660E3614FF40033E6602362D7
:103830000323C4F81090A362634B6662E6622663BA
:1038400023602C67A56328F020FD204628F042FD68
:1038500000220F2146205D4C28F0D2FD402300229B
:103860000F21A360282028F0CBFD4FF48073636004
:10387000574B0026574D4FF001081A6880212B60E6
:103880004FF4803B22F480324BF680394FF4802A8B
:1038900028461A604FF40053402269632B612023AD
:1038A00003916B64019304232A64EB650523029260
:1038B0002B66C5F81C90C5F804806E612E63AE635C
:1038C000C5F83C80AE60C5F81880C5F848B0EE6415
:1038D000C5F850A06E65AE6519F0EAFE3868354C43
:1038E000019B20F480302760386003206364042348
:1038F0000399029AE36505236060204661632264B0
:103900002366C4F81C9066612663A663C4F83C80F5
:10391000C4F808802661C4F81880C4F848B0E6648A
:10392000C4F850A06665A66519F0C2FE2A68342066
:10393000136843EA0B0313602268274C136843EAB9
:103940000B031360A368984748F6941398427AD102
:10395000E36A34209847214B4FF4407134201C60B7
:10396000009B2468C3F164024B469FED1D9AD2B2BE
:10397000DFED1C8AA0479FED1C8A1C4C30460136A7
:10398000FCF7E2FE8046894603A3D3E90023FCF757
:1039900041FF2DE0AFF30080182D4454FB21194066
:1039A000B0AA03207880002064810020245C0140BC
:1039B000388100208CB702200038024000180240F5
:1039C000001C024020850020B864024000E100E0B5
:1039D000045C0140D0BB0220D0820020D4BC022075
:1039E0003E3DFE3E236ADA3E7C629D3D8CE1022034
:1039F0001AA3D3E90023FDF737F8FDF703FA00EE29
:103A0000100A2BF019F840464946F0EE409A15A3EB
:103A1000D3E90023FCF7FEFE10A3D3E90023FDF752
:103A200023F8FDF7EFF900EE100A2BF005F8F0EEA1
:103A3000687AB6F5007FE9EEC97AE0EE087AE4EC40
:103A4000017A9BD102E0044828F012FD2BB0BDECB6
:103A5000048BBDE8F08F00BF8D5D030800000000FF
:103A600000F07F40182D4454FB21294008B5FFF792
:103A70007BFDFFF715FE064B1B6823B1C82021F024
:103A800071FD09F051FF0122024B1A6008BD00BF11
:103A900080850020008C00202DE9F041944A88B0F8
:103AA000944C002101236261C02293484FF0420CE4
:103AB000A2613222914E00AF6262ADF5147DA26226
:103AC0000522A3600DF11F05E2624FF4FA72216135
:103AD00025F01F0522630622E1612264884A2162E3
:103AE0002265884A63636265A2F57C02A363A265CE
:103AF0004FF41642E3636164E164E1656166A166C7
:103B0000E366216761676060E060A064226626600A
:103B1000A167C4F88CC04FF47A6C7B4AC4F8BCC06F
:103B200040F61C4CE267C4F8C4C00CF19A7CC4F89F
:103B3000A4200CF6560CC4F80421C4F82C21C4F8B7
:103B40005421C4F87C210822DFF8F8E1C4F8D4C07D
:103B500040F28A7CC4F8E40043F2B060C4F89021DB
:103B6000C4F894214FF41652C4F880E04FF0030ECD
:103B7000C4F8D8C04FF4616CDFF8CC81C4F8F00011
:103B8000C4F81801C4F84001C4F868012846C4F814
:103B90009C214FF40B72C4F888E0C4F8C810C4F834
:103BA000CC10C4F8D030C4F890C0C4F8DC10C4F80D
:103BB000E0E0C4F8E830C4F8EC10C4F89811C4F898
:103BC000A011C4F88480C4F8A411C4F8A83128F066
:103BD0003CFE07F108014D4822F07EFA0C2801D086
:103BE000032802D14A4828F043FC18BBBB680BB934
:103BF000FFF7BAFC01224549284622F0E7FABA68E5
:103C00003B1DB2F5D87F0AD23A49284621F094FEEE
:103C1000284621F02FFD2660FFF7A6FC13E04FF4A5
:103C2000D8723449284621F087FE284621F022FD2B
:103C3000266008E0374822F0BFF8374822F0BCF889
:103C4000FFF792FC4FE022692A4BE2B9334AD3F8DE
:103C50008010914288BFC3F88020D4F88430304A65
:103C6000934210D043450ED02E498B420BD02E49A3
:103C70008B4208D02D498B4205D02D498B421CBF69
:103C80001C4BC3F88420E26F2A4B9A4282BF2A4A17
:103C9000184BDA67D4F880301B4A934205D927497C
:103CA000B3FBF1F201FB123313B1254BC4F88030A2
:103CB000D4F88C30013B632B82BF42220D4BC3F8FA
:103CC0008C20D4F89031043B102B82BF0822094B82
:103CD000C3F89021D4F89431043B102B82BF082202
:103CE000044BC3F894212037BD46BDE8F08100BFE6
:103CF000C0FC9B01B0AA0320809FD500332E306406
:103D00003333A34000004843A0860100BD5C030894
:103D1000A65D0308B15D0308B55D0308803E6D56DE
:103D20000068890900497F0F80DF17100076B01006
:103D3000800C49111FA1070020A1070040420F007D
:103D400080D1F0080046C32300C2EB0B2DE9F04FF1
:103D5000E9B006F0E7FC04460028FAD1D84B222748
:103D60006FF0FF05012618604FF00A08D54B48F2A6
:103D7000800A4FF0FF394FF0DC0B1860D24B18600F
:103D80004FF07F401FF0C8FDD04B00944FF07F42B2
:103D9000019301206423CE49FEF79AF83A46214662
:103DA0005FA828F052FDCB4B3A462146CDF8823130
:103DB0004FF6807356A8ADF88C51ADF89031C64BD4
:103DC000ADF87E81ADF88071ADF88661ADF88841BF
:103DD000ADF88A41ADF88EA1CDF8923128F035FDCD
:103DE000BE4A4FF4967321464DA8CDF85E21BC4AD9
:103DF000ADF85A3103934FF68073CDF86E213A46F1
:103E0000ADF86851ADF85C71ADF86261ADF8644130
:103E1000ADF86641ADF86AA1ADF86C3128F015FD3A
:103E2000B04A4FF0FF03214644A8CDF83A21AE4AEC
:103E3000ADF84451CDF84A213A46ADF84651ADF8B7
:103E40003681ADF838B1ADF83E61ADF84041ADF81E
:103E50004231ADF8489128F0F8FC039B3A462146E0
:103E60003BA8ADF81231A14BADF82051CDF8163179
:103E70004FF0FF03ADF82251ADF81E319C4BADF869
:103E80002451ADF814B14FF0820BADF81A61ADF8C2
:103E90001C41CDF8263128F0D8FC46233A4621466D
:103EA00032A8ADF8F030934BADF8FA50ADF8FC50B5
:103EB000ADF800518DF8ED60ADF8EE80CDF8F23040
:103EC0000393ADF8F660ADF8F840ADF8FE4028F089
:103ED000BCFC6E22039B214629A8ADF8CC203A46B3
:103EE000ADF8DC508DF8C960ADF8CA80CDF8CE30A1
:103EF000ADF8D690ADF8D890ADF8DA4028F0A5FC32
:103F0000039B5022214620A8CDF8AA304FF0FF0392
:103F1000ADF8A6203A46ADF8B450ADF8B8508DF8DB
:103F2000A560ADF8A8B0ADF8AE60ADF8B040ADF8A2
:103F3000B230ADF8B64028F088FC6F4B3A462146C7
:103F400017A8CDF886304FF68073ADF89050ADF8D5
:103F500094306A4BADF88280ADF884B0ADF88A60D9
:103F6000ADF88C40ADF88E40ADF892A0CDF896300B
:103F700028F06BFC4FF4C8733A4621460EA8ADF802
:103F80005E305F4BADF86C50CDF862304FF6807309
:103F9000ADF860B0ADF870305A4BADF86660ADF872
:103FA0006840ADF86A40ADF86EA04FF0AA0ACDF8AF
:103FB000723028F04AFC544B3A46ADF83A8021461C
:103FC000DFF8688105A8ADF84650ADF84C50ADF863
:103FD0003CA0CDF83E80ADF84260ADF84440ADF86D
:103FE0004890ADF84A40CDF84E3028F02EFCADF8A0
:103FF000225040F24713ADF8285004ADADF816300A
:10400000ADF820402846414BADF826402C60404C8E
:10401000CDF82A302560ADF818A0CDF81A80ADF89B
:104020001E60ADF8249007F033FD5FA9284607F025
:1040300063FC56A92846374F07F05EFC4DA9284679
:10404000354E07F059FC44A92846DFF8E4B007F0E4
:1040500053FC20A92846DFF868A007F04DFC2F4B41
:1040600017A91860284607F047FC2D4B0EA91860C9
:10407000284607F041FC2B4B05A91860284607F09D
:104080003BFC294B3BA91860284607F035FC32A9B8
:104090003860284607F030FC29A93060284607F030
:1040A0002BFCCBF80000284607F08CFB064B396848
:1040B0001F68D4F80090222F039398BF282239E07C
:1040C000008C002080850020E4840020C05D03086F
:1040D0000000FFFFD55D0308ED1B0008E45D030849
:1040E000251C0008F35D030801180008055E03089D
:1040F0006D3A0008BB490708155E0308F11800086F
:104100001B5E030895190008351A0008991A000863
:10411000108500200C850020DC8400201C850020F8
:10412000E08400208485002014850020BCDC070882
:104130001885002096BF1D48424602FB07024846EC
:1041400098BF526807F01CFCDBF800803846FDF78A
:104150006DFB41460246484607F012FC039B20686F
:104160001B683168222B9BBF104A2824104A04FB8D
:10417000032398BF9A6907F003FC0E4B01221C46EB
:104180001A70284607F07CFA60B1DAF8003033B1D3
:10419000FFF782FC0023237069B0BDE8F08F322066
:1041A00021F0E0F9002021F0DDF9EAE77CF60308D0
:1041B000BCDC07088CCC02203B4A136819698807CD
:1041C00008D5D968890705D56FF002011961996989
:1041D000002111761969480708D5D968490705D51E
:1041E0006FF00401196199690021117619690807B6
:1041F00008D5D968090705D56FF008011961D96993
:10420000002111761969C80608D5D968C90605D5EF
:104210006FF010011961D969002111761A69D2076E
:1042200005D5DA68D00702D56FF001021A611A6964
:10423000110605D5DA68120602D56FF080021A6100
:104240001A69D00505D5DA68110602D56FF080022B
:104250001A611A69520605D5DA68500602D56FF060
:1042600040021A611A69910605D5DA68920602D5EC
:104270006FF020021A610D4B1B68A3B10C4B1B7829
:10428000012B0C4B04D15A6982F004025A61704729
:104290004FF480229A61084B5A6A00225A62074AF8
:1042A000138801331380704788850020088500201B
:1042B0007BCD022000200240000C0040A48600209C
:1042C00000220B4B1A600B4B1B68DA6822F00102CC
:1042D000DA6041F21112196A0A4042B9196A40F2D1
:1042E00044420A401AB91A6822F001021A60704763
:1042F0000885002088850020064B1B68DA6842F09C
:104300000102DA601A6842F001021A600122024BCF
:104310001A60704788850020088500207FB5012637
:1043200004462A4B00251E7019F0E0FF002C00FA0D
:1043300006F3274A08BF344607EE103A1560A0423C
:10434000B8EE477A234A28BF2046234C116C07EE6B
:10435000900A4FF080403143F8EE677A1164211DD6
:10436000126CC7EE276A206032402561A560039277
:10437000039A6561FCEEE67A17EE903A1B0C9A19E7
:10438000636094F83930022307EE102A84F839303C
:10439000B8EEC77AC6EE877AB7EE007A77EEC77ABC
:1043A000FCEEE77ACDED017ABDF80420E26019F069
:1043B000D1F82A4603211C2084F8396028F020F81F
:1043C0004FF08052054B1A6004B070BD7BCD0220C7
:1043D00008850020003802408885002000E100E0C8
:1043E000BB4C002501264FF00308636A23F4803399
:1043F0002DE98048B74FB9B063627B6833A823F0DA
:1044000001037B60B44B8DF8CC60349311238DF89D
:10441000D7808DF8D4308DF8DB508DF8DA608DF8C8
:10442000D9508DF8CD508DF8D6508DF8D5508DF8E7
:10443000D850BD6027F0C4FF4FF040438DF8CC60EA
:1044400033A8349316238DF8D7808DF8D4308DF8A7
:10445000DB508DF8DA508DF8D9608DF8CD608DF88D
:10446000D6608DF8D5508DF8D860BE6027F0A8FFD3
:1044700005237B60636A43F480336362636943F4BA
:1044800080236361BFF34F8FBFF34F8FBFF36F8FF5
:10449000C4F85052BFF34F8FBFF36F8FBFF34F8FEE
:1044A000BFF36F8FC4F85052636943F40033636104
:1044B000BFF34F8FBFF36F8FC4F88450BFF34F8F9C
:1044C000D4F88030C3F34E31C3F3C90023464A0108
:1044D00043F6E0750446154045EA847614F1FF344E
:1044E0007B4AC3F86062F7D211F1FF31EFD2BFF31C
:1044F0004F8FBFF36F8F0023C2F88430BFF34F8F0D
:10450000D2F88030C3F34E31C3F3C9004B0143F6F8
:10451000E07504461D4045EA847614F1FF346C4B87
:10452000C2F86062F7D211F1FF31EFD2BFF34F8FC3
:104530005A6942F480325A61BFF34F8FBFF36F8FD5
:1045400066490A6842F400720A604FF6FF01DA68B1
:104550001140634A0A43DA6023F0BEFF614B9A6858
:1045600002F00C02042A07D09A6802F00C02082A12
:1045700005D15B68580202D55A4B1B6810E0594BB5
:1045800041F288341A6842F480321A60564A106840
:104590001968890304D41168091AA142F8D93FE0C7
:1045A000504A936803F00C03082B39D0136823F0AA
:1045B000807313604C4B1C6816684A4816F00076EE
:1045C00004D01968091B0229F6D929E047F6C07101
:1045D00091FAA1F14FF44032B1FA81F192FAA2F2CC
:1045E0004FF0706494FAA4F2B2FA82F44FF4D872E5
:1045F00002FA01F5092101FA04F22A4342F4800289
:1046000042F019024260026842F0807202601C6847
:104610000168344A8F0104D41A68121B022AF7D9A0
:10462000FEE7116C41F080511164126C02F080526F
:104630000A920A9A2D4A116841F48031116011469C
:104640001C684868294AC50305D41A68121BB2F5CC
:104650007A7FF6D90CE0116841F4003111601868D6
:1046600051688C0305D41968091AB1F57A7FF7D916
:10467000FEE71A490A6802F00F02062A08D9194A09
:10468000916821F0F0019160116889010DD44FE12A
:104690000A6822F00F0242F007020A600A6802F07C
:1046A0000F02072A40F04481E9E7916841F288341B
:1046B00021F0030141F0020191601868916801F056
:1046C0000C01082914D01968091AA142F6D92FE162
:1046D00000ED00E090ED00E000000120003C024011
:1046E0000003FA050038024044AD0320007000408A
:1046F000904A136803F00F03072B00F20D818E4DD3
:10470000AB6823F4E05343F4A053AB60AB6823F4ED
:10471000604343F40043AB6019F000FEAB68F02245
:1047200092FAA2F2B2FA82F203F0F003DFF83092CA
:104730004FF00108D340814A0227814CD35C4FF0EF
:10474000090B4FF0080AD8407E4B186023F0C4FED6
:104750002B6B33A9484643F480732B632B6B339741
:1047600003F48073CDF8D080CDF8D4800B930B9BED
:104770000323369327F05EFB4FF400337248C9F8E9
:1047800018302823C4F818B063613523C0F800A09E
:10479000E3610B23236240F21B13A36240F2152353
:1047A000636240F21D13236340F23523E362C023AA
:1047B00043610523C3614FF48033C36219F0D0F91C
:1047C0004FF4F07323664FF488736366002384F814
:1047D000343084F8353084F836306360A360E360A9
:1047E00023615A4B236094F8A13003F0FF02002BA1
:1047F00040F0B8806B6C33A9554843F080636B641C
:104800006B6C03F080631493149B2B6B43F40003D5
:104810002B632B6B03F400031393139B2B6B43F05D
:1048200010032B632B6B03F010031293129B2B6B63
:1048300043F040032B632B6B03F040031193119B58
:104840002B6B43F480732B632B6B03F480731093F7
:10485000109B2B6B43F400732B632B6B03F40073DF
:104860000F930F9B2B6B43F480632B632B6B03F431
:1048700080630E930E9B2B6B43F480732B632B6B27
:1048800003F480730D930D9B2B6B43F480632B63B8
:104890002B6B0E25359203F48063349736970C9377
:1048A0000C9B10233795339327F0C4FA4FF48053B1
:1048B00033A92848339301933497CDF8DCB027F01F
:1048C000B9FA4FF4664233A9484634973392379584
:1048D00027F0B0FA4EF6FF7233A91F48339234978F
:1048E000379527F0A7FAF72233A91C48339234975B
:1048F000379527F09FFA019B33A94846CDF8D08021
:10490000339327F097FA33A91448CDF8CCA0CDF80B
:10491000D08027F08FFA25E0136823F00F0343F0CF
:1049200007031360136803F00F03072B3FF4E7AE90
:10493000FEE700BF003C02400038024010130408AC
:10494000F4A9032044830020E08700200068014090
:1049500000100240001802400024024000280240DB
:104960000020024094F8A13003F0FF0213B9A74BD6
:1049700083F8A02023684FF0020A4FF000084FF49C
:10498000805B84F8A1A09A69DFF8BC9222F07042A3
:104990009F4F9A61626899691143A2681143E26866
:1049A000114322690A439A619A4A99680A406169E7
:1049B0009A60A2699868024342EA01429A60954A65
:1049C000D9680A40E169DA60226AD868024342EA9B
:1049D0000142DA608F4A19690A40616A1A61A26A63
:1049E0001869024342EA01421A618A4A59690A4037
:1049F000E16A5A615869226B024342EA01425A61F4
:104A0000D96A94F8360001F07F4194F83520D962D4
:104A1000D96A94F8345029437F4D41EA0222082193
:104A200042EA00420120DA625A6B42F004025A6301
:104A30005A6B42EA0A025A639A6942F001029A6189
:104A40000722764BC4F8A48084F8A100C3F818B0FC
:104A5000C3F81818724BC9F804202B600423C9F856
:104A60000C20C9F80830EB601023C9F800A02B61B6
:104A70004023C9F810A06B614FF48073C9F814A0EB
:104A8000C9F818A0C5F80480C5F80880AB614FF4D8
:104A90004063C5F81C802B62624BC5F824B0C5F892
:104AA00028809A6B02439A639A6B02401C921C9A6C
:104AB0001A6B42F480021A631A6B02F480021B9292
:104AC0001B9A1A6B42F004021A631A6B02F004027A
:104AD0001A921A9A1A6B0A431A631A6B0A401992AD
:104AE000199A1A6B42F010021A631A6B02F0100244
:104AF0001892189A1A6B42F020021A631A6B02F08D
:104B000020021792179A1A6B42F040021A631A6B2E
:104B100002F040021692169A1A6B42F080021A6353
:104B20001B6B359003F0800333913F4833A91593F5
:104B3000159B0C23CDF8D0A03793CDF8D8A027F043
:104B400079F94CF2037333A93848339327F072F99B
:104B50004FF6837333A93648339327F06BF94FF63A
:104B60003F0333A93348339327F064F948F23313F2
:104B700033A93148339327F05DF9282333A92F480F
:104B8000339327F057F980233846C7F80480BB6079
:104B90004FF40073C7F814B0FB604FF48063C7F89C
:104BA0001C803B614FF48043C7F82480BB614FF405
:104BB0000033C7F82C803B620323C7F83080BB6208
:104BC0001F4B2F633B60BD6327F05FFB384627F028
:104BD00081FB42460F21382027F012FC4FF08072F3
:104BE000184B51465A604B4695F82C2002F0FF00B6
:104BF0000AB985F82D0085F82C106968D5F800C031
:104C00000129054ADCF800705BD01FE0F4A90320FD
:104C10003086002000F800F0C0AC032000200240E5
:104C2000400100A00038024000080240000C024091
:104C3000001002400014024000180240001C024014
:104C40001064024000E100E0888B0020D16827F466
:104C5000FF47906827F07F070843116908435169AF
:104C6000084391690843D1690843116A0843516AAE
:104C7000926A014398680A430138D9681743013999
:104C8000CCF800701F68DCF80820013F02F0704E7D
:104C900047EA0E025F68013F42EA071E1A694EEAC0
:104CA0000027013A47EA013040EA02415A699B690C
:104CB000013A013B41EA025242EA0363CCF8083070
:104CC0004BE0106A27F4F847516A40EA010E916AF6
:104CD00090684EEA010ED168014310694EEA070E52
:104CE000DCF804700143506927F4FF4701439069E1
:104CF000D26927F07F070143CCF800E00A4317434D
:104D0000DA68CCF80470571E5A69DCF80800013ADA
:104D100020F47000110520F4704041EA0732596810
:104D200042EA000EDCF80C201868013902F07042EB
:104D3000013840EA02079A6847EA0110013A40EA5E
:104D400002211A699B69013ACCF808E0013B41EA6B
:104D5000024242EA0363CCF80C30BB4F4FF001082B
:104D60004FF00009B94B4FF0100A85F82C8083F8FA
:104D70000090CDF87490C7F80080C7F804A0C7F879
:104D80000880C7F80C9025F005FB4046DFF8F8B224
:104D900027F092FB0223C7F804A03B600193C7F8F9
:104DA0000880C7F80C9025F0F5FA0322C7F80C909C
:104DB00087E804040822BA6025F0ECFA4FF4087280
:104DC000C7F808801D92042287E804041D9AFA603F
:104DD00025F0E0FA95F82C20019B022A0BD0DBF895
:104DE00000208BF82C30536943F4406343F00603F2
:104DF00053618BF82C80DFF894824FF04041002003
:104E00004FF000091EF0E6FD3422D8F800300120F2
:104E100001278F4D02FB0343596E1B6E594301F16D
:104E2000405189001EF0D6FD1EF0ECFB4FF07F4094
:104E3000C8F800901EF070FD4FF07F40C8F8007079
:104E40001EF06AFD94F8A030BB4211D002234946FF
:104E500005F1380085F8A07085F8A130FF23EB64D8
:104E600025F00CFA2B685F6285F8A17085F8A09098
:104E700094F8A030764D012B14D00223012405F1C3
:104E80006C0085F8A130FF23214685F8A040C5F8C5
:104E9000803025F0F3F92B685C62002385F8A1408F
:104EA00085F8A03000256B4B022733A91D80012314
:104EB00069483393379734953595369726F0BAFF7E
:104EC000664B674C1A6B42F480721A631B6BA560C9
:104ED00003F4807325611E931E9B624B84E82800B7
:104EE0004FF6FF73E36094F8393003F0FF020BB91B
:104EF00084F838205A4D5B48291D84F8397018F021
:104F000029FB012384F8393094F83830012B16D06E
:104F10002A68554853688242916803D000F5806042
:104F2000824203D123F470033198034323F07003CA
:104F300021F0800153600023916084F8383094F8A8
:104F400038304749012B1DD0022381F839300B68D6
:104F50001A6A22F480521A62DA69186A22F47342D9
:104F600020F4204042F47142DA611862DA6922F4D6
:104F70004062DA61DA69DA61012381F839300023AD
:104F800081F83830374A4FF63F73116D0B400021DE
:104F900013654FF48052354B1A6059609960D9609F
:104FA00094F838302E4A012B12D01068022382F870
:104FB00039302F4B85682B408360836823F480331E
:104FC00023F007038360012382F8381082F8393018
:104FD000032100223220274D27F012FA4FF48022BD
:104FE000254B4FF47A70254F5A602368DFF8A08074
:104FF000DA6842F00102DA601A6842F001021A60CF
:10500000FFF78CF9FFF778F91D4B1E4A33445868B7
:1050100090420BD102F56052116B41F00101116316
:10502000126B02F001022A922A9A5CE0A84231D166
:105030000A4A116B41F002011163126B02F0020285
:105040002992299A4FE000BF9CAA03206881002082
:10505000F4A90320A486002000200240003802406A
:1050600034870020000C004000000140748B0020B9
:105070008800FEFF0004024000E100E0000802405A
:10508000A412040800000240C0AC0320ACAA032014
:1050900000100240B8420AD1384A116B41F00401B5
:1050A0001163126B02F004022892289A2AE0344A13
:1050B00090420BD102F53052116B41F0080111639F
:1050C000126B02F008022792279A2AE040450AD183
:1050D0002A4A116B41F010011163126B02F01002A9
:1050E0002692269A3BE0274A90420BD102F51052B5
:1050F000116B41F020011163126B02F02002259226
:10510000259A49E0204A90420BD102F50052116BDA
:1051100041F040011163126B02F040022492249A84
:1051200048E01A4A90420BD102F5E052116B41F06F
:1051300080011163126B02F080022392239A39E0FE
:10514000134A90420BD102F5C052116B41F48071A9
:105150001163126B02F480722292229A2AE00D4AA5
:10516000904219D102F5A052116B41F40071116304
:10517000126B02F400722192219A1BE00038024067
:10518000000C02400014024000180240001C0240C3
:105190000020024000240240A54A90420AD102F5B4
:1051A0008052116B41F480611163126B02F48062D2
:1051B0002092209A1B890024143633A933930323A9
:1051C00035943493369426F035FE3C2E7FF41CAF94
:1051D000984B4FF4803E5A6C42F480625A645B6C88
:1051E000954A03F480631F931F9B944B83E804400C
:1051F000196C01229C60DA611A461C619C611C6278
:105200005C62DC629C62DC601C635C6111B95964A5
:1052100083F83C10106C894910F0100056D10B6CCB
:1052200023F4885323F0020343F002030B64844BFE
:105230005C68A3F5807324F44034C3F80441D3F8C8
:10524000044144F48034C3F804415C6824F480745D
:105250005C605C685C605C6824F040745C605C6806
:105260005C609C6824F400649C609C689C609C6802
:1052700024F070649C609C689C609C6824F040549E
:105280009C609C689C609C6824F002049C609C6804
:105290009C605C6824F400645C60DC6A24F4700444
:1052A000DC62DC6ADC629C6824F400749C609C68AC
:1052B0009C609C6824F480649C609C689C6048644A
:1052C0000B6C23F0030343F001030B64594B0025DF
:1052D0000224052682F83C5033A91A6B594842F43F
:1052E00080721A631A6B02F480720992099A1A6B1F
:1052F00042F002021A631A6B02F002020892089A44
:105300001A6B42F002021A631A6B02F00202079251
:10531000079A1A6C42F480421A641B6C339403F4AB
:105320008043349437960693069B012335930323D9
:10533000369326F07FFD4FF4804333A942483393E0
:10534000379626F077FD4FF4004333A93E48339358
:10535000379626F06FFD3D4B38213D4AD9614FF419
:10536000E0611A60D96007219D60D9624FF4007135
:105370005D6199614FF482711C61596093F85D1011
:105380001D625D6201F0FF009D6209B983F85C0057
:1053900083F85D40116821F0400111601A6B12B969
:1053A00001212A4A11632A4A40F23E310024254F46
:1053B00011604FF00208596B3846264D4FF40046F5
:1053C00041F4B8515160D16921F40061D1610121EA
:1053D0001C6683F85D10174B1A6B42F480721A63D7
:1053E0001A6B02F480720592059A1A6B0A431A63CB
:1053F0001B6B34910B4033A937940493049B032314
:1054000035943693CDF8CC8026F014FD33A9284688
:10541000339626F00FFD104B4FF49670C7F81880A6
:10542000AE611C6020F09EF84FF4F07216E000BFF1
:10543000002802400038024000220140E08800209D
:105440000023014000200240000402407088002038
:10545000003800400000024090860020A94BAA4C72
:1054600070201A804FF48872A84B1A8023689847DE
:10547000636870209847512809D1A54B70200822F5
:105480001C60A44B1870A44B1A70E36898470CF08A
:1054900075F8A24B002433A91A6BA14842F002020E
:1054A0001A631B6B359403F002030393039B1023D1
:1054B000339301233493369326F0BCFC994B1C7034
:1054C000994B5A7A012A00F229835A7A33A89749CC
:1054D000D2B29C545A7A03EB820251605A7A1A442F
:1054E00014725A7AD2B2511C3032C9B25972904BEE
:1054F0001A703A22DC705A702F2233939A7020F07F
:10550000E0FA00281DDB8B4B53F820203AB18A4982
:105510000D68AA4208BF0C60002182F80012874A79
:105520000021874D43F8202082F80012FEF7B4FADC
:10553000D5F8A4313BB10123C5F8A431FEF714F826
:1055400001E08048EBE2FEF70FF8FEF7A9F8FEF75E
:10555000C3F87D4B0022EF6D296E9A701A705A7055
:1055600027B1012F40F07782472600E02526774CAF
:10557000002317F0FF07A360E3602361A3614FF0EE
:105580000C03616063611CD1644B1A6B42F0010231
:105590001A631A6B02F001023092309A1A6B42F0D1
:1055A00002021A631A6B02F002022E922E9A5A6CB1
:1055B00042F010025A645B6C03F010032C932C9B96
:1055C0001DE0012F1BD1554B1A6B42F004021A63E8
:1055D0001A6B02F004022F922F9A1A6B42F0040207
:1055E0001A631A6B02F004022D922D9A5A6C42F043
:1055F00020025A645B6C03F020032B932B9B544BCB
:105600004FF0020833A933F81730CDF8D080339328
:105610000123CDF8D88035934E4B33F817303793AC
:105620004D4B53F8270026F005FC4C4B33A9CDF821
:10563000D08033F817303393494B33F81730379312
:10564000484B53F8270026F0F5FB474B53F82770DB
:1056500094F86930276003F0FF0213B93B4B83F8DD
:10566000682024232269A16884F869303B681143CB
:10567000626923F001030A433B60E369386842EA48
:1056800003013A4A0240A0690A433A607A6822F468
:105690004051E2680A43216A7A600143BA6822F401
:1056A00030620A43BA60324A974207D102F5943217
:1056B0003049D2F8902002F0030209E02E4A9742C6
:1056C0000CD102F5FA322D49D2F8902002F00C02EA
:1056D000B3F5004F8A5C40F00081B5E0284A97425C
:1056E00050D102F5F832D2F8902002F03002102AA0
:1056F00000F0CB8040F2A080202A00F0BA80302A4F
:105700004FE000BF648800206C810020AC86002040
:10571000A48B0020DC880020A686002000380240F0
:10572000000402407BCD0220C8850020FC12040842
:10573000848B00202486002094860020408900204D
:10574000B0AA0320061F0508AE860020708700203F
:10575000F812040898120408F012040894120408BD
:10576000981204089C1204088C120408F369FFEFD5
:1057700000100140021F050800440040E012040828
:1057800000480040664A97420DD102F5F632D2F841
:10579000902002F0C002402A77D04DD9802A68D0EC
:1057A000C02A7ED089E05F4A97420FD102F5F432D9
:1057B000D2F8902002F44072B2F5807F65D03BD9D8
:1057C000B2F5007F55D0B2F5407FEAE7564A9742DE
:1057D00012D102F59232D2F8902002F44062B2F572
:1057E000806F52D002D8002A3DD066E0B2F5006F3B
:1057F0003FD0B2F5406FD4E74C4A97420FD102F543
:10580000E032D2F8902002F44052B2F5805F3CD0F2
:1058100012D9B2F5005F2CD0B2F5405FC1E7444A1F
:1058200097424AD102F5DE32D2F8902002F440428B
:10583000B2F5804F29D001D87AB13EE0B2F5004FE1
:1058400017D0B2F5404FACE7082A3AD8DFE802F0AB
:10585000080E1439203939392C00B3F5004F46D1E0
:1058600018F044FD16E0B3F5004F43D118F026FDC3
:1058700010E0B3F5004F40D16068420802F1F473C4
:1058800003F59043B3FBF0F014E0B3F5004F3DD1C6
:1058900018F044FD6268530803EB4000B0FBF2F0DF
:1058A00008E0B3F5004F45D16368580800F5803033
:1058B000B0FBF3F080B2002305E0B3F5004F40F0F9
:1058C000B78001230020C0F3420120F00F002268BE
:1058D0000843D060002B35D0AAE0082A00F2A88047
:1058E000DFE802F005080BA614A6A6A6280018F00B
:1058F000FDFC0DE018F0E2FC0AE061684A0802F5E0
:10590000740303F51053B3FBF1F319E018F006FD2F
:10591000636800EB5300B0FBF3F080B2F86011E075
:10592000004C00400050004000140140007800404E
:10593000007C00406268530803F50043B3FBF2F3B8
:105940009BB2FB60616A8948002941D0CF0706D528
:1059500007687B6823F40032836A13437B608807FF
:1059600006D52068436823F48032E36A134343601A
:105970004A0706D52068436823F48022236B13432B
:1059800043600B0706D52068436823F40042636B2D
:1059900013434360CF0606D52068836823F4805202
:1059A000A36B13438360880606D52068836823F4BD
:1059B0000052E36B134383604A0600F1B2800B068A
:1059C00006D521684B6823F40022A36C13434B6077
:1059D00023685A6822F490425A609A6822F02A0298
:1059E0009A601A6842F001021A600022E266604A78
:1059F000106819680F0740F1A8805E4FD96901F45B
:105A00000011002940F0A1801168091AB942F5D9A6
:105A10001A6822F4D0721A609A6822F001029A6021
:105A2000202384F8693084F86A30002384F86830D1
:105A300001223046002126F0E3FC0123720906F022
:105A4000070603FA06F64C4B43F8226022681368F7
:105A500043F020031360494822F094FF32201FF0E6
:105A600081FD474A4749484823F0AAFC474804F0CB
:105A7000A9F80EF0F9FB01300AD15A23444A4549EE
:105A8000ADF8CC301823ADF8CE30339814F0AAFC22
:105A900004F048FE0028FBD06A6E3F4B1A601A687B
:105AA00042B1196842F20F72914203D800223B4979
:105AB0001A604A6664201FF055FDD5F8C820384B9F
:105AC0001A700122374B1A70D5F8CC2002B91A701F
:105AD000354BD5F8D020354C1A602146344A35482C
