:020000040800F2
:1000000000800020D5CC0208E3AE0108C10300083F
:10001000EDAE0108EBAE0108E9AE010800000000FA
:10002000000000000000000000000000E7AE010832
:10003000E5AE010800000000E1AE010881AE010854
:10004000C9010008CB010008CD010008CF0100085C
:10005000D1010008D3010008D5010008D70100082C
:10006000D9010008DB010008DD010008DF010008FC
:10007000E1010008E3010008E5010008E7010008CC
:10008000E9010008EB010008ED010008EF0100089C
:10009000F1010008F3010008F5010008F70100086C
:1000A000F9010008FB010008FD010008FF0100083C
:1000B000E1410008030200080502000807020008E9
:1000C000090200080B0200080D0200080F020008D8
:1000D00011020008D1CC020815020008170200081E
:1000E000190200081B0200081D0200081F02000878
:1000F0002102000823020008250200082702000848
:1001000029020008B54802082D0200082F02000845
:1001100031020008330200083502000837020008E7
:10012000390200083B0200083D0200089D48020811
:1001300075AE0108430200084502000847020008A6
:10014000490200084B0200084D0200084F02000857
:1001500051020008A948020869AE0108CDCC020886
:10016000590200085B0200085D0200085F020008F7
:100170006102000885A20108650200080000000075
:1001800067020008690200086B0200086D0200089F
:100190006F0200087102000873020008750200086F
:1001A00077020008790200087B0200087D0200083F
:1001B0007F0200088102000883020008850200080F
:1001C0008702000889020008FEE7FEE7FEE7FEE777
:1001D000FEE7FEE7FEE7FEE7FEE7FEE7FEE7FEE7F7
:1001E000FEE7FEE7FEE7FEE7FEE7FEE7FEE7FEE7E7
:1001F000FEE7FEE7FEE7FEE7FEE7FEE7FEE7FEE7D7
:10020000FEE7FEE7FEE7FEE7FEE7FEE7FEE7FEE7C6
:10021000FEE7FEE7FEE7FEE7FEE7FEE7FEE7FEE7B6
:10022000FEE7FEE7FEE7FEE7FEE7FEE7FEE7FEE7A6
:10023000FEE7FEE7FEE7FEE7FEE7FEE7FEE7FEE796
:10024000FEE7FEE7FEE7FEE7FEE7FEE7FEE7FEE786
:10025000FEE7FEE7FEE7FEE7FEE7FEE7FEE7FEE776
:10026000FEE7FEE7FEE7FEE7FEE7FEE7FEE7FEE766
:10027000FEE7FEE7FEE7FEE7FEE7FEE7FEE7FEE756
:0C028000FEE7FEE7FEE7FEE7FEE70000F9
:1002900010B5054C237833B9044B13B10448AFF3C0
:1002A00000800123237010BD608500200000000045
:1002B000BC400308084B10B51BB108490848AFF310
:1002C00000800848036803B910BD074B002BFBD022
:1002D000BDE81040184700BF000000006485002002
:1002E000BC40030860850020000000004B1C012B6F
:1002F00098BF70472DE9F003911C9B08B1F804806A
:10030000B1F802900A8831F802CC8044814402445A
:100310008444D9F80070D8F800601568DCF8004013
:10032000C9F80060C8F80070CCF800501460D9F823
:100330000470D8F804605568DCF80440C9F804601B
:10034000C8F80470CCF8045054600831013BD5D192
:10035000BDE8F00370474B1C012B98BF70472DE997
:10036000F003911C9B08B1F80480B1F802900A8850
:1003700031F802CC00EB580800EB590900EB5202AF
:1003800000EB5C0CD9F80070D8F800601568DCF858
:100390000040C9F80060C8F80070CCF80050146044
:1003A0000831013BDFD1BDE8F0037047D42D0908C7
:1003B000008000206085002060850020D86804202F
:1003C0001EF0040F0CBFEFF30880EFF30980816982
:1003D000FEE700BF034613F8012B002AFBD1181AD1
:1003E000013870470000000000000000000000001D
:1003F00001F0FF01102A2BDB10F0070F08D010F8D6
:10040000013B013A8B422DD010F0070F42B3F6D1D9
:10041000F0B441EA012141EA014122F007047FF0F2
:1004200000070023F0E80256083C85EA010586EA49
:10043000010685FA47F5A3FA87F586FA47F6A5FA85
:1004400087F68EB9EED1F0BC01F0FF0102F0070291
:1004500032B110F8013B013A83EA010313B1F8D13C
:100460000020704701387047002D06BF354603381D
:10047000073815F0010F07D1013015F4807F02BF56
:10048000013015F4C03F0130F0BC0138704700BFA7
:1004900010F8012B11F8013B012A28BF9A42F7D02E
:1004A000D01A704781F0004102E000BF83F00043A2
:1004B00030B54FEA41044FEA430594EA050F08BFFF
:1004C00090EA020F1FBF54EA000C55EA020C7FEAC3
:1004D000645C7FEA655C00F0E2804FEA5454D4EB40
:1004E0005555B8BF6D420CDD2C4480EA020281EA0A
:1004F000030382EA000083EA010180EA020281EA42
:100500000303362D88BF30BD11F0004F4FEA013193
:100510004FF4801C4CEA113102D0404261EB4101A2
:1005200013F0004F4FEA03334CEA133302D0524228
:1005300063EB430394EA050F00F0A780A4F10104E4
:10054000D5F1200E0DDB02FA0EFC22FA05F280181E
:1005500041F1000103FA0EF2801843FA05F3594104
:100560000EE0A5F120050EF1200E012A03FA0EFC83
:1005700028BF4CF0020C43FA05F3C01851EBE371AD
:1005800001F0004507D54FF0000EDCF1000C7EEBCA
:1005900000006EEB0101B1F5801F1BD3B1F5001F08
:1005A0000CD349085FEA30004FEA3C0C04F1010427
:1005B0004FEA445212F5800F80F09A80BCF1004F50
:1005C00008BF5FEA500C50F1000041EB045141EAD2
:1005D000050130BD5FEA4C0C404141EB010111F4D3
:1005E000801FA4F10104E9D191F0000F04BF01467E
:1005F0000020B1FA81F308BF2033A3F10B03B3F15C
:1006000020020CDA0C3208DD02F1140CC2F10C02EB
:1006100001FA0CF021FA02F10CE002F11402D8BF49
:10062000C2F1200C01FA02F120FA0CFCDCBF41EA15
:100630000C019040E41AA2BF01EB0451294330BDE4
:100640006FEA04041F3C1CDA0C340EDC04F11404C1
:10065000C4F1200220FA04F001FA02F340EA030098
:1006600021FA04F345EA030130BDC4F10C04C4F1DE
:10067000200220FA02F001FA04F340EA03002946BE
:1006800030BD21FA04F0294630BD94F0000F83F408
:10069000801306BF81F480110134013D4EE77FEAEB
:1006A000645C18BF7FEA655C29D094EA050F08BF37
:1006B00090EA020F05D054EA000C04BF1946104618
:1006C00030BD91EA030F1EBF0021002030BD5FEA5C
:1006D000545C05D14000494128BF41F0004130BD84
:1006E00014F580043CBF01F5801130BD01F00045D8
:1006F00045F0FE4141F470014FF0000030BD7FEA4B
:10070000645C1ABF194610467FEA655C1CBF0B4645
:10071000024650EA013406BF52EA033591EA030F5C
:1007200041F4002130BD00BF90F0000F04BF002154
:10073000704730B54FF4806404F132044FF0000587
:100740004FF0000150E700BF90F0000F04BF002100
:10075000704730B54FF4806404F1320410F0004566
:1007600048BF40424FF000013EE700BF42004FEA61
:10077000E2014FEA31014FEA02701FBF12F07F43DE
:1007800093F07F4F81F06051704792F0000F14BFDB
:1007900093F07F4F704730B54FF4607401F000451F
:1007A00021F0004120E700BF50EA010208BF704776
:1007B00030B54FF000050AE050EA010208BF70476B
:1007C00030B511F0004502D5404261EB41014FF4D4
:1007D000806404F132045FEA915C3FF4DCAE4FF0D8
:1007E00003025FEADC0C18BF03325FEADC0C18BFBF
:1007F000033202EBDC02C2F1200300FA03FC20FA10
:1008000002F001FA03FE40EA0E0021FA02F114445C
:10081000C1E600BF70B54FF0FF0C4CF4E06C1CEA71
:1008200011541DBF1CEA135594EA0C0F95EA0C0FE6
:1008300000F0DEF82C4481EA030621EA4C5123EA59
:100840004C5350EA013518BF52EA033541F4801188
:1008500043F4801338D0A0FB02CE4FF00005E1FB3B
:1008600002E506F00042E0FB03E54FF00006E1FB85
:1008700003569CF0000F18BF4EF0010EA4F1FF04C8
:10088000B6F5007F64F5407404D25FEA4E0E6D4108
:1008900046EB060642EAC62141EA55514FEAC52019
:1008A00040EA5E504FEACE2EB4F1FD0C88BFBCF595
:1008B000E06F1ED8BEF1004F08BF5FEA500E50F146
:1008C000000041EB045170BD06F0004646EA01010C
:1008D00040EA020081EA0301B4EB5C04C2BFD4EB3E
:1008E0000C0541EA045170BD41F480114FF0000E37
:1008F000013C00F3AB8014F1360FDEBF002001F0A5
:10090000004170BDC4F10004203C35DA0C341BDC1E
:1009100004F11404C4F1200500FA05F320FA04F0F0
:1009200001FA05F240EA020001F0004221F0004124
:1009300010EBD37021FA04F642EB06015EEA430E97
:1009400008BF20EAD37070BDC4F10C04C4F12005C7
:1009500000FA04F320FA05F001FA04F240EA02007A
:1009600001F0004110EBD37041F100015EEA430E4B
:1009700008BF20EAD37070BDC4F1200500FA05F26B
:100980004EEA020E20FA04F301FA05F243EA0203EA
:1009900021FA04F001F0004121FA04F220EA0200F9
:1009A00000EBD3705EEA430E08BF20EAD37070BD3F
:1009B00094F0000F0FD101F00046400041EB01011F
:1009C00011F4801F08BF013CF7D041EA060195F001
:1009D000000F18BF704703F00046520043EB0303BB
:1009E00013F4801F08BF013DF7D043EA06037047A8
:1009F00094EA0C0F0CEA135518BF95EA0C0F0CD0B3
:100A000050EA410618BF52EA4306D1D181EA0301F8
:100A100001F000414FF0000070BD50EA410606BFF2
:100A20001046194652EA430619D094EA0C0F02D137
:100A300050EA013613D195EA0C0F05D152EA03367C
:100A40001CBF104619460AD181EA030101F000419A
:100A500041F0FE4141F470014FF0000070BD41F0E3
:100A6000FE4141F4780170BD70B54FF0FF0C4CF4BD
:100A7000E06C1CEA11541DBF1CEA135594EA0C0FDC
:100A800095EA0C0F00F0A7F8A4EB050481EA030E29
:100A900052EA03354FEA013100F088804FEA033310
:100AA0004FF0805545EA131343EA12634FEA0222DE
:100AB00045EA111545EA10654FEA00260EF000419F
:100AC0009D4208BF964244F1FD0404F5407402D2F1
:100AD0005B084FEA3202B61A65EB03055B084FEA82
:100AE00032024FF480104FF4002CB6EB020E75EB7F
:100AF000030E22BFB61A754640EA0C005B084FEAA7
:100B00003202B6EB020E75EB030E22BFB61A754623
:100B100040EA5C005B084FEA3202B6EB020E75EB6E
:100B2000030E22BFB61A754640EA9C005B084FEAE6
:100B30003202B6EB020E75EB030E22BFB61A7546F3
:100B400040EADC0055EA060E18D04FEA051545EAE2
:100B500016754FEA06164FEAC30343EA52734FEA8B
:100B6000C2025FEA1C1CC0D111F4801F0BD141EA04
:100B700000014FF000004FF0004CB6E711F4801F69
:100B800004BF01430020B4F1FD0C88BFBCF5E06F49
:100B90003FF6AFAEB5EB030C04BFB6EB020C5FEA59
:100BA000500C50F1000041EB045170BD0EF0004EAE
:100BB0004EEA113114EB5C04C2BFD4EB0C0541EAE0
:100BC000045170BD41F480114FF0000E013C90E6DD
:100BD00045EA060E8DE60CEA135594EA0C0F08BFA1
:100BE00095EA0C0F3FF43BAF94EA0C0F0AD150EAA0
:100BF00001347FF434AF95EA0C0F7FF425AF104633
:100C000019462CE795EA0C0F06D152EA03353FF45A
:100C1000FDAE1046194622E750EA410618BF52EAD7
:100C200043067FF4C5AE50EA41047FF40DAF52EAAB
:100C300043057FF4EBAE12E74FF0FF3C06E000BF48
:100C40004FF0010C02E000BF4FF0010C4DF804CD55
:100C50004FEA410C7FEA6C5C4FEA430C18BF7FEA15
:100C60006C5C1BD001B050EA410C0CBF52EA430C43
:100C700091EA030F02BF90EA020F0020704710F1C3
:100C8000000F91EA030F58BF994208BF90422CBF52
:100C9000D8176FEAE37040F0010070474FEA410C4B
:100CA0007FEA6C5C02D150EA013C07D14FEA430C69
:100CB0007FEA6C5CD6D152EA033CD3D05DF8040BDA
:100CC000704700BF8446104662468C46194663460C
:100CD00000E000BF01B5FFF7B7FF002848BF10F1E3
:100CE000000F01BD4DF808EDFFF7F4FF0CBF012028
:100CF00000205DF808FB00BF4DF808EDFFF7EAFFA4
:100D000034BF012000205DF808FB00BF4DF808ED5E
:100D1000FFF7E0FF94BF012000205DF808FB00BF53
:100D20004DF808EDFFF7CEFF94BF012000205DF8DD
:100D300008FB00BF4DF808EDFFF7C4FF34BF0120EA
:100D400000205DF808FB00BF4FEA410C7FEA6C5CB5
:100D500002D150EA013C0AD14FEA430C7FEA6C5CB5
:100D600002D152EA033C02D14FF0000070474FF02D
:100D7000010070474FEA410212F5001215D211D559
:100D80006FF47873B3EB625212D94FEAC12343F088
:100D9000004343EA505311F0004F23FA02F018BF0A
:100DA000404270474FF00000704750EA013005D1D3
:100DB00011F0004008BF6FF0004070474FF0000096
:100DC000704700BF4A0011D212F5001211D20DD5A2
:100DD0006FF47873B3EB62520ED44FEAC12343F041
:100DE000004343EA505323FA02F070474FF00000EB
:100DF000704750EA013002D14FF0FF3070474FF09A
:100E0000000070474FEA4102B2F1E04324BFB3F55E
:100E1000001CDCF1FE5C0DD901F0004C4FEAC00271
:100E20004CEA5070B2F1004F40EB830008BF20F055
:100E30000100704711F0804F21D113F13872BCBF0F
:100E400001F00040704741F480114FEA5252C2F164
:100E50001802C2F1200C10FA0CF320FA02F018BFAD
:100E600040F001004FEAC1234FEAD32303FA0CFC00
:100E700040EA0C0023FA02F34FEA4303CCE77FEA8F
:100E8000625307D150EA01331EBF4FF0FE4040F4D9
:100E90004000704701F0004040F0FE4040F4000088
:100EA000704700BF53B94AB9002908BF00281CBFCA
:100EB0004FF0FF314FF0FF3000F088BCADF1080C6F
:100EC0006DE904CE00F010FBDDF804E0DDE902235B
:100ED00004B0704760EE016A60EEA17A84B0CDED97
:100EE000017ACDED006A61EE207ADDED006A9DEDBC
:100EF000016ACDED037A60EE215A76EEC67ACDED29
:100F0000025ADDED025A9DED035AF4EE677AF1EED6
:100F100010FA35EE857A05D1B0EE670AF0EE470A91
:100F200004B07047B4EE477AF1EE10FAF4D0B4EEA4
:100F3000400AF1EE10FA70EE404A05D1F4EE644A30
:100F4000F1EE10FA40F0CA80F4EE600AF1EE10FA09
:100F500070EEE04A05D1F4EE644AF1EE10FA40F08A
:100F6000FB800023B4EE411AF1EE10FA71EE414A13
:100F700005D1F4EE644AF1EE10FA40F09580F4EEFB
:100F8000611AF1EE10FA71EEE14A04D1F4EE644A0E
:100F9000F1EE10FA58D1002B47D1F4EE666AF1EE6B
:100FA00010FA76EEE64A04D1F4EE644AF1EE10FA55
:100FB00023D1B4EE466AF1EE10FA76EE466A04D119
:100FC000F4EE666AF1EE10FA17D1F4EE655AF1EE1E
:100FD00010FA75EEE56A04D1F4EE666AF1EE10FAE5
:100FE0000BD1B4EE455AF1EE10FA75EE456A93D185
:100FF000F4EE666AF1EE10FA8ED0B4EE400AF1EE2D
:1010000010FA40F0DF80F4EE600AF1EE10FA40F0E2
:10101000CC80B4EE411AF1EE10FA40F0B980F4EE53
:10102000611AF1EE10FA40F0A68061EEE07A20EE4F
:10103000817AE0EE017AA0EE217ADFED796A67EE3F
:10104000A67A27EE267A67E711EE103ADFED757A79
:101050009FED757A002BB4BFB0EE671AB0EE471A59
:10106000F7EE007A11EE903AF0EEE77A002BB4EE4C
:10107000400AB8BFF1EE677AF1EE10FAF0EE671AA7
:1010800040F0AD80F4EE600AF1EE10FACDD010EE33
:10109000903A9FED657ADFED637A002BB4BFF0EEF6
:1010A000670AF0EE470AC0E711EE103AFFEE007A49
:1010B000002BB7EE001AF4EE611AB8BFB0EE671A53
:1010C000F1EE10FA71EEE17A05D1F4EE677AF1EE05
:1010D00010FA40F09E80DFED547AC3E710EE103A2C
:1010E000FFEE004A002BB7EE000AF4EE600AB8BF2C
:1010F000B0EE640AF1EE10FA70EEE04A05D1F4EEBB
:10110000644AF1EE10FA40F08780DFED474A10EEB6
:10111000903AF0EEE44A002BB4EE411AB8BFF1EE7B
:10112000644AF1EE10FAF0EE640A65D1F4EE611A49
:10113000F1EE10FA08BF01233FF414AF11EE903A1C
:101140009FED394ADFED374A002BB4BFF0EE641A49
:10115000F0EE441A012305E710EE103ADFED314AB4
:101160009FED314A002BB4BFB0EE640AB0EE440AE2
:10117000F7EE004ACBE711EE903A9FED2B7ADFEDC8
:10118000297A002BB4BFF0EE671AF0EE471A4CE74D
:1011900011EE103A9FED247ADFED227A002BB4BFD6
:1011A000B0EE671AB0EE471A39E710EE903A9FEDAD
:1011B0001E7ADFED1C7A002BB4BFF0EE670AF0EE6A
:1011C000470A26E710EE103A9FED177ADFED157A01
:1011D000002BB4BFB0EE670AB0EE470A13E710EE7B
:1011E000103A9FED117ADFED0F7A002BB4BFB0EE0D
:1011F000670AB0EE470A45E711EE103A9FED0A4A3A
:10120000DFED084A002BB4BFB0EE641AB0EE441A0A
:101210008CE7F7EE007A25E7F7EE004A77E700BFA4
:101220000000807F0000008000000000B0EEC17A66
:10123000F0EEE17AB4EEE77AF1EE10FA1BD5C1EEEA
:10124000217AF0EE616AB0EE607AE1EE276AA7EEED
:10125000807AB0EE406A97EEA06AC7EE267A86EEF4
:10126000267AF4EE677AF1EE10FA1BD1B0EE670A37
:10127000F0EE470A7047C1EE817AF0EE416AB0EEB7
:10128000407AE1EEA76AA0EEA77AB0EE606AA0EE1F
:10129000676AC7EE267A86EE267AF4EE677AF1EE72
:1012A00010FAE3D0B4EE477AF1EE10FADED0B5EEE4
:1012B000401AF1EE10FA19D1F5EE401AF1EE10FADB
:1012C00014D1B4EE400AF1EE10FA40F0D38011EEE2
:1012D000103ADFED707A9FED707A002BB8BFB0EE58
:1012E000677A60EE077A20EE877ABFE770EE406A91
:1012F000B4EE400AF1EE10FAF4EE666A0CBF012378
:101300000023F1EE10FA03F0010308BF0023002BC5
:101310006DD1F4EE600AF1EE10FA30EEE06A04D11D
:10132000B4EE466AF1EE10FA61D131EE416AB4EEE4
:10133000411AF1EE10FAB4EE466A0CBF0123002305
:10134000F1EE10FA03F0010308BF002363B931EE98
:10135000E16AF4EE611AF1EE10FA87D1B4EE466A52
:10136000F1EE10FA82D00023F4EE666AF1EE10FA84
:101370007FF47CAF70EEE06AF4EE666AF1EE10FA8C
:101380007FF474AFDFED457A002BF7EE006A11EEC3
:10139000103A08BFF0EE676AF0EEE66A002BF4EE52
:1013A000611AB8BFF1EE666AF1EE10FA71EEE17AF9
:1013B00004D1F4EE677AF1EE10FA67D19FED377A37
:1013C00011EE903AB0EEC77A002BB8BFB1EE477A73
:1013D00060EE877A27EE407AE0EE267AA0EEA67AD3
:1013E000DFED2E6A67EEA67A27EE267A3EE731EE2B
:1013F000416AB4EE466AF1EE10FA98D131EEE16A34
:10140000B4EE466AF1EE10FAA3D1DFED247A002B98
:10141000F7EE006A10EE103A08BFF0EE676AF0EEE1
:10142000E66A002BF4EE600AB8BFF1EE666AF1EEF0
:1014300010FA70EEE07A04D1F4EE677AF1EE10FA69
:1014400021D19FED166A10EE903AB0EEC66A002BDD
:10145000B8BFB1EE466A26EEE17A61EE867AA1EE79
:10146000067AE1EE267ADFED0C6A67EEA67A27EEC1
:10147000267AFBE6F4EE600AF1EE10FA3FF427AFAD
:1014800070EE406A51E7B7EE006ADCE7B7EE007A2B
:1014900096E700BF000080FF0000807F0000000092
:1014A000D0B500220E4B06460F46FFF7B3F9FFF703
:1014B00089FC0446FFF738F900220A4BFFF7AAF926
:1014C00002460B4630463946FEF7F0FFFFF77AFC3E
:1014D0002346002242EA000210461946D0BD00BF52
:1014E0000000F03D0000F0412DE9F0478C460E462B
:1014F0000446089D002B50D18A4217466CD9B2FA97
:1015000082FEBEF1000F0BD0CEF1200420FA04F4CD
:1015100001FA0EF644EA060C02FA0EF700FA0EF48F
:101520004FEA1749220CBCFBF9F01FFA87F809FBB8
:1015300010C642EA064600FB08F3B34209D9F61981
:1015400000F1FF3280F02281B34240F21F81023865
:101550003E44F61AA2B2B6FBF9F309FB136642EA5F
:10156000064403FB08F8A04509D9E41903F1FF324A
:1015700080F00A81A04540F20781023B3C44C8EB61
:10158000040443EA00400021002D62D024FA0EF446
:1015900000232C606B60BDE8F0878B4207D9002DDB
:1015A00055D0002185E841000846BDE8F087B3FA30
:1015B00083F1002940F09080B34202D3824200F2CE
:1015C000F880841A66EB03060120B446002D40D053
:1015D00085E81010BDE8F08712B90127B7FBF2F7D4
:1015E000B7FA87FEBEF1000F35D1F31B4FEA17485B
:1015F0001FFA87FC0121B3FBF8F0220C08FB103620
:1016000042EA06460CFB00F3B34207D9F61900F193
:10161000FF3202D2B34200F2CE801046F61AA2B2D6
:10162000B6FBF8F308FB136642EA06440CFB03FC26
:10163000A44507D9E41903F1FF3202D2A44500F210
:10164000B5801346CCEB040443EA00409CE72946EE
:101650002846BDE8F087CEF1200106FA0EF307FA1E
:101660000EF720FA01F94FEA1748CE4049EA03097C
:10167000B6FBF8FA4FEA194408FB1A661FFA87FC12
:1016800044EA06430AFB0CF29A4200FA0EF40AD925
:10169000DB190AF1FF3180F087809A4240F28480A2
:1016A000AAF1020A3B449B1A1FFA89F9B3FBF8F12D
:1016B00008FB113349EA034301FB0CF69E4207D9AC
:1016C000DB1901F1FF326BD29E4269D902393B44EA
:1016D0009B1B41EA0A418EE7C1F1200E22FA0EF46B
:1016E0008B40234320FA0EF706FA01F44FEA134C1D
:1016F00026FA0EF63C43B6FBFCF9270C0CFB1966E8
:101700001FFA83F847EA064609FB08F7B74202FAD0
:1017100001F200FA01FA08D9F61809F1FF3041D2B6
:10172000B7423FD9A9F102091E44F61BA0B2B6FB8D
:10173000FCF40CFB146640EA064704FB08F8B845C5
:1017400007D9FF1804F1FF3028D2B84526D9023C4A
:101750001F4444EA0940C8EB0707A0FB02894F4534
:1017600044464E4614D329D065B3BAEB040367EB65
:10177000060707FA0EFECB40CF404EEA030385E88A
:1017800088000021BDE8F0871346F8E61046E0E641
:10179000B8EB020469EB03060138E5E70446D8E735
:1017A000114695E78146C0E78A467CE7023B3C4408
:1017B00048E708460AE702383E442FE7C245E7D328
:1017C0003E46D1E72946BDE8F08700BF704700BF1D
:1017D000A0F13003DBB2092B01D858B27047A0F159
:1017E0004103052B01D8373804E0A0F16103052B34
:1017F00002D8573840B270474FF0FF3070470000B2
:101800000122014B1A607047508C0020024B586F28
:10181000431E5842584170475CAD0320024B586F3D
:10182000431E5842584170475CAD03202328F7B54A
:101830004AD82822264B42439C18995C254A2569A0
:1018400052F8212001927DB1A6680021B1420BD04F
:10185000E7684FEA810E57F82170BA4202D155F875
:101860000E0032E00131F1E7282101FB0030037D59
:10187000072B29D8DFE803F0040B0C0E10111621FA
:10188000D3B2154915481A4632F00CFA13E092B259
:10189000134903E052B200E012B212490F4832F08D
:1018A00001FA08E01046FEF761FF02460B460B48BE
:1018B0000D4932F0F7F9094807E0084B002201987A
:1018C0005A711860184600E0084803B0F0BD00BF28
:1018D00038FA03085CAD0320BD6103088885002049
:1018E000C86103081C4F0708CB610308775007083D
:1018F0002DE9F041214D2823214C2868A04643437F
:10190000232814F803E004EB03071E4B53F82E20A2
:101910001E4601D8B96809B9531E16E00023FF68B6
:1019200057F82340A2420CD12BB901F18041013973
:1019300057F8213009E003F18043013B57F8233089
:1019400003E001339942EBD13B6846F82E300E4B51
:101950001E680E4B1F68FFF769FF02463046394686
:101960000AF040F92B682821094A01FB0384136817
:10197000616A0B441360BDE8F08100BF84850020DC
:1019800038FA03085CAD0320B0850020B88500203C
:10199000208600202DE9F041204D2823204C286886
:1019A000204EA0464343232814F803E004EB03072A
:1019B00056F82E2001D8BB680BB9531C15E0002146
:1019C000FF6857F82140A24207D1013B8B4216BF66
:1019D00001313B6857F8213007E001318B42F0D1EB
:1019E00003F18043013B57F8233046F82E300E4B6D
:1019F0001E680E4B1F68FFF719FF02463046394636
:101A00000AF0F0F82B682821094A01FB03841368C7
:101A1000616A0B441360BDE8F08100BF848500203B
:101A200038FA03085CAD0320B0850020B88500209B
:101A3000208600202DE9F041114E2825114C3068F8
:101A400005FB00F3E15C104B53F82120C83A43F842
:101A500021200E4B1F680E4BD3F80080FFF7E6FEE7
:101A60000246384641460AF0BDF83268094905FB8E
:101A700002435A6A0B6813440B60BDE8F08100BF53
:101A80008485002038FA03085CAD0320B08500206F
:101A9000B8850020208600202DE9F041114E282530
:101AA000114C306805FB00F3E15C104B53F821202A
:101AB000C83243F821200E4B1F680E4BD3F800802C
:101AC000FFF7B4FE0246384641460AF08BF832680A
:101AD000094905FB02435A6A0B6813440B60BDE8D1
:101AE000F08100BF8485002038FA03085CAD032034
:101AF000B0850020B8850020208600202DE9F8431D
:101B00002D4D28232D4C2F682D4E7B43DFF8D89088
:101B1000D6F80080E35C072B2A4B06D12A4A4046C0
:101B200019680AF05FF8294A05E0294A4046196811
:101B30000AF058F8264AD9F8001040460AF052F840
:101B4000232F244BD6F80080196894BF2823204AFD
:101B500040469CBF03FB07435A680AF043F81E4BFC
:101B60003846D3F80090FFF761FE024640464946EA
:101B70000AF038F82D68194B232D3668196894BF80
:101B80002823134A30469CBF03FB05439A690AF099
:101B900029F8134B304619680AF018F8282303FB7C
:101BA0000544104B247F1968447030460AF00EF843
:101BB0004470BDE8F88300BF8485002038FA03082C
:101BC000B085002024860020CE610308D961030877
:101BD00077500708AC850020B88500207C85002060
:101BE000BC85002080850020B485002070B50B4C9A
:101BF0000B4E254623682822013B232B88BF232335
:101C000023602B6802FB03631B6A1BB9BDE87040AD
:101C1000FFF774BF98470028ECD0F7E784850020D1
:101C200038FA030870B50B4C0B4E25462368282262
:101C30000133232B88BF002323602B6802FB03633F
:101C40001B6A1BB9BDE87040FFF758BF98470028D2
:101C5000ECD0F7E78485002038FA03081FB500F1BF
:101C60001404143454F8280C431C2AD054F8241CAF
:101C700003F048FF54F81C1C009054F8200C013964
:101C8000013803F03FFF104A01460190009803F02D
:101C9000AFFE54F8241C54F8280C0131013003F035
:101CA00031FF54F81C1C029054F8200C0239023801
:101CB00003F028FF044A01460390029803F098FEBF
:101CC000CFE704B010BD00BF969696FF01380428F8
:101CD0000FD8DFE800F00503080A0C002020704749
:101CE000054B18787047052070472D207047142049
:101CF00070471020704700BF3781070821B30138B3
:101D0000042804D8DFE800F0070C10141A000F4B69
:101D10000B60102315E00E4B0B600E4B1B780AE096
:101D20000D4B0B60202306E00C4B0B60052308E0F5
:101D30000B4B0B602D230B71022304E0094B0B604E
:101D400014230B7101234B71704700BFD097030818
:101D50007CEC030837810708647403082C570308D8
:101D60003C0A04089C8B030837B500220C460092FD
:101D7000019289B16946FFF7C1FF00999DF80550AE
:101D8000104623784BB151F823301A7814F8013FEC
:101D9000104413B12844F4E7084603B030BD0000F6
:101DA0002DE9F04F8DB01E460023054603910AA988
:101DB0001446BDF858B00A930B93FFF79FFFAAB1E2
:101DC0005946304603F09EFE179907902846FFF7C4
:101DD000CBFF9DF82C1030445944013903F092FE9A
:101DE000224601460890079804F0EAF90023179A62
:101DF0001278002A64D018998B4261D00A994FF06A
:101E0000340E51F822403049257808682F49771957
:101E10009DF82C200EFB0011B1F860108F424FDCB2
:101E20005A4404F101085F4692B20292029A974224
:101E30003AD02C46002C34D018F8012B22B9072CAC
:101E40002FD9083CE4B2F5E7082C21464FF00009F1
:101E50004FF0010A28BF08210091311989B2019180
:101E6000019901EB09000099494480B211F0FF0F7C
:101E7000E5D012EA0A0F0AD039460592049303F01E
:101E800041FE0399099003F0EBFD059A049B09F1CB
:101E9000FF394FEA4A0A19F1080F5FFA8AFADFD1CF
:101EA000CDE70137BFB2C1E71799013311F8012F10
:101EB00017912AB19DF82D2015442E44B6B296E70D
:101EC00018460DB0BDE8F08F54AD032008AC0320D8
:101ED0002DE9FF410B9C054698460E4620461746C5
:101EE000FEF778FABDF828303A463146009343466B
:101EF000029028460194FFF753FF04B0BDE8F0813B
:101F00002DE9FF410D4C98460CAB05460E46174691
:101F1000FF210B9A2046039331F074FF00233A46C9
:101F2000314623542846BDF8283001940093434697
:101F3000FFF7CEFF04B0BDE8F08100BFB8F4022087
:101F40002DE9F0470A9E8846BDF824501C463146CC
:101F500007469146BDF820A0FFF706FF281A09960C
:101F60004A46A0420346CDF820A04146B8BF2346CA
:101F700038469BB2BDE8F047FFF7AABF30B585B041
:101F800000240D4602A902940394FFF7B7FE0D4BFF
:101F9000ADF80040342418680B4B9DF80C1004FB7E
:101FA00000331144ADF80220B3F860004008013856
:101FB00003F0A8FD2A460146009804F001F905B097
:101FC00030BD00BF54AD032008AC0320064B13B551
:101FD0001C7E0123019100922146024603481CF019
:101FE0005DFB002002B010BD5CAD0320CC8700205B
:101FF00004284FEA031373B512BFC901002101225F
:1020000003F0700308BF0C469DF818604FEA1225D4
:102010008DF801201EBFB1FBF2F402FB1411A4F5F0
:1020200000748DF800504FEA123218BF04EBC01450
:10203000042802F0F0028DF80710C4F301458DF872
:10204000044008BF45F00C051D43230A8DF80330FA
:10205000C1F303438DF802501A440B0A8DF8052092
:102060008DF806301EB96A4608212A200AE0012EA2
:1020700003D16A460821322004E0022E04D16A46C8
:1020800008213A20FFF7A2FF02B070BD08B5044B4B
:102090000A460146187E1CF0E5FB002008BD00BF83
:1020A0005CAD032013B5C9018DF80120B1FBF2F43A
:1020B00004EBC01002FB1411140AA0F50070120BFF
:1020C0008DF80040C0F301448DF8040002F0F002E6
:1020D0008DF807108DF80240040AC1F303408DF813
:1020E000034002448DF805200A0A08218DF80620D5
:1020F0006A4623B91A20FFF769FF202103E0222056
:10210000FFF764FF8021B120FFF7C0FF02B010BDD0
:10211000754B2DE9F04FDA6997B05E698A4616442F
:1021200041F68362904240F2C580D3F884309842F1
:1021300028BF18466D4B984240F29F806C4B9842E6
:1021400002D89FED657B01E09FED657B8DED047B03
:10215000FEF7EAFA04460D463046FEF7E5FA024677
:102160000B46204629460126FEF77EFCDDE90423C6
:10217000FEF750FB04460D4645EC104B2CF010FECC
:1021800051EC100BFEF71EFE0E90FEF7CDFA024644
:102190000B46204629460024FEF788F9554B0022BD
:1021A000FEF738FBFFF77CF9002383468946CDE92B
:1021B00006344FF0FF336FF01044CDE902340024B1
:1021C0000123CDE9083400242746A0465846494655
:1021D000DDE90223FEF766FE05460A9158464946A8
:1021E000DDE90223FEF75EFE0F930A9BA6FB0501C5
:1021F0000C9206FB03FEDDE9062308FB05EE121830
:102200000A9871444B4107FB05F104FB001BA5FB39
:1022100004015944DDE908BC1BEB000B4CEB010C3D
:102220005846DFF8E4B061464FF0000C9C4508BF0B
:1022300093451ED34FF0000CDFF8D0B08C4508BF9B
:10224000834516D308940C9CDDF808B002940F9CCB
:10225000DDF80C90039409970696CDF81C80DDE913
:1022600002452C43044603D00F4616469846ADE778
:10227000164602964FF0000B03E143F608539842CE
:102280001AD947F61123984219D94FF2234398429D
:1022900018D9194B984218D9184B984218D9184B8D
:1022A000984235D9174B98428CBF4FF0000B4FF036
:1022B000010B2FE041F684604FF0070B2AE04FF04E
:1022C000060B27E04FF0050B24E04FF0040B21E054
:1022D0004FF0030B1EE000BF00000000000018409C
:1022E00000000000000010405CAD03201F9DB406FC
:1022F0007FD1F0080000DC4347E801008FD00300E5
:102300001FA107003F420F00FEFF0F00FFFF0F005D
:102310004FF0020B00FA0BF330464FF0FF396FF02D
:1023200010481593FEF700FA02460B460126CDE948
:102330001001BEA1D1E90001FEF796FB04460D464F
:1023400045EC104B2CF02CFD51EC100BFEF73AFD38
:102350000E90FEF7E9F902460B46CDE91201204640
:102360002946FEF7A3F8AC4B00220024FEF752FAF0
:10237000FFF796F8012307461491CDE904340024B1
:102380000023CDE9023400240C940F944A464346BE
:1023900038461499FEF786FD4A46054608913846A8
:1023A00043461499FEF77EFDA6FB0501CDE90A23FD
:1023B000089B0F9A734302FB05331944DDE902239E
:1023C00012184B41CDE90623089B04FB03F70C9B35
:1023D000DDE9040103FB0577A4FB052380183B44DA
:1023E0005941DDE90623CDE9080100218B489942D6
:1023F00008BF904221D300218948DDE90823994292
:1024000008BF904219D30F9D4F4604940C9CCDF801
:102410005080029603950594DDE90A0101430AD034
:10242000099BDDF828900C93079BDDF82C80089C15
:10243000069E0F93AAE7089C069E30460296FEF77A
:1024400073F906460F462046FEF76EF902460B4624
:1024500030463946FEF708FBDDE91223FEF728F87F
:10246000DDE91023FEF7D6F906460F461598FEF76C
:102470005BF902460B4630463946FEF7F5FACDE9E0
:1024800004010022674BDDE90401FEF72BFC064640
:10249000002840F0F1800022634BDDE90401FEF7E3
:1024A00021FC0546002840F0E08001269DED040B4C
:1024B0002CF076FC51EC100BFEF784FC0746FEF77F
:1024C00033F902460B46DDE90401FDF7EFFF002278
:1024D000514BFEF79FF9FEF7E3FF01220023109016
:1024E00012910F951495CDE9042300230022CDE924
:1024F00006234FF0FF3308936FF010430A93089AB6
:102500000A9B10981299FEF7CDFC89468046089ADE
:102510000A9B10981299FEF7C5FC06FB09FE05FB05
:1025200009F9CDE90C23149BDDE9060103FB08EE54
:10253000A6FB082380187344594102460B460F99A5
:1025400001FB089EA5FB0889DDE90401F14410EBBD
:10255000080041EB09018046304889460021994234
:1025600008BF90421FD300212D48494508BF404570
:1025700019D30899069610910A9904951291149905
:1025800007910F990591DDE90C01014309D00C99E0
:102590004546CDF83C90164608910D9914930A9142
:1025A000ADE745461646BAF1000F0AD1042F69D0AF
:1025B000062F67D00F2110204FF00008FFF766FDAF
:1025C00014E0BAF1010F1BD127F00203042B0CBF5A
:1025D0006F212F2105E0BAF1010F2BD155460627B7
:1025E0006F214FF001081120FFF750FD5B46CDF839
:1025F00000802A4631463846FFF7FAFC43462CE075
:10260000BAF1020F49D127F00203042B0CBF4F216E
:102610000F2116E0AFF300800000DC43FEFF0F0047
:10262000FFFF0F0000001040000018400000008075
:1026300074D2CA410627BAF1020F2ED10125002615
:102640004F211220FFF722FD02232A463146009334
:1026500038465B46FFF7CCFC0023224602990E98D1
:1026600017B0BDE8F04FFFF71DBDBAF1000FB2D1B2
:1026700001255646062705E0BAF1000F04D10125D1
:10268000564604274F2196E7BAF1010F03D10026E1
:1026900055460427A4E70427CDE717B0BDE8F08F1F
:1026A00038B50B4B0C4605460321187E1BF0E2FFA4
:1026B000012C15BF012104FA05F1A94020EA01010E
:1026C00018BF01430320C9B2BDE83840FFF7DEBCA4
:1026D0005CAD032008B50221FFF71AFD012102209D
:1026E000BDE80840FFF7DCBF08B50121FFF710FD8A
:1026F0000121BDE808400846FFF7D2BF08B5002118
:10270000FFF706FD01210020BDE80840FFF7C8BF24
:10271000002108B50846FFF7C3FF00210120FFF79D
:10272000BFFF00210220FFF7BBFF80211020FFF731
:10273000ADFC80211120FFF7A9FC80211220BDE80B
:102740000840FFF7A3BC000010B402460B4B18B9B9
:102750005B685DF8044B184709491B69D1F8841080
:1027600001EB4104A04201D9052002E0884202D9D0
:102770000320B2FBF0F05DF8044B1847A0F30220F1
:102780005CAD03200A4A0346D2F8841001EB4102F3
:102790008242084A02D2D268052003E0884204D966
:1027A000D2680320B3FBF0F01047D368184700BF8E
:1027B0005CAD0320A0F302202DE9F0410546154C45
:1027C00018B96368BDE8F0411847134BA0F51C56D3
:1027D0001A692F3E92B9D3F8843003EB430290423A
:1027E00001D9052702E0984208D90327A368B5FB61
:1027F000F7F09847E368B6FBF7F003E0A368984763
:10280000E36830469847054B00201D60BDE8F04165
:102810001DF04EBDA0F302205CAD032020840020FB
:10282000DFED1D6A60EEA00AB4EE660A08B51B4B28
:10283000F1EE10FAD3ED097A4CBFB0EE667AB0EE45
:10284000407AF8EE677AB0EE600A37EE676A77EEA4
:10285000277AA6EE060AE7EEA70ADFED117AF4EE74
:10286000660AF1EE10FA08BFF0EE670A80EE200A61
:102870002DF076F9DFED0B7AB4EE670AF1EE10FA7F
:10288000C8BFB0EE670AF7EE007A30EE277A37EE6F
:10289000C00A87EE000A08BD000000005CAD0320FE
:1028A0006042A20D77BE7F3F08B50D4B93ED000A45
:1028B0002CF0AEFB0B4BD3ED007A0B4B93ED007A73
:1028C0000A4B77EE877A93ED007A094B77EE877A99
:1028D00027EE800AD3ED007A20EE270A08BD00BF5C
:1028E00084AF032080810020788000203881002080
:1028F0001084002008B50E4B93ED000A2CF040FB2D
:102900000C4BD3ED007A0C4B93ED007A0B4B37EE6A
:10291000877AD3ED007A0A4B77EE277A27EE800A82
:10292000D3ED007A90EE277AB0EE470A08BD00BFDB
:1029300084AF03208081002078800020388100202F
:102940001084002008B5154BF5EE080AB2EE040A13
:102950001A6CC2F16403632B97BF6FF0EF03EF2390
:10296000534364229FBF03F5BB434033B3FBF2F3F1
:10297000DBB2C3F1EF0307EE903AF8EEE77A67EEC9
:10298000A07AF3EE040AC7EEA00A2CF055FF044B20
:10299000D3ED007A20EE270A08BD00BF5CAD03200E
:1029A0000884002008B5154BF5EE080AB2EE040ABB
:1029B0001A6CC2F16403632B97BF6FF0EF03EF2330
:1029C000534364229FBF03F5BB434033B3FBF2F391
:1029D000DBB2C3F1EF0307EE903AF8EEE77A67EE69
:1029E000A07AF3EE040AC7EEA00A2CF025FF044BF0
:1029F000D3ED007A20EE270A08BD00BF5CAD0320AE
:102A0000188400202D4B1B682D4B93F87D20D2B2EB
:102A1000012A10B5C0B049D193F87C10012945D0E6
:102A200083F87C20274A5A664FF48862A3F868200E
:102A3000A3F86A20222283F87D200022C3F8802098
:102A40001A681168C90303D4116841F48031116018
:102A50001B4AB3F86A00196808B34C6914F4E02FF4
:102A6000FAD0586B402807D1906A38B9506EC969BE
:102A7000441C546601700CE0802805D8C869596E62
:102A800021F8020B596604E0C869516E41F8040B45
:102A90005166B3F86A100139A3F86A10D9E7012228
:102AA00083F87C0083F87D2040B010BD02220649E7
:102AB000684631F0F7F8684629F05AFD80AF0320E8
:102AC000C0910020489D0020E461030800292DE901
:102AD000F04F93462DED028B83B002DC9FED3E0A52
:102AE00074E0142905460246DFED3B7AA8BF1421A5
:102AF00000230C460133B2EC017AA34277EE877AC9
:102B0000F8DB07EE104A042CB8EEC70A87EE808A7D
:102B10005ADD00EB840A9FED307AF0EC017A8245B1
:102B200077EEC87AA7EEA77AF7D187EE000A2DF0E4
:102B300017F818EE100A8DED010AFDF717FE9DED4E
:102B4000010A06460F4610EE100AFDF70FFE00229E
:102B5000224BFDF75FFE02460B4680468946304613
:102B60003946FDF7A3FCFEF74DF94B46424608EE09
:102B7000900A39463046FDF79BFCFEF743F99FED7E
:102B8000167A06EE900A0023F5EC017AF4EEE78A55
:102B9000F1EE10FA07D8F4EEE76AF1EE10FAA4BFEE
:102BA00037EE277A0133AA45EED1BBF1000F03D0EF
:102BB000B3EB640F01DA91E733B107EE903AF8EE28
:102BC000E77A87EE270A01E0B0EE480A03B0BDECD1
:102BD000028BBDE8F08F00BF000000000000E83F5E
:102BE00000282F4B2F484FF0000114BF42224022F3
:102BF00070B513442C4A2DED048B86B033F9214077
:102C00000131B0EC017A07EE904AB1F5007FF8EEA1
:102C1000E77A67EE877AE2EC017AEFD168469FEDBA
:102C2000238A21F071F9BDF81030F0EE488A0022B5
:102C30005B081D49684669241D4E9FED1E9AADF83C
:102C4000003028F03CF81A4A6846174921F0EEF99E
:102C500006EBC4030134164D93ED000AD3ED010ACF
:102C60002CF05CF820EE090A6E2CA0EE008AEFD161
:102C7000B0EE480A2CF074FFB0EE408AD5EDD60ACB
:102C800095EDD70A2CF094FCF1EE407AB0EE480AAC
:102C9000F0EE670AA7EEA80A06B0BDEC048B70BD83
:102CA000489D0020CCA500202CB60020000000008C
:102CB0002CAE00200000803B2DE9F0411F462F4B39
:102CC0000446984204D92E4BD3F88020904211D963
:102CD0002C4B2D4A13602D4A136000232C4A13609D
:102CE0002C4A13602C4A2D4B1168526819605A60A7
:102CF000BDE8F081A0F51C561A69294D2F3EA2B9F6
:102D0000D3F8843003EB4302904202D94FF0050818
:102D100003E0984209D94FF003082B69B4FBF8F09F
:102D20009847EB68B6FBF8F003E02B699847EB682F
:102D3000304698471B4B1C4D4FF408621C60002422
:102D400000211A482AF023F8A74208DBFFF75AFEB1
:102D50000020FFF745FF0134A5EC010AF4E7032248
:102D600039461148FFF7B2FEDFED117A074B20EE2E
:102D7000270A83ED000ABDE8F08100BF9F860100AD
:102D80005CAD03200000FA43188400200884002072
:102D9000B0AC0320BCF50220D840030824840020F6
:102DA000A0F302202084002004660420489D002017
:102DB000EA40563C000000002DE9F04F2DED028B5B
:102DC00085B01C4605460291039210B9844B1D68DC
:102DD0001AE0844B984204D9834BD3F88030984250
:102DE00010D9824B824A1360824A13600023824AC0
:102DF0001360824A1360824A824B116852681960DC
:102E00005A60DAE0FFF7D8FC142C4FF00306A8BF95
:102E10001424DFF800A20027DFF8F091DFF8F0B10A
:102E2000A74256DAFFF7EEFD0020FFF7D9FEB0EE1D
:102E3000608A0120F0EE408AFFF7D2FEA9EC010A79
:102E400078EE607AEBEC018A17EE900AFDF78EFCC3
:102E50005DA3D3E90023FDF72BFBFDF7D3FFDFEDE7
:102E60006A0A00EE100A2CF0A5FB10EE100AFDF71E
:102E70007DFC55A3D3E90023FDF718FBFDF7C2FF46
:102E80008046FDF773FC52A3D3E90023CDE900018E
:102E9000FDF732FF38B150A3D3E90023DDE900018B
:102EA000FDF706FB0EE048A3D3E90023DDE90001AE
:102EB000FDF740FF48B148A3D3E90023DDE9000155
:102EC000FDF7F4FAFDF79EFF80464AF8048B0137C0
:102ED000A6E7324621464D48FFF7F8FDF0EE408A5E
:102EE000324621464A48FFF7F1FD3246214649481D
:102EF000B0EE408AFFF7EAFDF5EE408A464B83EDDF
:102F0000000A1F46F1EE10FA09D0B5EE408AF1EE44
:102F100010FA04D0B5EE400AF1EE10FA01D1013EEC
:102F200077E7C8EE887A3D4B1C46C3ED007A029BDA
:102F300013B1284628F01CFBDFED397A2C4B68EEE4
:102F4000A78A386828EE278AC3ED008A294B83EDCB
:102F5000008AFDF70BFC0022324BFDF75BFC1AA345
:102F6000D3E90023FDF780FDFDF74CFF224B94EDE4
:102F7000000A18602CF0E4FBF3EE047A1F4B214C9E
:102F800020EE270A83ED000AFFF78EFCB0EE408AA0
:102F9000FFF7B0FCDFED247A039BA8EE270A84ED4F
:102FA000018A84ED000A43B1F0EE480A284607F092
:102FB00039FE84ED000AC4ED010A05B0BDEC028BB8
:102FC000BDE8F08FAFF30080182D4454FB21094079
:102FD000182D4454FB2109C0182D4454FB211940DD
:102FE000208400209F8601005CAD03200000FA438E
:102FF0001884002008840020B0AC0320BCF5022017
:10300000D840030824840020DB0FC940B4AC03205F
:103010000466042004AD032084AF03201084002044
:10302000EA40563C00806640000000002DE9F04F69
:1030300000252C462F465FFA85FC94453CD24FF084
:10304000000E10F80C604FF020084FF0000906FA4F
:103050000EF6C6F3C01646EA4707184E3E4008F182
:10306000FF3806F0010A760818F0FF0889EA0A0915
:10307000F5D101F8049004F1010ADFF8449020260C
:103080005FFA8AFA07EA0909013E09F0010B4FEAE3
:10309000590916F0FF0688EA0B08F5D1023401F849
:1030A0000A80E4B29C4201D30135C4E70EF1010E5F
:1030B000BEF1080FC5D1F7E7BDE8F08F5153D0F24C
:1030C000473C61E42DE9F041C6B004465B220D4661
:1030D00018A8002129F05BFE4D22214618A829F0EE
:1030E0004BFE002300930193029318A91DF80320BF
:1030F00001EBC3000021445C013144EA420208298B
:10310000D2B2F8D10DF8032001330A2BEDD1002300
:103110001A461DF80240072144FA01F003F4005654
:1031200000F0010040EA43031EB183F41D5383F015
:10313000170311F1FF31EFD20132C3F30D030C2A53
:10314000E7D10222012003FA02F111F4004115BF78
:1031500018A918AC8918A41802F1010214BF81F84B
:103160004B0084F84B10102AEDD12FAE4FF00C0815
:103170005B2218A93046002429F0FEFD0DEB08075C
:10318000DFF850C0002208FB04CE1346D1B2C808B5
:1031900001F007011EF8000000FA01F1B05C0132F5
:1031A000C1F3C0115B2A00FB0133EFD103F001032F
:1031B000E3550134532CE5D13146284629F0DCFD96
:1031C0002246394605F15B0029F0D6FD46B0BDE840
:1031D000F08100BF9ABF03082DE9F041002392B0AF
:1031E00004460D4605AE02AF1A460593029373607E
:1031F00033817B603B81A15C11F0DF0F10D008466A
:10320000FEF7E6FA013000F0A0800DABD154013298
:103210000123132AEFD12046FDF7DCF8002302E05A
:10322000002BF8D191E0DAB2904208D99046A25C26
:103230000133202AF7D108F1FF385FFA88F80DAE84
:10324000132200210027304629F0A1FD08F10102D8
:103250002146304629F090FD122300961321904A12
:1032600008A830F0EDFC8F4BD3F80080FEB208A820
:10327000FDF7B0F8B0420FD912AB01371E4416F873
:10328000283C08EB0302527802F00302022A04BF32
:10329000203B06F8283CE9E708A9204630F052FD1B
:1032A0002078202803D0FEF793FAC0B200E0002077
:1032B000691E012300FA03F20133C2F3C002042B9A
:1032C00001F8012FF6D16078202803D0FEF780FAAC
:1032D000C0B200E00020A91C002300FA03F2013371
:1032E000C2F3C002042B01F8012FF6D105F1080248
:1032F00005F14806A078202803D0FEF769FAC0B28D
:1033000000E000200023D71800FA03F10133C1F3D5
:10331000C001042B07F8011CF5D1E078202803D068
:10332000FEF756FAC0B200E000200023D71800FADA
:1033300003F10133C1F3C001042BF970F6D1083257
:103340000234B242D6D1052396E02346564A0E21D6
:1033500008A830F075FC534A0DF11F030BA8D2F8F2
:1033600000E0904613F8012F0EEB0201497801F0BE
:103370000301022904BF203A1A708342F2D108A93E
:10338000204630F0DFFC611ED8F800000C344FF00E
:103390002A0E11F8012F831893F801C00CF0040CC9
:1033A0000CF0FF03BCF1000F02D0A2F12F0306E0E6
:1033B000A2F1410CBCF1190F03D8A2F13603DBB224
:1033C00015E0202A13D02B2A0AD02D2A0AD02E2A23
:1033D0000AD02F2A0AD03F2A0CBF2923FF2306E058
:1033E000252304E0262302E0272300E028234FF0D2
:1033F000000C624616F80C80C2F307221EFB08225E
:1034000007F80C200CF1010CBCF1090FF2D1120AE3
:103410001B028DF81120002217F802C00CEB1323B9
:10342000B3540132092AF7D11B0A8C428DF81D30A2
:10343000AFD19DF81C00691E012300FA03F201338D
:10344000C2F3C012082B01F8012FF6D107A805F12D
:10345000080205F1480610F8014D0023D71804FAB8
:1034600003F10133C1F3C011082B07F8011CF5D19A
:1034700008329642EFD1002303F001029B0885F841
:103480004720002285F8493085F8482085F84A20F1
:1034900085F84B2085F84C2012B0BDE8F08100BFC4
:1034A00003620308BC8400200862030810B50446C8
:1034B000FCF790FFC0B20C2803D9631E0B480C34F4
:1034C00006E0202323540130C0B20E28FAD1F4E7DD
:1034D00013F8012F01681144497801F00301022912
:1034E00004BF203A1A709C42F2D110BDBC84002067
:1034F0000A4B1B6803445B785B0701D5303806E054
:10350000202806D0A0F14103192B04D83738C0B2C7
:10351000704724207047FF20704700BFBC84002004
:10352000134B1B6803445B785B0701D5303804E01C
:10353000A0F14103192B02D83738C0B270472028B8
:103540000CD02B280CD02D280CD02E280CD02F28B6
:103550000CD03F280CBF2920FF2070472420704743
:103560002520704726207047272070472820704765
:10357000BC8400204368994206DBC91A026841FAFC
:1035800002F219401144F6E70846704790B5C1B001
:103590004FF40B72002100AFADF5147D0DF11F0447
:1035A00024F01F04204629F0F2FB12220E49204687
:1035B0001DF0B2FC024678B90C494FF4DA720C4B9C
:1035C00020460B603B461CF070FF20461CF0F8FEC6
:1035D00007F58277BD4690BD0649384630F062FB5C
:1035E000384628F0C5FF00BF0D6203085CAD03201C
:1035F000332E30642362030830B52D4D85B02D483D
:1036000024F070FDAB69FBB90224002120461BF0B9
:1036100031F80138C0B2FD283CD9023414F0FF045F
:10362000F3D1254B2046C0244FF07F4201930A235B
:10363000224900930523FEF74BFC40F6B8301CF0FE
:1036400037FEAC61FFF7A2FFFF210320FEF71EFD4E
:10365000802110209524FEF719FDD5F88810B72099
:10366000890141F0120101F0D201FEF70FFD0021A6
:103670000F20FEF70BFD204601340021E4B2FEF7D7
:1036800005FDA22CF7D10021BB2005B0BDE83040DC
:10369000FEF7FCBC0A4B4FF07F4202944FF0FF2133
:1036A00001930A23002000930523FEF729FCC4E7B9
:1036B0005CAD0320CC870020536203080000FFFFAD
:1036C000A1620308064B074A1A60074A5A60074A74
:1036D0009A60074ADA60074A1A61FFF78DBF00BF98
:1036E000A0F30220F935000811270008FD26000884
:1036F000E9260008D5260008B14BB24A196D2DE91C
:10370000F04F2DED048B11601C46596DABB0AE4AE5
:103710004FF00208AD4F1160996DAD4AAD4D11608B
:103720001A6A0F2A84BF4FF0FF332362FFF72EFF80
:1037300007F056F807F066F9236C2F600024009319
:1037400028463B6823F480333B604FF0FF3385F815
:103750007D803C61BB6115F01DFF2A6809A8536894
:1037600043F008035360C5F8804085F87C4085F835
:103770007D4016F0BFF84FF4801309A809934FF469
:10378000800319934FF4AC730A9307230C9301231E
:10379000129316F0A1F995F87D302F6003F0FF0623
:1037A000002B75D18C4C284627F0FAFD4FF4806928
:1037B000636C09A9894843F400036364636C03F4F0
:1037C00000030893089B236B43F040032363236BA0
:1037D000CDF8249003F04003CDF828800B96079392
:1037E000079B0A23CDF830800D9328F0A3FB236BB1
:1037F00009A97B4843F080032363236B0A9603F0F7
:1038000080030B96CDF830800693069B4FF400435F
:10381000099328F08FFB236B43F480032363236B0E
:1038200003F480030593059B2B68BB4220D16D4CAC
:103830004FF4006363614FF4005320466660A36158
:103840004FF48073A660E3614FF40033E6602362B7
:103850000323C4F81090A362634B6662E66226639A
:1038600023602C67A56328F090FD204628F0B2FD68
:1038700000220F2146205D4C28F042FE402300220A
:103880000F21A360282028F03BFE4FF48073636073
:10389000574B0026574D4FF001081A6880212B60C6
:1038A0004FF4803B22F480324BF680394FF4802A6B
:1038B00028461A604FF40053402269632B6120238D
:1038C00003916B64019304232A64EB650523029240
:1038D0002B66C5F81C90C5F804806E612E63AE633C
:1038E000C5F83C80AE60C5F81880C5F848B0EE64F5
:1038F000C5F850A06E65AE6515F096FE3868354C7B
:10390000019B20F480302760386003206364042327
:103910000399029AE365052360602046616322648F
:103920002366C4F81C9066612663A663C4F83C80D5
:10393000C4F808802661C4F81880C4F848B0E6646A
:10394000C4F850A06665A66515F06EFE2A6834209E
:10395000136843EA0B0313602268274C136843EA99
:103960000B031360A368984748F6941398427AD1E2
:10397000E36A34209847214B4FF4407134201C6097
:10398000009B2468C3F164024B469FED1D9AD2B29E
:10399000DFED1C8AA0479FED1C8A1C4C3046013687
:1039A000FCF7D2FE8046894603A3D3E90023FCF747
:1039B00031FF2DE0AFF30080182D4454FB21194056
:1039C0005CAD03207880002080810020245C0140D1
:1039D00038810020C09100200038024000180240C9
:1039E000001C0240C0850020B864024000E100E0F5
:1039F000045C0140049600206483002008970020A6
:103A00003E3DFE3E236ADA3E7C629D3DCCA5002011
:103A10001AA3D3E90023FDF727F8FDF7F3F900EE29
:103A2000100A2BF0ADFA40464946F0EE409A15A335
:103A3000D3E90023FCF7EEFE10A3D3E90023FDF742
:103A400013F8FDF7DFF900EE100A2BF099FAF0EE0B
:103A5000687AB6F5007FE9EEC97AE0EE087AE4EC20
:103A6000017A9BD102E0044828F082FD2BB0BDEC26
:103A7000048BBDE8F08F00BFDD620308000000008A
:103A800000F07F40182D4454FB21294008B5FFF772
:103A90007DFDFFF717FE064B1B6823B1C8201CF005
:103AA00007FC14F029FF0122024B1A6008BD00BF79
:103AB00020860020508C00202DE9F041964A88B0E5
:103AC000964C002101236261C02295484FF0420CC0
:103AD000A2613222934E00AF6262ADF5147DA26204
:103AE000052221610DF11F05E2624FF4FA72E161D6
:103AF00025F01F0522630622216222648A4A61643E
:103B000022658A4AE1646265A2F57C02E165A265EC
:103B10004FF416426166A166216761676060A36029
:103B2000E0606363A363E363A0642266E3662660E8
:103B3000A167C4F88CC04FF47A6C7D4AC4F8BCC04D
:103B400040F61C4CE267C4F8C4C00CF19A7CDFF864
:103B50001CE20CF6560CC4F8A420C4F80421C4F8E6
:103B6000D4C040F28A7CC4F82C21C4F85421C4F893
:103B70007C210822C4F880E04FF0030EC4F8D8C0BE
:103B80004FF4616CC4F8E40043F2B060C4F89021D3
:103B9000C4F894214FF41652DFF8D481C4F888E0B9
:103BA000C4F8C810C4F8CC10C4F890C0C4F8DC1035
:103BB000C4F8E0E0C4F8EC10C4F89811C4F8A011FF
:103BC000C4F8D030C4F8E830C4F8F000C4F81801E4
:103BD000C4F84001C4F868012846C4F89C214FF499
:103BE0000B72C4F88480C4F8A411C4F8A831C4F8D6
:103BF000AC312823C4F8B03129F0C9F807F1080125
:103C00004C481DF00FF90C2801D0032802D14A4876
:103C100028F0AEFC18BBBB680BB9FFF7B7FC01225C
:103C2000444928461DF078F9BA683B1DB2F5DA7FA1
:103C30000AD23A4928461CF025FD28461CF0C0FB54
:103C40002660FFF7A3FC13E04FF4DA7233492846ED
:103C50001CF018FD28461CF0B3FB266008E037482E
:103C60001CF050FF36481CF04DFFFFF78FFC4FE073
:103C700022692A4BE2B9334AD3F88010914288BFB7
:103C8000C3F88020D4F884302F4A934210D04345A3
:103C90000ED02E498B420BD02D498B4208D02D4996
:103CA0008B4205D02C498B421CBF1C4BC3F884208F
:103CB000E26F2A4B9A4282BF294A184BDA67D4F83E
:103CC00080301B4A934205D92649B3FBF1F201FB30
:103CD000123313B1244BC4F88030D4F88C30013B3C
:103CE000632B82BF42220D4BC3F88C20D4F8903155
:103CF000043B102B82BF0822084BC3F89021D4F854
:103D00009431043B102B82BF0822044BC3F894214A
:103D10002037BD46BDE8F081C0FC9B015CAD0320AF
:103D2000809FD500332E30643333A34000004843D6
:103D3000A08601000D620308F66203080163030810
:103D400005630308803E6D560068890900497F0FAE
:103D500080DF17100076B010800C49111FA10700FA
:103D600020A1070040420F0080D1F0080046C32385
:103D700000C2EB0B2DE9F04FE9B007F056F904460D
:103D80000028FAD1D84B22276FF0FF0501261860D2
:103D90004FF00A08D54B48F2800A4FF0FF394FF038
:103DA000DC0B1860D24B18604FF07F401AF04EFBCE
:103DB000D04B00944FF07F42019301206423CE4901
:103DC000FEF786F83A4621465FA828F0E0FFCB4B85
:103DD0003A462146CDF882314FF6807356A8ADF8A9
:103DE0008C51ADF89031C64BADF87E81ADF8807145
:103DF000ADF88661ADF88841ADF88A41ADF88EA185
:103E0000CDF8923128F0C3FFBE4A4FF49673214695
:103E10004DA8CDF85E21BC4AADF85A3103934FF658
:103E20008073CDF86E213A46ADF86851ADF85C71FB
:103E3000ADF86261ADF86441ADF86641ADF86AA1D4
:103E4000ADF86C3128F0A3FFB04A4FF0FF032146D4
:103E500044A8CDF83A21AE4AADF84451CDF84A21F4
:103E60003A46ADF84651ADF83681ADF838B1ADF807
:103E70003E61ADF84041ADF84231ADF8489128F0CF
:103E800086FF039B3A4621463BA8ADF81231A14B71
:103E9000ADF82051CDF816314FF0FF03ADF82251A7
:103EA000ADF81E319C4BADF82451ADF814B14FF074
:103EB000820BADF81A61ADF81C41CDF8263128F01F
:103EC00066FF46233A46214632A8ADF8F030934BC0
:103ED000ADF8FA50ADF8FC50ADF800518DF8ED603A
:103EE000ADF8EE80CDF8F2300393ADF8F660ADF8A2
:103EF000F840ADF8FE4028F04AFF6E22039B2146B1
:103F000029A8ADF8CC203A46ADF8DC508DF8C96050
:103F1000ADF8CA80CDF8CE30ADF8D690ADF8D890D7
:103F2000ADF8DA4028F033FF039B5022214620A849
:103F3000CDF8AA304FF0FF03ADF8A6203A46ADF811
:103F4000B450ADF8B8508DF8A560ADF8A8B0ADF894
:103F5000AE60ADF8B040ADF8B230ADF8B64028F084
:103F600016FF6F4B3A46214617A8CDF886304FF61C
:103F70008073ADF89050ADF894306A4BADF8828004
:103F8000ADF884B0ADF88A60ADF88C40ADF88E40E5
:103F9000ADF892A0CDF8963028F0F9FE4FF4C87332
:103FA0003A4621460EA8ADF85E305F4BADF86C5036
:103FB000CDF862304FF68073ADF860B0ADF8703078
:103FC0005A4BADF86660ADF86840ADF86A40ADF8A0
:103FD0006EA04FF0AA0ACDF8723028F0D8FE544BEC
:103FE0003A46ADF83A802146DFF8688105A8ADF879
:103FF0004650ADF84C50ADF83CA0CDF83E80ADF841
:104000004260ADF84440ADF84890ADF84A40CDF874
:104010004E3028F0BCFEADF8225040F24713ADF808
:10402000285004ADADF81630ADF820402846414B7D
:10403000ADF826402C60404CCDF82A302560ADF814
:1040400018A0CDF81A80ADF81E60ADF8249007F0E6
:1040500051FE5FA9284607F081FD56A92846374F33
:1040600007F07CFD4DA92846354E07F077FD44A9A1
:104070002846DFF8E4B007F071FD20A92846DFF8F4
:1040800068A007F06BFD2F4B17A91860284607F0B2
:1040900065FD2D4B0EA91860284607F05FFD2B4BE0
:1040A00005A91860284607F059FD294B3BA918605F
:1040B000284607F053FD32A93860284607F04EFD28
:1040C00029A93060284607F049FDCBF800002846B2
:1040D00007F0AAFC064B39681F68D4F80090232F1C
:1040E000039398BF282239E0508C002020860020BE
:1040F00084850020106303080000FFFF2563030888
:10410000ED1B000834630308251C00084363030803
:1041100001180008556303088D3A00080D100908BE
:1041200065630308F11800086B630308951900081C
:10413000351A0008991A0008B0850020AC850020C7
:104140007C850020BC8500208085002024860020FE
:10415000B485002077500708B885002096BF1D4819
:10416000424602FB0702484698BF526807F03AFDF4
:10417000DBF800803846FDF759FB414602464846C9
:1041800007F030FD039B20681B683168232B9BBF21
:10419000104A2824104A04FB032398BF9A6907F0A9
:1041A00021FD0E4B01221C461A70284607F09AFB8F
:1041B00060B1DAF8003033B1FFF77EFC00232370E2
:1041C00069B0BDE8F08F32201CF072F800201CF0BE
:1041D0006FF8EAE738FA03087750070838BE00207E
:1041E0003B4A13681969880708D5D968890705D536
:1041F0006FF0020119619969002111761969480768
:1042000008D5D968490705D56FF004011961996986
:10421000002111761969080708D5D968090705D55D
:104220006FF008011961D969002111761969C80672
:1042300008D5D968C90605D56FF010011961D9698B
:10424000002111761A69D20705D5DA68D00702D5A0
:104250006FF001021A611A69110605D5DA681206B3
:1042600002D56FF080021A611A69D00505D5DA68A7
:10427000110602D56FF080021A611A69520605D53F
:10428000DA68500602D56FF040021A611A69910689
:1042900005D5DA68920602D56FF020021A610D4B3F
:1042A0001B68A3B10C4B1B78012B0C4B04D15A6932
:1042B00082F004025A6170474FF480229A61084BE1
:1042C0005A6A00225A62074A1388013313807047E2
:1042D00028860020A885002030BE00200020024053
:1042E000000C0040FE86002000220B4B1A600B4B96
:1042F0001B68DA6822F00102DA6041F21112196AD1
:104300000A4042B9196A40F244420A401AB91A688E
:1043100022F001021A607047A8850020288600203C
:10432000064B1B68DA6842F00102DA601A6842F054
:1043300001021A600122024B1A6070472886002091
:10434000A88500207FB5012604462A4B00251E7053
:1043500027F0D0FC002C00FA06F3274A08BF3446A9
:1043600007EE103A1560A042B8EE477A234A28BFFC
:104370002046234C116C07EE900A4FF080403143E9
:10438000F8EE677A1164211D126CC7EE276A20606F
:1043900032402561A5600392039A6561FCEEE67ADE
:1043A00017EE903A1B0C9A19636094F83930022387
:1043B00007EE102A84F83930B8EEC77AC6EE877A4D
:1043C000B7EE007A77EEC77AFCEEE77ACDED017AA8
:1043D000BDF80420E26015F079F82A4603211C207C
:1043E00084F8396028F08CF84FF08052054B1A6041
:1043F00004B070BD30BE0020A88500200038024007
:104400002886002000E100E02DE9F041C5689846CB
:104410008468A54237D3002406682746B44205D0F5
:10442000456805EB04150134EF60F7E7D0F814E0B8
:1044300000240127744511D085694FEA840C55F892
:10444000245015B1EF60AD68FBE7C56955F80C5015
:1044500015B1EF60AD68FBE70134EBE70024846041
:10446000B4420ED0456805EB0415EF683FB9876884
:10447000036907F1010CC0F808C043F82750013464
:10448000EEE70024C460C4680569661CC66055F880
:10449000240080E80601BDE8F0812DE9F04F1E46BA
:1044A00002F1004385B00446013B8A461746B50039
:1044B0005B0003930E9B03F1010BE1694B595A68B2
:1044C00076B9BA4242D2A16920464B511101E7693F
:1044D000334601325AF80110FFF796FF785135E064
:1044E000A069A5F10408BA4251F808C050F80810B4
:1044F000D1F800E0DCF8001043517144D4F81C906E
:104500000FD213015AF8030081420ADD59F8053031
:104510000146013220469B68FFF776FF49F8050007
:1045200014E059F808302046FFF76EFF039B49F866
:10453000050045469B4509DA0E9B013E3A46514629
:10454000009320463346FFF7A8FFB6E705B0BDE865
:10455000F08F2DE9F04F85B0054688461446039349
:10456000C368406A9847AB6903FB00F9AB68686AA7
:1045700098470190002800F01681EB69002708EBAE
:104580000402013BBB463C4609FB030302930123A3
:1045900085F820303B4608F1020C6245C0F00781E7
:1045A00098F80010002940F0978098F801E06646DE
:1045B000BEF1000F09D15C4540F0ED800134EB699C
:1045C0009C4240F2E8800320F2E0BEF1010F00F0CF
:1045D000E880BEF1020F12D108F10406B242C0F029
:1045E000E48098F802100B44A9698B42EBD298F84A
:1045F00003100C44E9698C42C0F0CF80E3E795F8E2
:104600004810D5F8188031B104FB08810198C91A07
:1046100004FB090807E0E9690298091B01FB08810E
:1046200004FB1908C91A714528BF71468C446245BC
:10463000C0F0BD80039808280FD04FF0000E2CE08A
:10464000D5F818E09E450BD916F801ABD5F83CE03B
:104650005EF82A0048F823000133B445F0D132E077
:104660000134EB699C42AED8A8EB8E080023EBE73F
:10467000D5F818C09C4513D91EF0010F03F1010AAB
:1046800016D137780136E86B4FEA171C50F82C002A
:1046900048F8230053460EF1010E8E45E8D110E094
:1046A0000134EB699C428ED8A8EB8C080023E3E729
:1046B000E86B07F00F0C50F82C0048F82300534625
:1046C000E9E701314908C90767D5711C3678002E22
:1046D0007FF479AF0E4660E095F84860AF693EB16F
:1046E00004FB07770198C3EB070E04FB090A08E0F7
:1046F000EE690298361B04FB190A06FB0777C3EB29
:10470000070E7145664628BF714662454FD3039830
:1047100098F801E00828D5F83CC017D15CF82E7055
:104720004FF0000E8E4538D0D5F818C09C4507D8FC
:104730000134EB699C423FF646AFAAEB8C0A00239A
:104740004AF823700EF1010E0133EBE74FEA1E1712
:104750000EF00F0E5CF827705CF82E804FF0000E04
:104760008E451AD0D5F818C09C4507D80134EB699E
:104770009C423FF628AFAAEB8C0A00231EF0010FE3
:1047800003F1010C0EF1010E0CBF4AF823704AF838
:1047900023806346E4E7A3467346B24201D9B0469C
:1047A000F9E6002004E0012002E0704600E002206B
:1047B00005B0BDE8F08F421810B5937854781B040B
:1047C000405C43EA04230343D07843EA006010BD11
:1047D00001232DE9F04F0D6885B0878E044680F8DF
:1047E0002030894690F8403005EB020AFF08B3B14B
:1047F000EB199A4501D2022097E090F82C30032B58
:1048000005D100212846FFF7D6FFE06607E02B78A8
:104810006A781B0443EA0223AA781343C36605F0AF
:10482000030300260193E3699E427BD205F0030354
:10483000019A9A4201D00135F8E7A36903FB0753B7
:104840009A45D8D394F82C304FF00008032B5FD151
:1048500004F1680BA369984562D2002328461946E3
:104860000393FFF7A8FF04F1580E00235EF8041F1E
:1048700000295EF8102CD8BF494202EA0002CBBFE3
:1048800002FA01F1CA400B431343DE45EED194F81E
:104890004A20039312B143F07F430393002103A8FE
:1048A000FFF789FF94F848203D44039023690AB13B
:1048B000324602E0E269013A921B414608F10108E2
:1048C0009847C7E72B786A781B0443EA0223AA7843
:1048D000134394F84020039322B1E26E934204BF45
:1048E000636C039394F84A301BB1039B43F07F43FE
:1048F0000393002103A8FFF75EFF94F848203D448E
:104900000390236942B13246414608F101089847B5
:10491000A3699845D6D303E0E269013A921BF3E715
:10492000013680E70020C9F8005005B0BDE8F08FDF
:104930004318405C5A7840EA022070472DE9F04F56
:10494000044685B0C3689246406A01910D68984755
:10495000A3688046606AA669984781460120B9F13C
:10496000000F00F0B58005EB0A03E76984F820002A
:10497000009394F8403053B1AB1C009A9A4201D294
:104980000220A5E000212846FFF7D2FFE06606FBE3
:1049900008F805F00303013F4E460293AA4608FBC0
:1049A000079704F168034FF000090393E26991450A
:1049B00080F08A800AF00302029B934202D00AF13F
:1049C000020AF7E7A269009B0AEB42029342D7D39F
:1049D00094F848504FF0000B94F82C20002D0CBF99
:1049E0003D463546032A57D1A1698B4566D2002141
:1049F0005046FFF79DFF94F8401021B1E16E8842C8
:104A000001D1616C1FE0002304F158012B6051F8C3
:104A1000043F002B51F8102CD8BFC3F1000C00EA62
:104A2000020ECCBF0EFA03FE2EFA0CFE2B6843EAF0
:104A30000E032B60039B8B42E9D194F84A1019B105
:104A4000296841F07F41296028460021FFF7B3FE25
:104A50000AF1020A45F8040B0BF1010BC4E700212F
:104A60005046FFF765FF94F84010C9B1E16E8842E7
:104A700016D1616C296094F84A1019B1296841F087
:104A80007F4129600AF1020A0BF1010B284600213F
:104A9000FFF791FE45F8040BA1698B45DFD30DE0CC
:104AA000C10401F4780E8101C01101F4784100F0D5
:104AB000F8004EEA010108432860DCE709F101092A
:104AC0004644C8EB070771E7019B0020C3F800A02C
:104AD00005B0BDE8F08F70470420704770470000B4
:104AE0000048704700F0032070B5846844F8212026
:104AF000046854F822506E1C1CBF466826F81150FA
:104B000044F82210426922F81130C26852F823405A
:104B1000651C1CBF006920F8114042F8231070BDCD
:104B200030B5941C8C4208D283185978035D1B025F
:104B300083EA0111835C4B400DE08A420DD20024D0
:104B4000891A024423468C4205D0105DE5000134E9
:104B5000A8404340F7E798B230BD002030BD70B5A3
:104B600001234D1EAB4209D85C19640850F824603B
:104B700096422CBF04F1FF35631CF3E78B4203D24E
:104B800050F823108A4200D2013B184670BDF0B5A0
:104B900000240E689E4202D34FF0FF30F0BDF508AE
:104BA00006F007070136455D3D4105F0010505EBBF
:104BB0004404156855F824400E601569AC4203D3CF
:104BC000641BA542E5D8E7E72046F0BD10B50446D2
:104BD000006816F08DF9606816F08AF9A068BDE8E3
:104BE000104016F085B9F0B50024064620469442E0
:104BF0000DD03568EB0805F007070135CB5C356053
:104C00003B4103F00103A34001341844EFE7F0BD3A
:104C1000437802781B0443EA0263C2788078134326
:104C200043EA0020704770B5054608460E46FBF77C
:104C3000D1FB0446411C286816F0BEF948B1002398
:104C400003552860A34204D0F15C2A68D154013393
:104C5000F8E770BD38B50024054601210460204600
:104C600016F0AAF908B10470286038BD38B50025DF
:104C7000044685604560006816F03AF9256038BD45
:104C80002DE9F0470446006986B0002380000393B5
:104C90000593049300930293019316F053F9E1688E
:104CA0000028606003A801F1010114BF002553250D
:104CB00026F0F8FF002837D0E1686846013126F079
:104CC000F1FF88B38DBB039B2A4621698A4209D034
:104CD000A16851F82200013253F82010013143F845
:104CE0002010F2E70099043B01200E46E268904252
:104CF00008D83768013053F8042F3A44520046F878
:104D0000042FF3E70023226993420ED0A26852F8E1
:104D100023203AB151F822006668471C41F82270FE
:104D200046F823000133EEE7532503A8FFF79EFF63
:104D30006846FFF79BFF002D60D12069C00016F088
:104D400001F9206000285BD047F6FF722369B5EBBC
:104D5000430F03D240F825200135F7E7002547F639
:104D6000FF782B462E462269954205D3002304384E
:104D700047F6FF711D4634E04FEA850CA768002115
:104D80006744D7F800E08E4529D00EF1FF32002BA2
:104D9000C1EB0209626852F80C2022FA09F202F013
:104DA00001022FDBD4F8109003F1020ACA4529D87A
:104DB00002EB4303013150F8232042450CD18E45CC
:104DC00013BF013640F82350002309EB06021CBF35
:104DD00040F823203346D4E7C9EB0203D1E701357D
:104DE000C1E72269B3EB420F06D250F8042F01331A
:104DF0008A4208BF0560F4E7002004E0284602E08C
:104E0000532000E0372006B0BDE8F0872DE9F04FD1
:104E100097B01F4681468B46209E01EB830353F8D3
:104E2000041D71B14FEA870AC9F80C60C9F8107007
:104E30005146D9F8080016F0BFF8C9F8080020B9A3
:104E40004AE19742EED9013FE9E75246002127F0B7
:104E50009EFF002F00F03E810123B3409F4200F2ED
:104E600039813801D9F8088016F06CF80546002819
:104E700000F03281002423465BF8231021B1220187
:104E80000134A818A950436001339F42F4D143462E
:104E9000C244002243F8042B9A45FBD12CB90123CC
:104EA000C8F80430C8F800300AE1012C0BD16B6857
:104EB00048F823406B68002B0CBF0423002348F8FC
:104EC00003400024FCE023014FF0010A18460C9334
:104ED00016F038F8002306900593059B0027DA07A3
:104EE0004FEA4A0254BF069B2B46099258BFAC4674
:104EF0004FEA4A1248BFDDF818C004930D920AEB3E
:104F00000703224607979C4228BF1A465344A342F0
:104F10000A939346089228BF23460B9300230393DA
:104F2000079A0B9B93422AD9089BBB4216D90B9B2D
:104F30005B4508D93A014FEA0B135CF802205CF894
:104F400003309A420ADC0CEB0713049A03990137E9
:104F500002EB010E0FCB8EE80F000AE00CEB0B13F7
:104F6000049A03990BF1010B02EB010E0FCB8EE8B3
:104F70000F00079B01330793039B1033CFE7049B7C
:104F80000D9A0A9F1344BC420493B8D8059B013381
:104F90000593099B9C4202D9DDF824A09DE7059B5F
:104FA000DB0704D50C9A2846069927F0E5FE0698FB
:104FB000002715F09DFF13967000119706FB000067
:104FC0000E901090000115F0BDFF0F900E9880001C
:104FD00015F0B8FF12901398800015F0B3FF1490ED
:104FE0001398800015F0AEFF0F9B1590002B5AD040
:104FF000129B002B57D0149B002B54D0002852D06A
:105000000E993B468B4207D00F9A129802EB03127F
:1050100040F823200133F5E70023012229680EA878
:10502000FFF7F2F90023296902220EA8FFF7ECF935
:10503000139900238B420AD0149A0F9842F8230048
:105040000F9A1598103240F823200133F2E704F14B
:1050500000434FF0020A06F1FF3B013B5F00BA45F7
:105060000AD0CDF800A05B46224629460EA80AF1D8
:10507000010AFFF712FAF2E706F18046159B013E9E
:1050800053F8264084B100236268934209D005EBAF
:1050900003120133516858F82120013248F82120C9
:1050A000F2E7A468EEE753240F9815F021FF129859
:1050B00015F01EFF149815F01BFF159815F018FF3A
:1050C000284615F015FF1CB94846FFF7D9FD04E046
:1050D000204602E0502000E0532017B0BDE8F08FDA
:1050E0002DE9F04105469000884616461F4615F00A
:1050F00029FFA86078B10024B44205D058F82430C4
:1051000040F824300134F7E72C612846EF60BDE811
:10511000F041FFF7B5BD5320BDE8F08138B5054635
:10512000802015F00FFF044698B1031F00F17C02A8
:10513000052143F8041F9342FBD10F23202221466F
:105140002846FFF7CDFF0546204615F0D1FE28463C
:1051500038BD532038BD38B505464FF4906015F082
:10516000F1FE044648B3021F00F50F73082142F810
:10517000041F9342FBD104F57F72092143F8041FF9
:105180009A42FBD104F25C43072142F8041F9A4281
:10519000FBD104F27C42082143F8041F9A42FBD160
:1051A0000F234FF4907221462846FFF799FF0546DA
:1051B000204615F09DFE284638BD532038BD38B531
:1051C000836805460C468B420CD2B1EB430F006856
:1051D0009CBF01EB41046408214615F0EDFE10B1BF
:1051E000AC602860012038BD38B504460D46FFF795
:1051F000E6FF08B10120656038BD38B50C4641684E
:1052000005460431FFF7F0FF6B682968200E043B68
:10521000CA18C854230CD4705370230A937038BD35
:1052200038B50D46416804460131FFF7DDFF28B16E
:10523000012094E80C00134403F8015C38BDF8B574
:1052400005460E4617465C1E631C1DD0296811F0EA
:10525000070102D13046FFF7E3FF27FA04F1736834
:10526000D6F800E0013C01F001002968013B01F0A3
:1052700007011EF8032000FA01F111430EF8031094
:105280002B6801332B60DFE7F8BD2DE9F8430546B5
:105290000F469046994600244C451AD0296811F0D3
:1052A000070102D13846FFF7BBFF28FA04F17E68F8
:1052B0003A68013401F001002968013E01F007015C
:1052C000935D00FA01F1194391552B6801332B606E
:1052D000E2E7BDE8F88338B50C4689000546FFF7DC
:1052E0006EFF08B101206C6038BD38B50D464168CD
:1052F00004460131FFF7EFFF38B1636801202268EF
:1053000003F18043013B42F8235038BD124A38B5BF
:105310001368FBB1013B34241360104A1168104A32
:1053200004FB0124A26CAAB9216E4FF4FF20626E27
:10533000E56D4A430B49920000FB0311284627F014
:105340001BFD216E636E28465943BDE83840890035
:1053500019F034B938BD00BF6C86002054AD03206D
:1053600008AC032036EA15C02DE9F047174E356822
:10537000012D27D8164B4FF4FF24DFF858A04FF02B
:10538000340904FB0534DFF85080DAF8003009FBFB
:1053900003839A6C9AB9DF6D196E5B6E3846594378
:1053A000890019F00BF9DAF800203946204609FB8C
:1053B00002831A6E5B6E5A43920027F0DDFC0135C2
:1053C000356000E000242046BDE8F0876C860020B0
:1053D00036EA15C054AD032008AC03202DE9F04F88
:1053E000E3B0B34BB34D904603900F460398702241
:1053F000002106AC186006A827F0C9FCB8F10D0F13
:10540000CDF840800B970FCD0FC42B68236040F27E
:105410006C823B78422B40F06A827B784D2B40F0C7
:1054200066820A213846FFF7C6F98045129040F29D
:105430005C8207F10E0400212046FFF7BCF900F161
:105440000E0306469845C0F0508200230C212046EA
:105450000C930D93FFF76CFA0128054640F0478244
:105460000E212046FFF764FA431EADF84C009BB2B4
:105470001F2B00F23C82904A22FA03F3DA0740F134
:1054800036828540272E14950FD9D7F81220D7F8E9
:105490001630002A40F32B82002B00F0288209DA14
:1054A00001215B428DF8601004E04FF4F072282671
:1054B0004FF488730C2120460C920D93FFF738FAB5
:1054C000012840F014820E212046FFF731FAADF892
:1054D0004C0010B91823ADF84C3010212046FFF7CE
:1054E0006AF9C0B28DF84400032800F20082DFE8B8
:1054F00000F00210141ABDF84C30013B9BB21F2B78
:1055000000F2F5816C4A22FA03F3DB0740F1EF81E8
:1055100054E0BDF84C30082B02E0BDF84C30042BB1
:1055200040F0E5814AE0BDF84C30102B02D0202B32
:1055300040F0DD81282E11D1B8F1410F40F2D58124
:1055400018AE0025A900013520462831FFF733F9B0
:10555000032D46F8040FF5D134260BE018AF0025D3
:10556000A900013520462831FFF725F9042D47F819
:10557000040FF5D118A900204FF0010EFF2751F8B4
:10558000042FDAB11F230EFA03F5154211D0072BB1
:10559000CCBFDD1FC3F10705DBB2CCBF07FA05F5B1
:1055A00047FA05F52A400A60C2000732D31A0B6198
:1055B00001E0013BE7D101300428E0D12021204661
:1055C000FFF7F9F8149020B9BDF84C20012393405F
:1055D00014939DF8615034442DB91C9B23B90125C7
:1055E0008DF8625000E00025BDF84C300F2B3AD802
:1055F000109A0E36149B4FF00009904600270422A3
:10560000E2FB0367B94508BFB045C0F06E819F005B
:10561000384629F041F81590002800F06A819DF87D
:1056200062A004F10408064600EB0709B14519D051
:1056300018F8043C18F8032C1B0443EA022218F85B
:10564000023C13433360BAF1000F02D043F07F43B2
:10565000336030460021FFF7AEF808F1040846F841
:10566000040BE3E73C44069B45F002020D990C98BD
:1056700098470F9030B9159808B129F015F8002314
:10568000159336E19DF8611011B10B9BE41A129449
:10569000129E0B9F109ABC199DF84430921B0594E2
:1056A000032B00F2B680DFE803F009979FA200BF4A
:1056B000648600208481002089808080BDF84C3081
:1056C000182B00F09880202B00F09580102B00F014
:1056D00099804FF008080125D9B24FF0000E9D4087
:1056E0000DF1880A98FBF3F8013DC1F108035FFA58
:1056F00088F9EDB2DBB25FFA8EFCE14506D90EF80F
:105700000A305B1A0EF1010EDBB2F4E7089B01923E
:105710009847012300285BD0019A8DF83830A218F1
:105720009DF85830019204F00302029243B1BB5D30
:105730009DF888201341159A2B4052F8233021936D
:105740004FF0000A56460D9B9E423FD204F00303E1
:10575000029A9A4201D00134F8E70C9B019AB3FBFC
:10576000F8F323449A4235D3082300270C9A974232
:105770002AD299459DF860209EBF002394F800A08E
:10578000013403F1010B5FFA8BFB52B122AA159889
:1057900012F803E032460A9B4AFA0EFE0EEA050EA4
:1057A0000BE022A90D9A159811F803E0013A0A9B23
:1057B0004AFA0EFE921B0EEA050E394650F82E00EC
:1057C000984701375B46D1E70136BCE7059420E0F6
:1057D0001C461FE002241DE0C9B90823214606A883
:1057E000FEF7B7FE044615E089B90423F6E7BDF8D5
:1057F0004C10202904D105A906A8FEF7E9FFF1E71E
:10580000102963D105A906A8FFF798F8EAE7032451
:1058100000E000249DF86130002B51D0002C4FD1C6
:10582000109B0B9A0F9802EB0308099B059D984764
:105830000C9BC5EB080803FB00F9089B0F989847E1
:1058400000283FD00D9AA84405F00303A346013A6F
:1058500009FB02060D9A93453CD205F003029342E0
:1058600001D00135F9E70C9A05EBD20290452BD314
:1058700037464FF0000A0C9A92451CD21AF0070FD7
:1058800004BF2C78013514F080020FD11146384640
:1058900002930192FEF78FFF019A40F07F4011467C
:1058A00038603846FEF787FF029B386064000AF1D3
:1058B000010A0437DFE70BF1010BC9EB0606C9E764
:1058C000234603E0012302E0022300E013B11A465D
:1058D0000D4910E00F9808B1079B984700231598D1
:1058E0000F9370B128F0E0FE0BE0022202E00322E9
:1058F00000E00122054922A82EF0D4F922A826F0C2
:1059000037FE63B0BDE8F08FBA180408D118040858
:1059100033B4019080B20C464318B3F5EF7FC2BF99
:10592000C0F5EF740134A4B20CB340F20F13BDF80C
:10593000061042F07F42994228BF19460D4B1D6860
:105940000C236B430C4DEA500C4BD3F8A431012BC4
:1059500008D1C0F5EF70C1F5877301300133001B2A
:1059600099B280B2224602B030BC18F0BFBC02B07F
:1059700030BC704754AD0320D0AD00205CAD032097
:1059800033B483B240F2DF140190000CA34228BF6D
:1059900023464418B4F5877FC2BFC0F58771013133
:1059A00089B2E1B10F4C42F07F4225680C246C4370
:1059B0000D4D2A510D4AD2F8A421012A08D1C0F573
:1059C0008770C3F5EF7301300133401A9BB280B288
:1059D0000A460146184602B030BC18F06DBB02B052
:1059E00030BC704754AD0320D0AD00205CAD032027
:1059F000184B77B485B20190060C18680C2342F05E
:105A00007F4200918CB243431348090CC250134BA0
:105A1000D3F8A431012B12D1C4F5EF72C1F587710F
:105A2000C6F5877301320131013390B2C5F5EF72CB
:105A300089B201325B1A121A9BB292B205E08B1B3B
:105A4000621B314628469BB292B203B070BC18F07C
:105A5000E1BC00BF54AD0320D0AD00205CAD0320FD
:105A60000F4B17B41C680A460E4B3421019080B2CC
:105A700001FB0433B3F8601081420CD9BDF8061065
:105A8000B3F864308B4206D942F07F4203B05DF830
:105A9000044B18F063BB03B05DF8044B704700BFC4
:105AA00054AD032008AC03200C4B342182B01A689B
:105AB0000B4B019080B201FB0233B3F8602090429F
:105AC00008D2BDF80610B3F864308B4202D902B098
:105AD00018F0D2BC4FF07F4002B0704754AD0320A5
