:020000040800F2
:1000000000800020F9CB02082FF60108C103000888
:1000100039F6010837F6010835F60108000000003E
:1000200000000000000000000000000033F601089E
:1000300031F60108000000002DF60108CDF5010899
:10004000C9010008CB010008CD010008CF0100085C
:10005000D1010008D3010008D5010008D70100082C
:10006000D9010008DB010008DD010008DF010008FC
:10007000E1010008E3010008E5010008E7010008CC
:10008000E9010008EB010008ED010008EF0100089C
:10009000F1010008F3010008F5010008F70100086C
:1000A000F9010008FB010008FD010008FF0100083C
:1000B000B941000803020008050200080702000811
:1000C000090200080B0200080D0200080F020008D8
:1000D00011020008F5CB02081502000817020008FB
:1000E000190200081B0200081D0200081F02000878
:1000F0002102000823020008250200082702000848
:1001000029020008357B02082D0200082F02000892
:1001100031020008330200083502000837020008E7
:10012000390200083B0200083D0200081D7B02085E
:10013000C1F5010843020008450200084702000813
:10014000490200084B0200084D0200084F02000857
:1001500051020008297B0208B5F50108F1CB02081D
:10016000590200085B0200085D0200085F020008F7
:1001700061020008D1E901086502000800000000E2
:1001800067020008690200086B0200086D0200089F
:100190006F0200087102000873020008750200086F
:1001A00077020008790200087B0200087D0200083F
:1001B0007F0200088102000883020008850200080F
:1001C0008702000889020008FEE7FEE7FEE7FEE777
:1001D000FEE7FEE7FEE7FEE7FEE7FEE7FEE7FEE7F7
:1001E000FEE7FEE7FEE7FEE7FEE7FEE7FEE7FEE7E7
:1001F000FEE7FEE7FEE7FEE7FEE7FEE7FEE7FEE7D7
:10020000FEE7FEE7FEE7FEE7FEE7FEE7FEE7FEE7C6
:10021000FEE7FEE7FEE7FEE7FEE7FEE7FEE7FEE7B6
:10022000FEE7FEE7FEE7FEE7FEE7FEE7FEE7FEE7A6
:10023000FEE7FEE7FEE7FEE7FEE7FEE7FEE7FEE796
:10024000FEE7FEE7FEE7FEE7FEE7FEE7FEE7FEE786
:10025000FEE7FEE7FEE7FEE7FEE7FEE7FEE7FEE776
:10026000FEE7FEE7FEE7FEE7FEE7FEE7FEE7FEE766
:10027000FEE7FEE7FEE7FEE7FEE7FEE7FEE7FEE756
:0C028000FEE7FEE7FEE7FEE7FEE70000F9
:1002900010B5054C237833B9044B13B10448AFF3C0
:1002A00000800123237010BDC084002000000000E6
:1002B000DC3F0308084B10B51BB108490848AFF3F1
:1002C00000800848036803B910BD074B002BFBD022
:1002D000BDE81040184700BF00000000C4840020A3
:1002E000DC3F0308B8840020000000004B1C012BF9
:1002F00098BF70472DE9F003911C9B08B1F804806A
:10030000B1F802900A8831F802CC8044814402445A
:100310008444D9F80070D8F800601568DCF8004013
:10032000C9F80060C8F80070CCF800501460D9F823
:100330000470D8F804605568DCF80440C9F804601B
:10034000C8F80470CCF8045054600831013BD5D192
:10035000BDE8F00370474B1C012B98BF70472DE997
:10036000F003911C9B08B1F80480B1F802900A8850
:1003700031F802CC00EB580800EB590900EB5202AF
:1003800000EB5C0CD9F80070D8F800601568DCF858
:100390000040C9F80060C8F80070CCF80050146044
:1003A0000831013BDFD1BDE8F0037047742B090829
:1003B00000800020B8840020C08400203868042019
:1003C0001EF0040F0CBFEFF30880EFF30980816982
:1003D000FEE700BF034613F8012B002AFBD1181AD1
:1003E000013870470000000000000000000000001D
:1003F00001F0FF01102A2BDB10F0070F08D010F8D6
:10040000013B013A8B422DD010F0070F42B3F6D1D9
:10041000F0B441EA012141EA014122F007047FF0F2
:1004200000070023F0E80256083C85EA010586EA49
:10043000010685FA47F5A3FA87F586FA47F6A5FA85
:1004400087F68EB9EED1F0BC01F0FF0102F0070291
:1004500032B110F8013B013A83EA010313B1F8D13C
:100460000020704701387047002D06BF354603381D
:10047000073815F0010F07D1013015F4807F02BF56
:10048000013015F4C03F0130F0BC0138704700BFA7
:1004900010F8012B11F8013B012A28BF9A42F7D02E
:1004A000D01A704781F0004102E000BF83F00043A2
:1004B00030B54FEA41044FEA430594EA050F08BFFF
:1004C00090EA020F1FBF54EA000C55EA020C7FEAC3
:1004D000645C7FEA655C00F0E2804FEA5454D4EB40
:1004E0005555B8BF6D420CDD2C4480EA020281EA0A
:1004F000030382EA000083EA010180EA020281EA42
:100500000303362D88BF30BD11F0004F4FEA013193
:100510004FF4801C4CEA113102D0404261EB4101A2
:1005200013F0004F4FEA03334CEA133302D0524228
:1005300063EB430394EA050F00F0A780A4F10104E4
:10054000D5F1200E0DDB02FA0EFC22FA05F280181E
:1005500041F1000103FA0EF2801843FA05F3594104
:100560000EE0A5F120050EF1200E012A03FA0EFC83
:1005700028BF4CF0020C43FA05F3C01851EBE371AD
:1005800001F0004507D54FF0000EDCF1000C7EEBCA
:1005900000006EEB0101B1F5801F1BD3B1F5001F08
:1005A0000CD349085FEA30004FEA3C0C04F1010427
:1005B0004FEA445212F5800F80F09A80BCF1004F50
:1005C00008BF5FEA500C50F1000041EB045141EAD2
:1005D000050130BD5FEA4C0C404141EB010111F4D3
:1005E000801FA4F10104E9D191F0000F04BF01467E
:1005F0000020B1FA81F308BF2033A3F10B03B3F15C
:1006000020020CDA0C3208DD02F1140CC2F10C02EB
:1006100001FA0CF021FA02F10CE002F11402D8BF49
:10062000C2F1200C01FA02F120FA0CFCDCBF41EA15
:100630000C019040E41AA2BF01EB0451294330BDE4
:100640006FEA04041F3C1CDA0C340EDC04F11404C1
:10065000C4F1200220FA04F001FA02F340EA030098
:1006600021FA04F345EA030130BDC4F10C04C4F1DE
:10067000200220FA02F001FA04F340EA03002946BE
:1006800030BD21FA04F0294630BD94F0000F83F408
:10069000801306BF81F480110134013D4EE77FEAEB
:1006A000645C18BF7FEA655C29D094EA050F08BF37
:1006B00090EA020F05D054EA000C04BF1946104618
:1006C00030BD91EA030F1EBF0021002030BD5FEA5C
:1006D000545C05D14000494128BF41F0004130BD84
:1006E00014F580043CBF01F5801130BD01F00045D8
:1006F00045F0FE4141F470014FF0000030BD7FEA4B
:10070000645C1ABF194610467FEA655C1CBF0B4645
:10071000024650EA013406BF52EA033591EA030F5C
:1007200041F4002130BD00BF90F0000F04BF002154
:10073000704730B54FF4806404F132044FF0000587
:100740004FF0000150E700BF90F0000F04BF002100
:10075000704730B54FF4806404F1320410F0004566
:1007600048BF40424FF000013EE700BF42004FEA61
:10077000E2014FEA31014FEA02701FBF12F07F43DE
:1007800093F07F4F81F06051704792F0000F14BFDB
:1007900093F07F4F704730B54FF4607401F000451F
:1007A00021F0004120E700BF50EA010208BF704776
:1007B00030B54FF000050AE050EA010208BF70476B
:1007C00030B511F0004502D5404261EB41014FF4D4
:1007D000806404F132045FEA915C3FF4DCAE4FF0D8
:1007E00003025FEADC0C18BF03325FEADC0C18BFBF
:1007F000033202EBDC02C2F1200300FA03FC20FA10
:1008000002F001FA03FE40EA0E0021FA02F114445C
:10081000C1E600BF70B54FF0FF0C4CF4E06C1CEA71
:1008200011541DBF1CEA135594EA0C0F95EA0C0FE6
:1008300000F0DEF82C4481EA030621EA4C5123EA59
:100840004C5350EA013518BF52EA033541F4801188
:1008500043F4801338D0A0FB02CE4FF00005E1FB3B
:1008600002E506F00042E0FB03E54FF00006E1FB85
:1008700003569CF0000F18BF4EF0010EA4F1FF04C8
:10088000B6F5007F64F5407404D25FEA4E0E6D4108
:1008900046EB060642EAC62141EA55514FEAC52019
:1008A00040EA5E504FEACE2EB4F1FD0C88BFBCF595
:1008B000E06F1ED8BEF1004F08BF5FEA500E50F146
:1008C000000041EB045170BD06F0004646EA01010C
:1008D00040EA020081EA0301B4EB5C04C2BFD4EB3E
:1008E0000C0541EA045170BD41F480114FF0000E37
:1008F000013C00F3AB8014F1360FDEBF002001F0A5
:10090000004170BDC4F10004203C35DA0C341BDC1E
:1009100004F11404C4F1200500FA05F320FA04F0F0
:1009200001FA05F240EA020001F0004221F0004124
:1009300010EBD37021FA04F642EB06015EEA430E97
:1009400008BF20EAD37070BDC4F10C04C4F12005C7
:1009500000FA04F320FA05F001FA04F240EA02007A
:1009600001F0004110EBD37041F100015EEA430E4B
:1009700008BF20EAD37070BDC4F1200500FA05F26B
:100980004EEA020E20FA04F301FA05F243EA0203EA
:1009900021FA04F001F0004121FA04F220EA0200F9
:1009A00000EBD3705EEA430E08BF20EAD37070BD3F
:1009B00094F0000F0FD101F00046400041EB01011F
:1009C00011F4801F08BF013CF7D041EA060195F001
:1009D000000F18BF704703F00046520043EB0303BB
:1009E00013F4801F08BF013DF7D043EA06037047A8
:1009F00094EA0C0F0CEA135518BF95EA0C0F0CD0B3
:100A000050EA410618BF52EA4306D1D181EA0301F8
:100A100001F000414FF0000070BD50EA410606BFF2
:100A20001046194652EA430619D094EA0C0F02D137
:100A300050EA013613D195EA0C0F05D152EA03367C
:100A40001CBF104619460AD181EA030101F000419A
:100A500041F0FE4141F470014FF0000070BD41F0E3
:100A6000FE4141F4780170BD70B54FF0FF0C4CF4BD
:100A7000E06C1CEA11541DBF1CEA135594EA0C0FDC
:100A800095EA0C0F00F0A7F8A4EB050481EA030E29
:100A900052EA03354FEA013100F088804FEA033310
:100AA0004FF0805545EA131343EA12634FEA0222DE
:100AB00045EA111545EA10654FEA00260EF000419F
:100AC0009D4208BF964244F1FD0404F5407402D2F1
:100AD0005B084FEA3202B61A65EB03055B084FEA82
:100AE00032024FF480104FF4002CB6EB020E75EB7F
:100AF000030E22BFB61A754640EA0C005B084FEAA7
:100B00003202B6EB020E75EB030E22BFB61A754623
:100B100040EA5C005B084FEA3202B6EB020E75EB6E
:100B2000030E22BFB61A754640EA9C005B084FEAE6
:100B30003202B6EB020E75EB030E22BFB61A7546F3
:100B400040EADC0055EA060E18D04FEA051545EAE2
:100B500016754FEA06164FEAC30343EA52734FEA8B
:100B6000C2025FEA1C1CC0D111F4801F0BD141EA04
:100B700000014FF000004FF0004CB6E711F4801F69
:100B800004BF01430020B4F1FD0C88BFBCF5E06F49
:100B90003FF6AFAEB5EB030C04BFB6EB020C5FEA59
:100BA000500C50F1000041EB045170BD0EF0004EAE
:100BB0004EEA113114EB5C04C2BFD4EB0C0541EAE0
:100BC000045170BD41F480114FF0000E013C90E6DD
:100BD00045EA060E8DE60CEA135594EA0C0F08BFA1
:100BE00095EA0C0F3FF43BAF94EA0C0F0AD150EAA0
:100BF00001347FF434AF95EA0C0F7FF425AF104633
:100C000019462CE795EA0C0F06D152EA03353FF45A
:100C1000FDAE1046194622E750EA410618BF52EAD7
:100C200043067FF4C5AE50EA41047FF40DAF52EAAB
:100C300043057FF4EBAE12E74FF0FF3C06E000BF48
:100C40004FF0010C02E000BF4FF0010C4DF804CD55
:100C50004FEA410C7FEA6C5C4FEA430C18BF7FEA15
:100C60006C5C1BD001B050EA410C0CBF52EA430C43
:100C700091EA030F02BF90EA020F0020704710F1C3
:100C8000000F91EA030F58BF994208BF90422CBF52
:100C9000D8176FEAE37040F0010070474FEA410C4B
:100CA0007FEA6C5C02D150EA013C07D14FEA430C69
:100CB0007FEA6C5CD6D152EA033CD3D05DF8040BDA
:100CC000704700BF8446104662468C46194663460C
:100CD00000E000BF01B5FFF7B7FF002848BF10F1E3
:100CE000000F01BD4DF808EDFFF7F4FF0CBF012028
:100CF00000205DF808FB00BF4DF808EDFFF7EAFFA4
:100D000034BF012000205DF808FB00BF4DF808ED5E
:100D1000FFF7E0FF94BF012000205DF808FB00BF53
:100D20004DF808EDFFF7CEFF94BF012000205DF8DD
:100D300008FB00BF4DF808EDFFF7C4FF34BF0120EA
:100D400000205DF808FB00BF4FEA410C7FEA6C5CB5
:100D500002D150EA013C0AD14FEA430C7FEA6C5CB5
:100D600002D152EA033C02D14FF0000070474FF02D
:100D7000010070474FEA410212F5001215D211D559
:100D80006FF47873B3EB625212D94FEAC12343F088
:100D9000004343EA505311F0004F23FA02F018BF0A
:100DA000404270474FF00000704750EA013005D1D3
:100DB00011F0004008BF6FF0004070474FF0000096
:100DC000704700BF4A0011D212F5001211D20DD5A2
:100DD0006FF47873B3EB62520ED44FEAC12343F041
:100DE000004343EA505323FA02F070474FF00000EB
:100DF000704750EA013002D14FF0FF3070474FF09A
:100E0000000070474FEA4102B2F1E04324BFB3F55E
:100E1000001CDCF1FE5C0DD901F0004C4FEAC00271
:100E20004CEA5070B2F1004F40EB830008BF20F055
:100E30000100704711F0804F21D113F13872BCBF0F
:100E400001F00040704741F480114FEA5252C2F164
:100E50001802C2F1200C10FA0CF320FA02F018BFAD
:100E600040F001004FEAC1234FEAD32303FA0CFC00
:100E700040EA0C0023FA02F34FEA4303CCE77FEA8F
:100E8000625307D150EA01331EBF4FF0FE4040F4D9
:100E90004000704701F0004040F0FE4040F4000088
:100EA000704700BF53B94AB9002908BF00281CBFCA
:100EB0004FF0FF314FF0FF3000F088BCADF1080C6F
:100EC0006DE904CE00F010FBDDF804E0DDE902235B
:100ED00004B0704760EE016A60EEA17A84B0CDED97
:100EE000017ACDED006A61EE207ADDED006A9DEDBC
:100EF000016ACDED037A60EE215A76EEC67ACDED29
:100F0000025ADDED025A9DED035AF4EE677AF1EED6
:100F100010FA35EE857A05D1B0EE670AF0EE470A91
:100F200004B07047B4EE477AF1EE10FAF4D0B4EEA4
:100F3000400AF1EE10FA70EE404A05D1F4EE644A30
:100F4000F1EE10FA40F0CA80F4EE600AF1EE10FA09
:100F500070EEE04A05D1F4EE644AF1EE10FA40F08A
:100F6000FB800023B4EE411AF1EE10FA71EE414A13
:100F700005D1F4EE644AF1EE10FA40F09580F4EEFB
:100F8000611AF1EE10FA71EEE14A04D1F4EE644A0E
:100F9000F1EE10FA58D1002B47D1F4EE666AF1EE6B
:100FA00010FA76EEE64A04D1F4EE644AF1EE10FA55
:100FB00023D1B4EE466AF1EE10FA76EE466A04D119
:100FC000F4EE666AF1EE10FA17D1F4EE655AF1EE1E
:100FD00010FA75EEE56A04D1F4EE666AF1EE10FAE5
:100FE0000BD1B4EE455AF1EE10FA75EE456A93D185
:100FF000F4EE666AF1EE10FA8ED0B4EE400AF1EE2D
:1010000010FA40F0DF80F4EE600AF1EE10FA40F0E2
:10101000CC80B4EE411AF1EE10FA40F0B980F4EE53
:10102000611AF1EE10FA40F0A68061EEE07A20EE4F
:10103000817AE0EE017AA0EE217ADFED796A67EE3F
:10104000A67A27EE267A67E711EE103ADFED757A79
:101050009FED757A002BB4BFB0EE671AB0EE471A59
:10106000F7EE007A11EE903AF0EEE77A002BB4EE4C
:10107000400AB8BFF1EE677AF1EE10FAF0EE671AA7
:1010800040F0AD80F4EE600AF1EE10FACDD010EE33
:10109000903A9FED657ADFED637A002BB4BFF0EEF6
:1010A000670AF0EE470AC0E711EE103AFFEE007A49
:1010B000002BB7EE001AF4EE611AB8BFB0EE671A53
:1010C000F1EE10FA71EEE17A05D1F4EE677AF1EE05
:1010D00010FA40F09E80DFED547AC3E710EE103A2C
:1010E000FFEE004A002BB7EE000AF4EE600AB8BF2C
:1010F000B0EE640AF1EE10FA70EEE04A05D1F4EEBB
:10110000644AF1EE10FA40F08780DFED474A10EEB6
:10111000903AF0EEE44A002BB4EE411AB8BFF1EE7B
:10112000644AF1EE10FAF0EE640A65D1F4EE611A49
:10113000F1EE10FA08BF01233FF414AF11EE903A1C
:101140009FED394ADFED374A002BB4BFF0EE641A49
:10115000F0EE441A012305E710EE103ADFED314AB4
:101160009FED314A002BB4BFB0EE640AB0EE440AE2
:10117000F7EE004ACBE711EE903A9FED2B7ADFEDC8
:10118000297A002BB4BFF0EE671AF0EE471A4CE74D
:1011900011EE103A9FED247ADFED227A002BB4BFD6
:1011A000B0EE671AB0EE471A39E710EE903A9FEDAD
:1011B0001E7ADFED1C7A002BB4BFF0EE670AF0EE6A
:1011C000470A26E710EE103A9FED177ADFED157A01
:1011D000002BB4BFB0EE670AB0EE470A13E710EE7B
:1011E000103A9FED117ADFED0F7A002BB4BFB0EE0D
:1011F000670AB0EE470A45E711EE103A9FED0A4A3A
:10120000DFED084A002BB4BFB0EE641AB0EE441A0A
:101210008CE7F7EE007A25E7F7EE004A77E700BFA4
:101220000000807F0000008000000000B0EEC17A66
:10123000F0EEE17AB4EEE77AF1EE10FA1BD5C1EEEA
:10124000217AF0EE616AB0EE607AE1EE276AA7EEED
:10125000807AB0EE406A97EEA06AC7EE267A86EEF4
:10126000267AF4EE677AF1EE10FA1BD1B0EE670A37
:10127000F0EE470A7047C1EE817AF0EE416AB0EEB7
:10128000407AE1EEA76AA0EEA77AB0EE606AA0EE1F
:10129000676AC7EE267A86EE267AF4EE677AF1EE72
:1012A00010FAE3D0B4EE477AF1EE10FADED0B5EEE4
:1012B000401AF1EE10FA19D1F5EE401AF1EE10FADB
:1012C00014D1B4EE400AF1EE10FA40F0D38011EEE2
:1012D000103ADFED707A9FED707A002BB8BFB0EE58
:1012E000677A60EE077A20EE877ABFE770EE406A91
:1012F000B4EE400AF1EE10FAF4EE666A0CBF012378
:101300000023F1EE10FA03F0010308BF0023002BC5
:101310006DD1F4EE600AF1EE10FA30EEE06A04D11D
:10132000B4EE466AF1EE10FA61D131EE416AB4EEE4
:10133000411AF1EE10FAB4EE466A0CBF0123002305
:10134000F1EE10FA03F0010308BF002363B931EE98
:10135000E16AF4EE611AF1EE10FA87D1B4EE466A52
:10136000F1EE10FA82D00023F4EE666AF1EE10FA84
:101370007FF47CAF70EEE06AF4EE666AF1EE10FA8C
:101380007FF474AFDFED457A002BF7EE006A11EEC3
:10139000103A08BFF0EE676AF0EEE66A002BF4EE52
:1013A000611AB8BFF1EE666AF1EE10FA71EEE17AF9
:1013B00004D1F4EE677AF1EE10FA67D19FED377A37
:1013C00011EE903AB0EEC77A002BB8BFB1EE477A73
:1013D00060EE877A27EE407AE0EE267AA0EEA67AD3
:1013E000DFED2E6A67EEA67A27EE267A3EE731EE2B
:1013F000416AB4EE466AF1EE10FA98D131EEE16A34
:10140000B4EE466AF1EE10FAA3D1DFED247A002B98
:10141000F7EE006A10EE103A08BFF0EE676AF0EEE1
:10142000E66A002BF4EE600AB8BFF1EE666AF1EEF0
:1014300010FA70EEE07A04D1F4EE677AF1EE10FA69
:1014400021D19FED166A10EE903AB0EEC66A002BDD
:10145000B8BFB1EE466A26EEE17A61EE867AA1EE79
:10146000067AE1EE267ADFED0C6A67EEA67A27EEC1
:10147000267AFBE6F4EE600AF1EE10FA3FF427AFAD
:1014800070EE406A51E7B7EE006ADCE7B7EE007A2B
:1014900096E700BF000080FF0000807F0000000092
:1014A000D0B500220E4B06460F46FFF7B3F9FFF703
:1014B00089FC0446FFF738F900220A4BFFF7AAF926
:1014C00002460B4630463946FEF7F0FFFFF77AFC3E
:1014D0002346002242EA000210461946D0BD00BF52
:1014E0000000F03D0000F0412DE9F0478C460E462B
:1014F0000446089D002B50D18A4217466CD9B2FA97
:1015000082FEBEF1000F0BD0CEF1200420FA04F4CD
:1015100001FA0EF644EA060C02FA0EF700FA0EF48F
:101520004FEA1749220CBCFBF9F01FFA87F809FBB8
:1015300010C642EA064600FB08F3B34209D9F61981
:1015400000F1FF3280F02281B34240F21F81023865
:101550003E44F61AA2B2B6FBF9F309FB136642EA5F
:10156000064403FB08F8A04509D9E41903F1FF324A
:1015700080F00A81A04540F20781023B3C44C8EB61
:10158000040443EA00400021002D62D024FA0EF446
:1015900000232C606B60BDE8F0878B4207D9002DDB
:1015A00055D0002185E841000846BDE8F087B3FA30
:1015B00083F1002940F09080B34202D3824200F2CE
:1015C000F880841A66EB03060120B446002D40D053
:1015D00085E81010BDE8F08712B90127B7FBF2F7D4
:1015E000B7FA87FEBEF1000F35D1F31B4FEA17485B
:1015F0001FFA87FC0121B3FBF8F0220C08FB103620
:1016000042EA06460CFB00F3B34207D9F61900F193
:10161000FF3202D2B34200F2CE801046F61AA2B2D6
:10162000B6FBF8F308FB136642EA06440CFB03FC26
:10163000A44507D9E41903F1FF3202D2A44500F210
:10164000B5801346CCEB040443EA00409CE72946EE
:101650002846BDE8F087CEF1200106FA0EF307FA1E
:101660000EF720FA01F94FEA1748CE4049EA03097C
:10167000B6FBF8FA4FEA194408FB1A661FFA87FC12
:1016800044EA06430AFB0CF29A4200FA0EF40AD925
:10169000DB190AF1FF3180F087809A4240F28480A2
:1016A000AAF1020A3B449B1A1FFA89F9B3FBF8F12D
:1016B00008FB113349EA034301FB0CF69E4207D9AC
:1016C000DB1901F1FF326BD29E4269D902393B44EA
:1016D0009B1B41EA0A418EE7C1F1200E22FA0EF46B
:1016E0008B40234320FA0EF706FA01F44FEA134C1D
:1016F00026FA0EF63C43B6FBFCF9270C0CFB1966E8
:101700001FFA83F847EA064609FB08F7B74202FAD0
:1017100001F200FA01FA08D9F61809F1FF3041D2B6
:10172000B7423FD9A9F102091E44F61BA0B2B6FB8D
:10173000FCF40CFB146640EA064704FB08F8B845C5
:1017400007D9FF1804F1FF3028D2B84526D9023C4A
:101750001F4444EA0940C8EB0707A0FB02894F4534
:1017600044464E4614D329D065B3BAEB040367EB65
:10177000060707FA0EFECB40CF404EEA030385E88A
:1017800088000021BDE8F0871346F8E61046E0E641
:10179000B8EB020469EB03060138E5E70446D8E735
:1017A000114695E78146C0E78A467CE7023B3C4408
:1017B00048E708460AE702383E442FE7C245E7D328
:1017C0003E46D1E72946BDE8F08700BF704700BF1D
:1017D000A0F13003DBB2092B01D858B27047A0F159
:1017E0004103052B01D8373804E0A0F16103052B34
:1017F00002D8573840B270474FF0FF3070470000B2
:101800000122014B1A607047248C0020024B586F54
:10181000431E584258417047D8F50220024B586F7A
:10182000431E584258417047D8F502202228F7B588
:101830004AD82822264B42439C18995C254A2569A0
:1018400052F8212001927DB1A6680021B1420BD04F
:10185000E7684FEA810E57F82170BA4202D155F875
:101860000E0032E00131F1E7282101FB0030037D59
:10187000072B29D8DFE803F0040B0C0E10111621FA
:10188000D3B2154915481A4632F09CF913E092B2CA
:10189000134903E052B200E012B212490F4832F08D
:1018A00091F908E01046FEF761FF02460B460B482F
:1018B0000D4932F087F9094807E0084B00220198EA
:1018C0005A711860184600E0084803B0F0BD00BF28
:1018D000E4FA0308D8F50220D5600308E884002064
:1018E000E0600308CC210908E3600308FEE1070873
:1018F0002DE9F041214D2823214C2868A04643437F
:10190000222814F803E004EB03071E4B53F82E20A3
:101910001E4601D8B96809B9531E16E00023FF68B6
:1019200057F82340A2420CD12BB901F18041013973
:1019300057F8213009E003F18043013B57F8233089
:1019400003E001339942EBD13B6846F82E300E4B51
:101950001E680E4B1F68FFF769FF02463046394686
:101960000BF0FEFE2B682821094A01FB0384136853
:10197000616A0B441360BDE8F08100BFE48400207D
:10198000E4FA0308D8F5022010850020188500200D
:10199000808500202DE9F041204D2823204C286827
:1019A000204EA0464343222814F803E004EB03072B
:1019B00056F82E2001D8BB680BB9531C15E0002146
:1019C000FF6857F82140A24207D1013B8B4216BF66
:1019D00001313B6857F8213007E001318B42F0D1EB
:1019E00003F18043013B57F8233046F82E300E4B6D
:1019F0001E680E4B1F68FFF719FF02463046394636
:101A00000BF0AEFE2B682821094A01FB0384136802
:101A1000616A0B441360BDE8F08100BFE4840020DC
:101A2000E4FA0308D8F5022010850020188500206C
:101A3000808500202DE9F041114E2825114C306899
:101A400005FB00F3E15C104B53F82120C83A43F842
:101A500021200E4B1F680E4BD3F80080FFF7E6FEE7
:101A60000246384641460BF07BFE3268094905FBC9
:101A700002435A6A0B6813440B60BDE8F08100BF53
:101A8000E4840020E4FA0308D8F502201085002041
:101A900018850020808500202DE9F041114E282571
:101AA000114C306805FB00F3E15C104B53F821202A
:101AB000C83243F821200E4B1F680E4BD3F800802C
:101AC000FFF7B4FE0246384641460BF049FE326845
:101AD000094905FB02435A6A0B6813440B60BDE8D1
:101AE000F08100BFE4840020E4FA0308D8F5022066
:101AF0001085002018850020808500202DE9F843FE
:101B00002D4D28232D4C2F682D4E7B43DFF8D89088
:101B1000D6F80080E35C072B2A4B06D12A4A4046C0
:101B200019680BF01DFE294A05E0294A404619684C
:101B30000BF016FE264AD9F8001040460BF010FEB6
:101B4000222F244BD6F80080196894BF2823204AFE
:101B500040469CBF03FB07435A680BF001FE1E4B37
:101B60003846D3F80090FFF761FE024640464946EA
:101B70000BF0F6FD2D68194B222D3668196894BFBD
:101B80002823134A30469CBF03FB05439A690BF098
:101B9000E7FD134B304619680BF0D6FD282303FBF5
:101BA0000544104B247F1968447030460BF0CCFD7F
:101BB0004470BDE8F88300BFE4840020E4FA030821
:101BC0001085002084850020E6600308F16003088A
:101BD000FEE107080C85002018850020DC84002029
:101BE0001C850020E08400201485002070B50B4C7B
:101BF0000B4E254623682822013B222B88BF222337
:101C000023602B6802FB03631B6A1BB9BDE87040AD
:101C1000FFF774BF98470028ECD0F7E7E484002072
:101C2000E4FA030870B50B4C0B4E254623682822B6
:101C30000133222B88BF002323602B6802FB036340
:101C40001B6A1BB9BDE87040FFF758BF98470028D2
:101C5000ECD0F7E7E4840020E4FA03081FB500F1B4
:101C60001404143454F8280C431C2AD054F8241CAF
:101C700019F00EFA54F81C1C009054F8200C01398D
:101C8000013819F005FA104A01460190009819F040
:101C900075F954F8241C54F8280C0131013019F05E
:101CA000F7F954F81C1C029054F8200C0239023841
:101CB00019F0EEF9044A01460390029819F05EF912
:101CC000CFE704B010BD00BF969696FF01380428F8
:101CD0000FD8DFE800F00503080A0C002020704749
:101CE000054B18787047052070472D207047142049
:101CF00070471020704700BF6B1F090821B30138DF
:101D0000042804D8DFE800F0070C10141A000F4B69
:101D10000B60102315E00E4B0B600E4B1B780AE096
:101D20000D4B0B60202306E00C4B0B60052308E0F5
:101D30000B4B0B602D230B71022304E0094B0B604E
:101D400014230B7101234B71704700BF9C9603084D
:101D500084EC03086B1F09084C73030854560308EE
:101D600054080408A88A030837B500220C460092DC
:101D7000019289B16946FFF7C1FF00999DF80550AE
:101D8000104623784BB151F823301A7814F8013FEC
:101D9000104413B12844F4E7084603B030BD0000F6
:101DA0002DE9F04F8DB01E460023054603910AA988
:101DB0001446BDF858B00A930B93FFF79FFFAAB1E2
:101DC0005946304619F064F9179907902846FFF7ED
:101DD000CBFF9DF82C1030445944013919F058F9C3
:101DE000224601460890079819F0AEFC0023179A86
:101DF0001278002A64D018998B4261D00A994FF06A
:101E0000340E51F822403049257808682F49771957
:101E10009DF82C200EFB0011B1F860108F424FDCB2
:101E20005A4404F101085F4692B20292029A974224
:101E30003AD02C46002C34D018F8012B22B9072CAC
:101E40002FD9083CE4B2F5E7082C21464FF00009F1
:101E50004FF0010A28BF08210091311989B2019180
:101E6000019901EB09000099494480B211F0FF0F7C
:101E7000E5D012EA0A0F0AD039460592049319F008
:101E800007F90399099019F0B1F8059A049B09F133
:101E9000FF394FEA4A0A19F1080F5FFA8AFADFD1CF
:101EA000CDE70137BFB2C1E71799013311F8012F10
:101EB00017912AB19DF82D2015442E44B6B296E70D
:101EC00018460DB0BDE8F08FD4F50220E4F40220EE
:101ED0002DE9FF410B9C054698460E4620461746C5
:101EE000FEF778FABDF828303A463146009343466B
:101EF000029028460194FFF753FF04B0BDE8F0813B
:101F00002DE9FF410D4C98460CAB05460E46174691
:101F1000FF210B9A2046039331F004FF00233A4639
:101F2000314623542846BDF8283001940093434697
:101F3000FFF7CEFF04B0BDE8F08100BF3CF3022004
:101F40002DE9F0470A9E8846BDF824501C463146CC
:101F500007469146BDF820A0FFF706FF281A09960C
:101F60004A46A0420346CDF820A04146B8BF2346CA
:101F700038469BB2BDE8F047FFF7AABF30B585B041
:101F800000240D4602A902940394FFF7B7FE0D4BFF
:101F9000ADF80040342418680B4B9DF80C1004FB7E
:101FA00000331144ADF80220B3F860004008013856
:101FB00019F06EF82A460146009819F0C5FB05B0E5
:101FC00030BD00BFD4F50220E4F40220064B13B567
:101FD0001C7E01230191009221460246034822F013
:101FE0000BF9002002B010BDD8F502209487002024
:101FF00004284FEA031373B512BFC901002101225F
:1020000003F0700308BF0C469DF818604FEA1225D4
:102010008DF801201EBFB1FBF2F402FB1411A4F5F0
:1020200000748DF800504FEA123218BF04EBC01450
:10203000042802F0F0028DF80710C4F301458DF872
:10204000044008BF45F00C051D43230A8DF80330FA
:10205000C1F303438DF802501A440B0A8DF8052092
:102060008DF806301EB96A4608212A200AE0012EA2
:1020700003D16A460821322004E0022E04D16A46C8
:1020800008213A20FFF7A2FF02B070BD08B5044B4B
:102090000A460146187E22F093F9002008BD00BFD1
:1020A000D8F5022013B5C9018DF80120B1FBF2F477
:1020B00004EBC01002FB1411140AA0F50070120BFF
:1020C0008DF80040C0F301448DF8040002F0F002E6
:1020D0008DF807108DF80240040AC1F303408DF813
:1020E000034002448DF805200A0A08218DF80620D5
:1020F0006A4623B91A20FFF769FF202103E0222056
:10210000FFF764FF8021B120FFF7C0FF02B010BDD0
:10211000754B2DE9F04FDA6997B05E698A4616442F
:1021200041F68362904240F2C580D3F884309842F1
:1021300028BF18466D4B984240F29F806C4B9842E6
:1021400002D89FED657B01E09FED657B8DED047B03
:10215000FEF7EAFA04460D463046FEF7E5FA024677
:102160000B46204629460126FEF77EFCDDE90423C6
:10217000FEF750FB04460D4645EC104B2CF0A0FD3D
:1021800051EC100BFEF71EFE0E90FEF7CDFA024644
:102190000B46204629460024FEF788F9554B0022BD
:1021A000FEF738FBFFF77CF9002383468946CDE92B
:1021B00006344FF0FF336FF01044CDE902340024B1
:1021C0000123CDE9083400242746A0465846494655
:1021D000DDE90223FEF766FE05460A9158464946A8
:1021E000DDE90223FEF75EFE0F930A9BA6FB0501C5
:1021F0000C9206FB03FEDDE9062308FB05EE121830
:102200000A9871444B4107FB05F104FB001BA5FB39
:1022100004015944DDE908BC1BEB000B4CEB010C3D
:102220005846DFF8E4B061464FF0000C9C4508BF0B
:1022300093451ED34FF0000CDFF8D0B08C4508BF9B
:10224000834516D308940C9CDDF808B002940F9CCB
:10225000DDF80C90039409970696CDF81C80DDE913
:1022600002452C43044603D00F4616469846ADE778
:10227000164602964FF0000B03E143F608539842CE
:102280001AD947F61123984219D94FF2234398429D
:1022900018D9194B984218D9184B984218D9184B8D
:1022A000984235D9174B98428CBF4FF0000B4FF036
:1022B000010B2FE041F684604FF0070B2AE04FF04E
:1022C000060B27E04FF0050B24E04FF0040B21E054
:1022D0004FF0030B1EE000BF00000000000018409C
:1022E0000000000000001040D8F502201F9DB40639
:1022F0007FD1F0080000DC4347E801008FD00300E5
:102300001FA107003F420F00FEFF0F00FFFF0F005D
:102310004FF0020B00FA0BF330464FF0FF396FF02D
:1023200010481593FEF700FA02460B460126CDE948
:102330001001BEA1D1E90001FEF796FB04460D464F
:1023400045EC104B2CF0BCFC51EC100BFEF73AFDA9
:102350000E90FEF7E9F902460B46CDE91201204640
:102360002946FEF7A3F8AC4B00220024FEF752FAF0
:10237000FFF796F8012307461491CDE904340024B1
:102380000023CDE9023400240C940F944A464346BE
:1023900038461499FEF786FD4A46054608913846A8
:1023A00043461499FEF77EFDA6FB0501CDE90A23FD
:1023B000089B0F9A734302FB05331944DDE902239E
:1023C00012184B41CDE90623089B04FB03F70C9B35
:1023D000DDE9040103FB0577A4FB052380183B44DA
:1023E0005941DDE90623CDE9080100218B489942D6
:1023F00008BF904221D300218948DDE90823994292
:1024000008BF904219D30F9D4F4604940C9CCDF801
:102410005080029603950594DDE90A0101430AD034
:10242000099BDDF828900C93079BDDF82C80089C15
:10243000069E0F93AAE7089C069E30460296FEF77A
:1024400073F906460F462046FEF76EF902460B4624
:1024500030463946FEF708FBDDE91223FEF728F87F
:10246000DDE91023FEF7D6F906460F461598FEF76C
:102470005BF902460B4630463946FEF7F5FACDE9E0
:1024800004010022674BDDE90401FEF72BFC064640
:10249000002840F0F1800022634BDDE90401FEF7E3
:1024A00021FC0546002840F0E08001269DED040B4C
:1024B0002CF006FC51EC100BFEF784FC0746FEF7EF
:1024C00033F902460B46DDE90401FDF7EFFF002278
:1024D000514BFEF79FF9FEF7E3FF01220023109016
:1024E00012910F951495CDE9042300230022CDE924
:1024F00006234FF0FF3308936FF010430A93089AB6
:102500000A9B10981299FEF7CDFC89468046089ADE
:102510000A9B10981299FEF7C5FC06FB09FE05FB05
:1025200009F9CDE90C23149BDDE9060103FB08EE54
:10253000A6FB082380187344594102460B460F99A5
:1025400001FB089EA5FB0889DDE90401F14410EBBD
:10255000080041EB09018046304889460021994234
:1025600008BF90421FD300212D48494508BF404570
:1025700019D30899069610910A9904951291149905
:1025800007910F990591DDE90C01014309D00C99E0
:102590004546CDF83C90164608910D9914930A9142
:1025A000ADE745461646BAF1000F0AD1042F69D0AF
:1025B000062F67D00F2110204FF00008FFF766FDAF
:1025C00014E0BAF1010F1BD127F00203042B0CBF5A
:1025D0006F212F2105E0BAF1010F2BD155460627B7
:1025E0006F214FF001081120FFF750FD5B46CDF839
:1025F00000802A4631463846FFF7FAFC43462CE075
:10260000BAF1020F49D127F00203042B0CBF4F216E
:102610000F2116E0AFF300800000DC43FEFF0F0047
:10262000FFFF0F0000001040000018400000008075
:1026300074D2CA410627BAF1020F2ED10125002615
:102640004F211220FFF722FD02232A463146009334
:1026500038465B46FFF7CCFC0023224602990E98D1
:1026600017B0BDE8F04FFFF71DBDBAF1000FB2D1B2
:1026700001255646062705E0BAF1000F04D10125D1
:10268000564604274F2196E7BAF1010F03D10026E1
:1026900055460427A4E70427CDE717B0BDE8F08F1F
:1026A00038B50B4B0C4605460321187E21F090FDF2
:1026B000012C15BF012104FA05F1A94020EA01010E
:1026C00018BF01430320C9B2BDE83840FFF7DEBCA4
:1026D000D8F5022008B50221FFF71AFD01210220DA
:1026E000BDE80840FFF7DCBF08B50121FFF710FD8A
:1026F0000121BDE808400846FFF7D2BF08B5002118
:10270000FFF706FD01210020BDE80840FFF7C8BF24
:10271000002108B50846FFF7C3FF00210120FFF79D
:10272000BFFF00210220FFF7BBFF80211020FFF731
:10273000ADFC80211120FFF7A9FC80211220BDE80B
:102740000840FFF7A3BC00000A4A0346D2F88410F1
:1027500001EB41028242084A02D2D268052003E01E
:10276000884204D9D2680320B3FBF0F01047D36845
:10277000184700BFD8F50220606704202DE9F0411A
:102780000546154C18B96368BDE8F0411847134B6E
:10279000A0F51C561A692F3E92B9D3F8843003EB8A
:1027A0004302904201D9052702E0984208D9032745
:1027B000A368B5FBF7F09847E368B6FBF7F003E0D2
:1027C000A3689847E36830469847054B00201D6092
:1027D000BDE8F04123F0C0B960670420D8F50220BD
:1027E00068830020DFED1D6A60EEA00AB4EE660A81
:1027F00008B51B4BF1EE10FAD3ED097A4CBFB0EEE1
:10280000667AB0EE407AF8EE677AB0EE600A37EE9C
:10281000676A77EE277AA6EE060AE7EEA70ADFEDEB
:10282000117AF4EE660AF1EE10FA08BFF0EE670ACC
:1028300080EE200A2DF024F9DFED0B7AB4EE670A62
:10284000F1EE10FAC8BFB0EE670AF7EE007A30EE8C
:10285000277A37EEC00A87EE000A08BD00000000A4
:10286000D8F502206042A20D77BE7F3F08B50D4B20
:1028700093ED000A2CF05CFB0B4BD3ED007A0B4B75
:1028800093ED007A0A4B77EE877A93ED007A094B45
:1028900077EE877A27EE800AD3ED007A20EE270ABA
:1028A00008BD00BF3CF80220648100207880002031
:1028B000388100206083002008B50E4B93ED000A9C
:1028C0002CF0EEFA0C4BD3ED007A0C4B93ED007A22
:1028D0000B4B37EE877AD3ED007A0A4B77EE277AE7
:1028E00027EE800AD3ED007A90EE277AB0EE470A01
:1028F00008BD00BF3CF802206481002078800020E1
:10290000388100206083002008B5154BF5EE080AD9
:10291000B2EE040A1A6CC2F16403632B97BF6FF026
:10292000EF03EF23534364229FBF03F5BB434033C0
:10293000B3FBF2F3DBB2C3F1EF0307EE903AF8EE2C
:10294000E77A67EEA07AF3EE040AC7EEA00A2CF04D
:1029500003FF044BD3ED007A20EE270A08BD00BF29
:10296000D8F502205C83002008B5154BF5EE080A67
:10297000B2EE040A1A6CC2F16403632B97BF6FF0C6
:10298000EF03EF23534364229FBF03F5BB43403360
:10299000B3FBF2F3DBB2C3F1EF0307EE903AF8EECC
:1029A000E77A67EEA07AF3EE040AC7EEA00A2CF0ED
:1029B000D3FE044BD3ED007A20EE270A08BD00BFFA
:1029C000D8F50220648300202D4B1B682D4B93F813
:1029D0007D20D2B2012A10B5C0B049D193F87C1045
:1029E000012945D083F87C20274A5A664FF4886233
:1029F000A3F86820A3F86A20222283F87D20002211
:102A0000C3F880201A681168C90303D4116841F41F
:102A1000803111601B4AB3F86A00196808B34C6929
:102A200014F4E02FFAD0586B402807D1906A38B9D7
:102A3000506EC969441C546601700CE0802805D8AA
:102A4000C869596E21F8020B596604E0C869516ED5
:102A500041F8040B5166B3F86A100139A3F86A1003
:102A6000D9E7012283F87C0083F87D2040B010BDB7
:102A700002220649684631F0A5F8684629F02CFF85
:102A800038F80220C8B7022004D90220FC600308ED
:102A900000292DE9F04F93462DED028B83B002DC27
:102AA0009FED3E0A74E0142905460246DFED3B7AAD
:102AB000A8BF142100230C460133B2EC017AA342D3
:102AC00077EE877AF8DB07EE104A042CB8EEC70AD7
:102AD00087EE808A5ADD00EB840A9FED307AF0ECB5
:102AE000017A824577EEC87AA7EEA77AF7D187EE0A
:102AF000000A2CF0C5FF18EE100A8DED010AFDF753
:102B000035FE9DED010A06460F4610EE100AFDF750
:102B10002DFE0022224BFDF77DFE02460B4680462D
:102B2000894630463946FDF7C1FCFEF76BF94B4646
:102B3000424608EE900A39463046FDF7B9FCFEF7EA
:102B400061F99FED167A06EE900A0023F5EC017A02
:102B5000F4EEE78AF1EE10FA07D8F4EEE76AF1EE48
:102B600010FAA4BF37EE277A0133AA45EED1BBF1A4
:102B7000000F03D0B3EB640F01DA91E733B107EE36
:102B8000903AF8EEE77A87EE270A01E0B0EE480ABD
:102B900003B0BDEC028BBDE8F08F00BF0000000069
:102BA0000000E83F00282F4B2F484FF0000114BFD2
:102BB0004222402270B513442C4A2DED048B86B07E
:102BC00033F921400131B0EC017A07EE904AB1F5BA
:102BD000007FF8EEE77A67EE877AE2EC017AEFD1D0
:102BE00068469FED238A24F0CFFABDF81030F0EE4E
:102BF000488A00225B081D49684669241D4E9FEDE6
:102C00001E9AADF8003026F042FE1A4A684617496F
:102C100024F04CFB06EBC4030134164D93ED000A7F
:102C2000D3ED010A2CF00AF820EE090A6E2CA0EE72
:102C3000008AEFD1B0EE480A2CF022FFB0EE408AB5
:102C4000D5EDD60A95EDD70A2CF042FCF1EE407A8C
:102C5000B0EE480AF0EE670AA7EEA80A06B0BDEC8F
:102C6000048B70BD04D90220D8CD022084E9022053
:102C70000000000084E102200000803B2DE9F041CB
:102C80001F46314B0446984204D9304BD3F880207C
:102C9000904211D92E4B2F4A13602F4A1360002304
:102CA0002E4A13602E4A13602E4A2F4B1168526829
:102CB00019605A60BDE8F081A0F51C561A692B4DC9
:102CC0002F3EA2B9D3F8843003EB4302904202D9DD
:102CD0004FF0050803E0984209D94FF003082B692B
:102CE000B4FBF8F09847EB68B6FBF8F003E02B690B
:102CF0009847EB68304698471D4B1E4D4FF40862CD
:102D00001C6000241C4E00211C4829F0D2FFBC424C
:102D10000BDAFFF759FE0020FFF744FF0023A6EC73
:102D2000010A013445F8043BF1E703223946124811
:102D3000FFF7AEFEDFED127A074B20EE270A83ED98
:102D4000000ABDE8F08100BF9F860100D8F502208F
:102D50000000FA43648300205C83002088AE0320D7
:102D6000E0F40220F83F03086C8300206067042031
:102D7000688300208CF402203CF4022004D9022055
:102D8000EA40563C000000002DE9F04F2DED028B8B
:102D900085B01C4605460291039210B9864B1D680A
:102DA0001AE0864B984204D9854BD3F8803098427C
:102DB00010D9844B844A1360844A13600023844AE8
:102DC0001360844A1360844A844B11685268196006
:102DD0005A60DDE0FFF7D2FC142C4FF00306A8BFC9
:102DE0001424DFF808A20027DFF8F891DFF8F8B123
:102DF000A74256DAFFF7E8FD0020FFF7D3FEB0EE5A
:102E0000608A0120F0EE408AFFF7CCFEA9EC010AAF
:102E100078EE607AEBEC018A17EE900AFDF7A6FCDB
:102E20005FA3D3E90023FDF743FBFDF7EBFFDFEDE5
:102E30006C0A00EE100A2CF04DFB10EE100AFDF7A4
:102E400095FC57A3D3E90023FDF730FBFDF7DAFF2C
:102E50008046FDF78BFC54A3D3E90023CDE90001A4
:102E6000FDF74AFF38B152A3D3E90023DDE90001A1
:102E7000FDF71EFB0EE04AA3D3E90023DDE90001C4
:102E8000FDF758FF48B14AA3D3E90023DDE900016B
:102E9000FDF70CFBFDF7B6FF80464AF8048B0137BF
:102EA000A6E7324621464F48FFF7F2FDF0EE408A92
:102EB000324621464C48FFF7EBFD324621464B484F
:102EC000B0EE408AFFF7E4FDF5EE408A484B83ED13
:102ED000000A1F46F1EE10FA09D0B5EE408AF1EE75
:102EE00010FA04D0B5EE400AF1EE10FA01D1013E1D
:102EF00077E7C8EE887A3F4B1C46C3ED007A029B09
:102F00002BB13D4B1B6813B1284627F019F9DFEDB3
:102F10003B7A2D4B68EEA78A386828EE278AC3EDE6
:102F2000008A2A4B83ED008AFDF720FC0022344BF7
:102F3000FDF770FC1AA3D3E90023FDF795FDFDF71B
:102F400061FF234B94ED000A18602CF089FBF3EE2F
:102F5000047A204B214C20EE270A83ED000AFFF76C
:102F600085FCB0EE408AFFF7A7FCDFED267A039BD5
:102F7000A8EE270A84ED018A84ED000A43B1F0EE41
:102F8000480A284607F0E6FB84ED000AC4ED010A72
:102F900005B0BDEC028BBDE8F08F00BFAFF3008041
:102FA000182D4454FB210940182D4454FB2109C01D
:102FB000182D4454FB211940688300209F8601008E
:102FC000D8F502200000FA43648300205C830020CF
:102FD00088AE0320E0F40220F83F03086C83002051
:102FE000DB0FC9408CF402203CF4022088F7022059
:102FF0003CF8022060830020D0F50220EA40563CD5
:1030000000806640000000002DE9F04F00252C46AE
:103010002F465FFA85FC94453CD24FF0000E10F825
:103020000C604FF020084FF0000906FA0EF6C6F3C8
:10303000C01646EA4707184E3E4008F1FF3806F032
:10304000010A760818F0FF0889EA0A09F5D101F8A3
:10305000049004F1010ADFF8449020265FFA8AFA0E
:1030600007EA0909013E09F0010B4FEA590916F078
:10307000FF0688EA0B08F5D1023401F80A80E4B2B1
:103080009C4201D30135C4E70EF1010EBEF1080FD9
:10309000C5D1F7E7BDE8F08F5153D0F2473C61E46A
:1030A0002DE9F041C6B004465B220D4618A8002168
:1030B00029F0FFFD4D22214618A829F0EFFD00233D
:1030C00000930193029318A91DF8032001EBC3009C
:1030D0000021445C013144EA42020829D2B2F8D10D
:1030E0000DF8032001330A2BEDD100231A461DF8F9
:1030F0000240072144FA01F003F4005600F00100F9
:1031000040EA43031EB183F41D5383F0170311F10A
:10311000FF31EFD20132C3F30D030C2AE7D10222B3
:10312000012003FA02F111F4004115BF18A918ACEF
:103130008918A41802F1010214BF81F84B0084F829
:103140004B10102AEDD12FAE4FF00C085B2218A9BE
:103150003046002429F0A2FD0DEB0807DFF850C02F
:10316000002208FB04CE1346D1B2C80801F00701C3
:103170001EF8000000FA01F1B05C0132C1F3C01189
:103180005B2A00FB0133EFD103F00103E355013467
:10319000532CE5D13146284629F080FD2246394698
:1031A00005F15B0029F07AFD46B0BDE8F08100BF73
:1031B00055BE03082DE9F041002392B004460D46A8
:1031C00005AE02AF1A4605930293736033817B60AC
:1031D0003B81A15C11F0DF0F10D00846FEF7F8FA32
:1031E000013000F0A0800DABD15401320123132A2D
:1031F000EFD12046FDF7EEF8002302E0002BF8D1D6
:1032000091E0DAB2904208D99046A25C0133202ABC
:10321000F7D108F1FF385FFA88F80DAE13220021CC
:103220000027304629F045FD08F1010221463046CD
:1032300029F034FD122300961321904A08A830F09B
:103240008FFC8F4BD3F80080FEB208A8FDF7C2F8C0
:10325000B0420FD912AB01371E4416F8283C08EBD8
:103260000302527802F00302022A04BF203B06F850
:10327000283CE9E708A9204630F0F4FC2078202813
:1032800003D0FEF7A5FAC0B200E00020691E0123BA
:1032900000FA03F20133C2F3C002042B01F8012F3C
:1032A000F6D16078202803D0FEF792FAC0B200E091
:1032B0000020A91C002300FA03F20133C2F3C0026C
:1032C000042B01F8012FF6D105F1080205F148069B
:1032D000A078202803D0FEF77BFAC0B200E00020DF
:1032E0000023D71800FA03F10133C1F3C001042B06
:1032F00007F8011CF5D1E078202803D0FEF768FA22
:10330000C0B200E000200023D71800FA03F1013317
:10331000C1F3C001042BF970F6D108320234B24275
:10332000D6D1052396E02346564A0E2108A830F050
:1033300017FC534A0DF11F030BA8D2F800E090468A
:1033400013F8012F0EEB0201497801F00301022965
:1033500004BF203A1A708342F2D108A9204630F007
:1033600081FC611ED8F800000C344FF02A0E11F8D1
:10337000012F831893F801C00CF0040C0CF0FF032C
:10338000BCF1000F02D0A2F12F0306E0A2F1410C24
:10339000BCF1190F03D8A2F13603DBB215E0202AE5
:1033A00013D02B2A0AD02D2A0AD02E2A0AD02F2A4F
:1033B0000AD03F2A0CBF2923FF2306E0252304E07F
:1033C000262302E0272300E028234FF0000C62466A
:1033D00016F80C80C2F307221EFB082207F80C2007
:1033E0000CF1010CBCF1090FF2D1120A1B028DF88D
:1033F0001120002217F802C00CEB1323B354013242
:10340000092AF7D11B0A8C428DF81D30AFD19DF8E7
:103410001C00691E012300FA03F20133C2F3C0123B
:10342000082B01F8012FF6D107A805F1080205F1D4
:10343000480610F8014D0023D71804FA03F10133B0
:10344000C1F3C011082B07F8011CF5D108329642D0
:10345000EFD1002303F001029B0885F847200022EA
:1034600085F8493085F8482085F84A2085F84B20B2
:1034700085F84C2012B0BDE8F08100BF1B61030845
:10348000148400202061030810B50446FCF7A2FF55
:10349000C0B20C2803D9631E0B480C3406E020236D
:1034A00023540130C0B20E28FAD1F4E713F8012FEB
:1034B00001681144497801F00301022904BF203A50
:1034C0001A709C42F2D110BD148400200A4B1B6874
:1034D00003445B785B0701D5303806E0202806D02E
:1034E000A0F14103192B04D83738C0B2704724200B
:1034F0007047FF20704700BF14840020134B1B68E7
:1035000003445B785B0701D5303804E0A0F1410348
:10351000192B02D83738C0B2704720280CD02B287E
:103520000CD02D280CD02E280CD02F280CD03F28C2
:103530000CBF2920FF2070472420704725207047AA
:1035400026207047272070472820704714840020C9
:103550004368994206DBC91A026841FA02F219402F
:103560001144F6E70846704790B5C1B04FF40B72AE
:10357000002100AFADF5147D0DF11F0424F01F04F0
:10358000204629F096FB12220E49204623F018F916
:10359000024678B90C494FF4D8720C4B20460B60A8
:1035A0003B4622F0D6FB204622F05EFB07F58277F1
:1035B000BD4690BD0649384630F004FB384629F038
:1035C0008BF900BF25610308D8F50220332E306443
:1035D0003B61030830B52D4D85B02D4824F032FDF8
:1035E000AB69FBB902240021204620F0F1FD01382F
:1035F000C0B2FD283CD9023414F0FF04F3D1254BAE
:103600002046C0244FF07F4201930A2322490093B1
:103610000523FEF75DFC40F6B83022F09DFAAC6160
:10362000FFF7A2FFFF210320FEF730FD80211020CD
:103630009524FEF72BFDD5F88810B720890141F0BD
:10364000120101F0D201FEF721FD00210F20FEF74B
:103650001DFD204601340021E4B2FEF717FDA22C27
:10366000F7D10021BB2005B0BDE83040FEF70EBD0C
:103670000A4B4FF07F4202944FF0FF2101930A233F
:10368000002000930523FEF73BFCC4E7D8F5022099
:10369000948700206B6103080000FFFFB9610308F5
:1036A000064B074A1A60074A5A60074A9A60074A57
:1036B000DA60074A1A61FFF78DBF00BF6067042018
:1036C000D535000811270008FD260008E926000866
:1036D000D526000800000000B14BB24A196D2DE953
:1036E000F04F2DED048B11601C46596DABB0AE4A06
:1036F0004FF00208AD4F1160996DAD4AAD4D1160AC
:103700001A6A0F2A84BF4FF0FF332362FFF72CFFA2
:1037100006F05AFE06F06AFF236C2F600024009327
:1037200028463B6823F480333B604FF0FF3385F835
:103730007D803C61BB611AF07DFA2A6809A8536854
:1037400043F008035360C5F8804085F87C4085F855
:103750007D401AF01FFC4FF4801309A809934FF421
:10376000800319934FF4AC730A9307230C9301233E
:1037700012931AF001FD95F87D302F6003F0FF06DB
:10378000002B75D18C4C284626F0F2FB4FF4806953
:10379000636C09A9894843F400036364636C03F410
:1037A00000030893089B236B43F040032363236BC0
:1037B000CDF8249003F04003CDF828800B960793B2
:1037C000079B0A23CDF830800D9328F067FD236B0B
:1037D00009A97B4843F080032363236B0A9603F017
:1037E00080030B96CDF830800693069B4FF4004380
:1037F000099328F053FD236B43F480032363236B69
:1038000003F480030593059B2B68BB4220D16D4CCC
:103810004FF4006363614FF4005320466660A36178
:103820004FF48073A660E3614FF40033E6602362D7
:103830000323C4F81090A362634B6662E6622663BA
:1038400023602C67A56328F054FF204628F076FFFC
:1038500000220F2146205D4C29F006F8402300226B
:103860000F21A360282028F0FFFF4FF480736360CE
:10387000574B0026574D4FF001081A6880212B60E6
:103880004FF4803B22F480324BF680394FF4802A8B
:1038900028461A604FF40053402269632B612023AD
:1038A00003916B64019304232A64EB650523029260
:1038B0002B66C5F81C90C5F804806E612E63AE635C
:1038C000C5F83C80AE60C5F81880C5F848B0EE6415
:1038D000C5F850A06E65AE651AF0F6F93868354C3B
:1038E000019B20F480302760386003206364042348
:1038F0000399029AE36505236060204661632264B0
:103900002366C4F81C9066612663A663C4F83C80F5
:10391000C4F808802661C4F81880C4F848B0E6648A
:10392000C4F850A06665A6651AF0CEF92A6834205E
:10393000136843EA0B0313602268274C136843EAB9
:103940000B031360A368984748F6941398427AD102
:10395000E36A34209847214B4FF4407134201C60B7
:10396000009B2468C3F164024B469FED1D9AD2B2BE
:10397000DFED1C8AA0479FED1C8A1C4C30460136A7
:10398000FCF7E2FE8046894603A3D3E90023FCF757
:1039900041FF2DE0AFF30080182D4454FB21194066
:1039A000D8F502207880002064810020245C01404A
:1039B00038810020C8B702200038024000180240B9
:1039C000001C024020850020B864024000E100E0B5
:1039D000045C01400CBC0220DC82002010BD0220EF
:1039E0003E3DFE3E236ADA3E7C629D3DD8CD0220FC
:1039F0001AA3D3E90023FDF737F8FDF703FA00EE29
:103A0000100A2BF04DFA40464946F0EE409A15A3B5
:103A1000D3E90023FCF7FEFE10A3D3E90023FDF752
:103A200023F8FDF7EFF900EE100A2BF039FAF0EE6B
:103A3000687AB6F5007FE9EEC97AE0EE087AE4EC40
:103A4000017A9BD102E0044828F046FF2BB0BDEC80
:103A5000048BBDE8F08F00BFF56103080000000093
:103A600000F07F40182D4454FB21294008B5FFF792
:103A70007BFDFFF715FE064B1B6823B1C82022F023
:103A80006BF808F079FB0122024B1A6008BD00BFF9
:103A900080850020248C00202DE9F041944A88B0D4
:103AA000944C002101236261C02293484FF0420CE4
:103AB000A2613222914E00AF6262ADF5147DA26226
:103AC0000522A3600DF11F05E2624FF4FA72216135
:103AD00025F01F0522630622E1612264884A2162E3
:103AE0002265884A63636265A2F57C02A363A265CE
:103AF0004FF41642E3636164E164E1656166A166C7
:103B0000E366216761676060E060A064226626600A
:103B1000A167C4F88CC04FF47A6C7B4AC4F8BCC06F
:103B200040F61C4CE267C4F8C4C00CF19A7CC4F89F
:103B3000A4200CF6560CC4F80421C4F82C21C4F8B7
:103B40005421C4F87C210822DFF8F8E1C4F8D4C07D
:103B500040F28A7CC4F8E40043F2B060C4F89021DB
:103B6000C4F894214FF41652C4F880E04FF0030ECD
:103B7000C4F8D8C04FF4616CDFF8CC81C4F8F00011
:103B8000C4F81801C4F84001C4F868012846C4F814
:103B90009C214FF40B72C4F888E0C4F8C810C4F834
:103BA000CC10C4F8D030C4F890C0C4F8DC10C4F80D
:103BB000E0E0C4F8E830C4F8EC10C4F89811C4F898
:103BC000A011C4F88480C4F8A411C4F8A83129F065
:103BD00070F807F108014D4822F078FD0C2801D05B
:103BE000032802D14A4828F077FE18BBBB680BB9FE
:103BF000FFF7BAFC01224549284622F0E1FDBA68E8
:103C00003B1DB2F5D87F0AD23A49284622F08EF9F8
:103C1000284622F029F82660FFF7A6FC13E04FF4AF
:103C2000D8723449284622F081F9284622F01CF83F
:103C3000266008E0374822F0B9FB374822F0B6FB8F
:103C4000FFF792FC4FE022692A4BE2B9334AD3F8DE
:103C50008010914288BFC3F88020D4F88430304A65
:103C6000934210D043450ED02E498B420BD02E49A3
:103C70008B4208D02D498B4205D02D498B421CBF69
:103C80001C4BC3F88420E26F2A4B9A4282BF2A4A17
:103C9000184BDA67D4F880301B4A934205D927497C
:103CA000B3FBF1F201FB123313B1254BC4F88030A2
:103CB000D4F88C30013B632B82BF42220D4BC3F8FA
:103CC0008C20D4F89031043B102B82BF0822094B82
:103CD000C3F89021D4F89431043B102B82BF082202
:103CE000044BC3F894212037BD46BDE8F08100BFE6
:103CF000C0FC9B01D8F50220809FD500332E306494
:103D00003333A34000004843A08601002561030827
:103D10000E620308196203081D620308803E6D5697
:103D20000068890900497F0F80DF17100076B01006
:103D3000800C49111FA1070020A1070040420F007D
:103D400080D1F0080046C32300C2EB0B2DE9F04FF1
:103D5000E9B006F032FF04460028FAD1D84B2227FA
:103D60006FF0FF05012618604FF00A08D54B48F2A6
:103D7000800A4FF0FF394FF0DC0B1860D24B18600F
:103D80004FF07F4020F010F9D04B00944FF07F426D
:103D9000019301206423CE49FEF79AF83A46214662
:103DA0005FA828F086FFCB4B3A462146CDF88231FA
:103DB0004FF6807356A8ADF88C51ADF89031C64BD4
:103DC000ADF87E81ADF88071ADF88661ADF88841BF
:103DD000ADF88A41ADF88EA1CDF8923128F069FF97
:103DE000BE4A4FF4967321464DA8CDF85E21BC4AD9
:103DF000ADF85A3103934FF68073CDF86E213A46F1
:103E0000ADF86851ADF85C71ADF86261ADF8644130
:103E1000ADF86641ADF86AA1ADF86C3128F049FF04
:103E2000B04A4FF0FF03214644A8CDF83A21AE4AEC
:103E3000ADF84451CDF84A213A46ADF84651ADF8B7
:103E40003681ADF838B1ADF83E61ADF84041ADF81E
:103E50004231ADF8489128F02CFF039B3A462146A9
:103E60003BA8ADF81231A14BADF82051CDF8163179
:103E70004FF0FF03ADF82251ADF81E319C4BADF869
:103E80002451ADF814B14FF0820BADF81A61ADF8C2
:103E90001C41CDF8263128F00CFF46233A46214636
:103EA00032A8ADF8F030934BADF8FA50ADF8FC50B5
:103EB000ADF800518DF8ED60ADF8EE80CDF8F23040
:103EC0000393ADF8F660ADF8F840ADF8FE4028F089
:103ED000F0FE6E22039B214629A8ADF8CC203A467D
:103EE000ADF8DC508DF8C960ADF8CA80CDF8CE30A1
:103EF000ADF8D690ADF8D890ADF8DA4028F0D9FEFC
:103F0000039B5022214620A8CDF8AA304FF0FF0392
:103F1000ADF8A6203A46ADF8B450ADF8B8508DF8DB
:103F2000A560ADF8A8B0ADF8AE60ADF8B040ADF8A2
:103F3000B230ADF8B64028F0BCFE6F4B3A46214691
:103F400017A8CDF886304FF68073ADF89050ADF8D5
:103F500094306A4BADF88280ADF884B0ADF88A60D9
:103F6000ADF88C40ADF88E40ADF892A0CDF896300B
:103F700028F09FFE4FF4C8733A4621460EA8ADF8CC
:103F80005E305F4BADF86C50CDF862304FF6807309
:103F9000ADF860B0ADF870305A4BADF86660ADF872
:103FA0006840ADF86A40ADF86EA04FF0AA0ACDF8AF
:103FB000723028F07EFE544B3A46ADF83A802146E6
:103FC000DFF8688105A8ADF84650ADF84C50ADF863
:103FD0003CA0CDF83E80ADF84260ADF84440ADF86D
:103FE0004890ADF84A40CDF84E3028F062FEADF86A
:103FF000225040F24713ADF8285004ADADF816300A
:10400000ADF820402846414BADF826402C60404C8E
:10401000CDF82A302560ADF818A0CDF81A80ADF89B
:104020001E60ADF8249009F023FC5FA9284609F032
:1040300053FB56A92846374F09F04EFB4DA9284699
:10404000354E09F049FB44A92846DFF8E4B009F0F1
:1040500043FB20A92846DFF868A009F03DFB2F4B61
:1040600017A91860284609F037FB2D4B0EA91860D8
:10407000284609F031FB2B4B05A91860284609F0AA
:104080002BFB294B3BA91860284609F025FB32A9D8
:104090003860284609F020FB29A93060284609F03D
:1040A0001BFBCBF80000284609F07CFA064B396868
:1040B0001F68D4F80090222F039398BF282239E07C
:1040C000248C002080850020E484002028620308DE
:1040D0000000FFFF3D620308ED1B00084C6203086F
:1040E000251C00085B620308011800086D620308C4
:1040F0006D3A0008215007087D620308F118000896
:104100008362030895190008351A0008991A0008F7
:10411000108500200C850020DC8400201C850020F8
:10412000E08400208485002014850020FEE107083B
:104130001885002096BF1D48424602FB07024846EC
:1041400098BF526809F00CFBDBF800803846FDF799
:104150006DFB41460246484609F002FB039B20687E
:104160001B683168222B9BBF104A2824104A04FB8D
:10417000032398BF9A6909F0F3FA0E4B01221C46FB
:104180001A70284609F06CF960B1DAF8003033B1E2
:10419000FFF782FC0023237069B0BDE8F08F322066
:1041A00021F0DAFC002021F0D7FCEAE7E4FA03086A
:1041B000FEE10708D4CC02203B4A1368196988073E
:1041C00008D5D968890705D56FF002011961996989
:1041D000002111761969480708D5D968490705D51E
:1041E0006FF00401196199690021117619690807B6
:1041F00008D5D968090705D56FF008011961D96993
:10420000002111761969C80608D5D968C90605D5EF
:104210006FF010011961D969002111761A69D2076E
:1042200005D5DA68D00702D56FF001021A611A6964
:10423000110605D5DA68120602D56FF080021A6100
:104240001A69D00505D5DA68110602D56FF080022B
:104250001A611A69520605D5DA68500602D56FF060
:1042600040021A611A69910605D5DA68920602D5EC
:104270006FF020021A610D4B1B68A3B10C4B1B7829
:10428000012B0C4B04D15A6982F004025A61704729
:104290004FF480229A61084B5A6A00225A62074AF8
:1042A000138801331380704788850020088500201B
:1042B00075BD022000200240000C0040C88600208E
:1042C00000220B4B1A600B4B1B68DA6822F00102CC
:1042D000DA6041F21112196A0A4042B9196A40F2D1
:1042E00044420A401AB91A6822F001021A60704763
:1042F0000885002088850020064B1B68DA6842F09C
:104300000102DA601A6842F001021A600122024BCF
:104310001A60704788850020088500207FB5012637
:1043200004462A4B00251E701AF0ECFA002C00FA05
:1043300006F3274A08BF344607EE103A1560A0423C
:10434000B8EE477A234A28BF2046234C116C07EE6B
:10435000900A4FF080403143F8EE677A1164211DD6
:10436000126CC7EE276A206032402561A560039277
:10437000039A6561FCEEE67A17EE903A1B0C9A19E7
:10438000636094F83930022307EE102A84F839303C
:10439000B8EEC77AC6EE877AB7EE007A77EEC77ABC
:1043A000FCEEE77ACDED017ABDF80420E26019F069
:1043B000DDFB2A4603211C2084F8396028F054FADA
:1043C0004FF08052054B1A6004B070BD75BD0220DD
:1043D00008850020003802408885002000E100E0C8
:1043E000714C0025714E2DE98048C1B012F09EFC41
:1043F000256012F09BFC12F099FC4FF47A73706800
:10440000B0FBF3F00CF03AFA0123236017F008FA3E
:10441000ADF83850ADF83A50654A66490E9816F036
:10442000A3FA0794089606F0C8FB05460028FAD1BF
:10443000614C4FF0FF36614809F01AFA22222946F2
:10444000204628F036FC1B2321465C48A37001233C
:10445000E570237163715A4B6674C4F806307F238C
:104460006675A373E37323744023A374E374237505
:1044700009F032F9514809F095F805F0B1FD12F054
:104480009DFC504B2A463146019309232846009350
:104490004FF4D273FDF71CFD6223069312F0F2FA7B
:1044A000069B0133642B06934FDD474B1B68012BA2
:1044B00049D0464B464E1B68464C43B1304625AA70
:1044C000454925F0BBF9204605F0C8FD07E0424804
:1044D00007F0FAFD354B3060D3F8D4302360216803
:1044E00042F21073642530AC40F201183B4F204675
:1044F000B1FBF3F203FB1211B1FBF5F305FB131152
:10450000009137492FF05EFB0194CDF80080DC2349
:10451000344A00203968FDF7DBFC33682E49204619
:10452000B3FBF5F2097805FB123300912E492FF009
:1045300049FB0194CDF8008040F23113294A002054
:104540003968FDF7C5FC002306930A2021F004FB1F
:1045500010A806F059FB002801F0CF870F2223494D
:10456000109806F00DFB041EC1F2C7871CF098FFDF
:1045700006F023FB0028FBD10E2C01F29887DFE820
:1045800014F00F00370037043B04AC081507ED07A3
:104590004F066C08A808700866086A086208670D6C
:1045A0000EF0DEFE01F083BFD4F50220D8F5022024
:1045B00036020200B4180408E9850020C4850020F2
:1045C000B81F0608D01F0608C4860020688800208F
:1045D00098B6022024B6022055B60220D4F202205A
:1045E000D51F0608404040FFE61F0608C81E060803
:1045F0000125079BB74C4FF0000A1D60256017F09E
:104600000FF9B54BB54FC3F800A0B54BC7F800A0E4
:10461000C3F800A012F08AFB089B4FF47A70DFF811
:104620003C83D3F8A821AF4BAF4E1A60089BDFF84C
:1046300030B3D3F8AC21AD4BDFF828931A60AC4B04
:10464000C3F800A0AB4BC3F800A0AB4BC3F800A06D
:10465000089B5B68B3FBF0F0C8F800300CF00EF973
:104660002368079A3068136017F010F8A34B2846A8
:10467000A349019364230093782309683268FDF706
:1046800027FC4FF4FA7021F067FA9E4A40F6884002
:10469000CBF800A0C2F800A00A92C9F800A029F047
:1046A0008BFF994B0990186040F6884029F084FFF1
:1046B000964BDFF8B4A2186040F68840049329F0C6
:1046C0007BFF0999CAF80000284620F023FA049BD2
:1046D00008B90A9A15601968022020F01BFA10B96F
:1046E0000123CBF80030DAF80010032020F012FA92
:1046F00010B90123C9F80030854D20F00FF8854A24
:104700006B6893420CD9D5F88020934208D8642175
:10471000B3FBF1F201FB123212B9C8F8003007E026
:104720007D4BC8F800306B600A23AB60FEF71CFFBE
:10473000AB687A4A1D2B01DC137005E00A23137065
:10474000734A9360FEF710FFD5F89021744B754DB6
:104750001A700022744B28681A7018B97349FDF753
:1047600003FB2860724B1D68002D7ED1012040F2B2
:10477000DF180BF089F86F4B4FF07F426FF47F41E9
:104780000193142328460093A023FDF7A1FB6A4B55
:104790004FF07F426FF47F4101938C2328460093B2
:1047A000A023FDF795FB654B4FF07F426FF47F41EF
:1047B0000193D22328460093A023FDF789FB3B23D6
:1047C000ADF86850ADF86630ADF86A50ADF8648069
:1047D0005B4A19991A9816F0D1FB5023584AADF844
:1047E00060303C23ADF862304FF4C8731898ADF8D0
:1047F0005C30B423ADF85E30179916F0BFFB33235D
:104800004F4AADF85830CD23ADF85A3040F2C313BB
:104810001698ADF85430EB23ADF85630159916F0D4
:10482000ADFBF023ADF85050ADF8523040F20F130D
:10483000ADF84C80ADF84E30414A1399149816F0FB
:104840009DFB01233E4AADF848305A23ADF84A306B
:1048500032231298ADF84430E923ADF8463011996F
:1048600016F08CFB374B1D6001E017F0F1FF364866
:1048700008F0FEFF3549344808F02EFF324808F0B2
:1048800091FE20F0F3F906F098F90028FBD0236898
:104890002F4DB3FA83F33068DFED2E8A5B092B606E
:1048A00016F0F4FE2368002430682B6016F0EEFE4C
:1048B000294D002021F050F9284606F0A5F9294697
:1048C000002800F018816B883B2B4FD820F07EF930
:1048D000DBE000BFB4CC0220B8CC0220BCB7022081
:1048E000D8BE0220E0BE0220DCD5022068B702203C
:1048F00054B70220ECBE0220BCCC0220F71F0608F1
:10490000D0F10220E8BE0220A0BF022038CC022055
:10491000D8F502209F860100809FD5004C8300209F
:10492000E8850020E4BE02203CCC02200B200608D3
:10493000C0CC02201C200608392006085920060891
:104940000000FFFF4CB70220B0CC0220301D06084B
:10495000D4F5022000000000A8BF02202083002020
:1049600098BF0220A4BF0220A4CC0220BD2B19D8DE
:104970002A883D3AB2F5A97F14D81FF013FEA64B42
:1049800000221A60A54B1B68012B20D14FF45C70EC
:10499000FFF7C4FCFFF7B0FC642021F0DDF8FFF75F
:1049A0008FFC14E0A3F1CE021C2A14D80A88322A04
:1049B00011D9A2F133039A4A0124B3F5C37FC8BFCA
:1049C0004FF4C3731360944B1C60964B1C60C8205B
:1049D00021F0C2F859E00A882C2A56D8A3F15D02CA
:1049E000232A12D88E4D904C2B68002B43D00122E5
:1049F000894B1A6000228D4B1A603B68012B01D154
:104A00000AF02EFE2B68013B15E0843B232B3BD89C
:104A1000834D854C2B68B3F5C87F2CD201227E4B89
:104A20001A600022814B1A603B68012B01D10AF009
:104A300017FE2B6801332B600AF012FE01233B6046
:104A40007B4B1B78052B06D17A4BDB6E012B02D1F9
:104A50000AF034FE01E00AF0D7FC774808F0A2FD26
:104A600023685A1C042B226002D8642021F074F8B9
:104A7000012021F071F824680022704B042C1A6088
:104A80008CBF0024012400E001246B4808F0E8FCFE
:104A9000F0B16B4B1A78DAB100221A7006F08DF87B
:104AA00004460028FAD1654B1860642021F054F8C0
:104AB000644B186829F088FD634B186829F084FD61
:104AC000624B186829F080FD614B1C7001F0EFBC4F
:104AD000524B1B68012B14D194B14FF45C70FFF75B
:104AE0001DFCFFF709FC642021F036F8FFF7E8FB16
:104AF0004C4B1C6004E04C4B1860564B186000E0B7
:104B000000244E4B1B6813B9534A136060E1534AAB
:104B1000484E13685249B3FA83F35B091360F26C91
:104B20000B60504B0AB91D6809E04F4A1D684FF4ED
:104B3000FA7311784D4A52F8212003FB12550123D4
:104B40004FF000084FF00009DFF820A11A4619467F
:104B50002846FEF719F9444B4FF47A704FF4C872A7
:104B60001B785AF82330A3FB000100FB09F308FB74
:104B70000133A0FB080119440023FCF793F901223B
:104B80002818F36B114608BF1046FEF7FDF8384BA6
:104B9000D3ED007A93ED017AF4EE677AF1EE10FA34
:104BA00008D6F0EEE76A9FED336AF4EE466AF1EE5E
:104BB00010FA03DDF0EE687AE7EE287AB4EE477A71
:104BC000F1EE10FA08D6F0EEC76A9FED2A6AF4EE0D
:104BD000466AF1EE10FA03DD77EEA87A9FED267AA9
:104BE000264B08F01F0203EBC803C3ED007A83EDE8
:104BF000017A0023134345D0214B1A78002318EB88
:104C000002084FF4C87249EB030900234B4508BF63
:104C10004245A0D23BE000BF54B7022078BD02203D
:104C2000D0820020D8BE02201086002068B7022063
:104C30003CCC0220D8F50220B0CC0220B8CC022017
:104C4000C4CC0220A0BF022038CC0220A4CC022079
:104C5000D4CC0220D0CD0220BCCC0220D4F502203E
:104C6000B4CC0220208300204C830020ECDA07081B
:104C70006C830020FFFF7F7F00000000ACBF02209C
:104C8000E885002030A805F0BFFF0028B4D0002040
:104C90000026FDF773FD0122A14BDFF8ECB21A608C
:104CA00000220023DFF8E4A2CDE904239BF80050A2
:104CB0004FF000095FFA85F84B464246DDE90401F2
:104CC000FCF7F0F8002A5FD0AB199FED961ADDE9EA
:104CD0000401494508BF4045C2EB06082FBF751BBC
:104CE000C146C2EB030806EB450526BFC2EB05092A
:104CF0009D1AAD1A0AEBC90393ED000AD3ED010A20
:104D000005F024FB9FED871A0AEBC803F0EE409AEA
:104D1000B0EE609A93ED000AD3ED010A05F016FBA0
:104D20009FED801A0AEBC503F0EE40AAB0EE60AA30
:104D300093ED000AD3ED010A05F008FB07EE906A37
:104D4000B0EE402AF8EEE74A07EE905AF0EE602AFD
:104D5000B8EEE74A07EE908AB0EE6A1AF8EEE73A44
:104D600007EE909AF0EE4A1AB8EEE73AB0EE690A0A
:104D7000F0EE490A05F0FEFB25F0A4F90AEBC603A4
:104D800083ED000AC3ED010A0136DDE90423013297
:104D900043F10003CDE9042340F291139E4285D1F3
:104DA000614B53F8040B1C901868604B1B901A68F9
:104DB0001B991C9816F0C8FC17F04AFD01225C4BA9
:104DC0001A6000225B4B1A6047F230525A4B1A604D
:104DD000584D2B682BB117F03BFD1FF047FF002308
:104DE0002B6016F01DFD554B1A68554B1A705FE588
:104DF00020F016F801F05BBB524A0125524B00240B
:104E00001A60089BD868FBF78FFC43A3D3E9002303
:104E1000FBF72AFEFBF7F6FF4C4B18604C4B1D705E
:104E20004C4B1C600EF07AFA4B4B1C7011F07EFF5D
:104E30003E4C2068A04616F029FC484B48492846BD
:104E4000019328230093782322680968FDF740F82E
:104E50004FF47A7020F080FE05F0AFFE0446002883
:104E6000FAD1022026460BF0B7F93E4808F000FDC3
:104E70003D4B01223D491C603D4B3A481A6008F009
:104E80002BFC384808F08EFB9FED3A9A0FF0A8FBF8
:104E90004FF4DC70384B1860FFF740FAFFF72CFA3C
:104EA000334D002020F058FEDFF8A8A0D5F8009080
:104EB000B14503D1DAF80030012B07D10023CAF83D
:104EC0000030B9F1000F01D1FFF7FAF92B4E30464F
:104ED00005F09AFE00285BD072883188284816F0C9
:104EE000CDFC012854D1274B1A7832B10022022080
:104EF0001A700BF071F9FEF737FB174B1A78012A7D
:104F000046D1002028601870FDF738FCFFF7D8F96B
:104F100001F0CDBAAFF300800000000080842E4184
:104F2000C0CC02200000484200400308DCD502202B
:104F3000BCCC0220D8BE0220D4820020B8CC0220F3
:104F4000D4CC022020A107004C820020E0B5022032
:104F5000C4B40220D8B40220B5B5022076200608D9
:104F6000D0F102201C860020D0B402208C23060839
:104F7000B0860020000000009CB50220E0850020E3
:104F8000C41704086CB50220E8850020ACBF0220DD
:104F90000134F0EE009AB0EE08AA042C40F29080A2
:104FA0008F4B1868FBF7E2FB89A3D3E90023FBF7DB
:104FB00031FCFBF707FF01228A4B11469B6BFDF783
:104FC000E3FE894BD3ED010A93ED000AFDF70AFCDD
:104FD00079EE408A10EE100AB0EE408AF5EEC08AF3
:104FE000F1EE10FA48BFF1EE688AFBF7BFFB04460A
:104FF0000D4618EE900AFBF7B9FB06460F46204611
:10500000294675A3D3E90023FBF704FC02460B46AF
:1050100030463946FBF78EFE00284DD0734F0123F2
:10502000734E3A68CAF800308AB93360714B1B7806
:10503000022B07D1B4EEE98AF1EE10FA07DD002366
:10504000336004E0032B02D1B4EECA8AF4E70DF119
:10505000C00A22462B4668495046C8242EF0B2FDAD
:105060004FF4EB734625ADF89040ADF88C307D23BE
:10507000ADF89250ADF88E30D8F8002023992498DE
:1050800016F062FB5D49234601208DE82004D8F824
:1050900000200968FCF71CFF3368012B08D13B682E
:1050A00033B9574B1868FFF739F9FFF725F901E0D5
:1050B000FFF706F9B0EE489A0024052020F04CFDD9
:1050C000B0EE480ADFED4F8A2AF0CAFA10EE100A55
:1050D000FBF74CFB00224C4B40F2DF15FBF79AFB31
:1050E00000224A4BFBF7E4F9FBF78CFE00EE100AB6
:1050F0002AF0B6FA60EE288A18EE900AFBF736FB23
:105100000022434BFBF786FB0022424BFBF7CEF914
:10511000FBF758FE68EE8A7A394B186017EE900A52
:10512000FBF724FB00223C4BFBF7C0F9FBF74AFEE0
:10513000B4EEE98A854228BF0546F1EE10FA0AD49A
:10514000F0EE087A354EB4EEE78AF1EE10FA48BF79
:105150006FF0FF0601E04FF0FF26A0231FFA85FA4B
:105160004FF0000B7427ADF886300135234BADF8B6
:1051700084A0ADF888B0ADF88A701A682199229899
:1051800016F0E2FAA123ADF87CA04FF0CD0AADF8FD
:1051900082303246ADF880B04E46ADF87EA01F9901
:1051A000209816F0D1FA40F2DF13ADF87850ADF840
:1051B0007430ADF87A70ADF876A0D8F800201D995B
:1051C0001E9816F0C1FA0A2020F0C6FC68E600BF5F
:1051D0000000000080842E417B14AE47E17A843FBA
:1051E000E0B50220D8F502206C830020D0B4022064
:1051F000B0860020C4B4022080200608D0F102202E
:105200009CB50220000048430000244000001440E8
:105210000000184000406F40000079400000FFFF90
:105220000025A94EDFF81C83356011F07FFDDFF803
:1052300018934FF4805029F0BFF9DFF810A3C8F895
:1052400000004FF4805029F0B7F9C9F800004FF47E
:105250008050DFF8FCB229F0AFF9CAF800004FF433
:1052600080509A4C29F0A8F90122994BCBF8000004
:105270004FF07F401A6025601EF096FE16F0D0FABF
:10528000049405F09AFC04460028FAD1079B0125F6
:10529000F02718604FF07F401EF086FE079B4FF00E
:1052A0007F401D601EF080FE16F0BAFA894B4FF069
:1052B0007F426FF47F41019320462B460094FCF718
:1052C00007FE854B85494FF07F42019328460097A2
:1052D00023460968FCF7FCFD814B4FF07F424FF0FD
:1052E000FF31019328465F230097FCF7F1FD7D4BCA
:1052F0004FF07F424FF0FF3101932846D4230097AF
:10530000FCF7E6FD784B4FF07F424FF0FF31019301
:1053100028464FF4A0730097FCF7DAFD734B4FF06B
:10532000FF314FF07F420193FA23204600934FF460
:10533000D473FCF7CDFD6E4B6E48D3F88C206E4BCA
:105340001A60FCF78BFC13F02FFB6C4B1B682BB126
:1053500013F0E4F913F01EFC13F042FC30A805F042
:1053600053FCE8B1BDF8C220BDF8C010614816F08A
:1053700085FA3368B3B10020FDF700FA142020F05D
:10538000EBFBD8F8000029F01FF9D9F8000029F04C
:105390001BF9DAF8000029F017F9DBF8000070E0DB
:1053A000049B1860142020F0D7FBD7E70122544B50
:1053B0004FF48060534C1A6029F0FEF8524A534B68
:1053C000534F1A60534A544B38601A600722534BAC
:1053D0001A7000232360464BDA6C514B12B940F629
:1053E000AC5201E040F67462DFF86881DFF8689142
:1053F000C2461A60FEF754F911F098FCD9F804304F
:1054000098470023474ADFF838B11360464D474AB2
:10541000474EDBF800001360C8F800302B603360A3
:1054200016F034F9434B01204349019314230093B0
:105430007823DBF800200968FCF74AFD4FF416706A
:1054400020F08AFB30A808F013FA3C4930A808F095
:1054500043F930A808F0A6F805F0AFFB0028FBD10F
:105460004FF0000B30A807F0FBFF10B1322020F006
:1054700073FB3368012B08D105F09FFB0028FBD19B
:10548000386829F0A1F801F012B8DAF80030012BE1
:1054900004D105F092FB0028FBD1AFE72B68012B6C
:1054A0000DD12368012B0AD10BF1010BBBF1130FB6
:1054B00005DD26F087FB0130D2D04FF0000B322003
:1054C00020F04AFBCEE700BF18B7022034B7022015
:1054D000D4F502208C200608BB200608D4F2022056
:1054E000C3200608CC200608D3200608DA200608C8
:1054F000D8F50220401C060804B70220FCB60220A2
:10550000786704201CB7022060823B000CB70220A1
:10551000D8F20220E06735003CB70220D4B6022062
:105520005C6704202CB7022028B7022050670420B3
:105530007C670420E4200608D0F10220E824060855
:10554000DCD5022014B70220E4B6022000B7022006
:10555000E8B602207467042060670420894A0023AB
:10556000894C1178236009B90C211170874A884D44
:105570001360884A884E137011F0D8FB286816F023
:1055800085F8864B012001930A23009396232A680D
:105590003168FCF79DFC824B01200193B4230093FA
:1055A00000232A683168FCF793FC4FF47A7020F0EE
:1055B000D3FA05F002FB0028FBD17A4B4FF47A7244
:1055C0000320DB68B3FBF2F3774A13600AF004FEB2
:1055D000764808F04DF97649744808F07DF873482C
:1055E00007F0E0FF05F0E9FA0028FBD1714D664EA7
:1055F000704805F009FB10B32B88452B06D86B8843
:10560000E62B03D91BF04CFF00F051BF236813B900
:10561000664807F025FF2368032B10D16348002755
:1056200008F026F96249614808F056F85F4807F02B
:10563000B9FF5E48376007F013FF00B137600520FF
:1056400020F08AFAD4E707F0FFF800F030BF06F048
:1056500017F900F02CBF06F0A1FD0FF00DFC00F0D3
:1056600026BF05F0AAFA0028FBD1534B534C187003
:105670004FF07F401EF098FC514808F0F9F851496E
:105680004F4808F029F84E4807F08CFF11F096FBC0
:1056900011F0F8F9002020F05FFA494807F0E0FE29
:1056A00098B1002020F058FA4FF07F401EF07CFCAB
:1056B000434807F077FF238823B100223F4B1A802D
:1056C00000F0F5BE322020F047FA002020F044FA26
:1056D000DEE705F0C5FA00F0EABE00263A4BDFF837
:1056E00018814FF4D2601E600127C8F8006028F0CE
:1056F00063FF364B364C18604FF4D26028F05CFFE5
:10570000344D354B276018602F6016F089F8334B05
:105710001E6011F00BFB1E4E306815F0B7FF304BCA
:105720001D493846019364230093AA23326809680F
:10573000FCF7CEFB4FF47A7020F00EFA05F03DFA3C
:105740000028FBD1274B1860274B1B68002B01F06A
:105750000980264B1B68022B41F00480114F244A1C
:10576000D7F8E4102348A1F5C333A03B934245D8B2
:105770006422B1FBF2F302FB1313002B3ED1016054
:105780003EE000BF4C830020988F0020888F0020CF
:10579000DCD50220C4CC0220D0F10220FD20060876
:1057A0000A210608D8F50220948F002028860020C0
:1057B00048230608A8BF022054B6022018B60220CB
:1057C000DC850020EA1A06080C860020C0B60220FC
:1057D000B0B60220D4F50220CCB60220B4B6022026
:1057E0002F210608B8B6022030BD0220DCF40220CA
:1057F000605AF405A0820020E4850020A74B0360D6
:105800000368C7F8E430FDF7AFFE12F065FAD7F889
:10581000E820A34B00201A70D7F89421A14B1A70EE
:1058200012F08EFA12F040FE12F01CFE05F0C5F9DF
:105830000028FBD001229C4B30681A602368134477
:1058400013402B6015F022FF002012F079FA236834
:105850002B600023C8F80030944C002020F07CF925
:10586000934D204605F0D0F9002800F04B812068C8
:105870000B2227882690ADF898708E49269805F05F
:105880007FF90828286008DC1BF00AFE05F095F96E
:105890000028FBD1642020F05FF92A68DFF85C92D1
:1058A000082A854C804E4ED1D4F80080B8F1000F04
:1058B00030D1DFF84CA201277A4B804950461A7844
:1058C00027602EF07FF937234FF07F424FF0FF2102
:1058D00040468DE80005FCF7FBFA12F0E5FD12F0FA
:1058E000E3FD774B1F602823ADF8A0300F23ADF800
:1058F000A23040F2CB132898ADF89C30E123ADF8EC
:105900009E30704B27991A6815F01EFF384612F02A
:1059100017FA15E000236C4A4FF0FF212360184668
:10592000009301924FF07F42FCF7D2FA12F0BCFDD7
:10593000664B1B680BB912F085FC0123634A1360A8
:1059400023683360A2E0236833600A2A00F29E8055
:10595000DFE802F0061524415B5B5E8A9C0A1000BA
:105960000123C9F8003091E0002B40F08F804FF008
:10597000FF3089E0002B40F08980012084E00BB1EA
:1059800000232360524B4FF07F4252490120019384
:1059900064230093B423FCF79BFA18E04E4BD3ED3D
:1059A000007AF5EE407AF1EE10FA0BD017EE900A7D
:1059B000FAF7DCFE494B0022FAF72CFFFBF702FA5C
:1059C000474B1860364A13780BB1013B1370012224
:1059D000444B1A605AE0404BD3ED007AF5EE407A22
:1059E000F1EE10FA0BD017EE900AFAF7BFFE3B4B20
:1059F0000022FAF70FFFFBF7E5F9394B1860284A48
:105A00001378132BE3D80133E0E704232B603DE048
:105A1000354B1B6803B30BF067F80BF019F90378EB
:105A20000746CBB10BF0DAF8304B38469B6F13B119
:105A30000BF05AFB01E00AF099FF2D4B4FF0FF31BC
:105A40002C4A00200193F0230093A523FCF740FA91
:105A500012F02AFD12F006FD0122224B1A6012F00C
:105A600023FD12F0FFFC11E083B9322F05D9B7F501
:105A7000E27F28BF4FF4C87700E033271E4B6FF05A
:105A800032001B68C01A384412F0B6FCD9F8003056
:105A9000012B00F0CC823368236037E0809FD50073
:105AA0009C82002068810020248600202C86002013
:105AB0001886002038240608B8B602203D210608C2
:105AC000C8B60220DCD5022051210608B4B6022057
:105AD0006B2106080000FFFF9CB6022000408F40AB
