:020000040800F2
:1000000000800020C9CA0208B7F30108C103000834
:10001000C1F30108BFF30108BDF3010800000000AF
:10002000000000000000000000000000BBF3010819
:10003000B9F3010800000000B5F3010855F3010809
:10004000C9010008CB010008CD010008CF0100085C
:10005000D1010008D3010008D5010008D70100082C
:10006000D9010008DB010008DD010008DF010008FC
:10007000E1010008E3010008E5010008E7010008CC
:10008000E9010008EB010008ED010008EF0100089C
:10009000F1010008F3010008F5010008F70100086C
:1000A000F9010008FB010008FD010008FF0100083C
:1000B000B941000803020008050200080702000811
:1000C000090200080B0200080D0200080F020008D8
:1000D00011020008C5CA020815020008170200082C
:1000E000190200081B0200081D0200081F02000878
:1000F0002102000823020008250200082702000848
:10010000290200084D8702082D0200082F0200086E
:1001100031020008330200083502000837020008E7
:10012000390200083B0200083D020008358702083A
:1001300049F301084302000845020008470200088D
:10014000490200084B0200084D0200084F02000857
:1001500051020008418702083DF30108C1CA0208A4
:10016000590200085B0200085D0200085F020008F7
:100170006102000859E7010865020008000000005C
:1001800067020008690200086B0200086D0200089F
:100190006F0200087102000873020008750200086F
:1001A00077020008790200087B0200087D0200083F
:1001B0007F0200088102000883020008850200080F
:1001C0008702000889020008FEE7FEE7FEE7FEE777
:1001D000FEE7FEE7FEE7FEE7FEE7FEE7FEE7FEE7F7
:1001E000FEE7FEE7FEE7FEE7FEE7FEE7FEE7FEE7E7
:1001F000FEE7FEE7FEE7FEE7FEE7FEE7FEE7FEE7D7
:10020000FEE7FEE7FEE7FEE7FEE7FEE7FEE7FEE7C6
:10021000FEE7FEE7FEE7FEE7FEE7FEE7FEE7FEE7B6
:10022000FEE7FEE7FEE7FEE7FEE7FEE7FEE7FEE7A6
:10023000FEE7FEE7FEE7FEE7FEE7FEE7FEE7FEE796
:10024000FEE7FEE7FEE7FEE7FEE7FEE7FEE7FEE786
:10025000FEE7FEE7FEE7FEE7FEE7FEE7FEE7FEE776
:10026000FEE7FEE7FEE7FEE7FEE7FEE7FEE7FEE766
:10027000FEE7FEE7FEE7FEE7FEE7FEE7FEE7FEE756
:0C028000FEE7FEE7FEE7FEE7FEE70000F9
:1002900010B5054C237833B9044B13B10448AFF3C0
:1002A00000800123237010BDC084002000000000E6
:1002B000AC3E0308084B10B51BB108490848AFF322
:1002C00000800848036803B910BD074B002BFBD022
:1002D000BDE81040184700BF00000000C4840020A3
:1002E000AC3E0308B8840020000000004B1C012B2A
:1002F00098BF70472DE9F003911C9B08B1F804806A
:10030000B1F802900A8831F802CC8044814402445A
:100310008444D9F80070D8F800601568DCF8004013
:10032000C9F80060C8F80070CCF800501460D9F823
:100330000470D8F804605568DCF80440C9F804601B
:10034000C8F80470CCF8045054600831013BD5D192
:10035000BDE8F00370474B1C012B98BF70472DE997
:10036000F003911C9B08B1F80480B1F802900A8850
:1003700031F802CC00EB580800EB590900EB5202AF
:1003800000EB5C0CD9F80070D8F800601568DCF858
:100390000040C9F80060C8F80070CCF80050146044
:1003A0000831013BDFD1BDE8F00370473C2A090862
:1003B00000800020B8840020C08400203868042019
:1003C0001EF0040F0CBFEFF30880EFF30980816982
:1003D000FEE700BF034613F8012B002AFBD1181AD1
:1003E000013870470000000000000000000000001D
:1003F00001F0FF01102A2BDB10F0070F08D010F8D6
:10040000013B013A8B422DD010F0070F42B3F6D1D9
:10041000F0B441EA012141EA014122F007047FF0F2
:1004200000070023F0E80256083C85EA010586EA49
:10043000010685FA47F5A3FA87F586FA47F6A5FA85
:1004400087F68EB9EED1F0BC01F0FF0102F0070291
:1004500032B110F8013B013A83EA010313B1F8D13C
:100460000020704701387047002D06BF354603381D
:10047000073815F0010F07D1013015F4807F02BF56
:10048000013015F4C03F0130F0BC0138704700BFA7
:1004900010F8012B11F8013B012A28BF9A42F7D02E
:1004A000D01A704781F0004102E000BF83F00043A2
:1004B00030B54FEA41044FEA430594EA050F08BFFF
:1004C00090EA020F1FBF54EA000C55EA020C7FEAC3
:1004D000645C7FEA655C00F0E2804FEA5454D4EB40
:1004E0005555B8BF6D420CDD2C4480EA020281EA0A
:1004F000030382EA000083EA010180EA020281EA42
:100500000303362D88BF30BD11F0004F4FEA013193
:100510004FF4801C4CEA113102D0404261EB4101A2
:1005200013F0004F4FEA03334CEA133302D0524228
:1005300063EB430394EA050F00F0A780A4F10104E4
:10054000D5F1200E0DDB02FA0EFC22FA05F280181E
:1005500041F1000103FA0EF2801843FA05F3594104
:100560000EE0A5F120050EF1200E012A03FA0EFC83
:1005700028BF4CF0020C43FA05F3C01851EBE371AD
:1005800001F0004507D54FF0000EDCF1000C7EEBCA
:1005900000006EEB0101B1F5801F1BD3B1F5001F08
:1005A0000CD349085FEA30004FEA3C0C04F1010427
:1005B0004FEA445212F5800F80F09A80BCF1004F50
:1005C00008BF5FEA500C50F1000041EB045141EAD2
:1005D000050130BD5FEA4C0C404141EB010111F4D3
:1005E000801FA4F10104E9D191F0000F04BF01467E
:1005F0000020B1FA81F308BF2033A3F10B03B3F15C
:1006000020020CDA0C3208DD02F1140CC2F10C02EB
:1006100001FA0CF021FA02F10CE002F11402D8BF49
:10062000C2F1200C01FA02F120FA0CFCDCBF41EA15
:100630000C019040E41AA2BF01EB0451294330BDE4
:100640006FEA04041F3C1CDA0C340EDC04F11404C1
:10065000C4F1200220FA04F001FA02F340EA030098
:1006600021FA04F345EA030130BDC4F10C04C4F1DE
:10067000200220FA02F001FA04F340EA03002946BE
:1006800030BD21FA04F0294630BD94F0000F83F408
:10069000801306BF81F480110134013D4EE77FEAEB
:1006A000645C18BF7FEA655C29D094EA050F08BF37
:1006B00090EA020F05D054EA000C04BF1946104618
:1006C00030BD91EA030F1EBF0021002030BD5FEA5C
:1006D000545C05D14000494128BF41F0004130BD84
:1006E00014F580043CBF01F5801130BD01F00045D8
:1006F00045F0FE4141F470014FF0000030BD7FEA4B
:10070000645C1ABF194610467FEA655C1CBF0B4645
:10071000024650EA013406BF52EA033591EA030F5C
:1007200041F4002130BD00BF90F0000F04BF002154
:10073000704730B54FF4806404F132044FF0000587
:100740004FF0000150E700BF90F0000F04BF002100
:10075000704730B54FF4806404F1320410F0004566
:1007600048BF40424FF000013EE700BF42004FEA61
:10077000E2014FEA31014FEA02701FBF12F07F43DE
:1007800093F07F4F81F06051704792F0000F14BFDB
:1007900093F07F4F704730B54FF4607401F000451F
:1007A00021F0004120E700BF50EA010208BF704776
:1007B00030B54FF000050AE050EA010208BF70476B
:1007C00030B511F0004502D5404261EB41014FF4D4
:1007D000806404F132045FEA915C3FF4DCAE4FF0D8
:1007E00003025FEADC0C18BF03325FEADC0C18BFBF
:1007F000033202EBDC02C2F1200300FA03FC20FA10
:1008000002F001FA03FE40EA0E0021FA02F114445C
:10081000C1E600BF70B54FF0FF0C4CF4E06C1CEA71
:1008200011541DBF1CEA135594EA0C0F95EA0C0FE6
:1008300000F0DEF82C4481EA030621EA4C5123EA59
:100840004C5350EA013518BF52EA033541F4801188
:1008500043F4801338D0A0FB02CE4FF00005E1FB3B
:1008600002E506F00042E0FB03E54FF00006E1FB85
:1008700003569CF0000F18BF4EF0010EA4F1FF04C8
:10088000B6F5007F64F5407404D25FEA4E0E6D4108
:1008900046EB060642EAC62141EA55514FEAC52019
:1008A00040EA5E504FEACE2EB4F1FD0C88BFBCF595
:1008B000E06F1ED8BEF1004F08BF5FEA500E50F146
:1008C000000041EB045170BD06F0004646EA01010C
:1008D00040EA020081EA0301B4EB5C04C2BFD4EB3E
:1008E0000C0541EA045170BD41F480114FF0000E37
:1008F000013C00F3AB8014F1360FDEBF002001F0A5
:10090000004170BDC4F10004203C35DA0C341BDC1E
:1009100004F11404C4F1200500FA05F320FA04F0F0
:1009200001FA05F240EA020001F0004221F0004124
:1009300010EBD37021FA04F642EB06015EEA430E97
:1009400008BF20EAD37070BDC4F10C04C4F12005C7
:1009500000FA04F320FA05F001FA04F240EA02007A
:1009600001F0004110EBD37041F100015EEA430E4B
:1009700008BF20EAD37070BDC4F1200500FA05F26B
:100980004EEA020E20FA04F301FA05F243EA0203EA
:1009900021FA04F001F0004121FA04F220EA0200F9
:1009A00000EBD3705EEA430E08BF20EAD37070BD3F
:1009B00094F0000F0FD101F00046400041EB01011F
:1009C00011F4801F08BF013CF7D041EA060195F001
:1009D000000F18BF704703F00046520043EB0303BB
:1009E00013F4801F08BF013DF7D043EA06037047A8
:1009F00094EA0C0F0CEA135518BF95EA0C0F0CD0B3
:100A000050EA410618BF52EA4306D1D181EA0301F8
:100A100001F000414FF0000070BD50EA410606BFF2
:100A20001046194652EA430619D094EA0C0F02D137
:100A300050EA013613D195EA0C0F05D152EA03367C
:100A40001CBF104619460AD181EA030101F000419A
:100A500041F0FE4141F470014FF0000070BD41F0E3
:100A6000FE4141F4780170BD70B54FF0FF0C4CF4BD
:100A7000E06C1CEA11541DBF1CEA135594EA0C0FDC
:100A800095EA0C0F00F0A7F8A4EB050481EA030E29
:100A900052EA03354FEA013100F088804FEA033310
:100AA0004FF0805545EA131343EA12634FEA0222DE
:100AB00045EA111545EA10654FEA00260EF000419F
:100AC0009D4208BF964244F1FD0404F5407402D2F1
:100AD0005B084FEA3202B61A65EB03055B084FEA82
:100AE00032024FF480104FF4002CB6EB020E75EB7F
:100AF000030E22BFB61A754640EA0C005B084FEAA7
:100B00003202B6EB020E75EB030E22BFB61A754623
:100B100040EA5C005B084FEA3202B6EB020E75EB6E
:100B2000030E22BFB61A754640EA9C005B084FEAE6
:100B30003202B6EB020E75EB030E22BFB61A7546F3
:100B400040EADC0055EA060E18D04FEA051545EAE2
:100B500016754FEA06164FEAC30343EA52734FEA8B
:100B6000C2025FEA1C1CC0D111F4801F0BD141EA04
:100B700000014FF000004FF0004CB6E711F4801F69
:100B800004BF01430020B4F1FD0C88BFBCF5E06F49
:100B90003FF6AFAEB5EB030C04BFB6EB020C5FEA59
:100BA000500C50F1000041EB045170BD0EF0004EAE
:100BB0004EEA113114EB5C04C2BFD4EB0C0541EAE0
:100BC000045170BD41F480114FF0000E013C90E6DD
:100BD00045EA060E8DE60CEA135594EA0C0F08BFA1
:100BE00095EA0C0F3FF43BAF94EA0C0F0AD150EAA0
:100BF00001347FF434AF95EA0C0F7FF425AF104633
:100C000019462CE795EA0C0F06D152EA03353FF45A
:100C1000FDAE1046194622E750EA410618BF52EAD7
:100C200043067FF4C5AE50EA41047FF40DAF52EAAB
:100C300043057FF4EBAE12E74FF0FF3C06E000BF48
:100C40004FF0010C02E000BF4FF0010C4DF804CD55
:100C50004FEA410C7FEA6C5C4FEA430C18BF7FEA15
:100C60006C5C1BD001B050EA410C0CBF52EA430C43
:100C700091EA030F02BF90EA020F0020704710F1C3
:100C8000000F91EA030F58BF994208BF90422CBF52
:100C9000D8176FEAE37040F0010070474FEA410C4B
:100CA0007FEA6C5C02D150EA013C07D14FEA430C69
:100CB0007FEA6C5CD6D152EA033CD3D05DF8040BDA
:100CC000704700BF8446104662468C46194663460C
:100CD00000E000BF01B5FFF7B7FF002848BF10F1E3
:100CE000000F01BD4DF808EDFFF7F4FF0CBF012028
:100CF00000205DF808FB00BF4DF808EDFFF7EAFFA4
:100D000034BF012000205DF808FB00BF4DF808ED5E
:100D1000FFF7E0FF94BF012000205DF808FB00BF53
:100D20004DF808EDFFF7CEFF94BF012000205DF8DD
:100D300008FB00BF4DF808EDFFF7C4FF34BF0120EA
:100D400000205DF808FB00BF4FEA410C7FEA6C5CB5
:100D500002D150EA013C0AD14FEA430C7FEA6C5CB5
:100D600002D152EA033C02D14FF0000070474FF02D
:100D7000010070474FEA410212F5001215D211D559
:100D80006FF47873B3EB625212D94FEAC12343F088
:100D9000004343EA505311F0004F23FA02F018BF0A
:100DA000404270474FF00000704750EA013005D1D3
:100DB00011F0004008BF6FF0004070474FF0000096
:100DC000704700BF4A0011D212F5001211D20DD5A2
:100DD0006FF47873B3EB62520ED44FEAC12343F041
:100DE000004343EA505323FA02F070474FF00000EB
:100DF000704750EA013002D14FF0FF3070474FF09A
:100E0000000070474FEA4102B2F1E04324BFB3F55E
:100E1000001CDCF1FE5C0DD901F0004C4FEAC00271
:100E20004CEA5070B2F1004F40EB830008BF20F055
:100E30000100704711F0804F21D113F13872BCBF0F
:100E400001F00040704741F480114FEA5252C2F164
:100E50001802C2F1200C10FA0CF320FA02F018BFAD
:100E600040F001004FEAC1234FEAD32303FA0CFC00
:100E700040EA0C0023FA02F34FEA4303CCE77FEA8F
:100E8000625307D150EA01331EBF4FF0FE4040F4D9
:100E90004000704701F0004040F0FE4040F4000088
:100EA000704700BF53B94AB9002908BF00281CBFCA
:100EB0004FF0FF314FF0FF3000F088BCADF1080C6F
:100EC0006DE904CE00F010FBDDF804E0DDE902235B
:100ED00004B0704760EE016A60EEA17A84B0CDED97
:100EE000017ACDED006A61EE207ADDED006A9DEDBC
:100EF000016ACDED037A60EE215A76EEC67ACDED29
:100F0000025ADDED025A9DED035AF4EE677AF1EED6
:100F100010FA35EE857A05D1B0EE670AF0EE470A91
:100F200004B07047B4EE477AF1EE10FAF4D0B4EEA4
:100F3000400AF1EE10FA70EE404A05D1F4EE644A30
:100F4000F1EE10FA40F0CA80F4EE600AF1EE10FA09
:100F500070EEE04A05D1F4EE644AF1EE10FA40F08A
:100F6000FB800023B4EE411AF1EE10FA71EE414A13
:100F700005D1F4EE644AF1EE10FA40F09580F4EEFB
:100F8000611AF1EE10FA71EEE14A04D1F4EE644A0E
:100F9000F1EE10FA58D1002B47D1F4EE666AF1EE6B
:100FA00010FA76EEE64A04D1F4EE644AF1EE10FA55
:100FB00023D1B4EE466AF1EE10FA76EE466A04D119
:100FC000F4EE666AF1EE10FA17D1F4EE655AF1EE1E
:100FD00010FA75EEE56A04D1F4EE666AF1EE10FAE5
:100FE0000BD1B4EE455AF1EE10FA75EE456A93D185
:100FF000F4EE666AF1EE10FA8ED0B4EE400AF1EE2D
:1010000010FA40F0DF80F4EE600AF1EE10FA40F0E2
:10101000CC80B4EE411AF1EE10FA40F0B980F4EE53
:10102000611AF1EE10FA40F0A68061EEE07A20EE4F
:10103000817AE0EE017AA0EE217ADFED796A67EE3F
:10104000A67A27EE267A67E711EE103ADFED757A79
:101050009FED757A002BB4BFB0EE671AB0EE471A59
:10106000F7EE007A11EE903AF0EEE77A002BB4EE4C
:10107000400AB8BFF1EE677AF1EE10FAF0EE671AA7
:1010800040F0AD80F4EE600AF1EE10FACDD010EE33
:10109000903A9FED657ADFED637A002BB4BFF0EEF6
:1010A000670AF0EE470AC0E711EE103AFFEE007A49
:1010B000002BB7EE001AF4EE611AB8BFB0EE671A53
:1010C000F1EE10FA71EEE17A05D1F4EE677AF1EE05
:1010D00010FA40F09E80DFED547AC3E710EE103A2C
:1010E000FFEE004A002BB7EE000AF4EE600AB8BF2C
:1010F000B0EE640AF1EE10FA70EEE04A05D1F4EEBB
:10110000644AF1EE10FA40F08780DFED474A10EEB6
:10111000903AF0EEE44A002BB4EE411AB8BFF1EE7B
:10112000644AF1EE10FAF0EE640A65D1F4EE611A49
:10113000F1EE10FA08BF01233FF414AF11EE903A1C
:101140009FED394ADFED374A002BB4BFF0EE641A49
:10115000F0EE441A012305E710EE103ADFED314AB4
:101160009FED314A002BB4BFB0EE640AB0EE440AE2
:10117000F7EE004ACBE711EE903A9FED2B7ADFEDC8
:10118000297A002BB4BFF0EE671AF0EE471A4CE74D
:1011900011EE103A9FED247ADFED227A002BB4BFD6
:1011A000B0EE671AB0EE471A39E710EE903A9FEDAD
:1011B0001E7ADFED1C7A002BB4BFF0EE670AF0EE6A
:1011C000470A26E710EE103A9FED177ADFED157A01
:1011D000002BB4BFB0EE670AB0EE470A13E710EE7B
:1011E000103A9FED117ADFED0F7A002BB4BFB0EE0D
:1011F000670AB0EE470A45E711EE103A9FED0A4A3A
:10120000DFED084A002BB4BFB0EE641AB0EE441A0A
:101210008CE7F7EE007A25E7F7EE004A77E700BFA4
:101220000000807F0000008000000000B0EEC17A66
:10123000F0EEE17AB4EEE77AF1EE10FA1BD5C1EEEA
:10124000217AF0EE616AB0EE607AE1EE276AA7EEED
:10125000807AB0EE406A97EEA06AC7EE267A86EEF4
:10126000267AF4EE677AF1EE10FA1BD1B0EE670A37
:10127000F0EE470A7047C1EE817AF0EE416AB0EEB7
:10128000407AE1EEA76AA0EEA77AB0EE606AA0EE1F
:10129000676AC7EE267A86EE267AF4EE677AF1EE72
:1012A00010FAE3D0B4EE477AF1EE10FADED0B5EEE4
:1012B000401AF1EE10FA19D1F5EE401AF1EE10FADB
:1012C00014D1B4EE400AF1EE10FA40F0D38011EEE2
:1012D000103ADFED707A9FED707A002BB8BFB0EE58
:1012E000677A60EE077A20EE877ABFE770EE406A91
:1012F000B4EE400AF1EE10FAF4EE666A0CBF012378
:101300000023F1EE10FA03F0010308BF0023002BC5
:101310006DD1F4EE600AF1EE10FA30EEE06A04D11D
:10132000B4EE466AF1EE10FA61D131EE416AB4EEE4
:10133000411AF1EE10FAB4EE466A0CBF0123002305
:10134000F1EE10FA03F0010308BF002363B931EE98
:10135000E16AF4EE611AF1EE10FA87D1B4EE466A52
:10136000F1EE10FA82D00023F4EE666AF1EE10FA84
:101370007FF47CAF70EEE06AF4EE666AF1EE10FA8C
:101380007FF474AFDFED457A002BF7EE006A11EEC3
:10139000103A08BFF0EE676AF0EEE66A002BF4EE52
:1013A000611AB8BFF1EE666AF1EE10FA71EEE17AF9
:1013B00004D1F4EE677AF1EE10FA67D19FED377A37
:1013C00011EE903AB0EEC77A002BB8BFB1EE477A73
:1013D00060EE877A27EE407AE0EE267AA0EEA67AD3
:1013E000DFED2E6A67EEA67A27EE267A3EE731EE2B
:1013F000416AB4EE466AF1EE10FA98D131EEE16A34
:10140000B4EE466AF1EE10FAA3D1DFED247A002B98
:10141000F7EE006A10EE103A08BFF0EE676AF0EEE1
:10142000E66A002BF4EE600AB8BFF1EE666AF1EEF0
:1014300010FA70EEE07A04D1F4EE677AF1EE10FA69
:1014400021D19FED166A10EE903AB0EEC66A002BDD
:10145000B8BFB1EE466A26EEE17A61EE867AA1EE79
:10146000067AE1EE267ADFED0C6A67EEA67A27EEC1
:10147000267AFBE6F4EE600AF1EE10FA3FF427AFAD
:1014800070EE406A51E7B7EE006ADCE7B7EE007A2B
:1014900096E700BF000080FF0000807F0000000092
:1014A000D0B500220E4B06460F46FFF7B3F9FFF703
:1014B00089FC0446FFF738F900220A4BFFF7AAF926
:1014C00002460B4630463946FEF7F0FFFFF77AFC3E
:1014D0002346002242EA000210461946D0BD00BF52
:1014E0000000F03D0000F0412DE9F0478C460E462B
:1014F0000446089D002B50D18A4217466CD9B2FA97
:1015000082FEBEF1000F0BD0CEF1200420FA04F4CD
:1015100001FA0EF644EA060C02FA0EF700FA0EF48F
:101520004FEA1749220CBCFBF9F01FFA87F809FBB8
:1015300010C642EA064600FB08F3B34209D9F61981
:1015400000F1FF3280F02281B34240F21F81023865
:101550003E44F61AA2B2B6FBF9F309FB136642EA5F
:10156000064403FB08F8A04509D9E41903F1FF324A
:1015700080F00A81A04540F20781023B3C44C8EB61
:10158000040443EA00400021002D62D024FA0EF446
:1015900000232C606B60BDE8F0878B4207D9002DDB
:1015A00055D0002185E841000846BDE8F087B3FA30
:1015B00083F1002940F09080B34202D3824200F2CE
:1015C000F880841A66EB03060120B446002D40D053
:1015D00085E81010BDE8F08712B90127B7FBF2F7D4
:1015E000B7FA87FEBEF1000F35D1F31B4FEA17485B
:1015F0001FFA87FC0121B3FBF8F0220C08FB103620
:1016000042EA06460CFB00F3B34207D9F61900F193
:10161000FF3202D2B34200F2CE801046F61AA2B2D6
:10162000B6FBF8F308FB136642EA06440CFB03FC26
:10163000A44507D9E41903F1FF3202D2A44500F210
:10164000B5801346CCEB040443EA00409CE72946EE
:101650002846BDE8F087CEF1200106FA0EF307FA1E
:101660000EF720FA01F94FEA1748CE4049EA03097C
:10167000B6FBF8FA4FEA194408FB1A661FFA87FC12
:1016800044EA06430AFB0CF29A4200FA0EF40AD925
:10169000DB190AF1FF3180F087809A4240F28480A2
:1016A000AAF1020A3B449B1A1FFA89F9B3FBF8F12D
:1016B00008FB113349EA034301FB0CF69E4207D9AC
:1016C000DB1901F1FF326BD29E4269D902393B44EA
:1016D0009B1B41EA0A418EE7C1F1200E22FA0EF46B
:1016E0008B40234320FA0EF706FA01F44FEA134C1D
:1016F00026FA0EF63C43B6FBFCF9270C0CFB1966E8
:101700001FFA83F847EA064609FB08F7B74202FAD0
:1017100001F200FA01FA08D9F61809F1FF3041D2B6
:10172000B7423FD9A9F102091E44F61BA0B2B6FB8D
:10173000FCF40CFB146640EA064704FB08F8B845C5
:1017400007D9FF1804F1FF3028D2B84526D9023C4A
:101750001F4444EA0940C8EB0707A0FB02894F4534
:1017600044464E4614D329D065B3BAEB040367EB65
:10177000060707FA0EFECB40CF404EEA030385E88A
:1017800088000021BDE8F0871346F8E61046E0E641
:10179000B8EB020469EB03060138E5E70446D8E735
:1017A000114695E78146C0E78A467CE7023B3C4408
:1017B00048E708460AE702383E442FE7C245E7D328
:1017C0003E46D1E72946BDE8F08700BF704700BF1D
:1017D000A0F13003DBB2092B01D858B27047A0F159
:1017E0004103052B01D8373804E0A0F16103052B34
:1017F00002D8573840B270474FF0FF3070470000B2
:101800000122014B1A6070470C8C0020024B586F6C
:10181000431E584258417047188A0320024B586FA4
:10182000431E584258417047188A03202228F7B5B2
:101830004AD82822264B42439C18995C254A2569A0
:1018400052F8212001927DB1A6680021B1420BD04F
:10185000E7684FEA810E57F82170BA4202D155F875
:101860000E0032E00131F1E7282101FB0030037D59
:10187000072B29D8DFE803F0040B0C0E10111621FA
:10188000D3B2154915481A4632F004F913E092B262
:10189000134903E052B200E012B212490F4832F08D
:1018A000F9F808E01046FEF761FF02460B460B48C8
:1018B0000D4932F0EFF8094807E0084B0022019883
:1018C0005A711860184600E0084803B0F0BD00BF28
:1018D000B4F90308188A0320A55F0308E8840020F0
:1018E000B05F030818200908B35F0308F5DD070897
:1018F0002DE9F041214D2823214C2868A04643437F
:10190000222814F803E004EB03071E4B53F82E20A3
:101910001E4601D8B96809B9531E16E00023FF68B6
:1019200057F82340A2420CD12BB901F18041013973
:1019300057F8213009E003F18043013B57F8233089
:1019400003E001339942EBD13B6846F82E300E4B51
:101950001E680E4B1F68FFF769FF02463046394686
:101960000BF046FE2B682821094A01FB038413680B
:10197000616A0B441360BDE8F08100BFE48400207D
:10198000B4F90308188A0320108500201885002068
:10199000808500202DE9F041204D2823204C286827
:1019A000204EA0464343222814F803E004EB03072B
:1019B00056F82E2001D8BB680BB9531C15E0002146
:1019C000FF6857F82140A24207D1013B8B4216BF66
:1019D00001313B6857F8213007E001318B42F0D1EB
:1019E00003F18043013B57F8233046F82E300E4B6D
:1019F0001E680E4B1F68FFF719FF02463046394636
:101A00000BF0F6FD2B682821094A01FB03841368BB
:101A1000616A0B441360BDE8F08100BFE4840020DC
:101A2000B4F90308188A03201085002018850020C7
:101A3000808500202DE9F041114E2825114C306899
:101A400005FB00F3E15C104B53F82120C83A43F842
:101A500021200E4B1F680E4BD3F80080FFF7E6FEE7
:101A60000246384641460BF0C3FD3268094905FB82
:101A700002435A6A0B6813440B60BDE8F08100BF53
:101A8000E4840020B4F90308188A0320108500209C
:101A900018850020808500202DE9F041114E282571
:101AA000114C306805FB00F3E15C104B53F821202A
:101AB000C83243F821200E4B1F680E4BD3F800802C
:101AC000FFF7B4FE0246384641460BF091FD3268FE
:101AD000094905FB02435A6A0B6813440B60BDE8D1
:101AE000F08100BFE4840020B4F90308188A0320C1
:101AF0001085002018850020808500202DE9F843FE
:101B00002D4D28232D4C2F682D4E7B43DFF8D89088
:101B1000D6F80080E35C072B2A4B06D12A4A4046C0
:101B200019680BF065FD294A05E0294A4046196805
:101B30000BF05EFD264AD9F8001040460BF058FD28
:101B4000222F244BD6F80080196894BF2823204AFE
:101B500040469CBF03FB07435A680BF049FD1E4BF0
:101B60003846D3F80090FFF761FE024640464946EA
:101B70000BF03EFD2D68194B222D3668196894BF75
:101B80002823134A30469CBF03FB05439A690BF098
:101B90002FFD134B304619680BF01EFD282303FB65
:101BA0000544104B247F1968447030460BF014FD37
:101BB0004470BDE8F88300BFE4840020B4F9030852
:101BC0001085002084850020B65F0308C15F0308EC
:101BD000F5DD07080C85002018850020DC84002036
:101BE0001C850020E08400201485002070B50B4C7B
:101BF0000B4E254623682822013B222B88BF222337
:101C000023602B6802FB03631B6A1BB9BDE87040AD
:101C1000FFF774BF98470028ECD0F7E7E484002072
:101C2000B4F9030870B50B4C0B4E254623682822E7
:101C30000133222B88BF002323602B6802FB036340
:101C40001B6A1BB9BDE87040FFF758BF98470028D2
:101C5000ECD0F7E7E4840020B4F903081FB500F1E5
:101C60001404143454F8280C431C2AD054F8241CAF
:101C700017F0B2FE54F81C1C009054F8200C0139E7
:101C8000013817F0A9FE104A01460190009817F09C
:101C900019FE54F8241C54F8280C0131013017F0B7
:101CA0009BFE54F81C1C029054F8200C0239023898
:101CB00017F092FE044A01460390029817F002FEC4
:101CC000CFE704B010BD00BF969696FF01380428F8
:101CD0000FD8DFE800F00503080A0C002020704749
:101CE000054B18787047052070472D207047142049
:101CF00070471020704700BF1C1B090821B3013832
:101D0000042804D8DFE800F0070C10141A000F4B69
:101D10000B60102315E00E4B0B600E4B1B780AE096
:101D20000D4B0B60202306E00C4B0B60052308E0F5
:101D30000B4B0B602D230B71022304E0094B0B604E
:101D400014230B7101234B71704700BF6C9503087E
:101D500054EB03081C1B09081C72030824550308D4
:101D6000240704087889030837B500220C4600923E
:101D7000019289B16946FFF7C1FF00999DF80550AE
:101D8000104623784BB151F823301A7814F8013FEC
:101D9000104413B12844F4E7084603B030BD0000F6
:101DA0002DE9F04F8DB01E460023054603910AA988
:101DB0001446BDF858B00A930B93FFF79FFFAAB1E2
:101DC0005946304617F008FE179907902846FFF746
:101DD000CBFF9DF82C1030445944013917F0FCFD1D
:101DE000224601460890079818F052F90023179AE6
:101DF0001278002A64D018998B4261D00A994FF06A
:101E0000340E51F822403049257808682F49771957
:101E10009DF82C200EFB0011B1F860108F424FDCB2
:101E20005A4404F101085F4692B20292029A974224
:101E30003AD02C46002C34D018F8012B22B9072CAC
:101E40002FD9083CE4B2F5E7082C21464FF00009F1
:101E50004FF0010A28BF08210091311989B2019180
:101E6000019901EB09000099494480B211F0FF0F7C
:101E7000E5D012EA0A0F0AD039460592049317F00A
:101E8000ABFD0399099017F055FD059A049B09F1E4
:101E9000FF394FEA4A0A19F1080F5FFA8AFADFD1CF
:101EA000CDE70137BFB2C1E71799013311F8012F10
:101EB00017912AB19DF82D2015442E44B6B296E70D
:101EC00018460DB0BDE8F08F148A03200CD3022011
:101ED0002DE9FF410B9C054698460E4620461746C5
:101EE000FEF778FABDF828303A463146009343466B
:101EF000029028460194FFF753FF04B0BDE8F0813B
:101F00002DE9FF410D4C98460CAB05460E46174691
:101F1000FF210B9A2046039331F06CFE00233A46D2
:101F2000314623542846BDF8283001940093434697
:101F3000FFF7CEFF04B0BDE8F08100BF6CD10220F6
:101F40002DE9F0470A9E8846BDF824501C463146CC
:101F500007469146BDF820A0FFF706FF281A09960C
:101F60004A46A0420346CDF820A04146B8BF2346CA
:101F700038469BB2BDE8F047FFF7AABF30B585B041
:101F800000240D4602A902940394FFF7B7FE0D4BFF
:101F9000ADF80040342418680B4B9DF80C1004FB7E
:101FA00000331144ADF80220B3F860004008013856
:101FB00017F012FD2A460146009818F069F805B09E
:101FC00030BD00BF148A03200CD30220064B13B58A
:101FD0001C7E01230191009221460246034821F014
:101FE000CFFF002002B010BD188A032044860020D5
:101FF00004284FEA031373B512BFC901002101225F
:1020000003F0700308BF0C469DF818604FEA1225D4
:102010008DF801201EBFB1FBF2F402FB1411A4F5F0
:1020200000748DF800504FEA123218BF04EBC01450
:10203000042802F0F0028DF80710C4F301458DF872
:10204000044008BF45F00C051D43230A8DF80330FA
:10205000C1F303438DF802501A440B0A8DF8052092
:102060008DF806301EB96A4608212A200AE0012EA2
:1020700003D16A460821322004E0022E04D16A46C8
:1020800008213A20FFF7A2FF02B070BD08B5044B4B
:102090000A460146187E22F057F8002008BD00BF0E
:1020A000188A032013B5C9018DF80120B1FBF2F4A1
:1020B00004EBC01002FB1411140AA0F50070120BFF
:1020C0008DF80040C0F301448DF8040002F0F002E6
:1020D0008DF807108DF80240040AC1F303408DF813
:1020E000034002448DF805200A0A08218DF80620D5
:1020F0006A4623B91A20FFF769FF202103E0222056
:10210000FFF764FF8021B120FFF7C0FF02B010BDD0
:10211000754B2DE9F04FDA6997B05E698A4616442F
:1021200041F68362904240F2C580D3F884309842F1
:1021300028BF18466D4B984240F29F806C4B9842E6
:1021400002D89FED657B01E09FED657B8DED047B03
:10215000FEF7EAFA04460D463046FEF7E5FA024677
:102160000B46204629460126FEF77EFCDDE90423C6
:10217000FEF750FB04460D4645EC104B2CF008FDD5
:1021800051EC100BFEF71EFE0E90FEF7CDFA024644
:102190000B46204629460024FEF788F9554B0022BD
:1021A000FEF738FBFFF77CF9002383468946CDE92B
:1021B00006344FF0FF336FF01044CDE902340024B1
:1021C0000123CDE9083400242746A0465846494655
:1021D000DDE90223FEF766FE05460A9158464946A8
:1021E000DDE90223FEF75EFE0F930A9BA6FB0501C5
:1021F0000C9206FB03FEDDE9062308FB05EE121830
:102200000A9871444B4107FB05F104FB001BA5FB39
:1022100004015944DDE908BC1BEB000B4CEB010C3D
:102220005846DFF8E4B061464FF0000C9C4508BF0B
:1022300093451ED34FF0000CDFF8D0B08C4508BF9B
:10224000834516D308940C9CDDF808B002940F9CCB
:10225000DDF80C90039409970696CDF81C80DDE913
:1022600002452C43044603D00F4616469846ADE778
:10227000164602964FF0000B03E143F608539842CE
:102280001AD947F61123984219D94FF2234398429D
:1022900018D9194B984218D9184B984218D9184B8D
:1022A000984235D9174B98428CBF4FF0000B4FF036
:1022B000010B2FE041F684604FF0070B2AE04FF04E
:1022C000060B27E04FF0050B24E04FF0040B21E054
:1022D0004FF0030B1EE000BF00000000000018409C
:1022E0000000000000001040188A03201F9DB40663
:1022F0007FD1F0080000DC4347E801008FD00300E5
:102300001FA107003F420F00FEFF0F00FFFF0F005D
:102310004FF0020B00FA0BF330464FF0FF396FF02D
:1023200010481593FEF700FA02460B460126CDE948
:102330001001BEA1D1E90001FEF796FB04460D464F
:1023400045EC104B2CF024FC51EC100BFEF73AFD41
:102350000E90FEF7E9F902460B46CDE91201204640
:102360002946FEF7A3F8AC4B00220024FEF752FAF0
:10237000FFF796F8012307461491CDE904340024B1
:102380000023CDE9023400240C940F944A464346BE
:1023900038461499FEF786FD4A46054608913846A8
:1023A00043461499FEF77EFDA6FB0501CDE90A23FD
:1023B000089B0F9A734302FB05331944DDE902239E
:1023C00012184B41CDE90623089B04FB03F70C9B35
:1023D000DDE9040103FB0577A4FB052380183B44DA
:1023E0005941DDE90623CDE9080100218B489942D6
:1023F00008BF904221D300218948DDE90823994292
:1024000008BF904219D30F9D4F4604940C9CCDF801
:102410005080029603950594DDE90A0101430AD034
:10242000099BDDF828900C93079BDDF82C80089C15
:10243000069E0F93AAE7089C069E30460296FEF77A
:1024400073F906460F462046FEF76EF902460B4624
:1024500030463946FEF708FBDDE91223FEF728F87F
:10246000DDE91023FEF7D6F906460F461598FEF76C
:102470005BF902460B4630463946FEF7F5FACDE9E0
:1024800004010022674BDDE90401FEF72BFC064640
:10249000002840F0F1800022634BDDE90401FEF7E3
:1024A00021FC0546002840F0E08001269DED040B4C
:1024B0002CF06EFB51EC100BFEF784FC0746FEF788
:1024C00033F902460B46DDE90401FDF7EFFF002278
:1024D000514BFEF79FF9FEF7E3FF01220023109016
:1024E00012910F951495CDE9042300230022CDE924
:1024F00006234FF0FF3308936FF010430A93089AB6
:102500000A9B10981299FEF7CDFC89468046089ADE
:102510000A9B10981299FEF7C5FC06FB09FE05FB05
:1025200009F9CDE90C23149BDDE9060103FB08EE54
:10253000A6FB082380187344594102460B460F99A5
:1025400001FB089EA5FB0889DDE90401F14410EBBD
:10255000080041EB09018046304889460021994234
:1025600008BF90421FD300212D48494508BF404570
:1025700019D30899069610910A9904951291149905
:1025800007910F990591DDE90C01014309D00C99E0
:102590004546CDF83C90164608910D9914930A9142
:1025A000ADE745461646BAF1000F0AD1042F69D0AF
:1025B000062F67D00F2110204FF00008FFF766FDAF
:1025C00014E0BAF1010F1BD127F00203042B0CBF5A
:1025D0006F212F2105E0BAF1010F2BD155460627B7
:1025E0006F214FF001081120FFF750FD5B46CDF839
:1025F00000802A4631463846FFF7FAFC43462CE075
:10260000BAF1020F49D127F00203042B0CBF4F216E
:102610000F2116E0AFF300800000DC43FEFF0F0047
:10262000FFFF0F0000001040000018400000008075
:1026300074D2CA410627BAF1020F2ED10125002615
:102640004F211220FFF722FD02232A463146009334
:1026500038465B46FFF7CCFC0023224602990E98D1
:1026600017B0BDE8F04FFFF71DBDBAF1000FB2D1B2
:1026700001255646062705E0BAF1000F04D10125D1
:10268000564604274F2196E7BAF1010F03D10026E1
:1026900055460427A4E70427CDE717B0BDE8F08F1F
:1026A00038B50B4B0C4605460321187E21F054FC2F
:1026B000012C15BF012104FA05F1A94020EA01010E
:1026C00018BF01430320C9B2BDE83840FFF7DEBCA4
:1026D000188A032008B50221FFF71AFD0121022004
:1026E000BDE80840FFF7DCBF08B50121FFF710FD8A
:1026F0000121BDE808400846FFF7D2BF08B5002118
:10270000FFF706FD01210020BDE80840FFF7C8BF24
:10271000002108B50846FFF7C3FF00210120FFF79D
:10272000BFFF00210220FFF7BBFF80211020FFF731
:10273000ADFC80211120FFF7A9FC80211220BDE80B
:102740000840FFF7A3BC00000A4A0346D2F88410F1
:1027500001EB41028242084A02D2D268052003E01E
:10276000884204D9D2680320B3FBF0F01047D36845
:10277000184700BF188A0320F4B502202DE9F04164
:102780000546154C18B96368BDE8F0411847134B6E
:10279000A0F51C561A692F3E92B9D3F8843003EB8A
:1027A0004302904201D9052702E0984208D9032745
:1027B000A368B5FBF7F09847E368B6FBF7F003E0D2
:1027C000A3689847E36830469847054B00201D6092
:1027D000BDE8F04123F084B8F4B50220188A032044
:1027E000BC830020DFED1D6A60EEA00AB4EE660A2D
:1027F00008B51B4BF1EE10FAD3ED097A4CBFB0EEE1
:10280000667AB0EE407AF8EE677AB0EE600A37EE9C
:10281000676A77EE277AA6EE060AE7EEA70ADFEDEB
:10282000117AF4EE660AF1EE10FA08BFF0EE670ACC
:1028300080EE200A2DF08CF8DFED0B7AB4EE670AFB
:10284000F1EE10FAC8BFB0EE670AF7EE007A30EE8C
:10285000277A37EEC00A87EE000A08BD00000000A4
:10286000188A03206042A20D77BE7F3F08B50D4B4A
:1028700093ED000A2CF0C4FA0B4BD3ED007A0B4B0E
:1028800093ED007A0A4B77EE877A93ED007A094B45
:1028900077EE877A27EE800AD3ED007A20EE270ABA
:1028A00008BD00BFB08C0320648100207880002028
:1028B00038810020C083002008B50E4B93ED000A3C
:1028C0002CF056FA0C4BD3ED007A0C4B93ED007ABA
:1028D0000B4B37EE877AD3ED007A0A4B77EE277AE7
:1028E00027EE800AD3ED007A90EE277AB0EE470A01
:1028F00008BD00BFB08C03206481002078800020D8
:1029000038810020C083002008B5154BF5EE080A79
:10291000B2EE040A1A6CC2F16403632B97BF6FF026
:10292000EF03EF23534364229FBF03F5BB434033C0
:10293000B3FBF2F3DBB2C3F1EF0307EE903AF8EE2C
:10294000E77A67EEA07AF3EE040AC7EEA00A2CF04D
:102950006BFE044BD3ED007A20EE270A08BD00BFC2
:10296000188A0320C483002008B5154BF5EE080A29
:10297000B2EE040A1A6CC2F16403632B97BF6FF0C6
:10298000EF03EF23534364229FBF03F5BB43403360
:10299000B3FBF2F3DBB2C3F1EF0307EE903AF8EECC
:1029A000E77A67EEA07AF3EE040AC7EEA00A2CF0ED
:1029B0003BFE044BD3ED007A20EE270A08BD00BF92
:1029C000188A0320C88300202D4B1B682D4B93F8D9
:1029D0007D20D2B2012A10B5C0B049D193F87C1045
:1029E000012945D083F87C20274A5A664FF4886233
:1029F000A3F86820A3F86A20222283F87D20002211
:102A0000C3F880201A681168C90303D4116841F41F
:102A1000803111601B4AB3F86A00196808B34C6929
:102A200014F4E02FFAD0586B402807D1906A38B9D7
:102A3000506EC969441C546601700CE0802805D8AA
:102A4000C869596E21F8020B596604E0C869516ED5
:102A500041F8040B5166B3F86A100139A3F86A1003
:102A6000D9E7012283F87C0083F87D2040B010BDB7
:102A700002220649684631F00DF8684629F090F8C0
:102A8000AC8C0320D0B702206C4B0420CC5F030831
:102A900000292DE9F04F93462DED028B83B002DC27
:102AA0009FED3E0A74E0142905460246DFED3B7AAD
:102AB000A8BF142100230C460133B2EC017AA342D3
:102AC00077EE877AF8DB07EE104A042CB8EEC70AD7
:102AD00087EE808A5ADD00EB840A9FED307AF0ECB5
:102AE000017A824577EEC87AA7EEA77AF7D187EE0A
:102AF000000A2CF02DFF18EE100A8DED010AFDF7EB
:102B000035FE9DED010A06460F4610EE100AFDF750
:102B10002DFE0022224BFDF77DFE02460B4680462D
:102B2000894630463946FDF7C1FCFEF76BF94B4646
:102B3000424608EE900A39463046FDF7B9FCFEF7EA
:102B400061F99FED167A06EE900A0023F5EC017A02
:102B5000F4EEE78AF1EE10FA07D8F4EEE76AF1EE48
:102B600010FAA4BF37EE277A0133AA45EED1BBF1A4
:102B7000000F03D0B3EB640F01DA91E733B107EE36
:102B8000903AF8EEE77A87EE270A01E0B0EE480ABD
:102B900003B0BDEC028BBDE8F08F00BF0000000069
:102BA0000000E83F00282F4B2F484FF0000114BFD2
:102BB0004222402270B513442C4A2DED048B86B07E
:102BC00033F921400131B0EC017A07EE904AB1F5BA
:102BD000007FF8EEE77A67EE877AE2EC017AEFD1D0
:102BE00068469FED238A25F0DBF8BDF81030F0EE43
:102BF000488A00225B081D49684669241D4E9FEDE6
:102C00001E9AADF8003026F070FD1A4A6846174942
:102C100025F058F906EBC4030134164D93ED000A74
:102C2000D3ED010A2BF072FF20EE090A6E2CA0EE04
:102C3000008AEFD1B0EE480A2CF08AFEB0EE408A4E
:102C4000D5EDD60A95EDD70A2CF0AAFBF1EE407A25
:102C5000B0EE480AF0EE670AA7EEA80A06B0BDEC8F
:102C6000048B70BD6C4B0420145F0420EC530420D3
:102C7000000000006C4304200000803B2DE9F0417F
:102C80001F46314B0446984204D9304BD3F880207C
:102C9000904211D92E4B2F4A13602F4A1360002304
:102CA0002E4A13602E4A13602E4A2F4B1168526829
:102CB00019605A60BDE8F081A0F51C561A692B4DC9
:102CC0002F3EA2B9D3F8843003EB4302904202D9DD
:102CD0004FF0050803E0984209D94FF003082B692B
:102CE000B4FBF8F09847EB68B6FBF8F003E02B690B
:102CF0009847EB68304698471D4B1E4D4FF40862CD
:102D00001C6000241C4E00211C4829F03AFFBC42E4
:102D10000BDAFFF759FE0020FFF744FF0023A6EC73
:102D2000010A013445F8043BF1E703223946124811
:102D3000FFF7AEFEDFED127A074B20EE270A83ED98
:102D4000000ABDE8F08100BF9F860100188A0320B9
:102D50000000FA43C8830020C483002068D1022009
:102D6000FC890320C83E0308D4830020F4B5022068
:102D7000BC8300206CD20220BCD202206C4B042009
:102D8000EA40563C000000002DE9F04F2DED028B8B
:102D900085B01C4605460291039210B9864B1D680A
:102DA0001AE0864B984204D9854BD3F8803098427C
:102DB00010D9844B844A1360844A13600023844AE8
:102DC0001360844A1360844A844B11685268196006
:102DD0005A60DDE0FFF7D2FC142C4FF00306A8BFC9
:102DE0001424DFF808A20027DFF8F891DFF8F8B123
:102DF000A74256DAFFF7E8FD0020FFF7D3FEB0EE5A
:102E0000608A0120F0EE408AFFF7CCFEA9EC010AAF
:102E100078EE607AEBEC018A17EE900AFDF7A6FCDB
:102E20005FA3D3E90023FDF743FBFDF7EBFFDFEDE5
:102E30006C0A00EE100A2CF0B5FA10EE100AFDF73D
:102E400095FC57A3D3E90023FDF730FBFDF7DAFF2C
:102E50008046FDF78BFC54A3D3E90023CDE90001A4
:102E6000FDF74AFF38B152A3D3E90023DDE90001A1
:102E7000FDF71EFB0EE04AA3D3E90023DDE90001C4
:102E8000FDF758FF48B14AA3D3E90023DDE900016B
:102E9000FDF70CFBFDF7B6FF80464AF8048B0137BF
:102EA000A6E7324621464F48FFF7F2FDF0EE408A92
:102EB000324621464C48FFF7EBFD324621464B484F
:102EC000B0EE408AFFF7E4FDF5EE408A484B83ED13
:102ED000000A1F46F1EE10FA09D0B5EE408AF1EE75
:102EE00010FA04D0B5EE400AF1EE10FA01D1013E1D
:102EF00077E7C8EE887A3F4B1C46C3ED007A029B09
:102F00002BB13D4B1B6813B1284627F047F8DFED86
:102F10003B7A2D4B68EEA78A386828EE278AC3EDE6
:102F2000008A2A4B83ED008AFDF720FC0022344BF7
:102F3000FDF770FC1AA3D3E90023FDF795FDFDF71B
:102F400061FF234B94ED000A18602CF0F1FAF3EEC8
:102F5000047A204B214C20EE270A83ED000AFFF76C
:102F600085FCB0EE408AFFF7A7FCDFED267A039BD5
:102F7000A8EE270A84ED018A84ED000A43B1F0EE41
:102F8000480A284607F02EFB84ED000AC4ED010A2A
:102F900005B0BDEC028BBDE8F08F00BFAFF3008041
:102FA000182D4454FB210940182D4454FB2109C01D
:102FB000182D4454FB211940BC8300209F8601003A
:102FC000188A03200000FA43C8830020C48300202D
:102FD00068D10220FC890320C83E0308D483002066
:102FE000DB0FC9406CD20220BCD202205C8C0320D3
:102FF000B08C0320C0830020B48C0320EA40563CF0
:1030000000806640000000002DE9F04F00252C46AE
:103010002F465FFA85FC94453CD24FF0000E10F825
:103020000C604FF020084FF0000906FA0EF6C6F3C8
:10303000C01646EA4707184E3E4008F1FF3806F032
:10304000010A760818F0FF0889EA0A09F5D101F8A3
:10305000049004F1010ADFF8449020265FFA8AFA0E
:1030600007EA0909013E09F0010B4FEA590916F078
:10307000FF0688EA0B08F5D1023401F80A80E4B2B1
:103080009C4201D30135C4E70EF1010EBEF1080FD9
:10309000C5D1F7E7BDE8F08F5153D0F2473C61E46A
:1030A0002DE9F041C6B004465B220D4618A8002168
:1030B00029F067FD4D22214618A829F057FD00236D
:1030C00000930193029318A91DF8032001EBC3009C
:1030D0000021445C013144EA42020829D2B2F8D10D
:1030E0000DF8032001330A2BEDD100231A461DF8F9
:1030F0000240072144FA01F003F4005600F00100F9
:1031000040EA43031EB183F41D5383F0170311F10A
:10311000FF31EFD20132C3F30D030C2AE7D10222B3
:10312000012003FA02F111F4004115BF18A918ACEF
:103130008918A41802F1010214BF81F84B0084F829
:103140004B10102AEDD12FAE4FF00C085B2218A9BE
:103150003046002429F00AFD0DEB0807DFF850C0C7
:10316000002208FB04CE1346D1B2C80801F00701C3
:103170001EF8000000FA01F1B05C0132C1F3C01189
:103180005B2A00FB0133EFD103F00103E355013467
:10319000532CE5D13146284629F0E8FC2246394631
:1031A00005F15B0029F0E2FC46B0BDE8F08100BF0C
:1031B00025BD03082DE9F041002392B004460D46D9
:1031C00005AE02AF1A4605930293736033817B60AC
:1031D0003B81A15C11F0DF0F10D00846FEF7F8FA32
:1031E000013000F0A0800DABD15401320123132A2D
:1031F000EFD12046FDF7EEF8002302E0002BF8D1D6
:1032000091E0DAB2904208D99046A25C0133202ABC
:10321000F7D108F1FF385FFA88F80DAE13220021CC
:103220000027304629F0ADFC08F101022146304666
:1032300029F09CFC122300961321904A08A830F034
:10324000F7FB8F4BD3F80080FEB208A8FDF7C2F859
:10325000B0420FD912AB01371E4416F8283C08EBD8
:103260000302527802F00302022A04BF203B06F850
:10327000283CE9E708A9204630F05CFC20782028AB
:1032800003D0FEF7A5FAC0B200E00020691E0123BA
:1032900000FA03F20133C2F3C002042B01F8012F3C
:1032A000F6D16078202803D0FEF792FAC0B200E091
:1032B0000020A91C002300FA03F20133C2F3C0026C
:1032C000042B01F8012FF6D105F1080205F148069B
:1032D000A078202803D0FEF77BFAC0B200E00020DF
:1032E0000023D71800FA03F10133C1F3C001042B06
:1032F00007F8011CF5D1E078202803D0FEF768FA22
:10330000C0B200E000200023D71800FA03F1013317
:10331000C1F3C001042BF970F6D108320234B24275
:10332000D6D1052396E02346564A0E2108A830F050
:103330007FFB534A0DF11F030BA8D2F800E0904623
:1033400013F8012F0EEB0201497801F00301022965
:1033500004BF203A1A708342F2D108A9204630F007
:10336000E9FB611ED8F800000C344FF02A0E11F86A
:10337000012F831893F801C00CF0040C0CF0FF032C
:10338000BCF1000F02D0A2F12F0306E0A2F1410C24
:10339000BCF1190F03D8A2F13603DBB215E0202AE5
:1033A00013D02B2A0AD02D2A0AD02E2A0AD02F2A4F
:1033B0000AD03F2A0CBF2923FF2306E0252304E07F
:1033C000262302E0272300E028234FF0000C62466A
:1033D00016F80C80C2F307221EFB082207F80C2007
:1033E0000CF1010CBCF1090FF2D1120A1B028DF88D
:1033F0001120002217F802C00CEB1323B354013242
:10340000092AF7D11B0A8C428DF81D30AFD19DF8E7
:103410001C00691E012300FA03F20133C2F3C0123B
:10342000082B01F8012FF6D107A805F1080205F1D4
:10343000480610F8014D0023D71804FA03F10133B0
:10344000C1F3C011082B07F8011CF5D108329642D0
:10345000EFD1002303F001029B0885F847200022EA
:1034600085F8493085F8482085F84A2085F84B20B2
:1034700085F84C2012B0BDE8F08100BFEB5F030877
:1034800014840020F05F030810B50446FCF7A2FF87
:10349000C0B20C2803D9631E0B480C3406E020236D
:1034A00023540130C0B20E28FAD1F4E713F8012FEB
:1034B00001681144497801F00301022904BF203A50
:1034C0001A709C42F2D110BD148400200A4B1B6874
:1034D00003445B785B0701D5303806E0202806D02E
:1034E000A0F14103192B04D83738C0B2704724200B
:1034F0007047FF20704700BF14840020134B1B68E7
:1035000003445B785B0701D5303804E0A0F1410348
:10351000192B02D83738C0B2704720280CD02B287E
:103520000CD02D280CD02E280CD02F280CD03F28C2
:103530000CBF2920FF2070472420704725207047AA
:1035400026207047272070472820704714840020C9
:103550004368994206DBC91A026841FA02F219402F
:103560001144F6E70846704790B5C1B04FF40B72AE
:10357000002100AFADF5147D0DF11F0424F01F04F0
:10358000204629F0FEFA12220E49204622F0DCFFE6
:10359000024678B90C494FF4D8720C4B20460B60A8
:1035A0003B4622F09AFA204622F022FA07F582776B
:1035B000BD4690BD0649384630F06CFA384628F0D2
:1035C000EFFA00BFF55F0308188A0320332E30643A
:1035D0000B60030830B52D4D85B02D4825F03EFB1E
:1035E000AB69FBB902240021204620F0B5FC01386C
:1035F000C0B2FD283CD9023414F0FF04F3D1254BAE
:103600002046C0244FF07F4201930A2322490093B1
:103610000523FEF75DFC40F6B83022F061F9AC619D
:10362000FFF7A2FFFF210320FEF730FD80211020CD
:103630009524FEF72BFDD5F88810B720890141F0BD
:10364000120101F0D201FEF721FD00210F20FEF74B
:103650001DFD204601340021E4B2FEF717FDA22C27
:10366000F7D10021BB2005B0BDE83040FEF70EBD0C
:103670000A4B4FF07F4202944FF0FF2101930A233F
:10368000002000930523FEF73BFCC4E7188A0320C3
:10369000448600203B6003080000FFFF89600308A8
:1036A000064B074A1A60074A5A60074A9A60074A57
:1036B000DA60074A1A61FFF78DBF00BFF4B5022038
:1036C000D535000811270008FD260008E926000866
:1036D000D526000800000000B14BB24A196D2DE953
:1036E000F04F2DED048B11601C46596DABB0AE4A06
:1036F0004FF00208AD4F1160996DAD4AAD4D1160AC
:103700001A6A0F2A84BF4FF0FF332362FFF72CFFA2
:1037100006F0A2FD06F0B2FE236C2F600024009399
:1037200028463B6823F480333B604FF0FF3385F835
:103730007D803C61BB611AF041F92A6809A8536891
:1037400043F008035360C5F8804085F87C4085F855
:103750007D401AF0E3FA4FF4801309A809934FF45F
:10376000800319934FF4AC730A9307230C9301233E
:1037700012931AF0C5FB95F87D302F6003F0FF0619
:10378000002B75D18C4C284626F020FB4FF4806925
:10379000636C09A9894843F400036364636C03F410
:1037A00000030893089B236B43F040032363236BC0
:1037B000CDF8249003F04003CDF828800B960793B2
:1037C000079B0A23CDF830800D9327F0CBFE236BA7
:1037D00009A97B4843F080032363236B0A9603F017
:1037E00080030B96CDF830800693069B4FF4004380
:1037F000099327F0B7FE236B43F480032363236B05
:1038000003F480030593059B2B68BB4220D16D4CCC
:103810004FF4006363614FF4005320466660A36178
:103820004FF48073A660E3614FF40033E6602362D7
:103830000323C4F81090A362634B6662E6622663BA
:1038400023602C67A56328F0B8F8204628F0DAF842
:1038500000220F2146205D4C28F06AF94023002207
:103860000F21A360282028F063F94FF48073636070
:10387000574B0026574D4FF001081A6880212B60E6
:103880004FF4803B22F480324BF680394FF4802A8B
:1038900028461A604FF40053402269632B612023AD
:1038A00003916B64019304232A64EB650523029260
:1038B0002B66C5F81C90C5F804806E612E63AE635C
:1038C000C5F83C80AE60C5F81880C5F848B0EE6415
:1038D000C5F850A06E65AE651AF0BAF83868354C78
:1038E000019B20F480302760386003206364042348
:1038F0000399029AE36505236060204661632264B0
:103900002366C4F81C9066612663A663C4F83C80F5
:10391000C4F808802661C4F81880C4F848B0E6648A
:10392000C4F850A06665A6651AF092F82A6834209B
:10393000136843EA0B0313602268274C136843EAB9
:103940000B031360A368984748F6941398427AD102
:10395000E36A34209847214B4FF4407134201C60B7
:10396000009B2468C3F164024B469FED1D9AD2B2BE
:10397000DFED1C8AA0479FED1C8A1C4C30460136A7
:10398000FCF7E2FE8046894603A3D3E90023FCF757
:1039900041FF2DE0AFF30080182D4454FB21194066
:1039A000188A03207880002064810020245C014074
:1039B00038810020D0B702200038024000180240B1
:1039C000001C024020850020B864024000E100E0B5
:1039D000045C014014BC0220D482002018BD0220E7
:1039E0003E3DFE3E236ADA3E7C629D3D145F04202C
:1039F0001AA3D3E90023FDF737F8FDF703FA00EE29
:103A0000100A2BF0B5F940464946F0EE409A15A34E
:103A1000D3E90023FCF7FEFE10A3D3E90023FDF752
:103A200023F8FDF7EFF900EE100A2BF0A1F9F0EE04
:103A3000687AB6F5007FE9EEC97AE0EE087AE4EC40
:103A4000017A9BD102E0044828F0AAF82BB0BDEC23
:103A5000048BBDE8F08F00BFC560030800000000C4
:103A600000F07F40182D4454FB21294008B5FFF792
:103A70007BFDFFF715FE064B1B6823B1C82021F024
:103A80002FFF08F0C1FA0122024B1A6008BD00BFE7
:103A9000808500200C8C00202DE9F041944A88B0EC
:103AA000944C002101236261C02293484FF0420CE4
:103AB000A2613222914E00AF6262ADF5147DA26226
:103AC0000522A3600DF11F05E2624FF4FA72216135
:103AD00025F01F0522630622E1612264884A2162E3
:103AE0002265884A63636265A2F57C02A363A265CE
:103AF0004FF41642E3636164E164E1656166A166C7
:103B0000E366216761676060E060A064226626600A
:103B1000A167C4F88CC04FF47A6C7B4AC4F8BCC06F
:103B200040F61C4CE267C4F8C4C00CF19A7CC4F89F
:103B3000A4200CF6560CC4F80421C4F82C21C4F8B7
:103B40005421C4F87C210822DFF8F8E1C4F8D4C07D
:103B500040F28A7CC4F8E40043F2B060C4F89021DB
:103B6000C4F894214FF41652C4F880E04FF0030ECD
:103B7000C4F8D8C04FF4616CDFF8CC81C4F8F00011
:103B8000C4F81801C4F84001C4F868012846C4F814
:103B90009C214FF40B72C4F888E0C4F8C810C4F834
:103BA000CC10C4F8D030C4F890C0C4F8DC10C4F80D
:103BB000E0E0C4F8E830C4F8EC10C4F89811C4F898
:103BC000A011C4F88480C4F8A411C4F8A83128F066
:103BD000D8FF07F108014D4822F03CFC0C2801D029
:103BE000032802D14A4827F0DBFF18BBBB680BB99A
:103BF000FFF7BAFC01224549284622F0A5FCBA6825
:103C00003B1DB2F5D87F0AD23A49284622F052F835
:103C1000284621F0EDFE2660FFF7A6FC13E04FF4E6
:103C2000D8723449284622F045F8284621F0E0FEB3
:103C3000266008E0374822F07DFA374822F07AFA09
:103C4000FFF792FC4FE022692A4BE2B9334AD3F8DE
:103C50008010914288BFC3F88020D4F88430304A65
:103C6000934210D043450ED02E498B420BD02E49A3
:103C70008B4208D02D498B4205D02D498B421CBF69
:103C80001C4BC3F88420E26F2A4B9A4282BF2A4A17
:103C9000184BDA67D4F880301B4A934205D927497C
:103CA000B3FBF1F201FB123313B1254BC4F88030A2
:103CB000D4F88C30013B632B82BF42220D4BC3F8FA
:103CC0008C20D4F89031043B102B82BF0822094B82
:103CD000C3F89021D4F89431043B102B82BF082202
:103CE000044BC3F894212037BD46BDE8F08100BFE6
:103CF000C0FC9B01188A0320809FD500332E3064BE
:103D00003333A34000004843A0860100F55F030859
:103D1000DE600308E9600308ED600308803E6D562D
:103D20000068890900497F0F80DF17100076B01006
:103D3000800C49111FA1070020A1070040420F007D
:103D400080D1F0080046C32300C2EB0B2DE9F04FF1
:103D5000E9B006F07AFE04460028FAD1D84B2227B3
:103D60006FF0FF05012618604FF00A08D54B48F2A6
:103D7000800A4FF0FF394FF0DC0B1860D24B18600F
:103D80004FF07F401FF0D4FFD04B00944FF07F42A4
:103D9000019301206423CE49FEF79AF83A46214662
:103DA0005FA828F0EEFECB4B3A462146CDF8823193
:103DB0004FF6807356A8ADF88C51ADF89031C64BD4
:103DC000ADF87E81ADF88071ADF88661ADF88841BF
:103DD000ADF88A41ADF88EA1CDF8923128F0D1FE30
:103DE000BE4A4FF4967321464DA8CDF85E21BC4AD9
:103DF000ADF85A3103934FF68073CDF86E213A46F1
:103E0000ADF86851ADF85C71ADF86261ADF8644130
:103E1000ADF86641ADF86AA1ADF86C3128F0B1FE9D
:103E2000B04A4FF0FF03214644A8CDF83A21AE4AEC
:103E3000ADF84451CDF84A213A46ADF84651ADF8B7
:103E40003681ADF838B1ADF83E61ADF84041ADF81E
:103E50004231ADF8489128F094FE039B3A46214642
:103E60003BA8ADF81231A14BADF82051CDF8163179
:103E70004FF0FF03ADF82251ADF81E319C4BADF869
:103E80002451ADF814B14FF0820BADF81A61ADF8C2
:103E90001C41CDF8263128F074FE46233A462146CF
:103EA00032A8ADF8F030934BADF8FA50ADF8FC50B5
:103EB000ADF800518DF8ED60ADF8EE80CDF8F23040
:103EC0000393ADF8F660ADF8F840ADF8FE4028F089
:103ED00058FE6E22039B214629A8ADF8CC203A4615
:103EE000ADF8DC508DF8C960ADF8CA80CDF8CE30A1
:103EF000ADF8D690ADF8D890ADF8DA4028F041FE94
:103F0000039B5022214620A8CDF8AA304FF0FF0392
:103F1000ADF8A6203A46ADF8B450ADF8B8508DF8DB
:103F2000A560ADF8A8B0ADF8AE60ADF8B040ADF8A2
:103F3000B230ADF8B64028F024FE6F4B3A46214629
:103F400017A8CDF886304FF68073ADF89050ADF8D5
:103F500094306A4BADF88280ADF884B0ADF88A60D9
:103F6000ADF88C40ADF88E40ADF892A0CDF896300B
:103F700028F007FE4FF4C8733A4621460EA8ADF864
:103F80005E305F4BADF86C50CDF862304FF6807309
:103F9000ADF860B0ADF870305A4BADF86660ADF872
:103FA0006840ADF86A40ADF86EA04FF0AA0ACDF8AF
:103FB000723028F0E6FD544B3A46ADF83A8021467F
:103FC000DFF8688105A8ADF84650ADF84C50ADF863
:103FD0003CA0CDF83E80ADF84260ADF84440ADF86D
:103FE0004890ADF84A40CDF84E3028F0CAFDADF803
:103FF000225040F24713ADF8285004ADADF816300A
:10400000ADF820402846414BADF826402C60404C8E
:10401000CDF82A302560ADF818A0CDF81A80ADF89B
:104020001E60ADF8249009F06BFB5FA9284609F0EB
:104030009BFA56A92846374F09F096FA4DA928460B
:10404000354E09F091FA44A92846DFF8E4B009F0AA
:104050008BFA20A92846DFF868A009F085FA2F4BD3
:1040600017A91860284609F07FFA2D4B0EA9186091
:10407000284609F079FA2B4B05A91860284609F063
:1040800073FA294B3BA91860284609F06DFA32A94A
:104090003860284609F068FA29A93060284609F0F6
:1040A00063FACBF80000284609F0C4F9064B3968DA
:1040B0001F68D4F80090222F039398BF282239E07C
:1040C0000C8C002080850020E4840020F860030828
:1040D0000000FFFF0D610308ED1B00081C610308D1
:1040E000251C00082B610308011800083D61030826
:1040F0006D3A0008E14E07084D610308F118000809
:104100005361030895190008351A0008991A000828
:10411000108500200C850020DC8400201C850020F8
:10412000E08400208485002014850020F5DD070848
:104130001885002096BF1D48424602FB07024846EC
:1041400098BF526809F054FADBF800803846FDF752
:104150006DFB41460246484609F04AFA039B206837
:104160001B683168222B9BBF104A2824104A04FB8D
:10417000032398BF9A6909F03BFA0E4B01221C46B3
:104180001A70284609F0B4F860B1DAF8003033B19B
:10419000FFF782FC0023237069B0BDE8F08F322066
:1041A00021F09EFB002021F09BFBEAE7B4F9030815
:1041B000F5DD0708E0CC02203B4A1368196988073F
:1041C00008D5D968890705D56FF002011961996989
:1041D000002111761969480708D5D968490705D51E
:1041E0006FF00401196199690021117619690807B6
:1041F00008D5D968090705D56FF008011961D96993
:10420000002111761969C80608D5D968C90605D5EF
:104210006FF010011961D969002111761A69D2076E
:1042200005D5DA68D00702D56FF001021A611A6964
:10423000110605D5DA68120602D56FF080021A6100
:104240001A69D00505D5DA68110602D56FF080022B
:104250001A611A69520605D5DA68500602D56FF060
:1042600040021A611A69910605D5DA68920602D5EC
:104270006FF020021A610D4B1B68A3B10C4B1B7829
:10428000012B0C4B04D15A6982F004025A61704729
:104290004FF480229A61084B5A6A00225A62074AF8
:1042A000138801331380704788850020088500201B
:1042B0001CBD022000200240000C0040148700209A
:1042C00000220B4B1A600B4B1B68DA6822F00102CC
:1042D000DA6041F21112196A0A4042B9196A40F2D1
:1042E00044420A401AB91A6822F001021A60704763
:1042F0000885002088850020064B1B68DA6842F09C
:104300000102DA601A6842F001021A600122024BCF
:104310001A60704788850020088500207FB5012637
:1043200004462A4B00251E701AF0B0F9002C00FA42
:1043300006F3274A08BF344607EE103A1560A0423C
:10434000B8EE477A234A28BF2046234C116C07EE6B
:10435000900A4FF080403143F8EE677A1164211DD6
:10436000126CC7EE276A206032402561A560039277
:10437000039A6561FCEEE67A17EE903A1B0C9A19E7
:10438000636094F83930022307EE102A84F839303C
:10439000B8EEC77AC6EE877AB7EE007A77EEC77ABC
:1043A000FCEEE77ACDED017ABDF80420E26019F069
:1043B000A1FA2A4603211C2084F8396027F0B8FBB3
:1043C0004FF08052054B1A6004B070BD1CBD022036
:1043D00008850020003802408885002000E100E0C8
:1043E000714C0025714EA2462DE98048BBB0B34602
:1043F00014F070FA256014F06DFA14F06BFA4FF4B3
:104400007A737068B0FBF3F00CF080F9012323603D
:1044100015F0AAFEADF83450ADF83650644A65493F
:104420000D9814F045FF06F010FB06460028FAD15F
:10443000614C4FF0FF35614809F062F922223146A4
:10444000204628F09EFB1B2321465C48A3700123D5
:10445000E670237163715A4B6574C4F806307F238C
:104460006575A373E37323744023A374E374237506
:1044700009F07AF8514808F0DDFF524C05F0F8FCDD
:1044800014F070FA092301943246009329464FF440
:10449000D2733046FDF71CFD62230894069314F096
:1044A000C5F8069B0133642B06934EDD464B1B6813
:1044B000012B48D0454B464E1B68464C43B1304615
:1044C00024AA454925F0E8F8204605F00FFD06E04E
:1044D000414807F041FDDBF8D430306023602168AB
:1044E00042F2107364252AAC40F201183B4F20467B
:1044F000B1FBF3F203FB1211B1FBF5F305FB131152
:10450000009137492FF0C6FA0194CDF80080DC23E2
:10451000344A00203968FDF7DBFC33682E49204619
:10452000B3FBF5F2097805FB123300912E492FF009
:10453000B1FA0194CDF8008040F23113294A0020ED
:104540003968FDF7C5FC002306930A2021F0C8F95D
:104550000FA806F0A1FA002801F018870F222349BE
:104560000F9806F055FA041EC1F210871CF05CFE8D
:1045700006F06BFA0028FBD10E2C01F2E186DFE891
:1045800014F00F00370027042B0492080307D30709
:10459000430652088E0856084C0850084808BB0CC1
:1045A0000EF026FE01F0CCBE148A0320188A0320E8
:1045B0003602020034180408E8850020C485002073
:1045C0007C1F0608941F060810870020188700200B
:1045D0006CB602209CB60220C9B602206C6704208B
:1045E000991F0608404040FFAA1F0608481E0608FB
:1045F0000126B34D0024DFF854832E60CAF8006012
:1046000015F0B2FDAF4BB04F1C60B04BDFF84093DC
:104610001C60AF4B1C6014F05DF9DBF8A8214FF46F
:104620007A70AC4B1A60DBF8AC21AB4B1A60AB4B29
:104630001C60AB4B1C60AB4B1C60DBF80430B3FB65
:10464000F0F0C8F800300CF061F82B683868CAF850
:10465000003015F0BFFCA44B3046A44901936423FD
:104660000093782309683A68FDF732FC4FF4FA703A
:1046700021F036F99E4A9F4B40F68840146009921B
:104680001C60C9F8004029F0FFFE9B4B07901860A2
:1046900040F6884029F0F8FE984B994C186040F697
:1046A0008840049329F0F0FE07992060304620F0FE
:1046B000F5F8049B08B9099A16601968022020F0E1
:1046C000EDF810B901238B4A13602168032020F014
:1046D000E5F810B90123C9F800301FF0E3FEDBF85C
:1046E0000430884A93420DD9874AD2F880209342F9
:1046F00008D86421B3FBF1F201FB123212B9C8F8F9
:10470000003009E0814BC8F80030CBF804300A23B0
:10471000CBF80830FEF728FFDBF808307C4A1D2B69
:1047200001DC137005E00A231370774A9360FEF7EB
:104730001BFFDBF89021774B774C1A700022774BE8
:1047400020681A7018B97649FDF70EFB2060754B8A
:104750001C68002C7ED1012040F2DF160AF0DCFF3D
:10476000714B4FF07F426FF47F4101931423204639
:104770000093A023FDF7ACFB6C4B4FF07F426FF42E
:104780007F4101938C2320460093A023FDF7A0FBDB
:10479000674B4FF07F426FF47F410193D223204655
:1047A0000093A023FDF794FB3B23ADF86440ADF8E4
:1047B0006230ADF86640ADF860605E4A18991998AD
:1047C00015F080F850235B4AADF85C303C23ADF81F
:1047D0005E304FF4C8731798ADF85830B423ADF875
:1047E0005A30169915F06EF83323524AADF854300A
:1047F000CD23ADF8563040F2C3131598ADF85030C4
:10480000EB23ADF85230149915F05CF8F023ADF8B5
:104810004C40ADF84E3040F20F13ADF84860ADF8A3
:104820004A30444A1299139815F04CF80123414A32
:10483000ADF844305A23ADF8463032231198ADF824
:104840004030E923ADF84230109915F03BF83A4B6F
:104850001C6001E017F0C0FE384808F051FF3849ED
:10486000364808F081FE354808F0E4FD20F0C2F833
:1048700006F0EBF80028FBD02B6800243868B3FA68
:1048800083F3DFED308A5B09CAF8003015F0A2FB34
:104890002B683868CAF8003015F09CFB2A4D0020C0
:1048A00021F01EF8284606F0F7F82946002800F007
:1048B00012816B883B2B4DD820F04CF8D5E000BF1F
:1048C000C4CC022080B70220F05B0420BCCC0220C4
:1048D00090BF022098BF022070B702205CB7022070
:1048E000BCBF0220CCCC0220BB1F060814670420EA
:1048F0009CBF0220ACBF0220B0BF022088BF0220B4
:1049000094BF02209F860100188A0320809FD50053
:104910001583002010860020A4BF0220A8BF02201B
:10492000CF1F0608D4CC0220E01F0608FD1F060892
:104930001D2006080000FFFF64B70220B8CC02204B
:10494000B01C0608000000002AC002202C830020B2
:10495000B4BF0220BD2B1CD82A883D3AB2F5A97FEE
:1049600017D81FF0E3FCA44B00221A60A34B1B686E
:10497000012B0AD14FF45C70FFF7D0FCFFF7BCFCB1
:10498000642020F0ADFFFFF79BFCC82020F0A8FFBB
:104990006BE0A3F1CE021C2A0BD80A88322A08D970
:1049A000974B333A01241A60934B1C60954B1C6063
:1049B0005BE00A882C2A58D8A3F15D02232A13D879
:1049C0008F4D914C2B68002B45D001228A4B8F4E86
:1049D0001A6000228E4B1A603368012B01D10AF055
:1049E00087FD2B68013B16E0843B232B3CD8844D8C
:1049F000854C2B68B3F5C87F2DD201227E4B834EA8
:104A00001A600022824B1A603368012B01D10AF030
:104A10006FFD2B6801332B600AF06AFD01233360C0
:104A20007C4B1B78052B06D1DBF86C30012B02D1B7
:104A30000AF08CFD01E00AF02FFC774808F0FAFC40
:104A400023685A1C042B226002D8642020F048FFFF
:104A5000012020F045FF24680022704B042C1A60CE
:104A60008CBF0024012400E001246B4808F040FCC6
:104A7000F0B16B4B1A78DAB100221A7005F0E5FF3D
:104A800004460028FAD1654B1860642020F028FF06
:104A9000644B186829F000FD634B186829F0FCFC92
:104AA000624B186829F0F8FC614B1C7001F048BC9F
:104AB000524B1B68012B14D194B14FF45C70FFF77B
:104AC0002DFCFFF719FC642020F00AFFFFF7F8FB2C
:104AD0004C4B1C6004E04C4B1860564B186000E0D7
:104AE00000244E4B1B6813B9534A136060E1DAF897
:104AF0000030524AB3FA83F3DFF860815B09136038
:104B0000DBF84C20CAF800304D4B0AB91D6809E0AB
:104B100098F800104B4A1D684FF4FA7352F82120A0
:104B200003FB1255012300260027DFF818911A46CF
:104B300019462846FEF728F998F800304FF47A70A5
:104B40004FF4C87259F82330A3FB000100FB07F3B0
:104B500006FB0133A0FB060119440023FCF7A2F970
:104B600001222818DBF83C30114608BF1046FEF73A
:104B70000BF9354BD3ED007A93ED017AF4EE677AB9
:104B8000F1EE10FA08D6F0EEE76A9FED306AF4EE27
:104B9000466AF1EE10FA03DDF0EE687AE7EE287A65
:104BA000B4EE477AF1EE10FA08D6F0EEC76A9FED40
:104BB000276AF4EE466AF1EE10FA03DD77EEA87A82
:104BC0009FED237A234B06F01F0203EBC603C3EDD0
:104BD000007A83ED017A0023134341D01E4B1A78EB
:104BE0000023B6184FF4C8725F410023BB4208BFD0
:104BF000B242A1D239E000BF5CB702203CBD022026
:104C0000C082002090BF02202086002080B70220B2
:104C100070B70220A8BF0220B8CC0220BCCC022072
:104C2000C0CC0220B0BF022088BF022094BF022067
:104C3000E0CC0220EC5B0420CCCC0220C4CC0220CF
:104C40002C830020201B0908D4830020FFFF7F7FD6
:104C50000000000030C002201086002015830020D4
:104C60002AA805F019FF0028B8D000200025FDF77C
:104C700085FD0122A24BDFF8F4921A600022002386
:104C8000CDE904239F4B002793F800803B465FFA51
:104C900088F6DDE904013246FCF704F9002A63D006
:104CA0009FED991ADDE90401B94208EB050708BF39
:104CB000B042A5EB02062FBFC8EB0508334605EB53
:104CC0004808BE1A26BFC2EB0803BF1AC2EB08078A
:104CD00009EBC302079392ED000AD2ED010A05F039
:104CE0007DFA9FED891A09EBC602F0EE409AB0EE0C
:104CF000609A92ED000AD2ED010A05F06FFA9FED7D
:104D0000821A09EBC702F0EE40AAB0EE60AA92ED5B
:104D1000000AD2ED010A05F061FA07EE905A079BEE
:104D2000B0EE402AF8EEE74A07EE907AF0EE602AFD
:104D3000B8EEE74A07EE906AB0EE6A1AF8EEE73A84
:104D400007EE903AF0EE4A1AB8EEE73AB0EE690A8A
:104D5000F0EE490A05F056FB25F0E2F809EBC50331
:104D600083ED000AC3ED010A0135DDE904230132B8
:104D700043F10003CDE9042340F291139D4281D118
:104D8000624B53F8040B1B901868614B1A901A6819
:104D90001A991B9815F07CF917F01EFC01225D4B47
:104DA0001A6000225C4B1A6047F230525B4B1A606B
:104DB000594D2B682BB117F00FFC1FF01BFE002381
:104DC0002B6015F0D1F9564B1A68564B1A7065E5F1
:104DD0001FF0EAFE01F0B4BA534A0124534B0025F8
:104DE000DBF80C001A60FBF79FFC43A3D3E9002318
:104DF000FBF73AFEFCF706F84D4B18604D4B1C7064
:104E00004D4B1D600EF0D2F94C4B1D7013F062FD3E
:104E10003F4D286815F0DEF8494B4A49204601937A
:104E20002823009378232A680968FDF751F84FF486
:104E30007A7020F055FD05F008FE04460028FAD1EE
:104E4000022026460BF010F93F4808F059FC3F4B72
:104E500001223F491C603F4B3B481A6008F084FB2D
:104E6000394808F0E7FA9FED3C9A0FF001FB4FF448
:104E7000DC703A4B1860FFF751FAFFF73DFA354DF9
:104E8000002020F02DFDDFF8B090D5F80080B0456F
:104E900003D1D9F80030012B07D10023C9F8003025
:104EA000B8F1000F01D1FFF70BFA2D4E304605F097
:104EB000F3FD00285CD0728831882A4815F082F909
:104EC000012855D1284B1A7832B1002202201A70DD
:104ED0000BF0CAF8FEF748FB184B1A78012A47D1A5
:104EE000002028601870FDF749FCFFF7E9F901F090
:104EF00027BA00BFAFF300800000000080842E417D
:104F0000D4CC02201086002000004842D03E030886
:104F1000F05B0420CCCC022090BF0220CC82002089
:104F2000BCCC0220E0CC022020A10700508200204F
:104F3000CCB5022027B30220C4B40220C0B40220A2
:104F40003A2006081467042028860020BCB40220FA
:104F5000F7220608FC8600200000000060B5022051
:104F6000E0850020941604083CB5022030C00220E1
:104F70000134F0EE009AB0EE08AA042C40F29280C0
:104F8000914B1868FBF7F2FB8BA3D3E90023FBF7E7
:104F900041FCFBF717FF0122DBF838301146FDF723
:104FA000F3FE8A4BD3ED010A93ED000AFDF71AFCDC
:104FB00079EE408A10EE100AB0EE408AF5EEC08A13
:104FC000F1EE10FA48BFF1EE688AFBF7CFFB04461A
:104FD0000D4618EE900AFBF7C9FB06460F46204621
:104FE000294677A3D3E90023FBF714FC02460B46BE
:104FF00030463946FBF79EFE00284FD0744F012300
:10500000744E3A68C9F800308AB93360724B1B7825
:10501000022B07D1B4EEE98AF1EE10FA07DD002386
:10502000336004E0032B02D1B4EECA8AF4E70DF139
:10503000A80922462B4669494846C8252EF02AFD74
:105040004FF04603664CADF88E304FF4EB73ADF87D
:105050008C50ADF888307D232268ADF88A302299D3
:10506000239815F015F846235E49012000932B463E
:10507000CDF8049022680968FCF72AFF3368012BF9
:1050800008D13B6833B9584B1868FFF747F9FFF769
:1050900033F901E0FFF714F9B0EE489A0024052037
:1050A00020F01EFCB0EE480ADFED508A2AF040FAEC
:1050B00010EE100AFBF75AFB00224D4B40F2DF15B1
:1050C000FBF7A8FB00224B4BFBF7F2F9FBF79AFE2C
:1050D00000EE100A2AF02CFA60EE288A18EE900AE8
:1050E000FBF744FB0022444BFBF794FB0022434BAD
:1050F000FBF7DCF9FBF766FE68EE8A7A3A4B18603C
:1051000017EE900AFBF732FB00223D4BFBF7CEF97E
:10511000FBF758FEB4EEE98A854228BF0546F1EE5A
:1051200010FA0AD4F0EE087A364EB4EEE78AF1EEC1
:1051300010FA48BF6FF0FF0601E04FF0FF264FF076
:1051400000031FFA85F974270135ADF88430A023D8
:10515000ADF88090ADF88230224BADF886701A68B9
:105160002099219814F094FF4FF00003ADF8789047
:105170004FF0CD09ADF87C30A123ADF87A903246DE
:10518000ADF87E3046461E991F9814F081FF40F21C
:10519000DF13ADF87450ADF87030114BADF8767088
:1051A000ADF872901A681C991D9814F071FF0A20CE
:1051B00020F096FB63E600BF0000000080842E41D3
:1051C0007B14AE47E17A843FCCB50220D483002023
:1051D000BCB40220FC86002027B30220442006082D
:1051E000F05B04201467042060B5022000004843EF
:1051F00000002440000014400000184000406F40B0
:10520000000079400000FFFF0024A44EDFF8108367
:10521000346013F05FFB4FF48050DFF8089329F0FF
:1052200033F99F4B18604FF4805029F02DF9C8F8DE
:1052300000004FF4805029F027F9C9F800004FF41E
:10524000805029F021F9974B18604FF07F40964B22
:105250001C600123CAF800301EF06AFD14F084FFC0
:1052600005F0F3FB04460028FAD10125CAF8000036
:105270004FF07F40F0271EF05BFD4FF07F40CAF8F3
:1052800000501EF055FD14F06FFF884B4FF07F4229
:105290006FF47F41019320462B460094FCF718FEE3
:1052A000834B84494FF07F42019328460097234661
:1052B0000968FCF70DFE804B4FF07F424FF0FF3145
:1052C000019328465F230097FCF702FE7B4B4FF0CB
:1052D0007F424FF0FF3101932846D4230097FCF71B
:1052E000F7FD774B4FF07F424FF0FF310193284697
:1052F0004FF4A0730097FCF7EBFD724B4FF0FF31BA
:105300004FF07F420193FA23204600934FF4D47369
:10531000FCF7DEFD6C4BDBF88C206C481A60FCF768
:105320009DFC10F075FD6A4B1B682BB110F0DCFB87
:1053300010F064FE10F088FE5B4C2AA805F0ACFB70
:10534000E8B1BDF8AA20BDF8A810604814F03AFFF3
:105350003368ABB10020FDF711FA142020F0C0FA39
:105360004F4B186829F098F8D8F8000029F094F805
:10537000D9F8000029F090F84A4B18686CE02060DA
:10538000142020F0ADFAD8E70122524B4FF4806090
:10539000514F1A6029F078F8504A514B514C1A601D
:1053A000514A524B38601A600722514B1A70002341
:1053B000DBF84C2023604F4B12B940F6AC5201E0B1
:1053C00040F67462DFF83C911A60FEF769F913F059
:1053D00081FA494BDFF844815B6898470023474ACC
:1053E000474D1360474A484E1360484AD8F80000BA
:1053F00013602B60336014F0EDFD454B01204549EF
:105400000193142300937823D8F800200968FCF74F
:105410005FFD4FF4167020F063FA2AA808F070F9C7
:105420003D492AA808F0A0F82AA808F003F805F0DA
:105430000CFB0028FBD14FF000082AA807F058FF0A
:1054400010B1322020F04CFA3368012B08D105F05E
:10545000FCFA0028FBD1386829F01EF800F070BF74
:10546000D9F80030012B04D105F0EFFA0028FBD168
:10547000AFE72B68012B0DD12368012B0AD108F16E
:105480000108B8F1130F05DD26F0FEFE0130D2D081
:105490004FF00008322020F023FACEE740B7022078
:1054A00034B602200CB60220E4B5022050200608D3
:1054B0007F2006086C6704208720060890200608D5
:1054C000972006089E20060844B70220C01B060845
:1054D00028B602201CB602206843042060823B00EC
:1054E00038B602203CB60220E0673500F0B5022055
:1054F00018B60220E8B50220F4B5022024B6022036
:1055000054B60220246804202868042048B60220EB
:10551000A820060814670420A1230608F05B0420D5
:1055200008B60220E0B50220894A0023894C117890
:10553000236009B90C211170874A884D1360884A8D
:10554000884E137013F0C6F9286814F043FD864B9B
:10555000012001930A23009396232A683168FCF7FF
:10556000B7FC824B01200193B423009300232A68E7
:105570003168FCF7ADFC4FF47A7020F0B1F905F01A
:1055800064FA0028FBD1DBF80C304FF47A72032068
:10559000B3FBF2F3764A13600AF066FD754808F033
:1055A000AFF87549734807F0DFFF724807F042FF14
:1055B00005F04BFA0028FBD1704D664E6F4805F0A0
:1055C0006BFA10B32B88452B06D86B88E62B03D9D2
:1055D0001BF02AFE00F0B4BE236813B9654807F03B
:1055E00087FE2368032B10D16248002708F088F853
:1055F0006149604807F0B8FF5E4807F01BFF5D484F
:10560000376007F075FE00B13760052020F068F9BB
:10561000D4E707F061F800F093BE06F079F800F0E7
:105620008FBE06F003FD0FF06FFB00F089BE05F0A2
:105630000CFA0028FBD1524B524C18704FF07F40AF
:105640001EF076FB504808F05BF850494E4807F0D2
:105650008BFF4D4807F0EEFE13F084F912F0E6FFE1
:10566000002020F03DF9484807F042FE98B10020A4
:1056700020F036F94FF07F401EF05AFB424807F009
:10568000D9FE238823B100223E4B1A8000F058BE79
:10569000322020F025F9002020F022F9DEE705F085
:1056A00027FA00F04DBE0025394BDFF810814FF48A
:1056B000D260384F01261D603D6028F0E5FEC8F835
:1056C00000004FF4D26028F0DFFE334C334B2660ED
:1056D0001860CAF8006014F047FD314B1D6013F0EC
:1056E000F9F81E4D286814F075FC2E4B1D49304604
:1056F000019364230093AA232A680968FCF7E8FB56
:105700004FF47A7020F0ECF8CDF8248005F09DF984
:105710000028FBD1244B1860244B1B68002B00F0A1
:105720006887234B1B68022B40F06387DBF8E4009B
:10573000204AA0F5C333A03B93421F4B40D86421BD
:10574000B0FBF1F201FB1202D2BB18603AE000BFDD
:10575000158300206C8F0020788F0020F05B0420E0
:10576000C0CC022014670420C1200608CE20060801
:10577000848F002018860020381F06082AC00220C7
:10578000A0B6022088B60220DC8500206A1A06082E
:1057900014860020E485002030B702202CB70220B8
:1057A0003CB70220F320060848B7022040BD022083
:1057B000108A0320605AF405E083002050B70220CD
:1057C0009E4A1A601B68CBF8E430FDF7CDFE15F059
:1057D0005BFCDBF8E8209A4B1A70DBF89421994BBC
:1057E0001A7024F0C1FF15F0EDFE15F0C9FE05F0AA
:1057F0002CF90028FBD00122934B28681A602368FB
:1058000013441340CAF8003014F0E4FB24F0ACFF5A
:105810002368CAF8003000233B608C4C002020F045
:105820005FF8204605F038F9002800F0358120683F
:105830000B2224882790ADF89C408549279805F0D5
:10584000E7F8844B0828186008DC1BF0EDFC05F035
:10585000FCF80028FBD1642020F042F87D4B7E4903
:105860001B68082B42D10C6804BB01237B4D0B60E5
:1058700028467B4B7B491B68CAF80030714B1A786D
:105880002EF008F93223784A4FF07F4120468DE808
:105890003000FCF71DFB15F095FE714B1B680133C2
:1058A00003F00103CAF80030019507E06B4B0024B8
:1058B00018460C606D492EF03DF9019032236A4A7A
:1058C0004FF07F4100942046FCF702FB15F07AFE72
:1058D000624B0020644A01934FF07F4132230090D5
:1058E000FCF7F6FA5C4B1A68574B3FE00A685648DB
:1058F00002600A2B00F29780DFE803F0060E1D3AE3
:105900005454588495090C000122594B2EE04FF055
:10591000FF3086E0012084E00AB100230B60554B84
:105920004FF07F4250490120019364230093B42338
:10593000FCF7CEFA18E0504BD3ED007AF5EE407A42
:10594000F1EE10FA0BD017EE900AFAF70FFF4B4B5F
:105950000022FAF75FFFFBF735FA494B1860384A27
:1059600013780BB1013B13700122464B1A605AE0C9
:10597000414BD3ED007AF5EE407AF1EE10FA0BD000
:1059800017EE900AFAF7F2FE3C4B0022FAF742FFBC
:10599000FBF718FA3A4B1860294A1378132BE3D80F
:1059A0000133E0E704232B4A13603CE0364B1B68CD
:1059B00003B30AF0E1FF0BF093F803780446CBB190
:1059C0000BF054F8DBF87830204613B10BF0D4FA22
:1059D00001E00AF013FF2D4B4FF0FF312C4A00205D
:1059E0000193F0230093A523FCF772FA15F0EAFD6A
:1059F00015F0C6FD0122234B1A6015F0E3FD15F0EA
:105A0000BFFD10E0322C05D9B4F5E27F28BF4FF47A
:105A1000C87400E033241F4B6FF032001B68C01ABB
:105A2000204415F07BFD124B1B68012B00F05382C4
:105A3000054B1A68084B1A6032E000BF809FD50002
:105A4000DC830020688100202C8600203086002026
:105A5000841704082486002048B70220C885002047
:105A600030B70220012106080000FFFFD24E0708D0
:105A7000E4850020142106081CB7022000408F4056
:105A8000E0830020148600204CB702202421060861
:105A9000003C00FFB88200205C4B18605C4B186033
:105AA0005C4B1B68042B36D1DBF8E4304FF47A747E
:105AB0003AA8594E594D3146B3FBF4F340F8583DDE
:105AC0000AF030FB20B3249B5C43554B1C603378B9
:105AD000C5F8E4400024C5F8E830FDF745FD514D18
