:020000040800F2
:1000000000800020B1CB020837F60108C1030008C8
:1000100041F601083FF601083DF601080000000026
:100020000000000000000000000000003BF6010896
:1000300039F601080000000035F60108D5F5010881
:10004000C9010008CB010008CD010008CF0100085C
:10005000D1010008D3010008D5010008D70100082C
:10006000D9010008DB010008DD010008DF010008FC
:10007000E1010008E3010008E5010008E7010008CC
:10008000E9010008EB010008ED010008EF0100089C
:10009000F1010008F3010008F5010008F70100086C
:1000A000F9010008FB010008FD010008FF0100083C
:1000B000A941000803020008050200080702000821
:1000C000090200080B0200080D0200080F020008D8
:1000D00011020008ADCB0208150200081702000843
:1000E000190200081B0200081D0200081F02000878
:1000F0002102000823020008250200082702000848
:1001000029020008397B02082D0200082F0200088E
:1001100031020008330200083502000837020008E7
:10012000390200083B0200083D020008217B02085A
:10013000C9F501084302000845020008470200080B
:10014000490200084B0200084D0200084F02000857
:10015000510200082D7B0208BDF50108A9CB020859
:10016000590200085B0200085D0200085F020008F7
:1001700061020008D9E901086502000800000000DA
:1001800067020008690200086B0200086D0200089F
:100190006F0200087102000873020008750200086F
:1001A00077020008790200087B0200087D0200083F
:1001B0007F0200088102000883020008850200080F
:1001C0008702000889020008FEE7FEE7FEE7FEE777
:1001D000FEE7FEE7FEE7FEE7FEE7FEE7FEE7FEE7F7
:1001E000FEE7FEE7FEE7FEE7FEE7FEE7FEE7FEE7E7
:1001F000FEE7FEE7FEE7FEE7FEE7FEE7FEE7FEE7D7
:10020000FEE7FEE7FEE7FEE7FEE7FEE7FEE7FEE7C6
:10021000FEE7FEE7FEE7FEE7FEE7FEE7FEE7FEE7B6
:10022000FEE7FEE7FEE7FEE7FEE7FEE7FEE7FEE7A6
:10023000FEE7FEE7FEE7FEE7FEE7FEE7FEE7FEE796
:10024000FEE7FEE7FEE7FEE7FEE7FEE7FEE7FEE786
:10025000FEE7FEE7FEE7FEE7FEE7FEE7FEE7FEE776
:10026000FEE7FEE7FEE7FEE7FEE7FEE7FEE7FEE766
:10027000FEE7FEE7FEE7FEE7FEE7FEE7FEE7FEE756
:0C028000FEE7FEE7FEE7FEE7FEE70000F9
:1002900010B5054C237833B9044B13B10448AFF3C0
:1002A00000800123237010BDE084002000000000C6
:1002B000943F0308084B10B51BB108490848AFF339
:1002C00000800848036803B910BD074B002BFBD022
:1002D000BDE81040184700BF00000000E484002083
:1002E000943F0308D4840020000000004B1C012B25
:1002F00098BF70472DE9F003911C9B08B1F804806A
:10030000B1F802900A8831F802CC8044814402445A
:100310008444D9F80070D8F800601568DCF8004013
:10032000C9F80060C8F80070CCF800501460D9F823
:100330000470D8F804605568DCF80440C9F804601B
:10034000C8F80470CCF8045054600831013BD5D192
:10035000BDE8F00370474B1C012B98BF70472DE997
:10036000F003911C9B08B1F80480B1F802900A8850
:1003700031F802CC00EB580800EB590900EB5202AF
:1003800000EB5C0CD9F80070D8F800601568DCF858
:100390000040C9F80060C8F80070CCF80050146044
:1003A0000831013BDFD1BDE8F0037047EC2B0908B1
:1003B00000800020D4840020E08400205C680420B9
:1003C0001EF0040F0CBFEFF30880EFF30980816982
:1003D000FEE700BF034613F8012B002AFBD1181AD1
:1003E000013870470000000000000000000000001D
:1003F00001F0FF01102A2BDB10F0070F08D010F8D6
:10040000013B013A8B422DD010F0070F42B3F6D1D9
:10041000F0B441EA012141EA014122F007047FF0F2
:1004200000070023F0E80256083C85EA010586EA49
:10043000010685FA47F5A3FA87F586FA47F6A5FA85
:1004400087F68EB9EED1F0BC01F0FF0102F0070291
:1004500032B110F8013B013A83EA010313B1F8D13C
:100460000020704701387047002D06BF354603381D
:10047000073815F0010F07D1013015F4807F02BF56
:10048000013015F4C03F0130F0BC0138704700BFA7
:1004900010F8012B11F8013B012A28BF9A42F7D02E
:1004A000D01A704781F0004102E000BF83F00043A2
:1004B00030B54FEA41044FEA430594EA050F08BFFF
:1004C00090EA020F1FBF54EA000C55EA020C7FEAC3
:1004D000645C7FEA655C00F0E2804FEA5454D4EB40
:1004E0005555B8BF6D420CDD2C4480EA020281EA0A
:1004F000030382EA000083EA010180EA020281EA42
:100500000303362D88BF30BD11F0004F4FEA013193
:100510004FF4801C4CEA113102D0404261EB4101A2
:1005200013F0004F4FEA03334CEA133302D0524228
:1005300063EB430394EA050F00F0A780A4F10104E4
:10054000D5F1200E0DDB02FA0EFC22FA05F280181E
:1005500041F1000103FA0EF2801843FA05F3594104
:100560000EE0A5F120050EF1200E012A03FA0EFC83
:1005700028BF4CF0020C43FA05F3C01851EBE371AD
:1005800001F0004507D54FF0000EDCF1000C7EEBCA
:1005900000006EEB0101B1F5801F1BD3B1F5001F08
:1005A0000CD349085FEA30004FEA3C0C04F1010427
:1005B0004FEA445212F5800F80F09A80BCF1004F50
:1005C00008BF5FEA500C50F1000041EB045141EAD2
:1005D000050130BD5FEA4C0C404141EB010111F4D3
:1005E000801FA4F10104E9D191F0000F04BF01467E
:1005F0000020B1FA81F308BF2033A3F10B03B3F15C
:1006000020020CDA0C3208DD02F1140CC2F10C02EB
:1006100001FA0CF021FA02F10CE002F11402D8BF49
:10062000C2F1200C01FA02F120FA0CFCDCBF41EA15
:100630000C019040E41AA2BF01EB0451294330BDE4
:100640006FEA04041F3C1CDA0C340EDC04F11404C1
:10065000C4F1200220FA04F001FA02F340EA030098
:1006600021FA04F345EA030130BDC4F10C04C4F1DE
:10067000200220FA02F001FA04F340EA03002946BE
:1006800030BD21FA04F0294630BD94F0000F83F408
:10069000801306BF81F480110134013D4EE77FEAEB
:1006A000645C18BF7FEA655C29D094EA050F08BF37
:1006B00090EA020F05D054EA000C04BF1946104618
:1006C00030BD91EA030F1EBF0021002030BD5FEA5C
:1006D000545C05D14000494128BF41F0004130BD84
:1006E00014F580043CBF01F5801130BD01F00045D8
:1006F00045F0FE4141F470014FF0000030BD7FEA4B
:10070000645C1ABF194610467FEA655C1CBF0B4645
:10071000024650EA013406BF52EA033591EA030F5C
:1007200041F4002130BD00BF90F0000F04BF002154
:10073000704730B54FF4806404F132044FF0000587
:100740004FF0000150E700BF90F0000F04BF002100
:10075000704730B54FF4806404F1320410F0004566
:1007600048BF40424FF000013EE700BF42004FEA61
:10077000E2014FEA31014FEA02701FBF12F07F43DE
:1007800093F07F4F81F06051704792F0000F14BFDB
:1007900093F07F4F704730B54FF4607401F000451F
:1007A00021F0004120E700BF50EA010208BF704776
:1007B00030B54FF000050AE050EA010208BF70476B
:1007C00030B511F0004502D5404261EB41014FF4D4
:1007D000806404F132045FEA915C3FF4DCAE4FF0D8
:1007E00003025FEADC0C18BF03325FEADC0C18BFBF
:1007F000033202EBDC02C2F1200300FA03FC20FA10
:1008000002F001FA03FE40EA0E0021FA02F114445C
:10081000C1E600BF70B54FF0FF0C4CF4E06C1CEA71
:1008200011541DBF1CEA135594EA0C0F95EA0C0FE6
:1008300000F0DEF82C4481EA030621EA4C5123EA59
:100840004C5350EA013518BF52EA033541F4801188
:1008500043F4801338D0A0FB02CE4FF00005E1FB3B
:1008600002E506F00042E0FB03E54FF00006E1FB85
:1008700003569CF0000F18BF4EF0010EA4F1FF04C8
:10088000B6F5007F64F5407404D25FEA4E0E6D4108
:1008900046EB060642EAC62141EA55514FEAC52019
:1008A00040EA5E504FEACE2EB4F1FD0C88BFBCF595
:1008B000E06F1ED8BEF1004F08BF5FEA500E50F146
:1008C000000041EB045170BD06F0004646EA01010C
:1008D00040EA020081EA0301B4EB5C04C2BFD4EB3E
:1008E0000C0541EA045170BD41F480114FF0000E37
:1008F000013C00F3AB8014F1360FDEBF002001F0A5
:10090000004170BDC4F10004203C35DA0C341BDC1E
:1009100004F11404C4F1200500FA05F320FA04F0F0
:1009200001FA05F240EA020001F0004221F0004124
:1009300010EBD37021FA04F642EB06015EEA430E97
:1009400008BF20EAD37070BDC4F10C04C4F12005C7
:1009500000FA04F320FA05F001FA04F240EA02007A
:1009600001F0004110EBD37041F100015EEA430E4B
:1009700008BF20EAD37070BDC4F1200500FA05F26B
:100980004EEA020E20FA04F301FA05F243EA0203EA
:1009900021FA04F001F0004121FA04F220EA0200F9
:1009A00000EBD3705EEA430E08BF20EAD37070BD3F
:1009B00094F0000F0FD101F00046400041EB01011F
:1009C00011F4801F08BF013CF7D041EA060195F001
:1009D000000F18BF704703F00046520043EB0303BB
:1009E00013F4801F08BF013DF7D043EA06037047A8
:1009F00094EA0C0F0CEA135518BF95EA0C0F0CD0B3
:100A000050EA410618BF52EA4306D1D181EA0301F8
:100A100001F000414FF0000070BD50EA410606BFF2
:100A20001046194652EA430619D094EA0C0F02D137
:100A300050EA013613D195EA0C0F05D152EA03367C
:100A40001CBF104619460AD181EA030101F000419A
:100A500041F0FE4141F470014FF0000070BD41F0E3
:100A6000FE4141F4780170BD70B54FF0FF0C4CF4BD
:100A7000E06C1CEA11541DBF1CEA135594EA0C0FDC
:100A800095EA0C0F00F0A7F8A4EB050481EA030E29
:100A900052EA03354FEA013100F088804FEA033310
:100AA0004FF0805545EA131343EA12634FEA0222DE
:100AB00045EA111545EA10654FEA00260EF000419F
:100AC0009D4208BF964244F1FD0404F5407402D2F1
:100AD0005B084FEA3202B61A65EB03055B084FEA82
:100AE00032024FF480104FF4002CB6EB020E75EB7F
:100AF000030E22BFB61A754640EA0C005B084FEAA7
:100B00003202B6EB020E75EB030E22BFB61A754623
:100B100040EA5C005B084FEA3202B6EB020E75EB6E
:100B2000030E22BFB61A754640EA9C005B084FEAE6
:100B30003202B6EB020E75EB030E22BFB61A7546F3
:100B400040EADC0055EA060E18D04FEA051545EAE2
:100B500016754FEA06164FEAC30343EA52734FEA8B
:100B6000C2025FEA1C1CC0D111F4801F0BD141EA04
:100B700000014FF000004FF0004CB6E711F4801F69
:100B800004BF01430020B4F1FD0C88BFBCF5E06F49
:100B90003FF6AFAEB5EB030C04BFB6EB020C5FEA59
:100BA000500C50F1000041EB045170BD0EF0004EAE
:100BB0004EEA113114EB5C04C2BFD4EB0C0541EAE0
:100BC000045170BD41F480114FF0000E013C90E6DD
:100BD00045EA060E8DE60CEA135594EA0C0F08BFA1
:100BE00095EA0C0F3FF43BAF94EA0C0F0AD150EAA0
:100BF00001347FF434AF95EA0C0F7FF425AF104633
:100C000019462CE795EA0C0F06D152EA03353FF45A
:100C1000FDAE1046194622E750EA410618BF52EAD7
:100C200043067FF4C5AE50EA41047FF40DAF52EAAB
:100C300043057FF4EBAE12E74FF0FF3C06E000BF48
:100C40004FF0010C02E000BF4FF0010C4DF804CD55
:100C50004FEA410C7FEA6C5C4FEA430C18BF7FEA15
:100C60006C5C1BD001B050EA410C0CBF52EA430C43
:100C700091EA030F02BF90EA020F0020704710F1C3
:100C8000000F91EA030F58BF994208BF90422CBF52
:100C9000D8176FEAE37040F0010070474FEA410C4B
:100CA0007FEA6C5C02D150EA013C07D14FEA430C69
:100CB0007FEA6C5CD6D152EA033CD3D05DF8040BDA
:100CC000704700BF8446104662468C46194663460C
:100CD00000E000BF01B5FFF7B7FF002848BF10F1E3
:100CE000000F01BD4DF808EDFFF7F4FF0CBF012028
:100CF00000205DF808FB00BF4DF808EDFFF7EAFFA4
:100D000034BF012000205DF808FB00BF4DF808ED5E
:100D1000FFF7E0FF94BF012000205DF808FB00BF53
:100D20004DF808EDFFF7CEFF94BF012000205DF8DD
:100D300008FB00BF4DF808EDFFF7C4FF34BF0120EA
:100D400000205DF808FB00BF4FEA410C7FEA6C5CB5
:100D500002D150EA013C0AD14FEA430C7FEA6C5CB5
:100D600002D152EA033C02D14FF0000070474FF02D
:100D7000010070474FEA410212F5001215D211D559
:100D80006FF47873B3EB625212D94FEAC12343F088
:100D9000004343EA505311F0004F23FA02F018BF0A
:100DA000404270474FF00000704750EA013005D1D3
:100DB00011F0004008BF6FF0004070474FF0000096
:100DC000704700BF4A0011D212F5001211D20DD5A2
:100DD0006FF47873B3EB62520ED44FEAC12343F041
:100DE000004343EA505323FA02F070474FF00000EB
:100DF000704750EA013002D14FF0FF3070474FF09A
:100E0000000070474FEA4102B2F1E04324BFB3F55E
:100E1000001CDCF1FE5C0DD901F0004C4FEAC00271
:100E20004CEA5070B2F1004F40EB830008BF20F055
:100E30000100704711F0804F21D113F13872BCBF0F
:100E400001F00040704741F480114FEA5252C2F164
:100E50001802C2F1200C10FA0CF320FA02F018BFAD
:100E600040F001004FEAC1234FEAD32303FA0CFC00
:100E700040EA0C0023FA02F34FEA4303CCE77FEA8F
:100E8000625307D150EA01331EBF4FF0FE4040F4D9
:100E90004000704701F0004040F0FE4040F4000088
:100EA000704700BF53B94AB9002908BF00281CBFCA
:100EB0004FF0FF314FF0FF3000F088BCADF1080C6F
:100EC0006DE904CE00F010FBDDF804E0DDE902235B
:100ED00004B0704760EE016A60EEA17A84B0CDED97
:100EE000017ACDED006A61EE207ADDED006A9DEDBC
:100EF000016ACDED037A60EE215A76EEC67ACDED29
:100F0000025ADDED025A9DED035AF4EE677AF1EED6
:100F100010FA35EE857A05D1B0EE670AF0EE470A91
:100F200004B07047B4EE477AF1EE10FAF4D0B4EEA4
:100F3000400AF1EE10FA70EE404A05D1F4EE644A30
:100F4000F1EE10FA40F0CA80F4EE600AF1EE10FA09
:100F500070EEE04A05D1F4EE644AF1EE10FA40F08A
:100F6000FB800023B4EE411AF1EE10FA71EE414A13
:100F700005D1F4EE644AF1EE10FA40F09580F4EEFB
:100F8000611AF1EE10FA71EEE14A04D1F4EE644A0E
:100F9000F1EE10FA58D1002B47D1F4EE666AF1EE6B
:100FA00010FA76EEE64A04D1F4EE644AF1EE10FA55
:100FB00023D1B4EE466AF1EE10FA76EE466A04D119
:100FC000F4EE666AF1EE10FA17D1F4EE655AF1EE1E
:100FD00010FA75EEE56A04D1F4EE666AF1EE10FAE5
:100FE0000BD1B4EE455AF1EE10FA75EE456A93D185
:100FF000F4EE666AF1EE10FA8ED0B4EE400AF1EE2D
:1010000010FA40F0DF80F4EE600AF1EE10FA40F0E2
:10101000CC80B4EE411AF1EE10FA40F0B980F4EE53
:10102000611AF1EE10FA40F0A68061EEE07A20EE4F
:10103000817AE0EE017AA0EE217ADFED796A67EE3F
:10104000A67A27EE267A67E711EE103ADFED757A79
:101050009FED757A002BB4BFB0EE671AB0EE471A59
:10106000F7EE007A11EE903AF0EEE77A002BB4EE4C
:10107000400AB8BFF1EE677AF1EE10FAF0EE671AA7
:1010800040F0AD80F4EE600AF1EE10FACDD010EE33
:10109000903A9FED657ADFED637A002BB4BFF0EEF6
:1010A000670AF0EE470AC0E711EE103AFFEE007A49
:1010B000002BB7EE001AF4EE611AB8BFB0EE671A53
:1010C000F1EE10FA71EEE17A05D1F4EE677AF1EE05
:1010D00010FA40F09E80DFED547AC3E710EE103A2C
:1010E000FFEE004A002BB7EE000AF4EE600AB8BF2C
:1010F000B0EE640AF1EE10FA70EEE04A05D1F4EEBB
:10110000644AF1EE10FA40F08780DFED474A10EEB6
:10111000903AF0EEE44A002BB4EE411AB8BFF1EE7B
:10112000644AF1EE10FAF0EE640A65D1F4EE611A49
:10113000F1EE10FA08BF01233FF414AF11EE903A1C
:101140009FED394ADFED374A002BB4BFF0EE641A49
:10115000F0EE441A012305E710EE103ADFED314AB4
:101160009FED314A002BB4BFB0EE640AB0EE440AE2
:10117000F7EE004ACBE711EE903A9FED2B7ADFEDC8
:10118000297A002BB4BFF0EE671AF0EE471A4CE74D
:1011900011EE103A9FED247ADFED227A002BB4BFD6
:1011A000B0EE671AB0EE471A39E710EE903A9FEDAD
:1011B0001E7ADFED1C7A002BB4BFF0EE670AF0EE6A
:1011C000470A26E710EE103A9FED177ADFED157A01
:1011D000002BB4BFB0EE670AB0EE470A13E710EE7B
:1011E000103A9FED117ADFED0F7A002BB4BFB0EE0D
:1011F000670AB0EE470A45E711EE103A9FED0A4A3A
:10120000DFED084A002BB4BFB0EE641AB0EE441A0A
:101210008CE7F7EE007A25E7F7EE004A77E700BFA4
:101220000000807F0000008000000000B0EEC17A66
:10123000F0EEE17AB4EEE77AF1EE10FA1BD5C1EEEA
:10124000217AF0EE616AB0EE607AE1EE276AA7EEED
:10125000807AB0EE406A97EEA06AC7EE267A86EEF4
:10126000267AF4EE677AF1EE10FA1BD1B0EE670A37
:10127000F0EE470A7047C1EE817AF0EE416AB0EEB7
:10128000407AE1EEA76AA0EEA77AB0EE606AA0EE1F
:10129000676AC7EE267A86EE267AF4EE677AF1EE72
:1012A00010FAE3D0B4EE477AF1EE10FADED0B5EEE4
:1012B000401AF1EE10FA19D1F5EE401AF1EE10FADB
:1012C00014D1B4EE400AF1EE10FA40F0D38011EEE2
:1012D000103ADFED707A9FED707A002BB8BFB0EE58
:1012E000677A60EE077A20EE877ABFE770EE406A91
:1012F000B4EE400AF1EE10FAF4EE666A0CBF012378
:101300000023F1EE10FA03F0010308BF0023002BC5
:101310006DD1F4EE600AF1EE10FA30EEE06A04D11D
:10132000B4EE466AF1EE10FA61D131EE416AB4EEE4
:10133000411AF1EE10FAB4EE466A0CBF0123002305
:10134000F1EE10FA03F0010308BF002363B931EE98
:10135000E16AF4EE611AF1EE10FA87D1B4EE466A52
:10136000F1EE10FA82D00023F4EE666AF1EE10FA84
:101370007FF47CAF70EEE06AF4EE666AF1EE10FA8C
:101380007FF474AFDFED457A002BF7EE006A11EEC3
:10139000103A08BFF0EE676AF0EEE66A002BF4EE52
:1013A000611AB8BFF1EE666AF1EE10FA71EEE17AF9
:1013B00004D1F4EE677AF1EE10FA67D19FED377A37
:1013C00011EE903AB0EEC77A002BB8BFB1EE477A73
:1013D00060EE877A27EE407AE0EE267AA0EEA67AD3
:1013E000DFED2E6A67EEA67A27EE267A3EE731EE2B
:1013F000416AB4EE466AF1EE10FA98D131EEE16A34
:10140000B4EE466AF1EE10FAA3D1DFED247A002B98
:10141000F7EE006A10EE103A08BFF0EE676AF0EEE1
:10142000E66A002BF4EE600AB8BFF1EE666AF1EEF0
:1014300010FA70EEE07A04D1F4EE677AF1EE10FA69
:1014400021D19FED166A10EE903AB0EEC66A002BDD
:10145000B8BFB1EE466A26EEE17A61EE867AA1EE79
:10146000067AE1EE267ADFED0C6A67EEA67A27EEC1
:10147000267AFBE6F4EE600AF1EE10FA3FF427AFAD
:1014800070EE406A51E7B7EE006ADCE7B7EE007A2B
:1014900096E700BF000080FF0000807F0000000092
:1014A000D0B500220E4B06460F46FFF7B3F9FFF703
:1014B00089FC0446FFF738F900220A4BFFF7AAF926
:1014C00002460B4630463946FEF7F0FFFFF77AFC3E
:1014D0002346002242EA000210461946D0BD00BF52
:1014E0000000F03D0000F0412DE9F0478C460E462B
:1014F0000446089D002B50D18A4217466CD9B2FA97
:1015000082FEBEF1000F0BD0CEF1200420FA04F4CD
:1015100001FA0EF644EA060C02FA0EF700FA0EF48F
:101520004FEA1749220CBCFBF9F01FFA87F809FBB8
:1015300010C642EA064600FB08F3B34209D9F61981
:1015400000F1FF3280F02281B34240F21F81023865
:101550003E44F61AA2B2B6FBF9F309FB136642EA5F
:10156000064403FB08F8A04509D9E41903F1FF324A
:1015700080F00A81A04540F20781023B3C44C8EB61
:10158000040443EA00400021002D62D024FA0EF446
:1015900000232C606B60BDE8F0878B4207D9002DDB
:1015A00055D0002185E841000846BDE8F087B3FA30
:1015B00083F1002940F09080B34202D3824200F2CE
:1015C000F880841A66EB03060120B446002D40D053
:1015D00085E81010BDE8F08712B90127B7FBF2F7D4
:1015E000B7FA87FEBEF1000F35D1F31B4FEA17485B
:1015F0001FFA87FC0121B3FBF8F0220C08FB103620
:1016000042EA06460CFB00F3B34207D9F61900F193
:10161000FF3202D2B34200F2CE801046F61AA2B2D6
:10162000B6FBF8F308FB136642EA06440CFB03FC26
:10163000A44507D9E41903F1FF3202D2A44500F210
:10164000B5801346CCEB040443EA00409CE72946EE
:101650002846BDE8F087CEF1200106FA0EF307FA1E
:101660000EF720FA01F94FEA1748CE4049EA03097C
:10167000B6FBF8FA4FEA194408FB1A661FFA87FC12
:1016800044EA06430AFB0CF29A4200FA0EF40AD925
:10169000DB190AF1FF3180F087809A4240F28480A2
:1016A000AAF1020A3B449B1A1FFA89F9B3FBF8F12D
:1016B00008FB113349EA034301FB0CF69E4207D9AC
:1016C000DB1901F1FF326BD29E4269D902393B44EA
:1016D0009B1B41EA0A418EE7C1F1200E22FA0EF46B
:1016E0008B40234320FA0EF706FA01F44FEA134C1D
:1016F00026FA0EF63C43B6FBFCF9270C0CFB1966E8
:101700001FFA83F847EA064609FB08F7B74202FAD0
:1017100001F200FA01FA08D9F61809F1FF3041D2B6
:10172000B7423FD9A9F102091E44F61BA0B2B6FB8D
:10173000FCF40CFB146640EA064704FB08F8B845C5
:1017400007D9FF1804F1FF3028D2B84526D9023C4A
:101750001F4444EA0940C8EB0707A0FB02894F4534
:1017600044464E4614D329D065B3BAEB040367EB65
:10177000060707FA0EFECB40CF404EEA030385E88A
:1017800088000021BDE8F0871346F8E61046E0E641
:10179000B8EB020469EB03060138E5E70446D8E735
:1017A000114695E78146C0E78A467CE7023B3C4408
:1017B00048E708460AE702383E442FE7C245E7D328
:1017C0003E46D1E72946BDE8F08700BF704700BF1D
:1017D000A0F13003DBB2092B01D858B27047A0F159
:1017E0004103052B01D8373804E0A0F16103052B34
:1017F00002D8573840B270474FF0FF3070470000B2
:101800000122014B1A607047288C0020024B586F50
:10181000431E58425841704754AE0320024B586F44
:10182000431E58425841704754AE03202328F7B551
:101830004AD82822264B42439C18995C254A2569A0
:1018400052F8212001927DB1A6680021B1420BD04F
:10185000E7684FEA810E57F82170BA4202D155F875
:101860000E0032E00131F1E7282101FB0030037D59
:10187000072B29D8DFE803F0040B0C0E10111621FA
:10188000D3B2154915481A4632F078F913E092B2EE
:10189000134903E052B200E012B212490F4832F08D
:1018A0006DF908E01046FEF761FF02460B460B4853
:1018B0000D4932F063F9094807E0084B002201980E
:1018C0005A711860184600E0084803B0F0BD00BF28
:1018D000E4F8030854AE03206D6003080885002077
:1018E00078600308742109087B60030872E2070826
:1018F0002DE9F041214D2823214C2868A04643437F
:10190000232814F803E004EB03071E4B53F82E20A2
:101910001E4601D8B96809B9531E16E00023FF68B6
:1019200057F82340A2420CD12BB901F18041013973
:1019300057F8213009E003F18043013B57F8233089
:1019400003E001339942EBD13B6846F82E300E4B51
:101950001E680E4B1F68FFF769FF02463046394686
:101960000BF0D8FE2B682821094A01FB0384136879
:10197000616A0B441360BDE8F08100BF048500205C
:10198000E4F8030854AE0320308500203885002099
:10199000A08500202DE9F041204D2823204C286807
:1019A000204EA0464343232814F803E004EB03072A
:1019B00056F82E2001D8BB680BB9531C15E0002146
:1019C000FF6857F82140A24207D1013B8B4216BF66
:1019D00001313B6857F8213007E001318B42F0D1EB
:1019E00003F18043013B57F8233046F82E300E4B6D
:1019F0001E680E4B1F68FFF719FF02463046394636
:101A00000BF088FE2B682821094A01FB0384136828
:101A1000616A0B441360BDE8F08100BF04850020BB
:101A2000E4F8030854AE03203085002038850020F8
:101A3000A08500202DE9F041114E2825114C306879
:101A400005FB00F3E15C104B53F82120C83A43F842
:101A500021200E4B1F680E4BD3F80080FFF7E6FEE7
:101A60000246384641460BF055FE3268094905FBEF
:101A700002435A6A0B6813440B60BDE8F08100BF53
:101A800004850020E4F8030854AE032030850020CC
:101A900038850020A08500202DE9F041114E282531
:101AA000114C306805FB00F3E15C104B53F821202A
:101AB000C83243F821200E4B1F680E4BD3F800802C
:101AC000FFF7B4FE0246384641460BF023FE32686B
:101AD000094905FB02435A6A0B6813440B60BDE8D1
:101AE000F08100BF04850020E4F8030854AE032011
:101AF0003085002038850020A08500202DE9F8439E
:101B00002D4D28232D4C2F682D4E7B43DFF8D89088
:101B1000D6F80080E35C072B2A4B06D12A4A4046C0
:101B200019680BF0F7FD294A05E0294A4046196873
:101B30000BF0F0FD264AD9F8001040460BF0EAFD04
:101B4000232F244BD6F80080196894BF2823204AFD
:101B500040469CBF03FB07435A680BF0DBFD1E4B5E
:101B60003846D3F80090FFF761FE024640464946EA
:101B70000BF0D0FD2D68194B232D3668196894BFE2
:101B80002823134A30469CBF03FB05439A690BF098
:101B9000C1FD134B304619680BF0B0FD282303FB41
:101BA0000544104B247F1968447030460BF0A6FDA5
:101BB0004470BDE8F88300BF04850020E4F8030802
:101BC00030850020A48500207E600308896003081A
:101BD00072E207082C85002038850020FC84002054
:101BE0003C850020008500203485002070B50B4C1A
:101BF0000B4E254623682822013B232B88BF232335
:101C000023602B6802FB03631B6A1BB9BDE87040AD
:101C1000FFF774BF98470028ECD0F7E70485002051
:101C2000E4F8030870B50B4C0B4E254623682822B8
:101C30000133232B88BF002323602B6802FB03633F
:101C40001B6A1BB9BDE87040FFF758BF98470028D2
:101C5000ECD0F7E704850020E4F803081FB500F195
:101C60001404143454F8280C431C2AD054F8241CAF
:101C700019F012FA54F81C1C009054F8200C013989
:101C8000013819F009FA104A01460190009819F03C
:101C900079F954F8241C54F8280C0131013019F05A
:101CA000FBF954F81C1C029054F8200C023902383D
:101CB00019F0F2F9044A01460390029819F062F90A
:101CC000CFE704B010BD00BF969696FF01380428F8
:101CD0000FD8DFE800F00503080A0C002020704749
:101CE000054B18787047052070472D207047142049
:101CF00070471020704700BF7C1F090821B30138CE
:101D0000042804D8DFE800F0070C10141A000F4B69
:101D10000B60102315E00E4B0B600E4B1B780AE096
:101D20000D4B0B60202306E00C4B0B60052308E0F5
:101D30000B4B0B602D230B71022304E0094B0B604E
:101D400014230B7101234B71704700BF7896030871
:101D500024EB03087C1F09080C730308DC550308F7
:101D6000E8080408448A030837B500220C460092AC
:101D7000019289B16946FFF7C1FF00999DF80550AE
:101D8000104623784BB151F823301A7814F8013FEC
:101D9000104413B12844F4E7084603B030BD0000F6
:101DA0002DE9F04F8DB01E460023054603910AA988
:101DB0001446BDF858B00A930B93FFF79FFFAAB1E2
:101DC0005946304619F068F9179907902846FFF7E9
:101DD000CBFF9DF82C1030445944013919F05CF9BF
:101DE000224601460890079819F0B2FC0023179A82
:101DF0001278002A64D018998B4261D00A994FF06A
:101E0000340E51F822403049257808682F49771957
:101E10009DF82C200EFB0011B1F860108F424FDCB2
:101E20005A4404F101085F4692B20292029A974224
:101E30003AD02C46002C34D018F8012B22B9072CAC
:101E40002FD9083CE4B2F5E7082C21464FF00009F1
:101E50004FF0010A28BF08210091311989B2019180
:101E6000019901EB09000099494480B211F0FF0F7C
:101E7000E5D012EA0A0F0AD039460592049319F008
:101E80000BF90399099019F0B5F8059A049B09F12B
:101E9000FF394FEA4A0A19F1080F5FFA8AFADFD1CF
:101EA000CDE70137BFB2C1E71799013311F8012F10
:101EB00017912AB19DF82D2015442E44B6B296E70D
:101EC00018460DB0BDE8F08F00AE0320D4F6022016
:101ED0002DE9FF410B9C054698460E4620461746C5
:101EE000FEF778FABDF828303A463146009343466B
:101EF000029028460194FFF753FF04B0BDE8F0813B
:101F00002DE9FF410D4C98460CAB05460E46174691
:101F1000FF210B9A2046039331F0E0FE00233A465E
:101F2000314623542846BDF8283001940093434697
:101F3000FFF7CEFF04B0BDE8F08100BFCDF5022071
:101F40002DE9F0470A9E8846BDF824501C463146CC
:101F500007469146BDF820A0FFF706FF281A09960C
:101F60004A46A0420346CDF820A04146B8BF2346CA
:101F700038469BB2BDE8F047FFF7AABF30B585B041
:101F800000240D4602A902940394FFF7B7FE0D4BFF
:101F9000ADF80040342418680B4B9DF80C1004FB7E
:101FA00000331144ADF80220B3F860004008013856
:101FB00019F072F82A460146009819F0C9FB05B0DD
:101FC00030BD00BF00AE0320D4F60220064B13B58F
:101FD0001C7E01230191009221460246034822F013
:101FE0000FF9002002B010BD54AE0320608600201F
:101FF00004284FEA031373B512BFC901002101225F
:1020000003F0700308BF0C469DF818604FEA1225D4
:102010008DF801201EBFB1FBF2F402FB1411A4F5F0
:1020200000748DF800504FEA123218BF04EBC01450
:10203000042802F0F0028DF80710C4F301458DF872
:10204000044008BF45F00C051D43230A8DF80330FA
:10205000C1F303438DF802501A440B0A8DF8052092
:102060008DF806301EB96A4608212A200AE0012EA2
:1020700003D16A460821322004E0022E04D16A46C8
:1020800008213A20FFF7A2FF02B070BD08B5044B4B
:102090000A460146187E22F097F9002008BD00BFCD
:1020A00054AE032013B5C9018DF80120B1FBF2F441
:1020B00004EBC01002FB1411140AA0F50070120BFF
:1020C0008DF80040C0F301448DF8040002F0F002E6
:1020D0008DF807108DF80240040AC1F303408DF813
:1020E000034002448DF805200A0A08218DF80620D5
:1020F0006A4623B91A20FFF769FF202103E0222056
:10210000FFF764FF8021B120FFF7C0FF02B010BDD0
:10211000754B2DE9F04FDA6997B05E698A4616442F
:1021200041F68362904240F2C580D3F884309842F1
:1021300028BF18466D4B984240F29F806C4B9842E6
:1021400002D89FED657B01E09FED657B8DED047B03
:10215000FEF7EAFA04460D463046FEF7E5FA024677
:102160000B46204629460126FEF77EFCDDE90423C6
:10217000FEF750FB04460D4645EC104B2CF07CFD61
:1021800051EC100BFEF71EFE0E90FEF7CDFA024644
:102190000B46204629460024FEF788F9554B0022BD
:1021A000FEF738FBFFF77CF9002383468946CDE92B
:1021B00006344FF0FF336FF01044CDE902340024B1
:1021C0000123CDE9083400242746A0465846494655
:1021D000DDE90223FEF766FE05460A9158464946A8
:1021E000DDE90223FEF75EFE0F930A9BA6FB0501C5
:1021F0000C9206FB03FEDDE9062308FB05EE121830
:102200000A9871444B4107FB05F104FB001BA5FB39
:1022100004015944DDE908BC1BEB000B4CEB010C3D
:102220005846DFF8E4B061464FF0000C9C4508BF0B
:1022300093451ED34FF0000CDFF8D0B08C4508BF9B
:10224000834516D308940C9CDDF808B002940F9CCB
:10225000DDF80C90039409970696CDF81C80DDE913
:1022600002452C43044603D00F4616469846ADE778
:10227000164602964FF0000B03E143F608539842CE
:102280001AD947F61123984219D94FF2234398429D
:1022900018D9194B984218D9184B984218D9184B8D
:1022A000984235D9174B98428CBF4FF0000B4FF036
:1022B000010B2FE041F684604FF0070B2AE04FF04E
:1022C000060B27E04FF0050B24E04FF0040B21E054
:1022D0004FF0030B1EE000BF00000000000018409C
:1022E000000000000000104054AE03201F9DB40603
:1022F0007FD1F0080000DC4347E801008FD00300E5
:102300001FA107003F420F00FEFF0F00FFFF0F005D
:102310004FF0020B00FA0BF330464FF0FF396FF02D
:1023200010481593FEF700FA02460B460126CDE948
:102330001001BEA1D1E90001FEF796FB04460D464F
:1023400045EC104B2CF098FC51EC100BFEF73AFDCD
:102350000E90FEF7E9F902460B46CDE91201204640
:102360002946FEF7A3F8AC4B00220024FEF752FAF0
:10237000FFF796F8012307461491CDE904340024B1
:102380000023CDE9023400240C940F944A464346BE
:1023900038461499FEF786FD4A46054608913846A8
:1023A00043461499FEF77EFDA6FB0501CDE90A23FD
:1023B000089B0F9A734302FB05331944DDE902239E
:1023C00012184B41CDE90623089B04FB03F70C9B35
:1023D000DDE9040103FB0577A4FB052380183B44DA
:1023E0005941DDE90623CDE9080100218B489942D6
:1023F00008BF904221D300218948DDE90823994292
:1024000008BF904219D30F9D4F4604940C9CCDF801
:102410005080029603950594DDE90A0101430AD034
:10242000099BDDF828900C93079BDDF82C80089C15
:10243000069E0F93AAE7089C069E30460296FEF77A
:1024400073F906460F462046FEF76EF902460B4624
:1024500030463946FEF708FBDDE91223FEF728F87F
:10246000DDE91023FEF7D6F906460F461598FEF76C
:102470005BF902460B4630463946FEF7F5FACDE9E0
:1024800004010022674BDDE90401FEF72BFC064640
:10249000002840F0F1800022634BDDE90401FEF7E3
:1024A00021FC0546002840F0E08001269DED040B4C
:1024B0002CF0E2FB51EC100BFEF784FC0746FEF714
:1024C00033F902460B46DDE90401FDF7EFFF002278
:1024D000514BFEF79FF9FEF7E3FF01220023109016
:1024E00012910F951495CDE9042300230022CDE924
:1024F00006234FF0FF3308936FF010430A93089AB6
:102500000A9B10981299FEF7CDFC89468046089ADE
:102510000A9B10981299FEF7C5FC06FB09FE05FB05
:1025200009F9CDE90C23149BDDE9060103FB08EE54
:10253000A6FB082380187344594102460B460F99A5
:1025400001FB089EA5FB0889DDE90401F14410EBBD
:10255000080041EB09018046304889460021994234
:1025600008BF90421FD300212D48494508BF404570
:1025700019D30899069610910A9904951291149905
:1025800007910F990591DDE90C01014309D00C99E0
:102590004546CDF83C90164608910D9914930A9142
:1025A000ADE745461646BAF1000F0AD1042F69D0AF
:1025B000062F67D00F2110204FF00008FFF766FDAF
:1025C00014E0BAF1010F1BD127F00203042B0CBF5A
:1025D0006F212F2105E0BAF1010F2BD155460627B7
:1025E0006F214FF001081120FFF750FD5B46CDF839
:1025F00000802A4631463846FFF7FAFC43462CE075
:10260000BAF1020F49D127F00203042B0CBF4F216E
:102610000F2116E0AFF300800000DC43FEFF0F0047
:10262000FFFF0F0000001040000018400000008075
:1026300074D2CA410627BAF1020F2ED10125002615
:102640004F211220FFF722FD02232A463146009334
:1026500038465B46FFF7CCFC0023224602990E98D1
:1026600017B0BDE8F04FFFF71DBDBAF1000FB2D1B2
:1026700001255646062705E0BAF1000F04D10125D1
:10268000564604274F2196E7BAF1010F03D10026E1
:1026900055460427A4E70427CDE717B0BDE8F08F1F
:1026A00038B50B4B0C4605460321187E21F094FDEE
:1026B000012C15BF012104FA05F1A94020EA01010E
:1026C00018BF01430320C9B2BDE83840FFF7DEBCA4
:1026D00054AE032008B50221FFF71AFD01210220A4
:1026E000BDE80840FFF7DCBF08B50121FFF710FD8A
:1026F0000121BDE808400846FFF7D2BF08B5002118
:10270000FFF706FD01210020BDE80840FFF7C8BF24
:10271000002108B50846FFF7C3FF00210120FFF79D
:10272000BFFF00210220FFF7BBFF80211020FFF731
:10273000ADFC80211120FFF7A9FC80211220BDE80B
:102740000840FFF7A3BC00000A4A0346D2F88410F1
:1027500001EB41028242084A02D2D268052003E01E
:10276000884204D9D2680320B3FBF0F01047D36845
:10277000184700BF54AE0320306804202DE9F04113
:102780000546154C18B96368BDE8F0411847134B6E
:10279000A0F51C561A692F3E92B9D3F8843003EB8A
:1027A0004302904201D9052702E0984208D9032745
:1027B000A368B5FBF7F09847E368B6FBF7F003E0D2
:1027C000A3689847E36830469847054B00201D6092
:1027D000BDE8F04123F0C2B93068042054AE0320B4
:1027E00028840020DFED1D6A60EEA00AB4EE660AC0
:1027F00008B51B4BF1EE10FAD3ED097A4CBFB0EEE1
:10280000667AB0EE407AF8EE677AB0EE600A37EE9C
:10281000676A77EE277AA6EE060AE7EEA70ADFEDEB
:10282000117AF4EE660AF1EE10FA08BFF0EE670ACC
:1028300080EE200A2DF000F9DFED0B7AB4EE670A86
:10284000F1EE10FAC8BFB0EE670AF7EE007A30EE8C
:10285000277A37EEC00A87EE000A08BD00000000A4
:1028600054AE03206042A20D77BE7F3F08B50D4BEA
:1028700093ED000A2CF038FB0B4BD3ED007A0B4B99
:1028800093ED007A0A4B77EE877A93ED007A094B45
:1028900077EE877A27EE800AD3ED007A20EE270ABA
:1028A00008BD00BF7CB00320848100207880002018
:1028B000388100201484002008B50E4B93ED000AE7
:1028C0002CF0CAFA0C4BD3ED007A0C4B93ED007A46
:1028D0000B4B37EE877AD3ED007A0A4B77EE277AE7
:1028E00027EE800AD3ED007A90EE277AB0EE470A01
:1028F00008BD00BF7CB003208481002078800020C8
:10290000388100201484002008B5154BF5EE080A24
:10291000B2EE040A1A6CC2F16403632B97BF6FF026
:10292000EF03EF23534364229FBF03F5BB434033C0
:10293000B3FBF2F3DBB2C3F1EF0307EE903AF8EE2C
:10294000E77A67EEA07AF3EE040AC7EEA00A2CF04D
:10295000DFFE044BD3ED007A20EE270A08BD00BF4E
:1029600054AE03201084002008B5154BF5EE080A7C
:10297000B2EE040A1A6CC2F16403632B97BF6FF0C6
:10298000EF03EF23534364229FBF03F5BB43403360
:10299000B3FBF2F3DBB2C3F1EF0307EE903AF8EECC
:1029A000E77A67EEA07AF3EE040AC7EEA00A2CF0ED
:1029B000AFFE044BD3ED007A20EE270A08BD00BF1E
:1029C00054AE0320188400202D4B1B682D4B93F828
:1029D0007D20D2B2012A10B5C0B049D193F87C1045
:1029E000012945D083F87C20274A5A664FF4886233
:1029F000A3F86820A3F86A20222283F87D20002211
:102A0000C3F880201A681168C90303D4116841F41F
:102A1000803111601B4AB3F86A00196808B34C6929
:102A200014F4E02FFAD0586B402807D1906A38B9D7
:102A3000506EC969441C546601700CE0802805D8AA
:102A4000C869596E21F8020B596604E0C869516ED5
:102A500041F8040B5166B3F86A100139A3F86A1003
:102A6000D9E7012283F87C0083F87D2040B010BDB7
:102A700002220649684631F081F8684629F008FFCD
:102A800078B00320E0B702201CD90220946003082C
:102A900000292DE9F04F93462DED028B83B002DC27
:102AA0009FED3E0A74E0142905460246DFED3B7AAD
:102AB000A8BF142100230C460133B2EC017AA342D3
:102AC00077EE877AF8DB07EE104A042CB8EEC70AD7
:102AD00087EE808A5ADD00EB840A9FED307AF0ECB5
:102AE000017A824577EEC87AA7EEA77AF7D187EE0A
:102AF000000A2CF0A1FF18EE100A8DED010AFDF777
:102B000035FE9DED010A06460F4610EE100AFDF750
:102B10002DFE0022224BFDF77DFE02460B4680462D
:102B2000894630463946FDF7C1FCFEF76BF94B4646
:102B3000424608EE900A39463046FDF7B9FCFEF7EA
:102B400061F99FED167A06EE900A0023F5EC017A02
:102B5000F4EEE78AF1EE10FA07D8F4EEE76AF1EE48
:102B600010FAA4BF37EE277A0133AA45EED1BBF1A4
:102B7000000F03D0B3EB640F01DA91E733B107EE36
:102B8000903AF8EEE77A87EE270A01E0B0EE480ABD
:102B900003B0BDEC028BBDE8F08F00BF0000000069
:102BA0000000E83F00282F4B2F484FF0000114BFD2
:102BB0004222402270B513442C4A2DED048B86B07E
:102BC00033F921400131B0EC017A07EE904AB1F5BA
:102BD000007FF8EEE77A67EE877AE2EC017AEFD1D0
:102BE00068469FED238A24F0D1FABDF81030F0EE4C
:102BF000488A00225B081D49684669241D4E9FEDE6
:102C00001E9AADF8003027F0AAFB1A4A6846174909
:102C100024F04EFB06EBC4030134164D93ED000A7D
:102C2000D3ED010A2BF0E6FF20EE090A6E2CA0EE90
:102C3000008AEFD1B0EE480A2CF0FEFEB0EE408ADA
:102C4000D5EDD60A95EDD70A2CF01EFCF1EE407AB0
:102C5000B0EE480AF0EE670AA7EEA80A06B0BDEC8F
:102C6000048B70BD1CD9022010D102209CE90220E7
:102C7000000000009CE102200000803B2DE9F041B3
:102C80001F46314B0446984204D9304BD3F880207C
:102C9000904211D92E4B2F4A13602F4A1360002304
:102CA0002E4A13602E4A13602E4A2F4B1168526829
:102CB00019605A60BDE8F081A0F51C561A692B4DC9
:102CC0002F3EA2B9D3F8843003EB4302904202D9DD
:102CD0004FF0050803E0984209D94FF003082B692B
:102CE000B4FBF8F09847EB68B6FBF8F003E02B690B
:102CF0009847EB68304698471D4B1E4D4FF40862CD
:102D00001C6000241C4E00211C4829F0AEFFBC4270
:102D10000BDAFFF759FE0020FFF744FF0023A6EC73
:102D2000010A013445F8043BF1E703223946124811
:102D3000FFF7AEFEDFED127A074B20EE270A83ED98
:102D4000000ABDE8F08100BF9F86010054AE032059
:102D50000000FA43188400201084002080B0032073
:102D60007CF70220B03F03081C8400203068042058
:102D700028840020D0660420246704201CD9022067
:102D8000EA40563C000000002DE9F04F2DED028B8B
:102D900085B01C4605460291039210B9844B1D680C
:102DA0001AE0844B984204D9834BD3F88030984280
:102DB00010D9824B824A1360824A13600023824AF0
:102DC0001360824A1360824A824B1168526819600C
:102DD0005A60DAE0FFF7D2FC142C4FF00306A8BFCC
:102DE0001424DFF800A20027DFF8F091DFF8F0B13B
:102DF000A74256DAFFF7E8FD0020FFF7D3FEB0EE5A
:102E0000608A0120F0EE408AFFF7CCFEA9EC010AAF
:102E100078EE607AEBEC018A17EE900AFDF7A6FCDB
:102E20005DA3D3E90023FDF743FBFDF7EBFFDFEDE7
:102E30006A0A00EE100A2CF029FB10EE100AFDF7CA
:102E400095FC55A3D3E90023FDF730FBFDF7DAFF2E
:102E50008046FDF78BFC52A3D3E90023CDE90001A6
:102E6000FDF74AFF38B150A3D3E90023DDE90001A3
:102E7000FDF71EFB0EE048A3D3E90023DDE90001C6
:102E8000FDF758FF48B148A3D3E90023DDE900016D
:102E9000FDF70CFBFDF7B6FF80464AF8048B0137BF
:102EA000A6E7324621464D48FFF7F2FDF0EE408A94
:102EB000324621464A48FFF7EBFD32462146494853
:102EC000B0EE408AFFF7E4FDF5EE408A464B83ED15
:102ED000000A1F46F1EE10FA09D0B5EE408AF1EE75
:102EE00010FA04D0B5EE400AF1EE10FA01D1013E1D
:102EF00077E7C8EE887A3D4B1C46C3ED007A029B0B
:102F000013B1284627F084FEDFED397A2C4B68EEAA
:102F1000A78A386828EE278AC3ED008A294B83EDFB
:102F2000008AFDF723FC0022324BFDF773FC1AA345
:102F3000D3E90023FDF798FDFDF764FF224B94EDE4
:102F4000000A18602CF068FBF3EE047A1F4B214C4A
:102F500020EE270A83ED000AFFF788FCB0EE408AD6
:102F6000FFF7AAFCDFED247A039BA8EE270A84ED85
:102F7000018A84ED000A43B1F0EE480A284607F0C2
:102F8000F3FB84ED000AC4ED010A05B0BDEC028B31
:102F9000BDE8F08FAFF30080182D4454FB210940A9
:102FA000182D4454FB2109C0182D4454FB2119400D
:102FB000288400209F86010054AE03200000FA43BD
:102FC000188400201084002080B003207CF70220A9
:102FD000B03F03081C840020DB0FC940D0660420EA
:102FE0002467042004AE03207CB003201484002056
:102FF000EA40563C00806640000000002DE9F04F9A
:1030000000252C462F465FFA85FC94453CD24FF0B4
:10301000000E10F80C604FF020084FF0000906FA7F
:103020000EF6C6F3C01646EA4707184E3E4008F1B2
:10303000FF3806F0010A760818F0FF0889EA0A0945
:10304000F5D101F8049004F1010ADFF8449020263C
:103050005FFA8AFA07EA0909013E09F0010B4FEA13
:10306000590916F0FF0688EA0B08F5D1023401F879
:103070000A80E4B29C4201D30135C4E70EF1010E8F
:10308000BEF1080FC5D1F7E7BDE8F08F5153D0F27C
:10309000473C61E42DE9F041C6B004465B220D4691
:1030A00018A8002129F0E1FD4D22214618A829F099
:1030B000D1FD002300930193029318A91DF803206A
:1030C00001EBC3000021445C013144EA42020829BB
:1030D000D2B2F8D10DF8032001330A2BEDD1002331
:1030E0001A461DF80240072144FA01F003F4005685
:1030F00000F0010040EA43031EB183F41D5383F046
:10310000170311F1FF31EFD20132C3F30D030C2A83
:10311000E7D10222012003FA02F111F4004115BFA8
:1031200018A918AC8918A41802F1010214BF81F87B
:103130004B0084F84B10102AEDD12FAE4FF00C0845
:103140005B2218A93046002429F084FD0DEB080706
:10315000DFF850C0002208FB04CE1346D1B2C808E5
:1031600001F007011EF8000000FA01F1B05C013225
:10317000C1F3C0115B2A00FB0133EFD103F001035F
:10318000E3550134532CE5D13146284629F062FD40
:103190002246394605F15B0029F05CFD46B0BDE8EA
:1031A000F08100BF42BE03082DE9F041002392B038
:1031B00004460D4605AE02AF1A46059302937360AE
:1031C00033817B603B81A15C11F0DF0F10D008469A
:1031D000FEF7FEFA013000F0A0800DABD1540132B1
:1031E0000123132AEFD12046FDF7F4F8002302E073
:1031F000002BF8D191E0DAB2904208D99046A25C57
:103200000133202AF7D108F1FF385FFA88F80DAEB4
:10321000132200210027304629F027FD08F1010282
:103220002146304629F016FD122300961321904ABC
:1032300008A830F071FC8F4BD3F80080FEB208A8CC
:10324000FDF7C8F8B0420FD912AB01371E4416F88B
:10325000283C08EB0302527802F00302022A04BF62
:10326000203B06F8283CE9E708A9204630F0D6FCC8
:103270002078202803D0FEF7ABFAC0B200E000208F
:10328000691E012300FA03F20133C2F3C002042BCA
:1032900001F8012FF6D16078202803D0FEF798FAC4
:1032A000C0B200E00020A91C002300FA03F20133A1
:1032B000C2F3C002042B01F8012FF6D105F1080278
:1032C00005F14806A078202803D0FEF781FAC0B2A5
:1032D00000E000200023D71800FA03F10133C1F306
:1032E000C001042B07F8011CF5D1E078202803D099
:1032F000FEF76EFAC0B200E000200023D71800FAF3
:1033000003F10133C1F3C001042BF970F6D1083287
:103310000234B242D6D1052396E02346564A0E2106
:1033200008A830F0F9FB534A0DF11F030BA8D2F89F
:1033300000E0904613F8012F0EEB0201497801F0EE
:103340000301022904BF203A1A708342F2D108A96E
:10335000204630F063FC611ED8F800000C344FF0BA
:103360002A0E11F8012F831893F801C00CF0040CF9
:103370000CF0FF03BCF1000F02D0A2F12F0306E016
:10338000A2F1410CBCF1190F03D8A2F13603DBB254
:1033900015E0202A13D02B2A0AD02D2A0AD02E2A53
:1033A0000AD02F2A0AD03F2A0CBF2923FF2306E088
:1033B000252304E0262302E0272300E028234FF002
:1033C000000C624616F80C80C2F307221EFB08228E
:1033D00007F80C200CF1010CBCF1090FF2D1120A14
:1033E0001B028DF81120002217F802C00CEB1323EA
:1033F000B3540132092AF7D11B0A8C428DF81D30D3
:10340000AFD19DF81C00691E012300FA03F20133BD
:10341000C2F3C012082B01F8012FF6D107A805F15D
:10342000080205F1480610F8014D0023D71804FAE8
:1034300003F10133C1F3C011082B07F8011CF5D1CA
:1034400008329642EFD1002303F001029B0885F871
:103450004720002285F8493085F8482085F84A2021
:1034600085F84B2085F84C2012B0BDE8F08100BFF4
:10347000B360030830840020B860030810B5044628
:10348000FCF7A8FFC0B20C2803D9631E0B480C340C
:1034900006E0202323540130C0B20E28FAD1F4E70D
:1034A00013F8012F01681144497801F00301022942
:1034B00004BF203A1A709C42F2D110BD3084002023
:1034C0000A4B1B6803445B785B0701D5303806E084
:1034D000202806D0A0F14103192B04D83738C0B2F8
:1034E000704724207047FF20704700BF30840020C1
:1034F000134B1B6803445B785B0701D5303804E04D
:10350000A0F14103192B02D83738C0B270472028E8
:103510000CD02B280CD02D280CD02E280CD02F28E6
:103520000CD03F280CBF2920FF2070472420704773
:103530002520704726207047272070472820704795
:10354000308400204368994206DBC91A026841FAB8
:1035500002F219401144F6E70846704790B5C1B031
:103560004FF40B72002100AFADF5147D0DF11F0477
:1035700024F01F04204629F078FB12220E49204631
:1035800023F020F9024678B90C494FF4DA720C4B5B
:1035900020460B603B4622F0DEFB204622F066FB15
:1035A00007F58277BD4690BD0649384630F0E6FA09
:1035B000384629F06DF900BFBD60030854AE032002
:1035C000332E3064D360030830B52D4D85B02D48BF
:1035D00024F03AFDAB69FBB902240021204620F01B
:1035E000FBFD0138C0B2FD283CD9023414F0FF04C1
:1035F000F3D1254B2046C0244FF07F4201930A238C
:10360000224900930523FEF763FC40F6B83022F010
:10361000A5FAAC61FFF7A2FFFF210320FEF736FDFC
:10362000802110209524FEF731FDD5F88810B720B1
:10363000890141F0120101F0D201FEF727FD0021BE
:103640000F20FEF723FD204601340021E4B2FEF7EF
:103650001DFDA22CF7D10021BB2005B0BDE83040F4
:10366000FEF714BD0A4B4FF07F4202944FF0FF214A
:1036700001930A23002000930523FEF741FCC4E7D1
:1036800054AE032060860020036103080000FFFFA2
:1036900051610308064B074A1A60074A5A60074AF5
:1036A0009A60074ADA60074A1A61FFF78DBF00BFC8
:1036B00030680420C935000811270008FD260008DD
:1036C000E9260008D5260008B14BB24A196D2DE94C
:1036D000F04F2DED048B11601C46596DABB0AE4A16
:1036E0004FF00208AD4F1160996DAD4AAD4D1160BC
:1036F0001A6A0F2A84BF4FF0FF332362FFF72EFFB1
:1037000006F03EFE06F04EFF236C2F60002400936F
:1037100028463B6823F480333B604FF0FF3385F845
:103720007D803C61BB611AF089FA2A6809A8536858
:1037300043F008035360C5F8804085F87C4085F865
:103740007D401AF02BFC4FF4801309A809934FF425
:10375000800319934FF4AC730A9307230C9301234E
:1037600012931AF00DFD95F87D302F6003F0FF06DF
:10377000002B75D18C4C284627F062F94FF48069F4
:10378000636C09A9894843F400036364636C03F420
:1037900000030893089B236B43F040032363236BD0
:1037A000CDF8249003F04003CDF828800B960793C2
:1037B000079B0A23CDF830800D9328F04BFD236B37
:1037C00009A97B4843F080032363236B0A9603F027
:1037D00080030B96CDF830800693069B4FF4004390
:1037E000099328F037FD236B43F480032363236B95
:1037F00003F480030593059B2B68BB4220D16D4CDD
:103800004FF4006363614FF4005320466660A36188
:103810004FF48073A660E3614FF40033E6602362E7
:103820000323C4F81090A362634B6662E6622663CA
:1038300023602C67A56328F038FF204628F05AFF44
:1038400000220F2146205D4C28F0EAFF4023002291
:103850000F21A360282028F0E3FF4FF480736360FA
:10386000574B0026574D4FF001081A6880212B60F6
:103870004FF4803B22F480324BF680394FF4802A9B
:1038800028461A604FF40053402269632B612023BD
:1038900003916B64019304232A64EB650523029270
:1038A0002B66C5F81C90C5F804806E612E63AE636C
:1038B000C5F83C80AE60C5F81880C5F848B0EE6425
:1038C000C5F850A06E65AE651AF002FA3868354C3E
:1038D000019B20F480302760386003206364042358
:1038E0000399029AE36505236060204661632264C0
:1038F0002366C4F81C9066612663A663C4F83C8006
:10390000C4F808802661C4F81880C4F848B0E6649A
:10391000C4F850A06665A6651AF0DAF92A68342062
:10392000136843EA0B0313602268274C136843EAC9
:103930000B031360A368984748F6941398427AD112
:10394000E36A34209847214B4FF4407134201C60C7
:10395000009B2468C3F164024B469FED1D9AD2B2CE
:10396000DFED1C8AA0479FED1C8A1C4C30460136B7
:10397000FCF7EAFE8046894603A3D3E90023FCF75F
:1039800049FF2DE0AFF30080182D4454FB2119406E
:1039900054AE03207880002084810020245C014004
:1039A00038810020E0B702200038024000180240B1
:1039B000001C024040850020B864024000E100E0A5
:1039C000045C014024BC0220F882002028BD0220B3
:1039D0003E3DFE3E236ADA3E7C629D3D10D10220D0
:1039E0001AA3D3E90023FDF73FF8FDF70BFA00EE29
:1039F000100A2BF031FA40464946F0EE409A15A3E2
:103A0000D3E90023FCF706FF10A3D3E90023FDF759
:103A10002BF8FDF7F7F900EE100A2BF01DFAF0EE87
:103A2000687AB6F5007FE9EEC97AE0EE087AE4EC50
:103A3000017A9BD102E0044828F02AFF2BB0BDECAC
:103A4000048BBDE8F08F00BF8D610308000000000B
:103A500000F07F40182D4454FB21294008B5FFF7A2
:103A60007DFDFFF717FE064B1B6823B1C82022F02F
:103A700075F808F05BFB0122024B1A6008BD00BF1D
:103A8000A0850020288C00202DE9F041944A88B0C0
:103A9000944C002101236261C02293484FF0420CF4
:103AA000A2613222914E00AF6262ADF5147DA26236
:103AB0000522A3600DF11F05E2624FF4FA72216145
:103AC00025F01F0522630622E1612264884A2162F3
:103AD0002265884A63636265A2F57C02A363A265DE
:103AE0004FF41642E3636164E164E1656166A166D7
:103AF000E366216761676060E060A064226626601B
:103B0000A167C4F88CC04FF47A6C7B4AC4F8BCC07F
:103B100040F61C4CE267C4F8C4C00CF19A7CC4F8AF
:103B2000A4200CF6560CC4F80421C4F82C21C4F8C7
:103B30005421C4F87C210822DFF8F8E1C4F8D4C08D
:103B400040F28A7CC4F8E40043F2B060C4F89021EB
:103B5000C4F894214FF41652C4F880E04FF0030EDD
:103B6000C4F8D8C04FF4616CDFF8CC81C4F8F00021
:103B7000C4F81801C4F84001C4F868012846C4F824
:103B80009C214FF40B72C4F888E0C4F8C810C4F844
:103B9000CC10C4F8D030C4F890C0C4F8DC10C4F81D
:103BA000E0E0C4F8E830C4F8EC10C4F89811C4F8A8
:103BB000A011C4F88480C4F8A411C4F8A83129F075
:103BC00054F807F108014D4822F082FD0C2801D07D
:103BD000032802D14A4828F05BFE18BBBB680BB92A
:103BE000FFF7BCFC01224549284622F0EBFDBA68EC
:103BF0003B1DB2F5DA7F0AD23A49284622F098F9FD
:103C0000284622F033F82660FFF7A8FC13E04FF4B3
:103C1000DA723449284622F08BF9284622F026F839
:103C2000266008E0374822F0C3FB374822F0C0FB8B
:103C3000FFF794FC4FE022692A4BE2B9334AD3F8EC
:103C40008010914288BFC3F88020D4F88430304A75
:103C5000934210D043450ED02E498B420BD02E49B3
:103C60008B4208D02D498B4205D02D498B421CBF79
:103C70001C4BC3F88420E26F2A4B9A4282BF2A4A27
:103C8000184BDA67D4F880301B4A934205D927498C
:103C9000B3FBF1F201FB123313B1254BC4F88030B2
:103CA000D4F88C30013B632B82BF42220D4BC3F80A
:103CB0008C20D4F89031043B102B82BF0822094B92
:103CC000C3F89021D4F89431043B102B82BF082212
:103CD000044BC3F894212037BD46BDE8F08100BFF6
:103CE000C0FC9B0154AE0320809FD500332E30646E
:103CF0003333A34000004843A0860100BD600308A1
:103D0000A6610308B1610308B5610308803E6D56E2
:103D10000068890900497F0F80DF17100076B01016
:103D2000800C49111FA1070020A1070040420F008D
:103D300080D1F0080046C32300C2EB0B2DE9F04F01
:103D4000E9B006F014FF04460028FAD1D84B222728
:103D50006FF0FF05012618604FF00A08D54B48F2B6
:103D6000800A4FF0FF394FF0DC0B1860D24B18601F
:103D70004FF07F4020F01CF9D04B00944FF07F4271
:103D8000019301206423CE49FEF7A2F83A4621466A
:103D90005FA828F06AFFCB4B3A462146CDF8823126
:103DA0004FF6807356A8ADF88C51ADF89031C64BE4
:103DB000ADF87E81ADF88071ADF88661ADF88841CF
:103DC000ADF88A41ADF88EA1CDF8923128F04DFFC3
:103DD000BE4A4FF4967321464DA8CDF85E21BC4AE9
:103DE000ADF85A3103934FF68073CDF86E213A4601
:103DF000ADF86851ADF85C71ADF86261ADF8644141
:103E0000ADF86641ADF86AA1ADF86C3128F02DFF30
:103E1000B04A4FF0FF03214644A8CDF83A21AE4AFC
:103E2000ADF84451CDF84A213A46ADF84651ADF8C7
:103E30003681ADF838B1ADF83E61ADF84041ADF82E
:103E40004231ADF8489128F010FF039B3A462146D5
:103E50003BA8ADF81231A14BADF82051CDF8163189
:103E60004FF0FF03ADF82251ADF81E319C4BADF879
:103E70002451ADF814B14FF0820BADF81A61ADF8D2
:103E80001C41CDF8263128F0F0FE46233A46214663
:103E900032A8ADF8F030934BADF8FA50ADF8FC50C5
:103EA000ADF800518DF8ED60ADF8EE80CDF8F23050
:103EB0000393ADF8F660ADF8F840ADF8FE4028F099
:103EC000D4FE6E22039B214629A8ADF8CC203A46A9
:103ED000ADF8DC508DF8C960ADF8CA80CDF8CE30B1
:103EE000ADF8D690ADF8D890ADF8DA4028F0BDFE28
:103EF000039B5022214620A8CDF8AA304FF0FF03A3
:103F0000ADF8A6203A46ADF8B450ADF8B8508DF8EB
:103F1000A560ADF8A8B0ADF8AE60ADF8B040ADF8B2
:103F2000B230ADF8B64028F0A0FE6F4B3A462146BD
:103F300017A8CDF886304FF68073ADF89050ADF8E5
:103F400094306A4BADF88280ADF884B0ADF88A60E9
:103F5000ADF88C40ADF88E40ADF892A0CDF896301B
:103F600028F083FE4FF4C8733A4621460EA8ADF8F8
:103F70005E305F4BADF86C50CDF862304FF6807319
:103F8000ADF860B0ADF870305A4BADF86660ADF882
:103F90006840ADF86A40ADF86EA04FF0AA0ACDF8BF
:103FA000723028F062FE544B3A46ADF83A80214612
:103FB000DFF8688105A8ADF84650ADF84C50ADF873
:103FC0003CA0CDF83E80ADF84260ADF84440ADF87D
:103FD0004890ADF84A40CDF84E3028F046FEADF896
:103FE000225040F24713ADF8285004ADADF816301A
:103FF000ADF820402846414BADF826402C60404C9F
:10400000CDF82A302560ADF818A0CDF81A80ADF8AB
:104010001E60ADF8249009F005FC5FA9284609F060
:1040200035FB56A92846374F09F030FB4DA92846E5
:10403000354E09F02BFB44A92846DFF8E4B009F01F
:1040400025FB20A92846DFF868A009F01FFB2F4BAD
:1040500017A91860284609F019FB2D4B0EA9186006
:10406000284609F013FB2B4B05A91860284609F0D8
:104070000DFB294B3BA91860284609F007FB32A924
:104080003860284609F002FB29A93060284609F06B
:10409000FDFACBF80000284609F05EFA064B3968B5
:1040A0001F68D4F80090232F039398BF282239E08B
:1040B000288C0020A085002004850020C061030812
:1040C0000000FFFFD5610308ED1B0008E461030851
:1040D000251C0008F36103080118000805620308A5
:1040E0005D3A00089A50070815620308F1180008A5
:1040F0001B62030895190008351A0008991A000870
:10410000308500202C850020FC8400203C85002088
:1041100000850020A48500203485002072E2070875
:104120003885002096BF1D48424602FB07024846DC
:1041300098BF526809F0EEFADBF800803846FDF7C8
:1041400075FB41460246484609F0E4FA039B2068A5
:104150001B683168232B9BBF104A2824104A04FB9C
:10416000032398BF9A6909F0D5FA0E4B01221C4629
:104170001A70284609F04EF960B1DAF8003033B110
:10418000FFF782FC0023237069B0BDE8F08F322076
:1041900021F0E4FC002021F0E1FCEAE7E4F8030868
:1041A00072E20708ECCC02203B4A136819698807C1
:1041B00008D5D968890705D56FF002011961996999
:1041C000002111761969480708D5D968490705D52E
:1041D0006FF00401196199690021117619690807C6
:1041E00008D5D968090705D56FF008011961D969A3
:1041F000002111761969C80608D5D968C90605D500
:104200006FF010011961D969002111761A69D2077E
:1042100005D5DA68D00702D56FF001021A611A6974
:10422000110605D5DA68120602D56FF080021A6110
:104230001A69D00505D5DA68110602D56FF080023B
:104240001A611A69520605D5DA68500602D56FF070
:1042500040021A611A69910605D5DA68920602D5FC
:104260006FF020021A610D4B1B68A3B10C4B1B7839
:10427000012B0C4B04D15A6982F004025A61704739
:104280004FF480229A61084B5A6A00225A62074A08
:104290001388013313807047A885002028850020EB
:1042A0008DBD022000200240000C0040308700201D
:1042B00000220B4B1A600B4B1B68DA6822F00102DC
:1042C000DA6041F21112196A0A4042B9196A40F2E1
:1042D00044420A401AB91A6822F001021A60704773
:1042E00028850020A8850020064B1B68DA6842F06C
:1042F0000102DA601A6842F001021A600122024BE0
:104300001A607047A8850020288500207FB5012607
:1043100004462A4B00251E701AF0F8FA002C00FA09
:1043200006F3274A08BF344607EE103A1560A0424C
:10433000B8EE477A234A28BF2046234C116C07EE7B
:10434000900A4FF080403143F8EE677A1164211DE6
:10435000126CC7EE276A206032402561A560039287
:10436000039A6561FCEEE67A17EE903A1B0C9A19F7
:10437000636094F83930022307EE102A84F839304C
:10438000B8EEC77AC6EE877AB7EE007A77EEC77ACC
:10439000FCEEE77ACDED017ABDF80420E26019F079
:1043A000E9FB2A4603211C2084F8396028F038FAFA
:1043B0004FF08052054B1A6004B070BD8DBD0220D5
:1043C0002885002000380240A885002000E100E098
:1043D000714C0025714E2DE98048C1B012F08AFC65
:1043E000256012F087FC12F085FC4FF47A73706838
:1043F000B0FBF3F00CF026FA0123236017F014FA57
:10440000ADF83850ADF83A50654A66490E9816F046
:10441000AFFA0794099606F0AAFB05460028FAD1E0
:10442000614C4FF0FF36614809F0FCF92222294621
:10443000204628F01AFC1B2321465C48A370012368
:10444000E570237163715A4B6674C4F806307F239C
:104450006675A373E37323744023A374E374237515
:1044600009F014F9514809F077F805F095FD12F0BC
:1044700089FC504B2A463146019309232846009374
:104480004FF4D273FDF724FD6223069312F0DEFA97
:10449000069B0133642B06934FDD474B1B68012BB2
:1044A00049D0464B464E1B68464C43B1304625AA80
:1044B000454925F02BFF204605F0ACFD07E04248BA
:1044C00007F0DCFD354B3060D3F8D4302360216831
:1044D00042F21073642530AC40F201183B4F204685
:1044E000B1FBF3F203FB1211B1FBF5F305FB131162
:1044F000009137492FF042FB0194CDF80080DC2376
:10450000344A00203968FDF7E3FC33682E49204621
:10451000B3FBF5F2097805FB123300912E492FF019
:104520002DFB0194CDF8008040F23113294A002080
:104530003968FDF7CDFC002306930A2021F00EFB1D
:1045400010A806F03BFB002801F0B3870F22234997
:10455000109806F0EFFA041EC1F2AB871CF0A4FF1E
:1045600006F005FB0028FBD10E2C01F27C87DFE86A
:1045700014F00F003700220441048B08F806CC0722
:104580002F064B0887084F084508490841084B0D7E
:104590000EF0CAFE01F067BF00AE032054AE032048
:1045A000360202003C1A040809860020E485002037
:1045B00020210608382106082C8700203487002097
:1045C0002CB602205CB6022020B60220A0F2022007
:1045D0003D210608404040FF4E210608EC1F06081A
:1045E0000123DFF8FC829E4F0025C8F800303B60B5
:1045F00017F01AF99B4B9C4C1D609C4BA246DFF8B0
:10460000E4921D609A4B9B4E1D6012F073FBD4F830
:10461000A8214FF47A70984BDFF8CCB21A60D4F826
:10462000AC21964B1A60964B1D60E36C012B954BA9
:104630000CBFC8221D604FF0000508BF1A60924BE6
:104640001D60924B1D60099B5B68B3FBF0F0C9F8DD
:1046500000300CF0F7F8D8F80030079A3068136093
:1046600017F018F88A4B01208A49019364230093BC
:10467000782309683268FDF72BFC4FF4FA7021F0BB
:104680006DFA854A854B40F6884015600A921D6098
:10469000CBF8005029F06CFF814B0890186040F671
:1046A000884029F065FF7F4B7F4D186040F68840B9
:1046B000049329F05DFF08992860012020F02EFA6C
:1046C000049B10B901210A9A11601968022020F098
:1046D00025FA10B90123CBF800302968032020F017
:1046E0001DFA10B901236D4A136020F01BF86368AE
:1046F0006E4A93420DD95C4AD2F88020934208D882
:104700006421B3FBF1F201FB123212B9C9F8003097
:1047100007E0674BC9F8003063600A23A360FEF727
:104720001DFFA368634A1D2B01DC137005E00A23FB
:1047300013704D4A9360FEF711FFD4F890215E4B41
:104740005E4C1A7000225E4B20681A7018B95D49E1
:10475000FDF70AFB20605C4B1C68002C40F0C68013
:10476000012040F2DF150BF0B7F8584B4FF07F42B5
:104770006FF47F410193142320460093A023FDF79B
:10478000A7FB534B4FF07F426FF47F4101938C2383
:1047900020460093A023FDF79BFB4E4B4FF07F423A
:1047A0006FF47F410193D22320460093A023FDF7AD
:1047B0008FFB3B23ADF86840ADF86630ADF86A403A
:1047C000ADF86450444A19991A9816F0DBFB50234F
:1047D000414AADF860303C23ADF862304FF4C87305
:1047E0001898ADF85C30B423ADF85E30179916F028
:1047F000C9FB3323384AADF85830CD23ADF85A30D1
:1048000040F2C3131698ADF85430EB23ADF8563090
:10481000159916F0B7FBF023ADF85040ADF85230C3
:1048200040F20F13ADF84C50ADF84E302A4A1399B0
:10483000149816F0A7FB0123274AADF848305A23F5
:10484000ADF84A3032231298ADF84430E923ADF880
:104850004630119916F096FB204B1C6048E000BFD3
:1048600000AE0320D0B7022054AE0320C4CC0220F7
:104870003CCC022010D90220F8BE022074B70220DE
:10488000D4B7022078B7022048CC0220C8CC02203E
:104890005F2106089CF1022000BF022040CC0220CC
:1048A00054CC022044CC02204CCC02209F86010034
:1048B000809FD5004C83002008860020F4BE022093
:1048C000FCBE022073210608D4CC022084210608F5
:1048D000A1210608C12106080000FFFFCCB7022075
:1048E000BCCC02204883002090CB022017F0B4FFFC
:1048F000874808F097FF8749854808F0C7FE844835
:1049000008F02AFE20F0B4F906F031F90028FBD0B7
:10491000D8F8003000243068B3FA83F3DFED7E8AE4
:104920005B093B6016F0B6FED8F8003030683B609B
:1049300016F0B0FE794D002021F010F9284606F05F
:104940003DF92946002800F0C5806B883B2B02D832
:1049500020F040F98DE0BD2B16D82A883D3AB2F5FB
:10496000A97F11D81FF022FE6D4B1B68012B20D1AF
:104970004FF45C70FFF7CAFCFFF7B6FC642021F02F
:10498000EDF8FFF795FC14E0A3F1CE021C2A14D831
:104990000A88322A11D9A2F13303624A0124B3F5FD
:1049A000C37FC8BF4FF4C37313605F4B1C605F4B82
:1049B0001C60C82021F0D2F85BE00A882C2A58D865
:1049C000A3F15D02232A13D8564D594C2B68002BB6
:1049D00045D00122544B574E1A600022564B1A60A4
:1049E0003368012B01D10AF017FE2B68013B16E05A
:1049F000843B232B3CD84B4D4D4C2B68B3F5C87FE3
:104A00002DD20122484B4B4E1A6000224A4B1A60AD
:104A10003368012B01D10AF0FFFD2B6801332B60B5
:104A20000AF0FAFD01233360444B1B78052B06D1B5
:104A3000DAF86C30012B02D10AF068FE01E00AF0CE
:104A4000BFFC334808F088FD23685A1C042B226001
:104A500002D8642021F082F8012021F07FF8246838
:104A60000022374B042C1A608CBF0024012400E084
:104A70000124274808F0CEFCC8B1324B1A78B2B1F5
:104A800000221A7006F073F80028FBD12C4B186036
:104A9000642021F063F82C4B186829F071FD2B4B32
:104AA000186829F06DFD2A4B186800F050BC1C4BAB
:104AB0001B68012B14D194B14FF45C70FFF726FCF6
:104AC000FFF712FC642021F049F8FFF7F1FB174BC8
:104AD0001C6004E0164B18601E4B186000E00024B8
:104AE000174B1B6813B91C4A136058E11B4B1C4A37
:104AF0001B68DFF87480B3FA83F35B091360174A0D
:104B00001360DAF84C20174B82BB1D6838E000BFF9
:104B1000C0CC0220641D060800000000DBCC02208F
:104B200090BD022078B70220D4B702203CCC0220EE
:104B30004C860020D0B7022074B70220FCBE0220B1
:104B4000C4CC0220D9CC022054CC022044CC022078
:104B50004CCC022014D90220C8CC022000AE032085
:104B6000BCCC0220488300204C83002098F8001021
:104B7000934A1D684FF4FA7352F8212003FB125533
:104B8000012300260027DFF838921A4619462846E6
:104B9000FEF7FAF898F800304FF47A704FF4C872C4
:104BA00059F82330A3FB000100FB07F306FB013398
:104BB000A0FB060119440023FCF774F90122281810
:104BC000DAF83C30114608BF1046FEF7DDF87D4BA1
:104BD000D3ED007A93ED017AF4EE677AF1EE10FAF4
:104BE00008D6F0EEE76A9FED786AF4EE466AF1EED9
:104BF00010FA03DDF0EE687AE7EE287AB4EE477A31
:104C0000F1EE10FA08D6F0EEC76A9FED6F6AF4EE87
:104C1000466AF1EE10FA03DD77EEA87A9FED6B7A23
:104C20006B4B06F01F0203EBC603C3ED007A83ED66
:104C3000017A002313430CD0664B1A780023B61870
:104C40004FF4C8725F410023BB4208BFB242A1D2F9
:104C500004E030A805F0B2FF0028EDD000200025C8
:104C6000FDF78CFD01225C4BDFF864911A60002295
:104C70000023CDE90423574B002793F800803B46DF
:104C80005FFA88F6DDE904013246FCF70BF9002AE9
:104C900061D09FED521ADDE90401B94208EB050726
:104CA00008BFB042A5EB02062FBFC8EB0508B3460C
:104CB00005EB4808BE1A26BFC2EB080BBF1AC2EBB1
:104CC000080709EBCB0393ED000AD3ED010A05F0C9
:104CD00019FB9FED421A09EBC603F0EE409AB0EEC5
:104CE000609A93ED000AD3ED010A05F00BFB9FEDEE
:104CF0003B1A09EBC703F0EE40AAB0EE60AA93EDB1
:104D0000000AD3ED010A05F0FDFA07EE905AB0EE65
:104D1000402AF8EEE74A07EE907AF0EE602AB8EE05
:104D2000E74A07EE906AB0EE6A1AF8EEE73A07EE45
:104D300090BAF0EE4A1AB8EEE73AB0EE690AF0EE31
:104D4000490A05F0F3FB25F025FF09EBC50383EDC8
:104D5000000AC3ED010A0135DDE90423013243F104
:104D60000003CDE9042340F291139D4283D11C4BF3
:104D700053F8040B1C9018681A4B1B901A681B9967
:104D80001C9816F0E5FC17F067FD0122164B1A601F
:104D90000022164B1A6047F23052154B1A60134D21
:104DA0002B682BB117F058FD1FF062FF00232B601A
:104DB00016F03AFDBEE520F035F801F054BB00BF17
:104DC00028DB07081C840020FFFF7F7F0000000015
:104DD00004BF022008860020D4CC022000004842F4
:104DE000B83F030810D90220C8CC02203CCC0220D6
:104DF000F0820020BC4A0125BC4B00241A60099BAC
:104E0000D868FBF791FCB4A3D3E90023FBF72CFE91
:104E1000FBF7F8FFB64B1860B64B1D70B64B1C6025
:104E20000EF060FAB54B1C7011F064FFB44C2068B2
:104E3000A04616F02FFCB34BB34928460193282314
:104E40000093782322680968FDF742F84FF47A70DE
:104E500020F084FE05F08BFE04460028FAD10220E3
:104E600026460BF09DF9A94808F0DCFCA84B01226E
:104E7000A8491C60A84BA5481A6008F007FCA34885
:104E800008F06AFB9FEDA59A0FF08EFB4FF4DC70E3
:104E9000A34B1860FFF73AFAFFF726FA9E4D002061
:104EA00020F05CFEDFF850A2D5F80090B14503D1A8
:104EB000DAF80030012B07D10023CAF80030B9F12D
:104EC000000F01D1FFF7F4F9964E304605F076FE5B
:104ED000E8B172883188944816F0D4FC012816D1C4
:104EE000924B1A7832B1002202201A700BF058F956
:104EF000FEF734FB814B1A78012A08D10020286084
:104F00001870FDF73BFCFFF7D3F901F0ACBA0134A0
:104F1000F0EE009AB0EE08AA042C40F29080744B98
:104F20001868FBF723FC6CA3D3E90023FBF772FCA2
:104F3000FBF748FF01227E4B11469B6BFDF724FFD8
:104F40007C4BD3ED010A93ED000AFDF74BFC79EEA3
:104F5000408A10EE100AB0EE408AF5EEC08AF1EEFB
:104F600010FA48BFF1EE688AFBF700FC04460D46D4
:104F700018EE900AFBF7FAFB06460F462046294634
:104F800057A3D3E90023FBF745FC02460B46304606
:104F90003946FBF7CFFE00284DD05D4F01235E4E12
:104FA0003A68CAF800308AB93360524B1B78022B3A
:104FB00007D1B4EEE98AF1EE10FA07DD0023336081
:104FC00004E0032B02D1B4EECA8AF4E70DF1C00A63
:104FD00022462B4658495046C8242EF0CFFD4FF4A8
:104FE000EB734625ADF89040ADF88C307D23ADF8DD
:104FF0009250ADF88E30D8F800202399249816F0FE
:10500000A7FB4149234601208DE82004D8F8002061
:105010000968FCF75DFF3368012B08D13B6833B9A1
:105020003F4B1868FFF772F9FFF75EF901E0FFF7F1
:105030003FF9B0EE489A0024052020F08FFDB0EE35
:10504000480ADFED3E8A2AF0E7FA10EE100AFBF775
:105050008DFB00223A4B40F2DF15FBF7DBFB002211
:10506000384BFBF725FAFBF7CDFE00EE100A2AF0CD
:10507000D3FA60EE288A18EE900AFBF777FB00223D
:10508000314BFBF7C7FB0022304BFBF70FFAFBF766
:1050900099FE68EE8A7A224B186017EE900AFBF7A9
:1050A00065FB00222A4BFBF701FAFBF78BFEB4EEFF
:1050B000E98A854228BF0546F1EE10FA4CD4F0EE9D
:1050C000087A244EB4EEE78AF1EE10FA48BF6FF08A
:1050D000FF0643E0AFF300800000000080842E4113
:1050E0007B14AE47E17A843F20A107006C82002048
:1050F000F0B502204E9000202CB30220B8B302205D
:1051000010D90220DE2106089CF1022040860020F2
:1051100010900020B0240608FC870020000000004A
:10512000DCB3022004860020FC1E060809B402201D
:1051300054AE03201C840020E821060800004843E8
:1051400000002440000014400000184000406F4060
:10515000000079400000FFFF4FF0FF26A0231FFA58
:1051600085FA4FF0000B7427ADF886300135B74B48
:10517000ADF884A0ADF888B0ADF88A701A682199AE
:10518000229816F0E5FAA123ADF87CA04FF0CD0AE5
:10519000ADF882303246ADF880B04E46ADF87EA014
:1051A0001F99209816F0D4FA40F2DF13ADF878502A
:1051B000ADF87430ADF87A70ADF876A0D8F800206C
:1051C0001D991E9816F0C4FA0A2020F0C7FC65E667
:1051D00000259F4EDFF8EC82356011F08BFDDFF883
:1051E000E8924FF4805029F0C3F9DFF8E0A2C8F844
:1051F00000004FF4805029F0BBF9C9F800004FF4CB
:105200008050DFF8CCB229F0B3F9CAF800004FF4AF
:105210008050904C29F0ACF901228F4BCBF8000064
:105220004FF07F401A6025601EF0C2FE16F0FCFAB7
:10523000049405F09CFC04460028FAD1079B012544
:10524000F02718604FF07F401EF0B2FE079B4FF032
:105250007F401D601EF0ACFE16F0E6FA7F4B4FF06B
:105260007F426FF47F41019320462B460094FCF768
:105270002FFE7B4B7B494FF07F42019328460097DE
:1052800023460968FCF724FE774B4FF07F424FF02E
:10529000FF31019328465F230097FCF719FE734BFB
:1052A0004FF07F424FF0FF3101932846D4230097FF
:1052B000FCF70EFE6E4B4FF07F424FF0FF31019333
:1052C00028464FF4A0730097FCF702FE694B4FF09D
:1052D000FF314FF07F420193FA23204600934FF4B1
:1052E000D473FCF7F5FD644B6448D3F88C20644B11
:1052F0001A60FCF7B3FC13F03BFB624B1B682BB14D
:1053000013F0F0F913F02AFC13F04EFC30A805F06E
:1053100055FC00B3BDF8C220BDF8C010574816F0C8
:10532000B1FA3368CBB10020FDF728FA142020F041
:1053300015FCD8F8000029F023F9D9F8000029F06D
:105340001FF9DAF8000029F01BF9DBF8000029F05A
:1053500017F901F088B8049B1860142020F0FEFBB8
:10536000D4E70122484B4FF48060484C1A6029F082
:10537000FFF8474A474B484F1A60484A484B386045
:105380001A600722474B1A70002323603A4BDA6CED
:10539000454B12B940F6AC5201E040F67462DFF8BA
:1053A0003481DFF83491C2461A60FEF773F911F0C8
:1053B000A1FCD9F80430984700233C4ADFF81CB11F
:1053C00013603B4D3B4A3C4EDBF800001360C8F8CD
:1053D00000302B60336016F05DF9384B01201B491B
:1053E0000193142300937823DBF800200968FCF76D
:1053F0006FFD4FF4167020F0B1FB30A808F012FAE0
:105400002F4930A808F042F930A808F0A5F805F0B7
:10541000AEFB0028FBD14FF0000B30A807F0FAFFDD
:1054200010B1322020F09AFB3368012B05D105F032
:105430009EFB0028FBD1386889E7DAF80030012BA1
:105440004ED105F094FB0028FBD1B2E79CF102207D
:1054500028B7022038B7022000AE0320F421060846
:1054600023220608A0F202202B2206083422060876
:105470003B2206084222060854AE0320741C06088C
:1054800014B702200CB70220446804202CB7022075
:1054900060823B0018B70220A4F20220E0673500CA
:1054A00050B7022010B702202C6804204CB702200D
:1054B00048B70220746704204C6804204C22060878
:1054C0005A25060824B70220E8B6022008B70220B1
:1054D000F4B60220486804203068042010D9022065
:1054E0002B68012B0DD12368012B0AD10BF1010B85
:1054F000BBF1130F05DD26F041FB01308BD04FF0DF
:10550000000B322020F02AFB87E7894A0023894CD0
:105510001178236009B90C211170874A874D1360F7
:10552000874A884E137011F0E5FB286816F0B2F830
:10553000854B012001930A23009396232A68316842
:10554000FCF7C6FC814B01200193B4230093002398
:105550002A683168FCF7BCFC4FF47A7020F0FEFA40
:1055600005F005FB0028FBD1794B4FF47A7203203C
:10557000DB68B3FBF2F3774A13600AF011FE76485A
:1055800008F050F97549744808F080F8724807F03F
:10559000E3FF05F0ECFA0028FBD1714D654E704831
:1055A00005F00CFB10B32B88452B06D86B88E62B37
:1055B00003D91BF079FF00F056BF236813B9664882
:1055C00007F028FF2368032B10D16348002708F059
:1055D00029F96249604808F059F85F4807F0BCFFB4
:1055E0005D48376007F016FF00B13760052020F0F6
:1055F000B5FAD4E707F002F900F035BF06F01AF962
:1056000000F031BF06F0A4FD0FF01AFC00F02BBF34
:1056100005F0ADFA0028FBD1524B534C18704FF0F7
:105620007F401EF0C5FC514808F0FCF850494F4837
:1056300008F02CF84D4807F08FFF11F0A3FB11F094
:1056400005FA002020F08AFA484807F0E3FE98B1F6
:10565000002020F083FA4FF07F401EF0A9FC434861
:1056600007F07AFF238823B100223F4B1A8000F015
:10567000FABE322020F072FA002020F06FFADEE746
:1056800005F0C8FA00F0EFBE00263A4BDFF81481AF
:105690004FF4D2601E600127C8F8006028F068FF50
:1056A000354B364C18604FF4D26028F061FF344D12
:1056B000344B276018602F6016F0B6F8324B1E602E
:1056C00011F018FB1D4E306815F0E4FF2F4B1D49FB
:1056D0003846019364230093AA2332680968FCF7D3
:1056E000F7FB4FF47A7020F039FA05F040FA002801
:1056F000FBD1274B1860274B1B68002B01F00E8055
:10570000254B1B68022B41F00980114F234AD7F823
:10571000E4102348A1F5C333A03B934244D864224C
:10572000B1FBF2F302FB1313002B3DD101603DE00E
:105730004C830020AC8F0020908F002010D90220D5
:10574000D9CC02209CF102206522060872220608AC
:1057500054AE0320A08F002034860020DC200608F1
:10576000DBCC02205AB6022018B60220E8850020C1
:105770003818040830860020D4B60220C0B60220B3
:1057800000AE0320C8B60220CCB60220972206083D
:10579000ACB6022048BD0220D0F60220605AF405C3
:1057A000C082002000860020A74B03600368C7F872
:1057B000E430FDF7D3FE12F041FAD7F8E820A34B0E
:1057C00000201A70D7F89421A14B1A7012F06CFACD
:1057D00012F04EFE12F02AFE05F0C9F90028FBD0A7
:1057E00001229C4B30681A602368134413402B60DD
:1057F00015F050FF002012F057FA23682B600023A9
:10580000C8F80030944C002020F0A8F9934D2046B1
:1058100005F0D4F9002800F04B8120680B2227887E
:105820002690ADF898708E49269805F083F90828DF
:10583000286008DC1BF038FE05F099F90028FBD140
:10584000642020F08BF92A68DFF85C92082A854CE6
:10585000804E4ED1D4F80080B8F1000F30D1DFF87F
:105860004CA201277A4B804950461A7827602EF0C7
:1058700085F93C234FF07F424FF0FF2140468DE8F1
:105880000005FCF725FB12F0F3FD12F0F1FD774B5C
:105890001F602823ADF8A0300F23ADF8A23040F2EE
:1058A000CB132898ADF89C30E123ADF89E30704BB7
:1058B00027991A6815F04CFF384612F0F5F915E0F3
:1058C00000236C4A4FF0FF21236018460093019299
:1058D0004FF07F42FCF7FCFA12F0CAFD664B1B68E2
:1058E0000BB912F093FC0123634A13602368336001
:1058F000A2E0236833600A2A00F29E80DFE802F00B
:10590000061524415B5B5E8A9C0A10000123C9F8DE
:10591000003091E0002B40F08F804FF0FF3089E0A5
:10592000002B40F08980012084E00BB1002323602C
:10593000524B4FF07F425249012001936423009360
:10594000B423FCF7C5FA18E04E4BD3ED007AF5EE20
:10595000407AF1EE10FA0BD017EE900AFAF706FF34
:10596000494B0022FAF756FFFBF72CFA474B186019
:10597000364A13780BB1013B13700122444B1A6075
:105980005AE0404BD3ED007AF5EE407AF1EE10FA92
:105990000BD017EE900AFAF7E9FE3B4B0022FAF71C
:1059A00039FFFBF70FFA394B1860284A1378132B8D
:1059B000E3D80133E0E704232B603DE0354B1B685F
:1059C00003B30BF075F80BF027F903780746CBB15A
:1059D0000BF0E8F8304B38469B6F13B10BF068FBC7
:1059E00001E00AF0A7FF2D4B4FF0FF312C4A0020B9
:1059F0000193F0230093A523FCF76AFA12F038FD17
:105A000012F014FD0122224B1A6012F031FD12F047
:105A10000DFD11E083B9322F05D9B7F5E27F28BF1C
:105A20004FF4C87700E033271E4B6FF032001B683D
:105A3000C01A384412F0C4FCD9F80030012B00F031
:105A4000D4823368236037E0809FD500BC82002079
:105A50008881002048860020508600203C86002057
:105A60008C190408ACB60220A5220608D8B602207C
:105A700010D90220B9220608CCB60220D32206088B
:105A80000000FFFFB0B6022000408F40C08200201F
:105A900030860020BCB6022054AE0320E322060864
:105AA000003C00FFB882002000860020EC8500202A
:105AB0009B4B18609B4B18602B68042B2CD19A4E83
:105AC0004FF47A7440A8994FD6F8E4303946B3FBC6
:105AD000F4F340F86C3D0AF0C1FBD8B1259B5C4360
